{
  "address": "0x12493A5209ec139Cf77CC6Bb7ACa5B28dB7CB8e0",
  "abi": [
    {
      "inputs": [
        {
          "internalType": "address",
          "name": "_wavax",
          "type": "address"
        }
      ],
      "stateMutability": "nonpayable",
      "type": "constructor"
    },
    {
      "inputs": [],
      "name": "JoepegAuctionHouse__AuctionAlreadyExists",
      "type": "error"
    },
    {
      "inputs": [],
      "name": "JoepegAuctionHouse__CurrencyMismatch",
      "type": "error"
    },
    {
      "inputs": [],
      "name": "JoepegAuctionHouse__DutchAuctionCannotSettleUnstartedAuction",
      "type": "error"
    },
    {
      "inputs": [],
      "name": "JoepegAuctionHouse__DutchAuctionCreatorCannotSettle",
      "type": "error"
    },
    {
      "inputs": [],
      "name": "JoepegAuctionHouse__DutchAuctionInvalidStartEndPrice",
      "type": "error"
    },
    {
      "inputs": [],
      "name": "JoepegAuctionHouse__EnglishAuctionCannotBidOnEndedAuction",
      "type": "error"
    },
    {
      "inputs": [],
      "name": "JoepegAuctionHouse__EnglishAuctionCannotBidOnUnstartedAuction",
      "type": "error"
    },
    {
      "inputs": [],
      "name": "JoepegAuctionHouse__EnglishAuctionCannotCancelWithExistingBid",
      "type": "error"
    },
    {
      "inputs": [],
      "name": "JoepegAuctionHouse__EnglishAuctionCannotSettleUnstartedAuction",
      "type": "error"
    },
    {
      "inputs": [],
      "name": "JoepegAuctionHouse__EnglishAuctionCannotSettleWithoutBid",
      "type": "error"
    },
    {
      "inputs": [],
      "name": "JoepegAuctionHouse__EnglishAuctionCreatorCannotPlaceBid",
      "type": "error"
    },
    {
      "inputs": [],
      "name": "JoepegAuctionHouse__EnglishAuctionInsufficientBidAmount",
      "type": "error"
    },
    {
      "inputs": [],
      "name": "JoepegAuctionHouse__EnglishAuctionInvalidMinBidIncrementPct",
      "type": "error"
    },
    {
      "inputs": [],
      "name": "JoepegAuctionHouse__EnglishAuctionInvalidRefreshTime",
      "type": "error"
    },
    {
      "inputs": [],
      "name": "JoepegAuctionHouse__EnglishAuctionOnlyCreatorCanSettleBeforeEndTime",
      "type": "error"
    },
    {
      "inputs": [],
      "name": "JoepegAuctionHouse__ExpectedNonNullAddress",
      "type": "error"
    },
    {
      "inputs": [],
      "name": "JoepegAuctionHouse__FeesHigherThanExpected",
      "type": "error"
    },
    {
      "inputs": [],
      "name": "JoepegAuctionHouse__InvalidDropInterval",
      "type": "error"
    },
    {
      "inputs": [],
      "name": "JoepegAuctionHouse__InvalidDuration",
      "type": "error"
    },
    {
      "inputs": [],
      "name": "JoepegAuctionHouse__InvalidMinPercentageToAsk",
      "type": "error"
    },
    {
      "inputs": [],
      "name": "JoepegAuctionHouse__InvalidStartTime",
      "type": "error"
    },
    {
      "inputs": [],
      "name": "JoepegAuctionHouse__NoAuctionExists",
      "type": "error"
    },
    {
      "inputs": [],
      "name": "JoepegAuctionHouse__OnlyAuctionCreatorCanCancel",
      "type": "error"
    },
    {
      "inputs": [],
      "name": "JoepegAuctionHouse__UnsupportedCurrency",
      "type": "error"
    },
    {
      "inputs": [],
      "name": "PendingOwnableUpgradeable__AddressZero",
      "type": "error"
    },
    {
      "inputs": [],
      "name": "PendingOwnableUpgradeable__NoPendingOwner",
      "type": "error"
    },
    {
      "inputs": [],
      "name": "PendingOwnableUpgradeable__NotOwner",
      "type": "error"
    },
    {
      "inputs": [],
      "name": "PendingOwnableUpgradeable__NotPendingOwner",
      "type": "error"
    },
    {
      "inputs": [],
      "name": "PendingOwnableUpgradeable__PendingOwnerAlreadySet",
      "type": "error"
    },
    {
      "inputs": [],
      "name": "SafeAccessControlEnumerableUpgradeable__RoleIsDefaultAdmin",
      "type": "error"
    },
    {
      "inputs": [
        {
          "internalType": "bytes32",
          "name": "role",
          "type": "bytes32"
        },
        {
          "internalType": "address",
          "name": "sender",
          "type": "address"
        }
      ],
      "name": "SafeAccessControlEnumerableUpgradeable__SenderMissingRoleAndIsNotOwner",
      "type": "error"
    },
    {
      "inputs": [],
      "name": "SafePausableUpgradeable__AlreadyPaused",
      "type": "error"
    },
    {
      "inputs": [],
      "name": "SafePausableUpgradeable__AlreadyUnpaused",
      "type": "error"
    },
    {
      "anonymous": false,
      "inputs": [
        {
          "indexed": true,
          "internalType": "address",
          "name": "oldCurrencyManager",
          "type": "address"
        },
        {
          "indexed": true,
          "internalType": "address",
          "name": "newCurrencyManager",
          "type": "address"
        }
      ],
      "name": "CurrencyManagerSet",
      "type": "event"
    },
    {
      "anonymous": false,
      "inputs": [
        {
          "indexed": true,
          "internalType": "address",
          "name": "caller",
          "type": "address"
        },
        {
          "indexed": false,
          "internalType": "address",
          "name": "creator",
          "type": "address"
        },
        {
          "indexed": true,
          "internalType": "address",
          "name": "collection",
          "type": "address"
        },
        {
          "indexed": true,
          "internalType": "uint256",
          "name": "tokenId",
          "type": "uint256"
        },
        {
          "indexed": false,
          "internalType": "uint256",
          "name": "nonce",
          "type": "uint256"
        }
      ],
      "name": "DutchAuctionCancel",
      "type": "event"
    },
    {
      "anonymous": false,
      "inputs": [
        {
          "indexed": true,
          "internalType": "address",
          "name": "creator",
          "type": "address"
        },
        {
          "indexed": false,
          "internalType": "address",
          "name": "buyer",
          "type": "address"
        },
        {
          "indexed": false,
          "internalType": "address",
          "name": "currency",
          "type": "address"
        },
        {
          "indexed": true,
          "internalType": "address",
          "name": "collection",
          "type": "address"
        },
        {
          "indexed": true,
          "internalType": "uint256",
          "name": "tokenId",
          "type": "uint256"
        },
        {
          "indexed": false,
          "internalType": "uint256",
          "name": "nonce",
          "type": "uint256"
        },
        {
          "indexed": false,
          "internalType": "uint256",
          "name": "price",
          "type": "uint256"
        }
      ],
      "name": "DutchAuctionSettle",
      "type": "event"
    },
    {
      "anonymous": false,
      "inputs": [
        {
          "indexed": true,
          "internalType": "address",
          "name": "creator",
          "type": "address"
        },
        {
          "indexed": false,
          "internalType": "address",
          "name": "currency",
          "type": "address"
        },
        {
          "indexed": true,
          "internalType": "address",
          "name": "collection",
          "type": "address"
        },
        {
          "indexed": true,
          "internalType": "uint256",
          "name": "tokenId",
          "type": "uint256"
        },
        {
          "indexed": false,
          "internalType": "uint256",
          "name": "nonce",
          "type": "uint256"
        },
        {
          "indexed": false,
          "internalType": "uint256",
          "name": "startPrice",
          "type": "uint256"
        },
        {
          "indexed": false,
          "internalType": "uint256",
          "name": "endPrice",
          "type": "uint256"
        },
        {
          "indexed": false,
          "internalType": "uint96",
          "name": "startTime",
          "type": "uint96"
        },
        {
          "indexed": false,
          "internalType": "uint96",
          "name": "endTime",
          "type": "uint96"
        },
        {
          "indexed": false,
          "internalType": "uint256",
          "name": "dropInterval",
          "type": "uint256"
        },
        {
          "indexed": false,
          "internalType": "uint256",
          "name": "minPercentageToAsk",
          "type": "uint256"
        }
      ],
      "name": "DutchAuctionStart",
      "type": "event"
    },
    {
      "anonymous": false,
      "inputs": [
        {
          "indexed": true,
          "internalType": "address",
          "name": "caller",
          "type": "address"
        },
        {
          "indexed": false,
          "internalType": "address",
          "name": "creator",
          "type": "address"
        },
        {
          "indexed": true,
          "internalType": "address",
          "name": "collection",
          "type": "address"
        },
        {
          "indexed": true,
          "internalType": "uint256",
          "name": "tokenId",
          "type": "uint256"
        },
        {
          "indexed": false,
          "internalType": "uint256",
          "name": "nonce",
          "type": "uint256"
        }
      ],
      "name": "EnglishAuctionCancel",
      "type": "event"
    },
    {
      "anonymous": false,
      "inputs": [
        {
          "indexed": true,
          "internalType": "uint256",
          "name": "oldEnglishAuctionMinBidIncrementPct",
          "type": "uint256"
        },
        {
          "indexed": true,
          "internalType": "uint256",
          "name": "newEnglishAuctionMinBidIncrementPct",
          "type": "uint256"
        }
      ],
      "name": "EnglishAuctionMinBidIncrementPctSet",
      "type": "event"
    },
    {
      "anonymous": false,
      "inputs": [
        {
          "indexed": true,
          "internalType": "address",
          "name": "creator",
          "type": "address"
        },
        {
          "indexed": false,
          "internalType": "address",
          "name": "bidder",
          "type": "address"
        },
        {
          "indexed": false,
          "internalType": "address",
          "name": "currency",
          "type": "address"
        },
        {
          "indexed": true,
          "internalType": "address",
          "name": "collection",
          "type": "address"
        },
        {
          "indexed": true,
          "internalType": "uint256",
          "name": "tokenId",
          "type": "uint256"
        },
        {
          "indexed": false,
          "internalType": "uint256",
          "name": "nonce",
          "type": "uint256"
        },
        {
          "indexed": false,
          "internalType": "uint256",
          "name": "bidAmount",
          "type": "uint256"
        },
        {
          "indexed": false,
          "internalType": "uint96",
          "name": "endTimeExtension",
          "type": "uint96"
        }
      ],
      "name": "EnglishAuctionPlaceBid",
      "type": "event"
    },
    {
      "anonymous": false,
      "inputs": [
        {
          "indexed": true,
          "internalType": "uint96",
          "name": "oldEnglishAuctionRefreshTime",
          "type": "uint96"
        },
        {
          "indexed": true,
          "internalType": "uint96",
          "name": "newEnglishAuctionRefreshTime",
          "type": "uint96"
        }
      ],
      "name": "EnglishAuctionRefreshTimeSet",
      "type": "event"
    },
    {
      "anonymous": false,
      "inputs": [
        {
          "indexed": true,
          "internalType": "address",
          "name": "creator",
          "type": "address"
        },
        {
          "indexed": false,
          "internalType": "address",
          "name": "buyer",
          "type": "address"
        },
        {
          "indexed": false,
          "internalType": "address",
          "name": "currency",
          "type": "address"
        },
        {
          "indexed": true,
          "internalType": "address",
          "name": "collection",
          "type": "address"
        },
        {
          "indexed": true,
          "internalType": "uint256",
          "name": "tokenId",
          "type": "uint256"
        },
        {
          "indexed": false,
          "internalType": "uint256",
          "name": "nonce",
          "type": "uint256"
        },
        {
          "indexed": false,
          "internalType": "uint256",
          "name": "price",
          "type": "uint256"
        }
      ],
      "name": "EnglishAuctionSettle",
      "type": "event"
    },
    {
      "anonymous": false,
      "inputs": [
        {
          "indexed": true,
          "internalType": "address",
          "name": "creator",
          "type": "address"
        },
        {
          "indexed": false,
          "internalType": "address",
          "name": "currency",
          "type": "address"
        },
        {
          "indexed": true,
          "internalType": "address",
          "name": "collection",
          "type": "address"
        },
        {
          "indexed": true,
          "internalType": "uint256",
          "name": "tokenId",
          "type": "uint256"
        },
        {
          "indexed": false,
          "internalType": "uint256",
          "name": "nonce",
          "type": "uint256"
        },
        {
          "indexed": false,
          "internalType": "uint256",
          "name": "startPrice",
          "type": "uint256"
        },
        {
          "indexed": false,
          "internalType": "uint96",
          "name": "startTime",
          "type": "uint96"
        },
        {
          "indexed": false,
          "internalType": "uint96",
          "name": "endTime",
          "type": "uint96"
        },
        {
          "indexed": false,
          "internalType": "uint256",
          "name": "minPercentageToAsk",
          "type": "uint256"
        }
      ],
      "name": "EnglishAuctionStart",
      "type": "event"
    },
    {
      "anonymous": false,
      "inputs": [
        {
          "indexed": true,
          "internalType": "address",
          "name": "previousOwner",
          "type": "address"
        },
        {
          "indexed": true,
          "internalType": "address",
          "name": "newOwner",
          "type": "address"
        }
      ],
      "name": "OwnershipTransferred",
      "type": "event"
    },
    {
      "anonymous": false,
      "inputs": [
        {
          "indexed": false,
          "internalType": "address",
          "name": "account",
          "type": "address"
        }
      ],
      "name": "Paused",
      "type": "event"
    },
    {
      "anonymous": false,
      "inputs": [
        {
          "indexed": true,
          "internalType": "address",
          "name": "pendingOwner",
          "type": "address"
        }
      ],
      "name": "PendingOwnerSet",
      "type": "event"
    },
    {
      "anonymous": false,
      "inputs": [
        {
          "indexed": true,
          "internalType": "address",
          "name": "oldProtocolFeeManager",
          "type": "address"
        },
        {
          "indexed": true,
          "internalType": "address",
          "name": "newProtocolFeeManager",
          "type": "address"
        }
      ],
      "name": "ProtocolFeeManagerSet",
      "type": "event"
    },
    {
      "anonymous": false,
      "inputs": [
        {
          "indexed": true,
          "internalType": "address",
          "name": "oldProtocolFeeRecipient",
          "type": "address"
        },
        {
          "indexed": true,
          "internalType": "address",
          "name": "newProtocolFeeRecipient",
          "type": "address"
        }
      ],
      "name": "ProtocolFeeRecipientSet",
      "type": "event"
    },
    {
      "anonymous": false,
      "inputs": [
        {
          "indexed": true,
          "internalType": "bytes32",
          "name": "role",
          "type": "bytes32"
        },
        {
          "indexed": true,
          "internalType": "bytes32",
          "name": "previousAdminRole",
          "type": "bytes32"
        },
        {
          "indexed": true,
          "internalType": "bytes32",
          "name": "newAdminRole",
          "type": "bytes32"
        }
      ],
      "name": "RoleAdminChanged",
      "type": "event"
    },
    {
      "anonymous": false,
      "inputs": [
        {
          "indexed": true,
          "internalType": "bytes32",
          "name": "role",
          "type": "bytes32"
        },
        {
          "indexed": true,
          "internalType": "address",
          "name": "account",
          "type": "address"
        },
        {
          "indexed": true,
          "internalType": "address",
          "name": "sender",
          "type": "address"
        }
      ],
      "name": "RoleGranted",
      "type": "event"
    },
    {
      "anonymous": false,
      "inputs": [
        {
          "indexed": true,
          "internalType": "bytes32",
          "name": "role",
          "type": "bytes32"
        },
        {
          "indexed": true,
          "internalType": "address",
          "name": "account",
          "type": "address"
        },
        {
          "indexed": true,
          "internalType": "address",
          "name": "sender",
          "type": "address"
        }
      ],
      "name": "RoleRevoked",
      "type": "event"
    },
    {
      "anonymous": false,
      "inputs": [
        {
          "indexed": true,
          "internalType": "address",
          "name": "oldRoyaltyFeeManager",
          "type": "address"
        },
        {
          "indexed": true,
          "internalType": "address",
          "name": "newRoyaltyFeeManager",
          "type": "address"
        }
      ],
      "name": "RoyaltyFeeManagerSet",
      "type": "event"
    },
    {
      "anonymous": false,
      "inputs": [
        {
          "indexed": true,
          "internalType": "address",
          "name": "collection",
          "type": "address"
        },
        {
          "indexed": true,
          "internalType": "uint256",
          "name": "tokenId",
          "type": "uint256"
        },
        {
          "indexed": true,
          "internalType": "address",
          "name": "royaltyRecipient",
          "type": "address"
        },
        {
          "indexed": false,
          "internalType": "address",
          "name": "currency",
          "type": "address"
        },
        {
          "indexed": false,
          "internalType": "uint256",
          "name": "amount",
          "type": "uint256"
        }
      ],
      "name": "RoyaltyPayment",
      "type": "event"
    },
    {
      "anonymous": false,
      "inputs": [
        {
          "indexed": false,
          "internalType": "address",
          "name": "account",
          "type": "address"
        }
      ],
      "name": "Unpaused",
      "type": "event"
    },
    {
      "inputs": [],
      "name": "DEFAULT_ADMIN_ROLE",
      "outputs": [
        {
          "internalType": "bytes32",
          "name": "",
          "type": "bytes32"
        }
      ],
      "stateMutability": "view",
      "type": "function"
    },
    {
      "inputs": [],
      "name": "PAUSER_ADMIN_ROLE",
      "outputs": [
        {
          "internalType": "bytes32",
          "name": "",
          "type": "bytes32"
        }
      ],
      "stateMutability": "view",
      "type": "function"
    },
    {
      "inputs": [],
      "name": "PAUSER_ROLE",
      "outputs": [
        {
          "internalType": "bytes32",
          "name": "",
          "type": "bytes32"
        }
      ],
      "stateMutability": "view",
      "type": "function"
    },
    {
      "inputs": [],
      "name": "PERCENTAGE_PRECISION",
      "outputs": [
        {
          "internalType": "uint256",
          "name": "",
          "type": "uint256"
        }
      ],
      "stateMutability": "view",
      "type": "function"
    },
    {
      "inputs": [],
      "name": "UNPAUSER_ADMIN_ROLE",
      "outputs": [
        {
          "internalType": "bytes32",
          "name": "",
          "type": "bytes32"
        }
      ],
      "stateMutability": "view",
      "type": "function"
    },
    {
      "inputs": [],
      "name": "UNPAUSER_ROLE",
      "outputs": [
        {
          "internalType": "bytes32",
          "name": "",
          "type": "bytes32"
        }
      ],
      "stateMutability": "view",
      "type": "function"
    },
    {
      "inputs": [],
      "name": "WAVAX",
      "outputs": [
        {
          "internalType": "address",
          "name": "",
          "type": "address"
        }
      ],
      "stateMutability": "view",
      "type": "function"
    },
    {
      "inputs": [],
      "name": "becomeOwner",
      "outputs": [],
      "stateMutability": "nonpayable",
      "type": "function"
    },
    {
      "inputs": [
        {
          "internalType": "contract IERC721",
          "name": "_collection",
          "type": "address"
        },
        {
          "internalType": "uint256",
          "name": "_tokenId",
          "type": "uint256"
        }
      ],
      "name": "cancelDutchAuction",
      "outputs": [],
      "stateMutability": "nonpayable",
      "type": "function"
    },
    {
      "inputs": [
        {
          "internalType": "contract IERC721",
          "name": "_collection",
          "type": "address"
        },
        {
          "internalType": "uint256",
          "name": "_tokenId",
          "type": "uint256"
        }
      ],
      "name": "cancelEnglishAuction",
      "outputs": [],
      "stateMutability": "nonpayable",
      "type": "function"
    },
    {
      "inputs": [],
      "name": "currencyManager",
      "outputs": [
        {
          "internalType": "contract ICurrencyManager",
          "name": "",
          "type": "address"
        }
      ],
      "stateMutability": "view",
      "type": "function"
    },
    {
      "inputs": [
        {
          "internalType": "address",
          "name": "",
          "type": "address"
        },
        {
          "internalType": "uint256",
          "name": "",
          "type": "uint256"
        }
      ],
      "name": "dutchAuctions",
      "outputs": [
        {
          "internalType": "address",
          "name": "creator",
          "type": "address"
        },
        {
          "internalType": "uint96",
          "name": "startTime",
          "type": "uint96"
        },
        {
          "internalType": "address",
          "name": "currency",
          "type": "address"
        },
        {
          "internalType": "uint96",
          "name": "endTime",
          "type": "uint96"
        },
        {
          "internalType": "uint256",
          "name": "nonce",
          "type": "uint256"
        },
        {
          "internalType": "uint256",
          "name": "startPrice",
          "type": "uint256"
        },
        {
          "internalType": "uint256",
          "name": "endPrice",
          "type": "uint256"
        },
        {
          "internalType": "uint256",
          "name": "dropInterval",
          "type": "uint256"
        },
        {
          "internalType": "uint256",
          "name": "minPercentageToAsk",
          "type": "uint256"
        }
      ],
      "stateMutability": "view",
      "type": "function"
    },
    {
      "inputs": [
        {
          "internalType": "contract IERC721",
          "name": "_collection",
          "type": "address"
        },
        {
          "internalType": "uint256",
          "name": "_tokenId",
          "type": "uint256"
        }
      ],
      "name": "emergencyCancelDutchAuction",
      "outputs": [],
      "stateMutability": "nonpayable",
      "type": "function"
    },
    {
      "inputs": [
        {
          "internalType": "contract IERC721",
          "name": "_collection",
          "type": "address"
        },
        {
          "internalType": "uint256",
          "name": "_tokenId",
          "type": "uint256"
        }
      ],
      "name": "emergencyCancelEnglishAuction",
      "outputs": [],
      "stateMutability": "nonpayable",
      "type": "function"
    },
    {
      "inputs": [],
      "name": "englishAuctionMinBidIncrementPct",
      "outputs": [
        {
          "internalType": "uint256",
          "name": "",
          "type": "uint256"
        }
      ],
      "stateMutability": "view",
      "type": "function"
    },
    {
      "inputs": [],
      "name": "englishAuctionRefreshTime",
      "outputs": [
        {
          "internalType": "uint96",
          "name": "",
          "type": "uint96"
        }
      ],
      "stateMutability": "view",
      "type": "function"
    },
    {
      "inputs": [
        {
          "internalType": "address",
          "name": "",
          "type": "address"
        },
        {
          "internalType": "uint256",
          "name": "",
          "type": "uint256"
        }
      ],
      "name": "englishAuctions",
      "outputs": [
        {
          "internalType": "address",
          "name": "creator",
          "type": "address"
        },
        {
          "internalType": "address",
          "name": "currency",
          "type": "address"
        },
        {
          "internalType": "uint96",
          "name": "startTime",
          "type": "uint96"
        },
        {
          "internalType": "address",
          "name": "lastBidder",
          "type": "address"
        },
        {
          "internalType": "uint96",
          "name": "endTime",
          "type": "uint96"
        },
        {
          "internalType": "uint256",
          "name": "nonce",
          "type": "uint256"
        },
        {
          "internalType": "uint256",
          "name": "lastBidPrice",
          "type": "uint256"
        },
        {
          "internalType": "uint256",
          "name": "startPrice",
          "type": "uint256"
        },
        {
          "internalType": "uint256",
          "name": "minPercentageToAsk",
          "type": "uint256"
        }
      ],
      "stateMutability": "view",
      "type": "function"
    },
    {
      "inputs": [
        {
          "internalType": "address",
          "name": "_collection",
          "type": "address"
        },
        {
          "internalType": "uint256",
          "name": "_tokenId",
          "type": "uint256"
        }
      ],
      "name": "getDutchAuctionSalePrice",
      "outputs": [
        {
          "internalType": "uint256",
          "name": "",
          "type": "uint256"
        }
      ],
      "stateMutability": "view",
      "type": "function"
    },
    {
      "inputs": [
        {
          "internalType": "bytes32",
          "name": "role",
          "type": "bytes32"
        }
      ],
      "name": "getRoleAdmin",
      "outputs": [
        {
          "internalType": "bytes32",
          "name": "",
          "type": "bytes32"
        }
      ],
      "stateMutability": "view",
      "type": "function"
    },
    {
      "inputs": [
        {
          "internalType": "bytes32",
          "name": "role",
          "type": "bytes32"
        },
        {
          "internalType": "uint256",
          "name": "index",
          "type": "uint256"
        }
      ],
      "name": "getRoleMember",
      "outputs": [
        {
          "internalType": "address",
          "name": "",
          "type": "address"
        }
      ],
      "stateMutability": "view",
      "type": "function"
    },
    {
      "inputs": [
        {
          "internalType": "bytes32",
          "name": "role",
          "type": "bytes32"
        }
      ],
      "name": "getRoleMemberCount",
      "outputs": [
        {
          "internalType": "uint256",
          "name": "",
          "type": "uint256"
        }
      ],
      "stateMutability": "view",
      "type": "function"
    },
    {
      "inputs": [
        {
          "internalType": "bytes32",
          "name": "role",
          "type": "bytes32"
        },
        {
          "internalType": "address",
          "name": "account",
          "type": "address"
        }
      ],
      "name": "grantRole",
      "outputs": [],
      "stateMutability": "nonpayable",
      "type": "function"
    },
    {
      "inputs": [
        {
          "internalType": "bytes32",
          "name": "role",
          "type": "bytes32"
        },
        {
          "internalType": "address",
          "name": "account",
          "type": "address"
        }
      ],
      "name": "hasRole",
      "outputs": [
        {
          "internalType": "bool",
          "name": "",
          "type": "bool"
        }
      ],
      "stateMutability": "view",
      "type": "function"
    },
    {
      "inputs": [
        {
          "internalType": "uint256",
          "name": "_englishAuctionMinBidIncrementPct",
          "type": "uint256"
        },
        {
          "internalType": "uint96",
          "name": "_englishAuctionRefreshTime",
          "type": "uint96"
        },
        {
          "internalType": "address",
          "name": "_currencyManager",
          "type": "address"
        },
        {
          "internalType": "address",
          "name": "_protocolFeeManager",
          "type": "address"
        },
        {
          "internalType": "address",
          "name": "_royaltyFeeManager",
          "type": "address"
        },
        {
          "internalType": "address",
          "name": "_protocolFeeRecipient",
          "type": "address"
        }
      ],
      "name": "initialize",
      "outputs": [],
      "stateMutability": "nonpayable",
      "type": "function"
    },
    {
      "inputs": [
        {
          "internalType": "address",
          "name": "",
          "type": "address"
        },
        {
          "internalType": "address",
          "name": "",
          "type": "address"
        },
        {
          "internalType": "uint256",
          "name": "",
          "type": "uint256"
        },
        {
          "internalType": "bytes",
          "name": "",
          "type": "bytes"
        }
      ],
      "name": "onERC721Received",
      "outputs": [
        {
          "internalType": "bytes4",
          "name": "",
          "type": "bytes4"
        }
      ],
      "stateMutability": "pure",
      "type": "function"
    },
    {
      "inputs": [],
      "name": "owner",
      "outputs": [
        {
          "internalType": "address",
          "name": "",
          "type": "address"
        }
      ],
      "stateMutability": "view",
      "type": "function"
    },
    {
      "inputs": [],
      "name": "pause",
      "outputs": [],
      "stateMutability": "nonpayable",
      "type": "function"
    },
    {
      "inputs": [],
      "name": "paused",
      "outputs": [
        {
          "internalType": "bool",
          "name": "",
          "type": "bool"
        }
      ],
      "stateMutability": "view",
      "type": "function"
    },
    {
      "inputs": [],
      "name": "pendingOwner",
      "outputs": [
        {
          "internalType": "address",
          "name": "",
          "type": "address"
        }
      ],
      "stateMutability": "view",
      "type": "function"
    },
    {
      "inputs": [
        {
          "internalType": "contract IERC721",
          "name": "_collection",
          "type": "address"
        },
        {
          "internalType": "uint256",
          "name": "_tokenId",
          "type": "uint256"
        },
        {
          "internalType": "uint256",
          "name": "_amount",
          "type": "uint256"
        }
      ],
      "name": "placeEnglishAuctionBid",
      "outputs": [],
      "stateMutability": "nonpayable",
      "type": "function"
    },
    {
      "inputs": [
        {
          "internalType": "contract IERC721",
          "name": "_collection",
          "type": "address"
        },
        {
          "internalType": "uint256",
          "name": "_tokenId",
          "type": "uint256"
        },
        {
          "internalType": "uint256",
          "name": "_wavaxAmount",
          "type": "uint256"
        }
      ],
      "name": "placeEnglishAuctionBidWithAVAXAndWAVAX",
      "outputs": [],
      "stateMutability": "payable",
      "type": "function"
    },
    {
      "inputs": [],
      "name": "protocolFeeManager",
      "outputs": [
        {
          "internalType": "contract IProtocolFeeManager",
          "name": "",
          "type": "address"
        }
      ],
      "stateMutability": "view",
      "type": "function"
    },
    {
      "inputs": [],
      "name": "protocolFeeRecipient",
      "outputs": [
        {
          "internalType": "address",
          "name": "",
          "type": "address"
        }
      ],
      "stateMutability": "view",
      "type": "function"
    },
    {
      "inputs": [],
      "name": "renounceOwnership",
      "outputs": [],
      "stateMutability": "nonpayable",
      "type": "function"
    },
    {
      "inputs": [
        {
          "internalType": "bytes32",
          "name": "role",
          "type": "bytes32"
        },
        {
          "internalType": "address",
          "name": "account",
          "type": "address"
        }
      ],
      "name": "renounceRole",
      "outputs": [],
      "stateMutability": "nonpayable",
      "type": "function"
    },
    {
      "inputs": [],
      "name": "revokePendingOwner",
      "outputs": [],
      "stateMutability": "nonpayable",
      "type": "function"
    },
    {
      "inputs": [
        {
          "internalType": "bytes32",
          "name": "role",
          "type": "bytes32"
        },
        {
          "internalType": "address",
          "name": "account",
          "type": "address"
        }
      ],
      "name": "revokeRole",
      "outputs": [],
      "stateMutability": "nonpayable",
      "type": "function"
    },
    {
      "inputs": [],
      "name": "royaltyFeeManager",
      "outputs": [
        {
          "internalType": "contract IRoyaltyFeeManager",
          "name": "",
          "type": "address"
        }
      ],
      "stateMutability": "view",
      "type": "function"
    },
    {
      "inputs": [
        {
          "internalType": "contract IERC721",
          "name": "_collection",
          "type": "address"
        },
        {
          "internalType": "uint256",
          "name": "_tokenId",
          "type": "uint256"
        },
        {
          "internalType": "contract IERC20",
          "name": "_currency",
          "type": "address"
        },
        {
          "internalType": "uint96",
          "name": "_startTime",
          "type": "uint96"
        },
        {
          "internalType": "uint96",
          "name": "_duration",
          "type": "uint96"
        },
        {
          "internalType": "uint256",
          "name": "_dropInterval",
          "type": "uint256"
        },
        {
          "internalType": "uint256",
          "name": "_startPrice",
          "type": "uint256"
        },
        {
          "internalType": "uint256",
          "name": "_endPrice",
          "type": "uint256"
        },
        {
          "internalType": "uint256",
          "name": "_minPercentageToAsk",
          "type": "uint256"
        }
      ],
      "name": "scheduleDutchAuction",
      "outputs": [],
      "stateMutability": "nonpayable",
      "type": "function"
    },
    {
      "inputs": [
        {
          "internalType": "contract IERC721",
          "name": "_collection",
          "type": "address"
        },
        {
          "internalType": "uint256",
          "name": "_tokenId",
          "type": "uint256"
        },
        {
          "internalType": "contract IERC20",
          "name": "_currency",
          "type": "address"
        },
        {
          "internalType": "uint96",
          "name": "_startTime",
          "type": "uint96"
        },
        {
          "internalType": "uint96",
          "name": "_duration",
          "type": "uint96"
        },
        {
          "internalType": "uint256",
          "name": "_startPrice",
          "type": "uint256"
        },
        {
          "internalType": "uint256",
          "name": "_minPercentageToAsk",
          "type": "uint256"
        }
      ],
      "name": "scheduleEnglishAuction",
      "outputs": [],
      "stateMutability": "nonpayable",
      "type": "function"
    },
    {
      "inputs": [
        {
          "internalType": "address",
          "name": "pendingOwner_",
          "type": "address"
        }
      ],
      "name": "setPendingOwner",
      "outputs": [],
      "stateMutability": "nonpayable",
      "type": "function"
    },
    {
      "inputs": [
        {
          "internalType": "contract IERC721",
          "name": "_collection",
          "type": "address"
        },
        {
          "internalType": "uint256",
          "name": "_tokenId",
          "type": "uint256"
        }
      ],
      "name": "settleDutchAuction",
      "outputs": [],
      "stateMutability": "nonpayable",
      "type": "function"
    },
    {
      "inputs": [
        {
          "internalType": "contract IERC721",
          "name": "_collection",
          "type": "address"
        },
        {
          "internalType": "uint256",
          "name": "_tokenId",
          "type": "uint256"
        }
      ],
      "name": "settleDutchAuctionWithAVAXAndWAVAX",
      "outputs": [],
      "stateMutability": "payable",
      "type": "function"
    },
    {
      "inputs": [
        {
          "internalType": "contract IERC721",
          "name": "_collection",
          "type": "address"
        },
        {
          "internalType": "uint256",
          "name": "_tokenId",
          "type": "uint256"
        }
      ],
      "name": "settleEnglishAuction",
      "outputs": [],
      "stateMutability": "nonpayable",
      "type": "function"
    },
    {
      "inputs": [
        {
          "internalType": "contract IERC721",
          "name": "_collection",
          "type": "address"
        },
        {
          "internalType": "uint256",
          "name": "_tokenId",
          "type": "uint256"
        },
        {
          "internalType": "contract IERC20",
          "name": "_currency",
          "type": "address"
        },
        {
          "internalType": "uint96",
          "name": "_duration",
          "type": "uint96"
        },
        {
          "internalType": "uint256",
          "name": "_dropInterval",
          "type": "uint256"
        },
        {
          "internalType": "uint256",
          "name": "_startPrice",
          "type": "uint256"
        },
        {
          "internalType": "uint256",
          "name": "_endPrice",
          "type": "uint256"
        },
        {
          "internalType": "uint256",
          "name": "_minPercentageToAsk",
          "type": "uint256"
        }
      ],
      "name": "startDutchAuction",
      "outputs": [],
      "stateMutability": "nonpayable",
      "type": "function"
    },
    {
      "inputs": [
        {
          "internalType": "contract IERC721",
          "name": "_collection",
          "type": "address"
        },
        {
          "internalType": "uint256",
          "name": "_tokenId",
          "type": "uint256"
        },
        {
          "internalType": "contract IERC20",
          "name": "_currency",
          "type": "address"
        },
        {
          "internalType": "uint96",
          "name": "_duration",
          "type": "uint96"
        },
        {
          "internalType": "uint256",
          "name": "_startPrice",
          "type": "uint256"
        },
        {
          "internalType": "uint256",
          "name": "_minPercentageToAsk",
          "type": "uint256"
        }
      ],
      "name": "startEnglishAuction",
      "outputs": [],
      "stateMutability": "nonpayable",
      "type": "function"
    },
    {
      "inputs": [
        {
          "internalType": "bytes4",
          "name": "interfaceId",
          "type": "bytes4"
        }
      ],
      "name": "supportsInterface",
      "outputs": [
        {
          "internalType": "bool",
          "name": "",
          "type": "bool"
        }
      ],
      "stateMutability": "view",
      "type": "function"
    },
    {
      "inputs": [],
      "name": "unpause",
      "outputs": [],
      "stateMutability": "nonpayable",
      "type": "function"
    },
    {
      "inputs": [
        {
          "internalType": "address",
          "name": "_currencyManager",
          "type": "address"
        }
      ],
      "name": "updateCurrencyManager",
      "outputs": [],
      "stateMutability": "nonpayable",
      "type": "function"
    },
    {
      "inputs": [
        {
          "internalType": "uint256",
          "name": "_englishAuctionMinBidIncrementPct",
          "type": "uint256"
        }
      ],
      "name": "updateEnglishAuctionMinBidIncrementPct",
      "outputs": [],
      "stateMutability": "nonpayable",
      "type": "function"
    },
    {
      "inputs": [
        {
          "internalType": "uint96",
          "name": "_englishAuctionRefreshTime",
          "type": "uint96"
        }
      ],
      "name": "updateEnglishAuctionRefreshTime",
      "outputs": [],
      "stateMutability": "nonpayable",
      "type": "function"
    },
    {
      "inputs": [
        {
          "internalType": "address",
          "name": "_protocolFeeManager",
          "type": "address"
        }
      ],
      "name": "updateProtocolFeeManager",
      "outputs": [],
      "stateMutability": "nonpayable",
      "type": "function"
    },
    {
      "inputs": [
        {
          "internalType": "address",
          "name": "_protocolFeeRecipient",
          "type": "address"
        }
      ],
      "name": "updateProtocolFeeRecipient",
      "outputs": [],
      "stateMutability": "nonpayable",
      "type": "function"
    },
    {
      "inputs": [
        {
          "internalType": "address",
          "name": "_royaltyFeeManager",
          "type": "address"
        }
      ],
      "name": "updateRoyaltyFeeManager",
      "outputs": [],
      "stateMutability": "nonpayable",
      "type": "function"
    },
    {
      "inputs": [
        {
          "internalType": "address",
          "name": "",
          "type": "address"
        }
      ],
      "name": "userLatestAuctionNonce",
      "outputs": [
        {
          "internalType": "uint256",
          "name": "",
          "type": "uint256"
        }
      ],
      "stateMutability": "view",
      "type": "function"
    }
  ],
  "transactionHash": "0x8b14d79e098ceb19b5fe894805a831dd15db060646f30636888bd3a2e6cb4e2f",
  "args": [
    "0xbb4CdB9CBd36B01bD1cBaEBF2De08d9173bc095c"
  ],
  "numDeployments": 1,
  "solcInputHash": "e27c224c09507bb41163b96c985afc0d",
  "bytecode": "0x60a06040523480156200001157600080fd5b506040516200524538038062005245833981016040819052620000349162000046565b6001600160a01b031660805262000078565b6000602082840312156200005957600080fd5b81516001600160a01b03811681146200007157600080fd5b9392505050565b608051615172620000d3600039600081816108aa0152818161157801528181612340015281816123870152818161240d015281816131c40152818161320e0152818161323e015281816132d101526132ff01526151726000f3fe6080604052600436106103505760003560e01c806373c32597116101c6578063c42069ec116100f7578063e30c397811610095578063eeb360b71161006f578063eeb360b714610bbf578063f080e0bf14610bdf578063f9dca98914610bff578063fb1bb9de14610c1457600080fd5b8063e30c397814610b4d578063e63ab1e914610b6b578063ed66ec7d14610b9f57600080fd5b8063ca15c873116100d1578063ca15c87314610ad7578063d163a90614610af7578063d547741f14610b17578063e256888f14610b3757600080fd5b8063c42069ec14610a84578063c549876914610aa4578063c70f852d14610ac457600080fd5b806391d1485411610164578063a217fddf1161013e578063a217fddf14610a0e578063a70dbaeb14610a23578063ad354df814610a44578063ba03850514610a6457600080fd5b806391d14854146109ae578063955b2538146109ce578063a1fd34e0146109ee57600080fd5b806387e4401f116101a057806387e4401f1461092f5780638da5cb5b146109505780639010d07c1461096e57806390bdc0871461098e57600080fd5b806373c32597146108cc5780638456cb59146108ec578063874b5d0d1461090157600080fd5b80633f4ba83a116102a057806367ab8a4e1161023e57806370a952501161021857806370a9525014610768578063715018a61461079c57806373918a1c146107b157806373b295c21461089857600080fd5b806367ab8a4e146106fa5780636e41d47d1461070f5780636fc4cde11461072f57600080fd5b80635ce052d71161027a5780635ce052d7146106865780635d28be2e146106a657806364df049e146106b957806367a54889146106da57600080fd5b80633f4ba83a14610639578063516971a81461064e5780635c975abb1461066e57600080fd5b8063150b7a021161030d57806325a00473116102e757806325a00473146105a557806327370809146105d95780632f2ff15d146105f957806336568abe1461061957600080fd5b8063150b7a02146105105780631df47f8014610555578063248a9ca31461057557600080fd5b806301ffc9a7146103555780630d299e6f1461038a5780630f747d74146103ac5780631082eea2146103e5578063127d71f7146104cb57806312e64f03146104eb575b600080fd5b34801561036157600080fd5b50610375610370366004614912565b610c48565b60405190151581526020015b60405180910390f35b34801561039657600080fd5b506103aa6103a536600461496d565b610c73565b005b3480156103b857600080fd5b5061012f546103cd906001600160a01b031681565b6040516001600160a01b039091168152602001610381565b3480156103f157600080fd5b5061046d6104003660046149f4565b61013460209081526000928352604080842090915290825290208054600182015460028301546003840154600485015460058601546006909601546001600160a01b03808716976001600160601b03600160a01b9889900481169892881697929092049091169493929189565b604080516001600160a01b039a8b1681526001600160601b03998a1660208201529990971696890196909652959093166060870152608086019190915260a085015260c084015260e083019190915261010082015261012001610381565b3480156104d757600080fd5b506103aa6104e6366004614a20565b610dce565b3480156104f757600080fd5b506105026101365481565b604051908152602001610381565b34801561051c57600080fd5b5061053c61052b366004614a3d565b630a85bd0160e11b95945050505050565b6040516001600160e01b03199091168152602001610381565b34801561056157600080fd5b506103aa610570366004614a20565b610e05565b34801561058157600080fd5b50610502610590366004614adc565b60009081526067602052604090206001015490565b3480156105b157600080fd5b506105027fe0e65c783ac33ff1c5ccf4399c9185066773921d6f8d050bf80781603021f09781565b3480156105e557600080fd5b506103aa6105f43660046149f4565b610e39565b34801561060557600080fd5b506103aa610614366004614af5565b61109a565b34801561062557600080fd5b506103aa610634366004614af5565b611124565b34801561064557600080fd5b506103aa611152565b34801561065a57600080fd5b506103aa6106693660046149f4565b6111ff565b34801561067a57600080fd5b5060cb5460ff16610375565b34801561069257600080fd5b506103aa6106a1366004614a20565b61145a565b6103aa6106b43660046149f4565b61148e565b3480156106c557600080fd5b50610132546103cd906001600160a01b031681565b3480156106e657600080fd5b506103aa6106f5366004614b25565b6115cd565b34801561070657600080fd5b506103aa6116d2565b34801561071b57600080fd5b506103aa61072a3660046149f4565b611732565b34801561073b57600080fd5b5061013754610750906001600160601b031681565b6040516001600160601b039091168152602001610381565b34801561077457600080fd5b506105027fe516f7ac9747f401e208331379a0bafe3c9c4dbb6501fd23bcef278f7ebaf4e581565b3480156107a857600080fd5b506103aa611a37565b3480156107bd57600080fd5b5061083a6107cc3660046149f4565b61013560209081526000928352604080842090915290825290208054600182015460028301546003840154600485015460058601546006909601546001600160a01b0395861696858716966001600160601b03600160a01b9788900481169791871696919091041693929189565b604080516001600160a01b039a8b168152988a1660208a01526001600160601b039788169089015297909416606087015293909116608085015260a084015260c083019190915260e082015261010081019190915261012001610381565b3480156108a457600080fd5b506103cd7f000000000000000000000000000000000000000000000000000000000000000081565b3480156108d857600080fd5b506103aa6108e7366004614b9c565b611a6c565b3480156108f857600080fd5b506103aa611b99565b34801561090d57600080fd5b5061050261091c366004614a20565b6101336020526000908152604090205481565b34801561093b57600080fd5b50610131546103cd906001600160a01b031681565b34801561095c57600080fd5b506065546001600160a01b03166103cd565b34801561097a57600080fd5b506103cd610989366004614c11565b611c47565b34801561099a57600080fd5b506103aa6109a9366004614adc565b611c66565b3480156109ba57600080fd5b506103756109c9366004614af5565b611c9a565b3480156109da57600080fd5b506103aa6109e9366004614c33565b611cc5565b3480156109fa57600080fd5b50610502610a093660046149f4565b611dfc565b348015610a1a57600080fd5b50610502600081565b348015610a2f57600080fd5b50610130546103cd906001600160a01b031681565b348015610a5057600080fd5b506103aa610a5f3660046149f4565b611f72565b348015610a7057600080fd5b506103aa610a7f366004614c68565b61206e565b348015610a9057600080fd5b506103aa610a9f366004614a20565b612198565b348015610ab057600080fd5b506103aa610abf366004614a20565b61221d565b6103aa610ad2366004614c33565b612251565b348015610ae357600080fd5b50610502610af2366004614adc565b61244a565b348015610b0357600080fd5b506103aa610b12366004614ccb565b612461565b348015610b2357600080fd5b506103aa610b32366004614af5565b612495565b348015610b4357600080fd5b5061050261271081565b348015610b5957600080fd5b506066546001600160a01b03166103cd565b348015610b7757600080fd5b506105027f65d7a28e3265b37a6474929f336521b332c1681b933f6cb9f3376673440d862a81565b348015610bab57600080fd5b506103aa610bba366004614ce6565b612519565b348015610bcb57600080fd5b506103aa610bda3660046149f4565b612656565b348015610beb57600080fd5b506103aa610bfa3660046149f4565b61286e565b348015610c0b57600080fd5b506103aa61297a565b348015610c2057600080fd5b506105027f427da25fe773164f88948d3e215c94b6554e2ed5e5f203a821c9f2f6131cf75a81565b60006001600160e01b03198216630a85bd0160e11b1480610c6d5750610c6d826129b9565b92915050565b60cb5460ff1615610c9f5760405162461bcd60e51b8152600401610c9690614d5b565b60405180910390fd5b61012f546040516343b938c560e01b81526001600160a01b03808a166004830152899216906343b938c590602401602060405180830381865afa158015610cea573d6000803e3d6000fd5b505050506040513d601f19601f82011682018060405250810190610d0e9190614d85565b610d2a57604051625bbd3f60e51b815260040160405180910390fd5b866001600160601b031642811015610d555760405163d13ab50760e01b815260040160405180910390fd5b82801580610d64575061271081115b15610d825760405163d317635f60e01b815260040160405180910390fd5b600260fd541415610da55760405162461bcd60e51b8152600401610c9690614da7565b600260fd55610dbb8c8c8c8c8c8c8c8c8c6129de565b600160fd55505050505050505050505050565b6065546001600160a01b03163314610df957604051630202a8bf60e61b815260040160405180910390fd5b610e0281612dd7565b50565b6065546001600160a01b03163314610e3057604051630202a8bf60e61b815260040160405180910390fd5b610e0281612e51565b60cb5460ff1615610e5c5760405162461bcd60e51b8152600401610c9690614d5b565b600260fd541415610e7f5760405162461bcd60e51b8152600401610c9690614da7565b600260fd8190556001600160a01b03808416600090815261013560209081526040808320868452825291829020825161012081018452815485168082526001830154808716948301949094526001600160601b03600160a01b94859004811695830195909552958201549485166060820152919093049091166080820152600382015460a0820152600482015460c0820152600582015460e082015260069091015461010082015283913314610f485760405163642a6a5360e01b815260040160405180910390fd5b60608101516001600160a01b031615610f745760405163088207f160e11b815260040160405180910390fd5b6001600160a01b0380831660009081526101356020908152604080832087845290915280822080546001600160a01b031916815560018101839055600281018390556003810183905560048082018490556005820184905560069091019290925583519051632142170760e11b8152928716926342842e0e92610ffd9230929091899101614dde565b600060405180830381600087803b15801561101757600080fd5b505af115801561102b573d6000803e3d6000fd5b5050825160a08401516040518794506001600160a01b038716935033927f9b2b3a11685c55784f4d3819a5bbaa39baa4be3732cd6d9514970ea6e3ac065c92611087926001600160a01b03929092168252602082015260400190565b60405180910390a45050600160fd555050565b81806110b95760405163e466584960e01b815260040160405180910390fd5b6000838152606760205260409020600101546065546001600160a01b031633148015906110ed57506110eb8133611c9a565b155b156111145760405163f9019a8d60e01b815260048101829052336024820152604401610c96565b61111e8484612ecb565b50505050565b81806111435760405163e466584960e01b815260040160405180910390fd5b61114d8383612eed565b505050565b7f427da25fe773164f88948d3e215c94b6554e2ed5e5f203a821c9f2f6131cf75a6111856065546001600160a01b031690565b6001600160a01b0316336001600160a01b0316141580156111ad57506111ab8133611c9a565b155b156111d45760405163f9019a8d60e01b815260048101829052336024820152604401610c96565b60cb5460ff166111f757604051637514f14160e11b815260040160405180910390fd5b610e02612f6b565b600260fd5414156112225760405162461bcd60e51b8152600401610c9690614da7565b600260fd556065546001600160a01b0316331461125257604051630202a8bf60e61b815260040160405180910390fd5b6001600160a01b03808316600090815261013560209081526040808320858452825291829020825161012081018452815485168082526001830154808716948301949094526001600160601b03600160a01b9485900481169583019590955260028301549586166060830152929094049092166080840152600382015460a0840152600482015460c0840152600582015460e084015260069091015461010083015283919061131457604051636cf011bd60e11b815260040160405180910390fd5b606081015160c08201516001600160a01b0380851660009081526101356020908152604080832089845290915280822080546001600160a01b031916815560018101839055600281018390556003810183905560048082018490556005820184905560069091019290925585519051632142170760e11b8152928916926342842e0e926113a792309290918b9101614dde565b600060405180830381600087803b1580156113c157600080fd5b505af11580156113d5573d6000803e3d6000fd5b5050505060008111156113fb5760208301516113fb906001600160a01b03168383612ffe565b825160a0840151604080516001600160a01b0393841681526020810192909252879287169133917f9b2b3a11685c55784f4d3819a5bbaa39baa4be3732cd6d9514970ea6e3ac065c910160405180910390a45050600160fd5550505050565b6065546001600160a01b0316331461148557604051630202a8bf60e61b815260040160405180910390fd5b610e0281613061565b60cb5460ff16156114b15760405162461bcd60e51b8152600401610c9690614d5b565b600260fd5414156114d45760405162461bcd60e51b8152600401610c9690614da7565b600260fd8190556001600160a01b03808416600090815261013460209081526040808320868452825291829020825161012081018452815480861682526001600160601b03600160a01b918290048116948301949094526001830154808716958301869052049092166060830152938401546080820152600384015460a0820152600484015460c0820152600584015460e0820152600690930154610100840152907f00000000000000000000000000000000000000000000000000000000000000001681146115b75760405163026bd50160e51b815260040160405180910390fd5b6115c28484846130db565b5050600160fd555050565b600054610100900460ff166115e85760005460ff16156115ec565b303b155b61164f5760405162461bcd60e51b815260206004820152602e60248201527f496e697469616c697a61626c653a20636f6e747261637420697320616c72656160448201526d191e481a5b9a5d1a585b1a5e995960921b6064820152608401610c96565b600054610100900460ff16158015611671576000805461ffff19166101011790555b61167961341c565b61168161345b565b61168a8761348a565b611693866134f0565b61169c85613061565b6116a584612dd7565b6116ae8361356f565b6116b782612e51565b80156116c9576000805461ff00191690555b50505050505050565b6065546001600160a01b031633146116fd57604051630202a8bf60e61b815260040160405180910390fd5b6066546001600160a01b03166117265760405163128be5bf60e31b815260040160405180910390fd5b61173060006135e9565b565b60cb5460ff16156117555760405162461bcd60e51b8152600401610c9690614d5b565b600260fd5414156117785760405162461bcd60e51b8152600401610c9690614da7565b600260fd8190556001600160a01b03808416600090815261013560209081526040808320868452825291829020825161012081018452815485168082526001830154808716948301949094526001600160601b03600160a01b94859004811695830195909552958201549485166060820152919093049091166080820152600382015460a0820152600482015460c0820152600582015460e0820152600690910154610100820152839161183f57604051636cf011bd60e11b815260040160405180910390fd5b60c081015161186157604051638041ccb360e01b815260040160405180910390fd5b80604001516001600160601b031642101561188f5760405163554eda4360e01b815260040160405180910390fd5b80516001600160a01b031633148015906118b5575080608001516001600160601b031642105b156118d3576040516310b13ed760e11b815260040160405180910390fd5b6001600160a01b0382166000908152610135602090815260408083208684528252822080546001600160a01b0319168155600181018390556002810183905560038101839055600481018390556005810183905560060191909155810151815160c083015161010084015161195093869388939192309290613633565b6060810151604051632142170760e11b81526001600160a01b038616916342842e0e916119839130918890600401614dde565b600060405180830381600087803b15801561199d57600080fd5b505af11580156119b1573d6000803e3d6000fd5b5050505082826001600160a01b031682600001516001600160a01b03167f5a1800c8b3fb615959d2545c3516c92c95a323c12a305acfe2bd3e88ef8b7d1c846060015185602001518660a001518760c0015160405161108794939291906001600160a01b0394851681529290931660208301526040820152606081019190915260800190565b6065546001600160a01b03163314611a6257604051630202a8bf60e61b815260040160405180910390fd5b6117306000613838565b60cb5460ff1615611a8f5760405162461bcd60e51b8152600401610c9690614d5b565b61012f546040516343b938c560e01b81526001600160a01b038089166004830152889216906343b938c590602401602060405180830381865afa158015611ada573d6000803e3d6000fd5b505050506040513d601f19601f82011682018060405250810190611afe9190614d85565b611b1a57604051625bbd3f60e51b815260040160405180910390fd5b81801580611b29575061271081115b15611b475760405163d317635f60e01b815260040160405180910390fd5b600260fd541415611b6a5760405162461bcd60e51b8152600401610c9690614da7565b600260fd55611b888a8a8a611b7e42613877565b8b8b8b8b8b6129de565b600160fd5550505050505050505050565b7f65d7a28e3265b37a6474929f336521b332c1681b933f6cb9f3376673440d862a611bcc6065546001600160a01b031690565b6001600160a01b0316336001600160a01b031614158015611bf45750611bf28133611c9a565b155b15611c1b5760405163f9019a8d60e01b815260048101829052336024820152604401610c96565b60cb5460ff1615611c3f576040516329c0c03160e11b815260040160405180910390fd5b610e026138e3565b6000828152609960205260408120611c5f908361393b565b9392505050565b6065546001600160a01b03163314611c9157604051630202a8bf60e61b815260040160405180910390fd5b610e028161348a565b60009182526067602090815260408084206001600160a01b0393909316845291905290205460ff1690565b60cb5460ff1615611ce85760405162461bcd60e51b8152600401610c9690614d5b565b600260fd541415611d0b5760405162461bcd60e51b8152600401610c9690614da7565b600260fd8190556001600160a01b0380851660009081526101356020908152604080832087845282529182902082516101208101845281548516815260018201548086169382018490526001600160601b03600160a01b91829004811695830195909552958201549485166060820152949093049091166080840152600382015460a0840152600482015460c0840152600582015460e084015260069091015461010083015280611dcf57604051636cf011bd60e11b815260040160405180910390fd5b611de46001600160a01b038216333086613947565b611df085858585613968565b5050600160fd55505050565b6001600160a01b038083166000908152610134602090815260408083208584528252808320815161012081018352815480871682526001600160601b03600160a01b918290048116958301869052600184015497881694830194909452909504909116606085015260028101546080850152600381015460a0850152600481015460c0850152600581015460e085015260060154610100840152909190421015611eaa576000915050610c6d565b80606001516001600160601b03164210611ec95760c001519050610c6d565b600081602001516001600160601b031642611ee49190614e18565b905060008260e0015182611ef89190614e2f565b905060008360e0015184602001518560600151611f159190614e51565b6001600160601b0316611f289190614e2f565b905060008460c001518560a00151611f409190614e18565b905081611f4d8285614e79565b611f579190614e2f565b8560a00151611f669190614e18565b98975050505050505050565b60cb5460ff1615611f955760405162461bcd60e51b8152600401610c9690614d5b565b600260fd541415611fb85760405162461bcd60e51b8152600401610c9690614da7565b600260fd8190556001600160a01b03808416600090815261013460209081526040808320868452825291829020825161012081018452815480861682526001600160601b03600160a01b9182900481169483019490945260018301549586169482019490945292909304166060820152918101546080830152600381015460a0830152600481015460c0830152600581015460e0830152600601546101008201526120648383836130db565b5050600160fd5550565b60cb5460ff16156120915760405162461bcd60e51b8152600401610c9690614d5b565b61012f546040516343b938c560e01b81526001600160a01b038087166004830152869216906343b938c590602401602060405180830381865afa1580156120dc573d6000803e3d6000fd5b505050506040513d601f19601f820116820180604052508101906121009190614d85565b61211c57604051625bbd3f60e51b815260040160405180910390fd5b8180158061212b575061271081115b156121495760405163d317635f60e01b815260040160405180910390fd5b600260fd54141561216c5760405162461bcd60e51b8152600401610c9690614da7565b600260fd5561218888888861218042613877565b898989613cce565b600160fd555b5050505050505050565b6065546001600160a01b031633146121c357604051630202a8bf60e61b815260040160405180910390fd5b6001600160a01b0381166121ea576040516386850cc360e01b815260040160405180910390fd5b6066546001600160a01b0316156122145760405163033c108960e01b815260040160405180910390fd5b610e02816135e9565b6065546001600160a01b0316331461224857604051630202a8bf60e61b815260040160405180910390fd5b610e028161356f565b60cb5460ff16156122745760405162461bcd60e51b8152600401610c9690614d5b565b600260fd5414156122975760405162461bcd60e51b8152600401610c9690614da7565b600260fd8190556001600160a01b0380851660009081526101356020908152604080832087845282529182902082516101208101845281548516815260018201548086169382018490526001600160601b03600160a01b91829004811695830195909552958201548086166060830152959095049092166080850152600382015460a0850152600482015460c0850152600582015460e0850152600690910154610100840152907f000000000000000000000000000000000000000000000000000000000000000016811461237f5760405163026bd50160e51b815260040160405180910390fd5b34156123fa577f00000000000000000000000000000000000000000000000000000000000000006001600160a01b031663d0e30db0346040518263ffffffff1660e01b81526004016000604051808303818588803b1580156123e057600080fd5b505af11580156123f4573d6000803e3d6000fd5b50505050505b8215612435576124356001600160a01b037f000000000000000000000000000000000000000000000000000000000000000016333086613947565b611df085856124448634614e98565b85613968565b6000818152609960205260408120610c6d90614035565b6065546001600160a01b0316331461248c57604051630202a8bf60e61b815260040160405180910390fd5b610e02816134f0565b81806124b45760405163e466584960e01b815260040160405180910390fd5b6000838152606760205260409020600101546065546001600160a01b031633148015906124e857506124e68133611c9a565b155b1561250f5760405163f9019a8d60e01b815260048101829052336024820152604401610c96565b61111e848461403f565b60cb5460ff161561253c5760405162461bcd60e51b8152600401610c9690614d5b565b61012f546040516343b938c560e01b81526001600160a01b038088166004830152879216906343b938c590602401602060405180830381865afa158015612587573d6000803e3d6000fd5b505050506040513d601f19601f820116820180604052508101906125ab9190614d85565b6125c757604051625bbd3f60e51b815260040160405180910390fd5b846001600160601b0316428110156125f25760405163d13ab50760e01b815260040160405180910390fd5b82801580612601575061271081115b1561261f5760405163d317635f60e01b815260040160405180910390fd5b600260fd5414156126425760405162461bcd60e51b8152600401610c9690614da7565b600260fd55611b888a8a8a8a8a8a8a613cce565b600260fd5414156126795760405162461bcd60e51b8152600401610c9690614da7565b600260fd556065546001600160a01b031633146126a957604051630202a8bf60e61b815260040160405180910390fd5b6001600160a01b0380831660009081526101346020908152604080832085845282529182902082516101208101845281548086168083526001600160601b03600160a01b92839004811695840195909552600184015496871695830195909552909404909116606084015260028101546080840152600381015460a0840152600481015460c0840152600581015460e08401526006015461010083015283919061276657604051636cf011bd60e11b815260040160405180910390fd5b6001600160a01b0380831660009081526101346020908152604080832087845290915280822082815560018101839055600281018390556003810183905560048082018490556005820184905560069091019290925583519051632142170760e11b8152928716926342842e0e926127e49230929091899101614dde565b600060405180830381600087803b1580156127fe57600080fd5b505af1158015612812573d6000803e3d6000fd5b5050825160808401516040518794506001600160a01b038716935033927f2d0945d65614801fbf38298de475b2eda962f669c2e6cbbbc04a7faab17522dd92611087926001600160a01b03929092168252602082015260400190565b60cb5460ff16156128915760405162461bcd60e51b8152600401610c9690614d5b565b600260fd5414156128b45760405162461bcd60e51b8152600401610c9690614da7565b600260fd8190556001600160a01b0380841660009081526101346020908152604080832086845282529182902082516101208101845281548086168083526001600160601b03600160a01b928390048116958401959095526001840154968716958301959095529094049091166060840152928301546080830152600383015460a0830152600483015460c0830152600583015460e0830152600690920154610100820152839133146127665760405163642a6a5360e01b815260040160405180910390fd5b6066546001600160a01b031633141580612992575033155b156129b05760405163134aa98760e31b815260040160405180910390fd5b61173033613838565b60006001600160e01b0319821663f3353d7760e01b1480610c6d5750610c6d82614061565b6001600160601b03851615806129fc575083856001600160601b0316105b15612a1a57604051634981972160e01b815260040160405180910390fd5b83612a385760405163bb634ef160e01b815260040160405180910390fd5b6001600160a01b03808a166000908152610134602090815260408083208c84529091529020548a911615612a7f5760405163eee0b01b60e01b815260040160405180910390fd5b8284111580612a8c575082155b15612aaa5760405163ef57fc2960e01b815260040160405180910390fd5b6000604051806101200160405280336001600160a01b03168152602001896001600160601b031681526020018a6001600160a01b03168152602001888a612af19190614eb0565b6001600160601b031681526020016101336000336001600160a01b03166001600160a01b03168152602001908152602001600020548152602001868152602001858152602001878152602001848152509050806101346000846001600160a01b03166001600160a01b0316815260200190815260200160002060008c815260200190815260200160002060008201518160000160006101000a8154816001600160a01b0302191690836001600160a01b0316021790555060208201518160000160146101000a8154816001600160601b0302191690836001600160601b0316021790555060408201518160010160006101000a8154816001600160a01b0302191690836001600160a01b0316021790555060608201518160010160146101000a8154816001600160601b0302191690836001600160601b031602179055506080820151816002015560a0820151816003015560c0820151816004015560e08201518160050155610100820151816006015590505060016101336000336001600160a01b03166001600160a01b031681526020019081526020016000206000828254612c9c9190614e98565b9091555050604051632142170760e11b81526001600160a01b038c16906342842e0e90612cd190339030908f90600401614dde565b600060405180830381600087803b158015612ceb57600080fd5b505af1158015612cff573d6000803e3d6000fd5b5050505089826001600160a01b031682600001516001600160a01b03167f809f5467134c450196fed70af0db862a1c49d62a7cedd561d76c48a03e5ebc0a846040015185608001518660a001518760c00151886020015189606001518a60e001518b6101000151604051612dc29897969594939291906001600160a01b039890981688526020880196909652604087019490945260608601929092526001600160601b0390811660808601521660a084015260c083015260e08201526101000190565b60405180910390a45050505050505050505050565b6001600160a01b038116612dfe57604051632bf5c20360e11b815260040160405180910390fd5b61013080546001600160a01b038381166001600160a01b0319831681179093556040519116919082907f7d4ddfec890ae302bc76c6c540dbeea692c14045ecfebcc29a666bf9dc279c8f90600090a35050565b6001600160a01b038116612e7857604051632bf5c20360e11b815260040160405180910390fd5b61013280546001600160a01b038381166001600160a01b0319831681179093556040519116919082907f77fe0152e8e354becca126c2d9ddc9e3372c8aa414ef8185aceb7934d6a716cc90600090a35050565b612ed5828261407b565b600082815260996020526040902061114d9082614101565b6001600160a01b0381163314612f5d5760405162461bcd60e51b815260206004820152602f60248201527f416363657373436f6e74726f6c3a2063616e206f6e6c792072656e6f756e636560448201526e103937b632b9903337b91039b2b63360891b6064820152608401610c96565b612f67828261403f565b5050565b60cb5460ff16612fb45760405162461bcd60e51b815260206004820152601460248201527314185d5cd8589b194e881b9bdd081c185d5cd95960621b6044820152606401610c96565b60cb805460ff191690557f5db9ee0a495bf2e6ff9c91a7834c1ba4fdd244a5e8aa4e537bd38aeae4b073aa335b6040516001600160a01b03909116815260200160405180910390a1565b6040516001600160a01b03831660248201526044810182905261114d90849063a9059cbb60e01b906064015b60408051601f198184030181529190526020810180516001600160e01b03166001600160e01b031990931692909217909152614116565b6001600160a01b03811661308857604051632bf5c20360e11b815260040160405180910390fd5b61012f80546001600160a01b038381166001600160a01b0319831681179093556040519116919082907f41e87b8a10446f910ac9ba7a85dd3c9ad02a2705e02ebee6237611a62cde306e90600090a35050565b80516001600160a01b031661310357604051636cf011bd60e11b815260040160405180910390fd5b80516001600160a01b031633141561312e57604051631709f0f960e31b815260040160405180910390fd5b80602001516001600160601b031642101561315c5760405163c2244f3f60e01b815260040160405180910390fd5b8260006131698285611dfc565b6001600160a01b038381166000908152610134602090815260408083208984529091528082208281556001810183905560028101839055600381018390556004810183905560058101839055600601919091558501519192507f000000000000000000000000000000000000000000000000000000000000000081169116141561333557348111156132365761323633306132043485614e18565b6001600160a01b037f000000000000000000000000000000000000000000000000000000000000000016929190613947565b34156132b1577f00000000000000000000000000000000000000000000000000000000000000006001600160a01b031663d0e30db0346040518263ffffffff1660e01b81526004016000604051808303818588803b15801561329757600080fd5b505af11580156132ab573d6000803e3d6000fd5b50505050505b348110156132f8576132f8336132c78334614e18565b6001600160a01b037f0000000000000000000000000000000000000000000000000000000000000000169190612ffe565b61333082857f000000000000000000000000000000000000000000000000000000000000000030876000015186896101000151613633565b613351565b6133518285856040015133876000015186896101000151613633565b604051632142170760e11b81526001600160a01b038616906342842e0e9061338190309033908990600401614dde565b600060405180830381600087803b15801561339b57600080fd5b505af11580156133af573d6000803e3d6000fd5b5050845160408087015160808089015183513381526001600160a01b039384166020820152938401526060830187905289955081881694509216917fcc3d803077d108e00cb796b4d6569ca5f5cb0bfc25cb5fb755efd1ffc80d9eff910160405180910390a45050505050565b600054610100900460ff166134435760405162461bcd60e51b8152600401610c9690614edb565b61344b6141e8565b613453614227565b611730614256565b600054610100900460ff166134825760405162461bcd60e51b8152600401610c9690614edb565b611730614311565b801580613498575061271081115b156134b65760405163983613f960e01b815260040160405180910390fd5b610136805490829055604051829082907fa3f285ff50dde91866d9d4e5d73ebdf424ebb3a7fcedc49b4c5fc0b66e15642c90600090a35050565b6001600160601b03811661351757604051630b68507960e31b815260040160405180910390fd5b61013780546001600160601b038381166bffffffffffffffffffffffff19831681179093556040519116919082907fc0da53cc906ae35e2c2afe765eb38598227dda23551dfa44bf89e14592ecd95490600090a35050565b6001600160a01b03811661359657604051632bf5c20360e11b815260040160405180910390fd5b61013180546001600160a01b038381166001600160a01b0319831681179093556040519116919082907f3572f53d6b1fa254aff5642a655e44ac0e39825c4cedc188cacdb3330857acda90600090a35050565b606680546001600160a01b0319166001600160a01b0383169081179091556040517f68f49b346b94582a8b5f9d10e3fe3365318fe8f191ff8dce7c59c6cad06b02f590600090a250565b816000613640898361433f565b610132549091506001600160a01b0316801580159061365e57508115155b15613685576136786001600160a01b038916888385613947565b6136828284614e18565b92505b5050610131546040516371a05ba960e11b81526001600160a01b038a81166004830152602482018a905260448201869052600092169063e340b75290606401600060405180830381865afa1580156136e1573d6000803e3d6000fd5b505050506040513d6000823e601f3d908101601f191682016040526137099190810190614f96565b905060005b81518110156137eb57600082828151811061372b5761372b615061565b6020026020010151905061375d88826000015183602001518c6001600160a01b0316613947909392919063ffffffff16565b602081015161376c9085614e18565b935080600001516001600160a01b03168a8c6001600160a01b03167f27c4f0403323142b599832f26acd21c74a9e5b809f2215726e244a4ac588cd7d8c85602001516040516137d09291906001600160a01b03929092168252602082015260400190565b60405180910390a450806137e381615077565b91505061370e565b506137f890508383614e79565b61380461271083614e79565b1015613823576040516321f5097160e11b815260040160405180910390fd5b61218e6001600160a01b038716868684613947565b613854600061384f6065546001600160a01b031690565b61403f565b6001600160a01b0381161561386e5761386e600082612ecb565b610e02816143d2565b60006001600160601b038211156138df5760405162461bcd60e51b815260206004820152602660248201527f53616665436173743a2076616c756520646f65736e27742066697420696e203960448201526536206269747360d01b6064820152608401610c96565b5090565b60cb5460ff16156139065760405162461bcd60e51b8152600401610c9690614d5b565b60cb805460ff191660011790557f62e78cea01bee320cd4e420270b5ea74000d11b0c9f74754ebdbfc544b05a258612fe13390565b6000611c5f838361442f565b61111e846323b872dd60e01b85858560405160240161302a93929190614dde565b80516001600160a01b031661399057604051636cf011bd60e11b815260040160405180910390fd5b816139ae57604051638409122f60e01b815260040160405180910390fd5b80516001600160a01b03163314156139d957604051636db0fafd60e11b815260040160405180910390fd5b80604001516001600160601b0316421015613a0757604051632a8bccbb60e21b815260040160405180910390fd5b80608001516001600160601b03164210613a3457604051637d9c9b7b60e11b815260040160405180910390fd5b6101375460808201516000916001600160601b0390811691613a5891429116614e18565b11613a8f5750610137546080820180516001600160601b0390921691829190613a82908390614eb0565b6001600160601b03169052505b60c0820151613acf578160e00151831015613abd57604051638409122f60e01b815260040160405180910390fd5b33606083015260c08201839052613bc1565b81606001516001600160a01b0316336001600160a01b03161415613b4557610136548260c00151613b009190614e79565b613b0c61271085614e79565b1015613b2b57604051638409122f60e01b815260040160405180910390fd5b828260c001818151613b3d9190614e98565b905250613bc1565b61013654613b5590612710614e98565b8260c00151613b649190614e79565b613b7061271085614e79565b1015613b8f57604051638409122f60e01b815260040160405180910390fd5b60608201805160c084018051339093528590526020840151909190613bbe906001600160a01b03168383612ffe565b50505b6001600160a01b03858116600081815261013560209081526040808320898452825291829020865181546001600160a01b03191690861690811782558783015188850151908716600160a01b6001600160601b039283168102821760018601556060808c01516080808e015191909b169085169092028217600287015560a0808d01516003880181905560c08e01516004890181905560e08f015160058a01556101008f0151600690990198909855895193845297830193909352968101959095529484019290925290861694820194909452889388939290917f84ec3a468ca2097ed308ae9b8a51622f04c0f01ed00388da9167849bd918c201910160405180910390a4505050505050565b6001600160601b038316613cf557604051634981972160e01b815260040160405180910390fd5b6001600160a01b038088166000908152610135602090815260408083208a845290915290205488911615613d3c5760405163eee0b01b60e01b815260040160405180910390fd5b33600081815261013360209081526040808320548151610120810183529485526001600160a01b038b16928501929092526001600160601b03891690840152606083018290529160808101613d91888a614eb0565b6001600160601b0316815260200183815260200160008152602001868152602001858152509050806101356000856001600160a01b03166001600160a01b0316815260200190815260200160002060008b815260200190815260200160002060008201518160000160006101000a8154816001600160a01b0302191690836001600160a01b0316021790555060208201518160010160006101000a8154816001600160a01b0302191690836001600160a01b0316021790555060408201518160010160146101000a8154816001600160601b0302191690836001600160601b0316021790555060608201518160020160006101000a8154816001600160a01b0302191690836001600160a01b0316021790555060808201518160020160146101000a8154816001600160601b0302191690836001600160601b0316021790555060a0820151816003015560c0820151816004015560e082015181600501556101008201518160060155905050816001613f0a9190614e98565b336000818152610133602052604090819020929092559051632142170760e11b81526001600160a01b038c16916342842e0e91613f4e919030908e90600401614dde565b600060405180830381600087803b158015613f6857600080fd5b505af1158015613f7c573d6000803e3d6000fd5b5050505088836001600160a01b031682600001516001600160a01b03167f547a357be03f8b8c991541b3cc2d0e1647a44b7f10e8cb85c576366a00f5118184602001518560a001518660e001518d8860800151896101000151604051614021969594939291906001600160a01b03969096168652602086019490945260408501929092526001600160601b03908116606085015216608083015260a082015260c00190565b60405180910390a450505050505050505050565b6000610c6d825490565b6140498282614459565b600082815260996020526040902061114d90826144c0565b600061406c826144d5565b80610c6d5750610c6d8261450a565b6140858282611c9a565b612f675760008281526067602090815260408083206001600160a01b03851684529091529020805460ff191660011790556140bd3390565b6001600160a01b0316816001600160a01b0316837f2f8788117e7eff1d82e926ec794901d17c78024a50270940304540a733656f0d60405160405180910390a45050565b6000611c5f836001600160a01b03841661452f565b600061416b826040518060400160405280602081526020017f5361666545524332303a206c6f772d6c6576656c2063616c6c206661696c6564815250856001600160a01b031661457e9092919063ffffffff16565b80519091501561114d57808060200190518101906141899190614d85565b61114d5760405162461bcd60e51b815260206004820152602a60248201527f5361666545524332303a204552433230206f7065726174696f6e20646964206e6044820152691bdd081cdd58d8d9595960b21b6064820152608401610c96565b600054610100900460ff1661420f5760405162461bcd60e51b8152600401610c9690614edb565b61421761458d565b61421f6145c4565b6117306145c4565b600054610100900460ff1661424e5760405162461bcd60e51b8152600401610c9690614edb565b6117306145eb565b600054610100900460ff1661427d5760405162461bcd60e51b8152600401610c9690614edb565b6142c77f65d7a28e3265b37a6474929f336521b332c1681b933f6cb9f3376673440d862a7fe0e65c783ac33ff1c5ccf4399c9185066773921d6f8d050bf80781603021f09761461e565b6117307f427da25fe773164f88948d3e215c94b6554e2ed5e5f203a821c9f2f6131cf75a7fe516f7ac9747f401e208331379a0bafe3c9c4dbb6501fd23bcef278f7ebaf4e561461e565b600054610100900460ff166143385760405162461bcd60e51b8152600401610c9690614edb565b600160fd55565b610130546040516238062960e91b81526001600160a01b038481166004830152600092839291169063700c520090602401602060405180830381865afa15801561438d573d6000803e3d6000fd5b505050506040513d601f19601f820116820180604052508101906143b19190615092565b90506127106143c08483614e79565b6143ca9190614e2f565b949350505050565b606580546001600160a01b038381166001600160a01b03198084168217909455606680549094169093556040519116919082907f8be0079c531659141344cd1fd0a4f28419497f9722a3daafe3b4186f6b6457e090600090a35050565b600082600001828154811061444657614446615061565b9060005260206000200154905092915050565b6144638282611c9a565b15612f675760008281526067602090815260408083206001600160a01b0385168085529252808320805460ff1916905551339285917ff6391f5c32d9c69d2a47ea670b442974b53935d1edc7fd64eb21e047a839171b9190a45050565b6000611c5f836001600160a01b038416614669565b60006001600160e01b031982166322d7505760e11b1480610c6d57506301ffc9a760e01b6001600160e01b0319831614610c6d565b60006001600160e01b03198216635a05180f60e01b1480610c6d5750610c6d8261475c565b600081815260018301602052604081205461457657508154600181810184556000848152602080822090930184905584548482528286019093526040902091909155610c6d565b506000610c6d565b60606143ca8484600085614781565b600054610100900460ff166145b45760405162461bcd60e51b8152600401610c9690614edb565b6145bc6145c4565b6117306148b2565b600054610100900460ff166117305760405162461bcd60e51b8152600401610c9690614edb565b600054610100900460ff166146125760405162461bcd60e51b8152600401610c9690614edb565b60cb805460ff19169055565b600082815260676020526040808220600101805490849055905190918391839186917fbd79b86ffe0ab8e8776151514217cd7cacd52c909f66475c3af44e129f0b00ff9190a4505050565b6000818152600183016020526040812054801561475257600061468d600183614e18565b85549091506000906146a190600190614e18565b90508181146147065760008660000182815481106146c1576146c1615061565b90600052602060002001549050808760000184815481106146e4576146e4615061565b6000918252602080832090910192909255918252600188019052604090208390555b8554869080614717576147176150ab565b600190038181906000526020600020016000905590558560010160008681526020019081526020016000206000905560019350505050610c6d565b6000915050610c6d565b60006001600160e01b03198216637965db0b60e01b1480610c6d5750610c6d826144d5565b6060824710156147e25760405162461bcd60e51b815260206004820152602660248201527f416464726573733a20696e73756666696369656e742062616c616e636520666f6044820152651c8818d85b1b60d21b6064820152608401610c96565b6001600160a01b0385163b6148395760405162461bcd60e51b815260206004820152601d60248201527f416464726573733a2063616c6c20746f206e6f6e2d636f6e74726163740000006044820152606401610c96565b600080866001600160a01b0316858760405161485591906150ed565b60006040518083038185875af1925050503d8060008114614892576040519150601f19603f3d011682016040523d82523d6000602084013e614897565b606091505b50915091506148a78282866148d9565b979650505050505050565b600054610100900460ff166129b05760405162461bcd60e51b8152600401610c9690614edb565b606083156148e8575081611c5f565b8251156148f85782518084602001fd5b8160405162461bcd60e51b8152600401610c969190615109565b60006020828403121561492457600080fd5b81356001600160e01b031981168114611c5f57600080fd5b6001600160a01b0381168114610e0257600080fd5b80356001600160601b038116811461496857600080fd5b919050565b60008060008060008060008060006101208a8c03121561498c57600080fd5b89356149978161493c565b985060208a0135975060408a01356149ae8161493c565b96506149bc60608b01614951565b95506149ca60808b01614951565b989b979a50959894979660a0860135965060c08601359560e0810135955061010001359350915050565b60008060408385031215614a0757600080fd5b8235614a128161493c565b946020939093013593505050565b600060208284031215614a3257600080fd5b8135611c5f8161493c565b600080600080600060808688031215614a5557600080fd5b8535614a608161493c565b94506020860135614a708161493c565b935060408601359250606086013567ffffffffffffffff80821115614a9457600080fd5b818801915088601f830112614aa857600080fd5b813581811115614ab757600080fd5b896020828501011115614ac957600080fd5b9699959850939650602001949392505050565b600060208284031215614aee57600080fd5b5035919050565b60008060408385031215614b0857600080fd5b823591506020830135614b1a8161493c565b809150509250929050565b60008060008060008060c08789031215614b3e57600080fd5b86359550614b4e60208801614951565b94506040870135614b5e8161493c565b93506060870135614b6e8161493c565b92506080870135614b7e8161493c565b915060a0870135614b8e8161493c565b809150509295509295509295565b600080600080600080600080610100898b031215614bb957600080fd5b8835614bc48161493c565b9750602089013596506040890135614bdb8161493c565b9550614be960608a01614951565b979a969950949760808101359660a0820135965060c0820135955060e0909101359350915050565b60008060408385031215614c2457600080fd5b50508035926020909101359150565b600080600060608486031215614c4857600080fd5b8335614c538161493c565b95602085013595506040909401359392505050565b60008060008060008060c08789031215614c8157600080fd5b8635614c8c8161493c565b9550602087013594506040870135614ca38161493c565b9350614cb160608801614951565b92506080870135915060a087013590509295509295509295565b600060208284031215614cdd57600080fd5b611c5f82614951565b600080600080600080600060e0888a031215614d0157600080fd5b8735614d0c8161493c565b9650602088013595506040880135614d238161493c565b9450614d3160608901614951565b9350614d3f60808901614951565b925060a0880135915060c0880135905092959891949750929550565b60208082526010908201526f14185d5cd8589b194e881c185d5cd95960821b604082015260600190565b600060208284031215614d9757600080fd5b81518015158114611c5f57600080fd5b6020808252601f908201527f5265656e7472616e637947756172643a207265656e7472616e742063616c6c00604082015260600190565b6001600160a01b039384168152919092166020820152604081019190915260600190565b634e487b7160e01b600052601160045260246000fd5b600082821015614e2a57614e2a614e02565b500390565b600082614e4c57634e487b7160e01b600052601260045260246000fd5b500490565b60006001600160601b0383811690831681811015614e7157614e71614e02565b039392505050565b6000816000190483118215151615614e9357614e93614e02565b500290565b60008219821115614eab57614eab614e02565b500190565b60006001600160601b03808316818516808303821115614ed257614ed2614e02565b01949350505050565b6020808252602b908201527f496e697469616c697a61626c653a20636f6e7472616374206973206e6f74206960408201526a6e697469616c697a696e6760a81b606082015260800190565b634e487b7160e01b600052604160045260246000fd5b6040805190810167ffffffffffffffff81118282101715614f5f57614f5f614f26565b60405290565b604051601f8201601f1916810167ffffffffffffffff81118282101715614f8e57614f8e614f26565b604052919050565b60006020808385031215614fa957600080fd5b825167ffffffffffffffff80821115614fc157600080fd5b818501915085601f830112614fd557600080fd5b815181811115614fe757614fe7614f26565b614ff5848260051b01614f65565b818152848101925060069190911b83018401908782111561501557600080fd5b928401925b818410156148a757604084890312156150335760008081fd5b61503b614f3c565b84516150468161493c565b8152848601518682015283526040909301929184019161501a565b634e487b7160e01b600052603260045260246000fd5b600060001982141561508b5761508b614e02565b5060010190565b6000602082840312156150a457600080fd5b5051919050565b634e487b7160e01b600052603160045260246000fd5b60005b838110156150dc5781810151838201526020016150c4565b8381111561111e5750506000910152565b600082516150ff8184602087016150c1565b9190910192915050565b60208152600082518060208401526151288160408501602087016150c1565b601f01601f1916919091016040019291505056fea264697066735822122074de091204d7f705330ce9831ba5ef99ff312996b6b626afb9026d117728306764736f6c634300080a0033",
  "devdoc": {
    "kind": "dev",
    "methods": {
      "cancelDutchAuction(address,uint256)": {
        "params": {
          "_collection": "address of ERC721 token",
          "_tokenId": "token id of ERC721 token"
        }
      },
      "cancelEnglishAuction(address,uint256)": {
        "details": "Note: - Can only be called by auction creator - Can only be cancelled if no bids have been placed",
        "params": {
          "_collection": "address of ERC721 token",
          "_tokenId": "token id of ERC721 token"
        }
      },
      "constructor": {
        "params": {
          "_wavax": "address of WAVAX"
        }
      },
      "emergencyCancelDutchAuction(address,uint256)": {
        "params": {
          "_collection": "address of ERC721 token",
          "_tokenId": "token id of ERC721 token"
        }
      },
      "emergencyCancelEnglishAuction(address,uint256)": {
        "params": {
          "_collection": "address of ERC721 token",
          "_tokenId": "token id of ERC721 token"
        }
      },
      "getDutchAuctionSalePrice(address,uint256)": {
        "params": {
          "_collection": "address of ERC721 token",
          "_tokenId": "token id of ERC721 token"
        },
        "returns": {
          "_0": "current Dutch Auction sale price for specified ERC721 token"
        }
      },
      "getRoleAdmin(bytes32)": {
        "details": "Returns the admin role that controls `role`. See {grantRole} and {revokeRole}. To change a role's admin, use {_setRoleAdmin}."
      },
      "getRoleMember(bytes32,uint256)": {
        "details": "Returns one of the accounts that have `role`. `index` must be a value between 0 and {getRoleMemberCount}, non-inclusive. Role bearers are not sorted in any particular way, and their ordering may change at any point. WARNING: When using {getRoleMember} and {getRoleMemberCount}, make sure you perform all queries on the same block. See the following https://forum.openzeppelin.com/t/iterating-over-elements-on-enumerableset-in-openzeppelin-contracts/2296[forum post] for more information."
      },
      "getRoleMemberCount(bytes32)": {
        "details": "Returns the number of accounts that have `role`. Can be used together with {getRoleMember} to enumerate all bearers of a role."
      },
      "grantRole(bytes32,address)": {
        "details": "If `account` had not been already granted `role`, emits a {RoleGranted} event. Requirements: - the caller must be the `owner` or have ``role``'s admin role. - the role granted can't be `DEFAULT_ADMIN`",
        "params": {
          "account": "The address of the account",
          "role": "The role to grant"
        }
      },
      "hasRole(bytes32,address)": {
        "details": "Returns `true` if `account` has been granted `role`."
      },
      "initialize(uint256,uint96,address,address,address,address)": {
        "params": {
          "_currencyManager": "currency manager address",
          "_englishAuctionMinBidIncrementPct": "minimum bid increment percentage for English Auctions",
          "_englishAuctionRefreshTime": "refresh time for English auctions",
          "_protocolFeeManager": "protocol fee manager address",
          "_protocolFeeRecipient": "protocol fee recipient",
          "_royaltyFeeManager": "royalty fee manager address"
        }
      },
      "owner()": {
        "returns": {
          "_0": "The address of the current owner"
        }
      },
      "pause()": {
        "details": "Sensible part of a contract might be pausable for security reasons. Requirements: - the caller must be the `owner` or have the ``role`` role. - the contrat needs to be unpaused."
      },
      "paused()": {
        "details": "Returns true if the contract is paused, and false otherwise."
      },
      "pendingOwner()": {
        "returns": {
          "_0": "The address of the current pending owner"
        }
      },
      "placeEnglishAuctionBid(address,uint256,uint256)": {
        "params": {
          "_amount": "amount of currency to bid",
          "_collection": "address of ERC721 token",
          "_tokenId": "token id of ERC721 token"
        }
      },
      "placeEnglishAuctionBidWithAVAXAndWAVAX(address,uint256,uint256)": {
        "params": {
          "_collection": "address of ERC721 token",
          "_tokenId": "token id of ERC721 token",
          "_wavaxAmount": "amount of WAVAX to bid"
        }
      },
      "renounceRole(bytes32,address)": {
        "details": "Roles are often managed via {grantRole} and {revokeRole}: this function's purpose is to provide a mechanism for accounts to lose their privileges if they are compromised (such as when a trusted device is misplaced). If the calling account had been revoked `role`, emits a {RoleRevoked} event. Requirements: - the caller must be `account`. - the role renounced can't be `DEFAULT_ADMIN`",
        "params": {
          "account": "The address of the account",
          "role": "The role to renounce"
        }
      },
      "revokeRole(bytes32,address)": {
        "details": "If `account` had been granted `role`, emits a {RoleRevoked} event. Requirements: - the caller must be the `owner` or have ``role``'s admin role. - the role revoked can't be `DEFAULT_ADMIN`",
        "params": {
          "account": "The address of the account",
          "role": "The role to revoke"
        }
      },
      "scheduleDutchAuction(address,uint256,address,uint96,uint96,uint256,uint256,uint256,uint256)": {
        "details": "Note: - Requires the auction house to hold the ERC721 token in escrow - Drops in price every `dutchAuctionDropInterval` seconds in equal   amounts",
        "params": {
          "_collection": "address of ERC721 token",
          "_currency": "address of currency to sell ERC721 token for",
          "_dropInterval": "number of seconds between each drop in price",
          "_duration": "number of seconds for Dutch Auction to run",
          "_endPrice": "ending sell price",
          "_minPercentageToAsk": "minimum percentage of the gross amount that goes to ask",
          "_startPrice": "starting sell price",
          "_startTime": "time to start the auction",
          "_tokenId": "token id of ERC721 token"
        }
      },
      "scheduleEnglishAuction(address,uint256,address,uint96,uint96,uint256,uint256)": {
        "details": "Note this requires the auction house to hold the ERC721 token in escrow",
        "params": {
          "_collection": "address of ERC721 token",
          "_currency": "address of currency to sell ERC721 token for",
          "_duration": "number of seconds for English Auction to run",
          "_minPercentageToAsk": "minimum percentage of the gross amount that goes to ask",
          "_startPrice": "minimum starting bid price",
          "_startTime": "time to start the auction",
          "_tokenId": "token id of ERC721 token"
        }
      },
      "settleDutchAuction(address,uint256)": {
        "params": {
          "_collection": "address of ERC721 token",
          "_tokenId": "token id of ERC721 token"
        }
      },
      "settleDutchAuctionWithAVAXAndWAVAX(address,uint256)": {
        "params": {
          "_collection": "address of ERC721 token",
          "_tokenId": "token id of ERC721 token"
        }
      },
      "settleEnglishAuction(address,uint256)": {
        "details": "Note: - Can be called by creator at any time (including before the auction's end time to accept the   current latest bid) - Can be called by anyone after the auction ends - Transfers funds and fees appropriately to seller, royalty receiver, and protocol fee recipient - Transfers ERC721 token to last highest bidder",
        "params": {
          "_collection": "address of ERC721 token",
          "_tokenId": "token id of ERC721 token"
        }
      },
      "startDutchAuction(address,uint256,address,uint96,uint256,uint256,uint256,uint256)": {
        "details": "Note: - Requires the auction house to hold the ERC721 token in escrow - Drops in price every `dutchAuctionDropInterval` seconds in equal   amounts",
        "params": {
          "_collection": "address of ERC721 token",
          "_currency": "address of currency to sell ERC721 token for",
          "_dropInterval": "number of seconds between each drop in price",
          "_duration": "number of seconds for Dutch Auction to run",
          "_endPrice": "ending sell price",
          "_minPercentageToAsk": "minimum percentage of the gross amount that goes to ask",
          "_startPrice": "starting sell price",
          "_tokenId": "token id of ERC721 token"
        }
      },
      "startEnglishAuction(address,uint256,address,uint96,uint256,uint256)": {
        "details": "Note this requires the auction house to hold the ERC721 token in escrow",
        "params": {
          "_collection": "address of ERC721 token",
          "_currency": "address of currency to sell ERC721 token for",
          "_duration": "number of seconds for English Auction to run",
          "_minPercentageToAsk": "minimum percentage of the gross amount that goes to ask",
          "_startPrice": "minimum starting bid price",
          "_tokenId": "token id of ERC721 token"
        }
      },
      "supportsInterface(bytes4)": {
        "details": "Returns true if this contract implements the interface defined by `interfaceId`. See the corresponding https://eips.ethereum.org/EIPS/eip-165#how-interfaces-are-identified[EIP section] to learn more about how these ids are created. This function call must use less than 30 000 gas."
      },
      "unpause()": {
        "details": "Sensible part of a contract might be pausable for security reasons. Requirements: - the caller must be the `owner` or have the ``role`` role. - the contrat needs to be unpaused."
      },
      "updateCurrencyManager(address)": {
        "params": {
          "_currencyManager": "new currency manager address"
        }
      },
      "updateEnglishAuctionMinBidIncrementPct(uint256)": {
        "params": {
          "_englishAuctionMinBidIncrementPct": "new minimum bid increment percetange for English auctions"
        }
      },
      "updateEnglishAuctionRefreshTime(uint96)": {
        "params": {
          "_englishAuctionRefreshTime": "new refresh time for English auctions"
        }
      },
      "updateProtocolFeeManager(address)": {
        "params": {
          "_protocolFeeManager": "new protocol fee manager address"
        }
      },
      "updateProtocolFeeRecipient(address)": {
        "params": {
          "_protocolFeeRecipient": "new recipient for protocol fees"
        }
      },
      "updateRoyaltyFeeManager(address)": {
        "params": {
          "_royaltyFeeManager": "new fee manager address"
        }
      }
    },
    "stateVariables": {
      "dutchAuctions": {
        "details": "(collection address => token id => dutch auction)"
      },
      "englishAuctions": {
        "details": "(collection address => token id => english auction)"
      },
      "userLatestAuctionNonce": {
        "details": "(user address => latest nonce)"
      }
    },
    "title": "JoepegAuctionHouse",
    "version": 1
  },
  "userdoc": {
    "kind": "user",
    "methods": {
      "becomeOwner()": {
        "notice": "Transfers the ownership to the new owner (`pendingOwner`). Can only be called by the pending owner"
      },
      "cancelDutchAuction(address,uint256)": {
        "notice": "Cancels a running Dutch Auction"
      },
      "cancelEnglishAuction(address,uint256)": {
        "notice": "Cancels an English Auction"
      },
      "constructor": {
        "notice": "Constructor"
      },
      "dutchAuctions(address,uint256)": {
        "notice": "Stores Dutch Auction data for NFTs"
      },
      "emergencyCancelDutchAuction(address,uint256)": {
        "notice": "Only owner function to cancel a Dutch Auction in case of emergencies"
      },
      "emergencyCancelEnglishAuction(address,uint256)": {
        "notice": "Only owner function to cancel an English Auction in case of emergencies"
      },
      "englishAuctionMinBidIncrementPct()": {
        "notice": "Required minimum percent increase from last bid in order to place a new bid on an English Auction"
      },
      "englishAuctionRefreshTime()": {
        "notice": "Represents both: - Number of seconds before an English Auction ends where any new   bid will extend the auction's end time - Number of seconds to extend an English Auction's end time by"
      },
      "englishAuctions(address,uint256)": {
        "notice": "Stores English Auction data for NFTs"
      },
      "getDutchAuctionSalePrice(address,uint256)": {
        "notice": "Calculates current Dutch Auction sale price for an ERC721 token. Returns 0 if the auction hasn't started yet."
      },
      "grantRole(bytes32,address)": {
        "notice": "Grants `role` to `account`."
      },
      "initialize(uint256,uint96,address,address,address,address)": {
        "notice": "Initializer"
      },
      "onERC721Received(address,address,uint256,bytes)": {
        "notice": "Required implementation for IERC721Receiver"
      },
      "owner()": {
        "notice": "Returns the address of the current owner"
      },
      "pause()": {
        "notice": "Pauses the contract."
      },
      "pendingOwner()": {
        "notice": "Returns the address of the current pending owner"
      },
      "placeEnglishAuctionBid(address,uint256,uint256)": {
        "notice": "Place bid on a running English Auction"
      },
      "placeEnglishAuctionBidWithAVAXAndWAVAX(address,uint256,uint256)": {
        "notice": "Place bid on a running English Auction using AVAX and/or WAVAX"
      },
      "renounceOwnership()": {
        "notice": "Leaves the contract without owner. It will not be possible to call `onlyOwner` functions anymore. Can only be called by the current owner. NOTE: Renouncing ownership will leave the contract without an owner, thereby removing any functionality that is only available to the owner."
      },
      "renounceRole(bytes32,address)": {
        "notice": "Revokes `role` from the calling account."
      },
      "revokePendingOwner()": {
        "notice": "Revoke the pending owner address. This address will not be able to call {becomeOwner} to become the owner anymore. Can only be called by the owner"
      },
      "revokeRole(bytes32,address)": {
        "notice": "Revokes `role` from `account`."
      },
      "scheduleDutchAuction(address,uint256,address,uint96,uint96,uint256,uint256,uint256,uint256)": {
        "notice": "Schedules a Dutch Auction for an ERC721 token"
      },
      "scheduleEnglishAuction(address,uint256,address,uint96,uint96,uint256,uint256)": {
        "notice": "Schedules an English Auction for an ERC721 token"
      },
      "setPendingOwner(address)": {
        "notice": "Sets the pending owner address. This address will be able to become the owner of this contract by calling {becomeOwner}"
      },
      "settleDutchAuction(address,uint256)": {
        "notice": "Settles a Dutch Auction"
      },
      "settleDutchAuctionWithAVAXAndWAVAX(address,uint256)": {
        "notice": "Settles a Dutch Auction with AVAX and/or WAVAX"
      },
      "settleEnglishAuction(address,uint256)": {
        "notice": "Settles an English Auction"
      },
      "startDutchAuction(address,uint256,address,uint96,uint256,uint256,uint256,uint256)": {
        "notice": "Starts a Dutch Auction for an ERC721 token"
      },
      "startEnglishAuction(address,uint256,address,uint96,uint256,uint256)": {
        "notice": "Starts an English Auction for an ERC721 token"
      },
      "unpause()": {
        "notice": "Unpauses the contract."
      },
      "updateCurrencyManager(address)": {
        "notice": "Update currency manager"
      },
      "updateEnglishAuctionMinBidIncrementPct(uint256)": {
        "notice": "Update `englishAuctionMinBidIncrementPct`"
      },
      "updateEnglishAuctionRefreshTime(uint96)": {
        "notice": "Update `englishAuctionRefreshTime`"
      },
      "updateProtocolFeeManager(address)": {
        "notice": "Update protocol fee manager"
      },
      "updateProtocolFeeRecipient(address)": {
        "notice": "Update protocol fee recipient"
      },
      "updateRoyaltyFeeManager(address)": {
        "notice": "Update royalty fee manager"
      },
      "userLatestAuctionNonce(address)": {
        "notice": "Stores latest auction nonce per user"
      }
    },
    "notice": "An auction house that supports running English and Dutch auctions on ERC721 tokens",
    "version": 1
  },
  "storageLayout": {
    "storage": [
      {
        "astId": 702,
        "contract": "contracts/JoepegAuctionHouse.sol:JoepegAuctionHouse",
        "label": "_initialized",
        "offset": 0,
        "slot": "0",
        "type": "t_bool"
      },
      {
        "astId": 705,
        "contract": "contracts/JoepegAuctionHouse.sol:JoepegAuctionHouse",
        "label": "_initializing",
        "offset": 1,
        "slot": "0",
        "type": "t_bool"
      },
      {
        "astId": 1223,
        "contract": "contracts/JoepegAuctionHouse.sol:JoepegAuctionHouse",
        "label": "__gap",
        "offset": 0,
        "slot": "1",
        "type": "t_array(t_uint256)50_storage"
      },
      {
        "astId": 1470,
        "contract": "contracts/JoepegAuctionHouse.sol:JoepegAuctionHouse",
        "label": "__gap",
        "offset": 0,
        "slot": "51",
        "type": "t_array(t_uint256)50_storage"
      },
      {
        "astId": 15911,
        "contract": "contracts/JoepegAuctionHouse.sol:JoepegAuctionHouse",
        "label": "_owner",
        "offset": 0,
        "slot": "101",
        "type": "t_address"
      },
      {
        "astId": 15913,
        "contract": "contracts/JoepegAuctionHouse.sol:JoepegAuctionHouse",
        "label": "_pendingOwner",
        "offset": 0,
        "slot": "102",
        "type": "t_address"
      },
      {
        "astId": 184,
        "contract": "contracts/JoepegAuctionHouse.sol:JoepegAuctionHouse",
        "label": "_roles",
        "offset": 0,
        "slot": "103",
        "type": "t_mapping(t_bytes32,t_struct(RoleData)179_storage)"
      },
      {
        "astId": 472,
        "contract": "contracts/JoepegAuctionHouse.sol:JoepegAuctionHouse",
        "label": "__gap",
        "offset": 0,
        "slot": "104",
        "type": "t_array(t_uint256)49_storage"
      },
      {
        "astId": 33,
        "contract": "contracts/JoepegAuctionHouse.sol:JoepegAuctionHouse",
        "label": "_roleMembers",
        "offset": 0,
        "slot": "153",
        "type": "t_mapping(t_bytes32,t_struct(AddressSet)1795_storage)"
      },
      {
        "astId": 143,
        "contract": "contracts/JoepegAuctionHouse.sol:JoepegAuctionHouse",
        "label": "__gap",
        "offset": 0,
        "slot": "154",
        "type": "t_array(t_uint256)49_storage"
      },
      {
        "astId": 790,
        "contract": "contracts/JoepegAuctionHouse.sol:JoepegAuctionHouse",
        "label": "_paused",
        "offset": 0,
        "slot": "203",
        "type": "t_bool"
      },
      {
        "astId": 879,
        "contract": "contracts/JoepegAuctionHouse.sol:JoepegAuctionHouse",
        "label": "__gap",
        "offset": 0,
        "slot": "204",
        "type": "t_array(t_uint256)49_storage"
      },
      {
        "astId": 894,
        "contract": "contracts/JoepegAuctionHouse.sol:JoepegAuctionHouse",
        "label": "_status",
        "offset": 0,
        "slot": "253",
        "type": "t_uint256"
      },
      {
        "astId": 938,
        "contract": "contracts/JoepegAuctionHouse.sol:JoepegAuctionHouse",
        "label": "__gap",
        "offset": 0,
        "slot": "254",
        "type": "t_array(t_uint256)49_storage"
      },
      {
        "astId": 7708,
        "contract": "contracts/JoepegAuctionHouse.sol:JoepegAuctionHouse",
        "label": "currencyManager",
        "offset": 0,
        "slot": "303",
        "type": "t_contract(ICurrencyManager)14356"
      },
      {
        "astId": 7711,
        "contract": "contracts/JoepegAuctionHouse.sol:JoepegAuctionHouse",
        "label": "protocolFeeManager",
        "offset": 0,
        "slot": "304",
        "type": "t_contract(IProtocolFeeManager)14615"
      },
      {
        "astId": 7714,
        "contract": "contracts/JoepegAuctionHouse.sol:JoepegAuctionHouse",
        "label": "royaltyFeeManager",
        "offset": 0,
        "slot": "305",
        "type": "t_contract(IRoyaltyFeeManager)14646"
      },
      {
        "astId": 7716,
        "contract": "contracts/JoepegAuctionHouse.sol:JoepegAuctionHouse",
        "label": "protocolFeeRecipient",
        "offset": 0,
        "slot": "306",
        "type": "t_address"
      },
      {
        "astId": 7721,
        "contract": "contracts/JoepegAuctionHouse.sol:JoepegAuctionHouse",
        "label": "userLatestAuctionNonce",
        "offset": 0,
        "slot": "307",
        "type": "t_mapping(t_address,t_uint256)"
      },
      {
        "astId": 7729,
        "contract": "contracts/JoepegAuctionHouse.sol:JoepegAuctionHouse",
        "label": "dutchAuctions",
        "offset": 0,
        "slot": "308",
        "type": "t_mapping(t_address,t_mapping(t_uint256,t_struct(DutchAuction)7681_storage))"
      },
      {
        "astId": 7737,
        "contract": "contracts/JoepegAuctionHouse.sol:JoepegAuctionHouse",
        "label": "englishAuctions",
        "offset": 0,
        "slot": "309",
        "type": "t_mapping(t_address,t_mapping(t_uint256,t_struct(EnglishAuction)7700_storage))"
      },
      {
        "astId": 7740,
        "contract": "contracts/JoepegAuctionHouse.sol:JoepegAuctionHouse",
        "label": "englishAuctionMinBidIncrementPct",
        "offset": 0,
        "slot": "310",
        "type": "t_uint256"
      },
      {
        "astId": 7743,
        "contract": "contracts/JoepegAuctionHouse.sol:JoepegAuctionHouse",
        "label": "englishAuctionRefreshTime",
        "offset": 0,
        "slot": "311",
        "type": "t_uint96"
      }
    ],
    "types": {
      "t_address": {
        "encoding": "inplace",
        "label": "address",
        "numberOfBytes": "20"
      },
      "t_array(t_bytes32)dyn_storage": {
        "base": "t_bytes32",
        "encoding": "dynamic_array",
        "label": "bytes32[]",
        "numberOfBytes": "32"
      },
      "t_array(t_uint256)49_storage": {
        "base": "t_uint256",
        "encoding": "inplace",
        "label": "uint256[49]",
        "numberOfBytes": "1568"
      },
      "t_array(t_uint256)50_storage": {
        "base": "t_uint256",
        "encoding": "inplace",
        "label": "uint256[50]",
        "numberOfBytes": "1600"
      },
      "t_bool": {
        "encoding": "inplace",
        "label": "bool",
        "numberOfBytes": "1"
      },
      "t_bytes32": {
        "encoding": "inplace",
        "label": "bytes32",
        "numberOfBytes": "32"
      },
      "t_contract(ICurrencyManager)14356": {
        "encoding": "inplace",
        "label": "contract ICurrencyManager",
        "numberOfBytes": "20"
      },
      "t_contract(IProtocolFeeManager)14615": {
        "encoding": "inplace",
        "label": "contract IProtocolFeeManager",
        "numberOfBytes": "20"
      },
      "t_contract(IRoyaltyFeeManager)14646": {
        "encoding": "inplace",
        "label": "contract IRoyaltyFeeManager",
        "numberOfBytes": "20"
      },
      "t_mapping(t_address,t_bool)": {
        "encoding": "mapping",
        "key": "t_address",
        "label": "mapping(address => bool)",
        "numberOfBytes": "32",
        "value": "t_bool"
      },
      "t_mapping(t_address,t_mapping(t_uint256,t_struct(DutchAuction)7681_storage))": {
        "encoding": "mapping",
        "key": "t_address",
        "label": "mapping(address => mapping(uint256 => struct JoepegAuctionHouse.DutchAuction))",
        "numberOfBytes": "32",
        "value": "t_mapping(t_uint256,t_struct(DutchAuction)7681_storage)"
      },
      "t_mapping(t_address,t_mapping(t_uint256,t_struct(EnglishAuction)7700_storage))": {
        "encoding": "mapping",
        "key": "t_address",
        "label": "mapping(address => mapping(uint256 => struct JoepegAuctionHouse.EnglishAuction))",
        "numberOfBytes": "32",
        "value": "t_mapping(t_uint256,t_struct(EnglishAuction)7700_storage)"
      },
      "t_mapping(t_address,t_uint256)": {
        "encoding": "mapping",
        "key": "t_address",
        "label": "mapping(address => uint256)",
        "numberOfBytes": "32",
        "value": "t_uint256"
      },
      "t_mapping(t_bytes32,t_struct(AddressSet)1795_storage)": {
        "encoding": "mapping",
        "key": "t_bytes32",
        "label": "mapping(bytes32 => struct EnumerableSetUpgradeable.AddressSet)",
        "numberOfBytes": "32",
        "value": "t_struct(AddressSet)1795_storage"
      },
      "t_mapping(t_bytes32,t_struct(RoleData)179_storage)": {
        "encoding": "mapping",
        "key": "t_bytes32",
        "label": "mapping(bytes32 => struct AccessControlUpgradeable.RoleData)",
        "numberOfBytes": "32",
        "value": "t_struct(RoleData)179_storage"
      },
      "t_mapping(t_bytes32,t_uint256)": {
        "encoding": "mapping",
        "key": "t_bytes32",
        "label": "mapping(bytes32 => uint256)",
        "numberOfBytes": "32",
        "value": "t_uint256"
      },
      "t_mapping(t_uint256,t_struct(DutchAuction)7681_storage)": {
        "encoding": "mapping",
        "key": "t_uint256",
        "label": "mapping(uint256 => struct JoepegAuctionHouse.DutchAuction)",
        "numberOfBytes": "32",
        "value": "t_struct(DutchAuction)7681_storage"
      },
      "t_mapping(t_uint256,t_struct(EnglishAuction)7700_storage)": {
        "encoding": "mapping",
        "key": "t_uint256",
        "label": "mapping(uint256 => struct JoepegAuctionHouse.EnglishAuction)",
        "numberOfBytes": "32",
        "value": "t_struct(EnglishAuction)7700_storage"
      },
      "t_struct(AddressSet)1795_storage": {
        "encoding": "inplace",
        "label": "struct EnumerableSetUpgradeable.AddressSet",
        "members": [
          {
            "astId": 1794,
            "contract": "contracts/JoepegAuctionHouse.sol:JoepegAuctionHouse",
            "label": "_inner",
            "offset": 0,
            "slot": "0",
            "type": "t_struct(Set)1494_storage"
          }
        ],
        "numberOfBytes": "64"
      },
      "t_struct(DutchAuction)7681_storage": {
        "encoding": "inplace",
        "label": "struct JoepegAuctionHouse.DutchAuction",
        "members": [
          {
            "astId": 7664,
            "contract": "contracts/JoepegAuctionHouse.sol:JoepegAuctionHouse",
            "label": "creator",
            "offset": 0,
            "slot": "0",
            "type": "t_address"
          },
          {
            "astId": 7666,
            "contract": "contracts/JoepegAuctionHouse.sol:JoepegAuctionHouse",
            "label": "startTime",
            "offset": 20,
            "slot": "0",
            "type": "t_uint96"
          },
          {
            "astId": 7668,
            "contract": "contracts/JoepegAuctionHouse.sol:JoepegAuctionHouse",
            "label": "currency",
            "offset": 0,
            "slot": "1",
            "type": "t_address"
          },
          {
            "astId": 7670,
            "contract": "contracts/JoepegAuctionHouse.sol:JoepegAuctionHouse",
            "label": "endTime",
            "offset": 20,
            "slot": "1",
            "type": "t_uint96"
          },
          {
            "astId": 7672,
            "contract": "contracts/JoepegAuctionHouse.sol:JoepegAuctionHouse",
            "label": "nonce",
            "offset": 0,
            "slot": "2",
            "type": "t_uint256"
          },
          {
            "astId": 7674,
            "contract": "contracts/JoepegAuctionHouse.sol:JoepegAuctionHouse",
            "label": "startPrice",
            "offset": 0,
            "slot": "3",
            "type": "t_uint256"
          },
          {
            "astId": 7676,
            "contract": "contracts/JoepegAuctionHouse.sol:JoepegAuctionHouse",
            "label": "endPrice",
            "offset": 0,
            "slot": "4",
            "type": "t_uint256"
          },
          {
            "astId": 7678,
            "contract": "contracts/JoepegAuctionHouse.sol:JoepegAuctionHouse",
            "label": "dropInterval",
            "offset": 0,
            "slot": "5",
            "type": "t_uint256"
          },
          {
            "astId": 7680,
            "contract": "contracts/JoepegAuctionHouse.sol:JoepegAuctionHouse",
            "label": "minPercentageToAsk",
            "offset": 0,
            "slot": "6",
            "type": "t_uint256"
          }
        ],
        "numberOfBytes": "224"
      },
      "t_struct(EnglishAuction)7700_storage": {
        "encoding": "inplace",
        "label": "struct JoepegAuctionHouse.EnglishAuction",
        "members": [
          {
            "astId": 7683,
            "contract": "contracts/JoepegAuctionHouse.sol:JoepegAuctionHouse",
            "label": "creator",
            "offset": 0,
            "slot": "0",
            "type": "t_address"
          },
          {
            "astId": 7685,
            "contract": "contracts/JoepegAuctionHouse.sol:JoepegAuctionHouse",
            "label": "currency",
            "offset": 0,
            "slot": "1",
            "type": "t_address"
          },
          {
            "astId": 7687,
            "contract": "contracts/JoepegAuctionHouse.sol:JoepegAuctionHouse",
            "label": "startTime",
            "offset": 20,
            "slot": "1",
            "type": "t_uint96"
          },
          {
            "astId": 7689,
            "contract": "contracts/JoepegAuctionHouse.sol:JoepegAuctionHouse",
            "label": "lastBidder",
            "offset": 0,
            "slot": "2",
            "type": "t_address"
          },
          {
            "astId": 7691,
            "contract": "contracts/JoepegAuctionHouse.sol:JoepegAuctionHouse",
            "label": "endTime",
            "offset": 20,
            "slot": "2",
            "type": "t_uint96"
          },
          {
            "astId": 7693,
            "contract": "contracts/JoepegAuctionHouse.sol:JoepegAuctionHouse",
            "label": "nonce",
            "offset": 0,
            "slot": "3",
            "type": "t_uint256"
          },
          {
            "astId": 7695,
            "contract": "contracts/JoepegAuctionHouse.sol:JoepegAuctionHouse",
            "label": "lastBidPrice",
            "offset": 0,
            "slot": "4",
            "type": "t_uint256"
          },
          {
            "astId": 7697,
            "contract": "contracts/JoepegAuctionHouse.sol:JoepegAuctionHouse",
            "label": "startPrice",
            "offset": 0,
            "slot": "5",
            "type": "t_uint256"
          },
          {
            "astId": 7699,
            "contract": "contracts/JoepegAuctionHouse.sol:JoepegAuctionHouse",
            "label": "minPercentageToAsk",
            "offset": 0,
            "slot": "6",
            "type": "t_uint256"
          }
        ],
        "numberOfBytes": "224"
      },
      "t_struct(RoleData)179_storage": {
        "encoding": "inplace",
        "label": "struct AccessControlUpgradeable.RoleData",
        "members": [
          {
            "astId": 176,
            "contract": "contracts/JoepegAuctionHouse.sol:JoepegAuctionHouse",
            "label": "members",
            "offset": 0,
            "slot": "0",
            "type": "t_mapping(t_address,t_bool)"
          },
          {
            "astId": 178,
            "contract": "contracts/JoepegAuctionHouse.sol:JoepegAuctionHouse",
            "label": "adminRole",
            "offset": 0,
            "slot": "1",
            "type": "t_bytes32"
          }
        ],
        "numberOfBytes": "64"
      },
      "t_struct(Set)1494_storage": {
        "encoding": "inplace",
        "label": "struct EnumerableSetUpgradeable.Set",
        "members": [
          {
            "astId": 1489,
            "contract": "contracts/JoepegAuctionHouse.sol:JoepegAuctionHouse",
            "label": "_values",
            "offset": 0,
            "slot": "0",
            "type": "t_array(t_bytes32)dyn_storage"
          },
          {
            "astId": 1493,
            "contract": "contracts/JoepegAuctionHouse.sol:JoepegAuctionHouse",
            "label": "_indexes",
            "offset": 0,
            "slot": "1",
            "type": "t_mapping(t_bytes32,t_uint256)"
          }
        ],
        "numberOfBytes": "64"
      },
      "t_uint256": {
        "encoding": "inplace",
        "label": "uint256",
        "numberOfBytes": "32"
      },
      "t_uint96": {
        "encoding": "inplace",
        "label": "uint96",
        "numberOfBytes": "12"
      }
    }
  }
}