{
  "address": "0x587f7d566Ebac28dDDf77A0accf785f1F07FB81f",
  "abi": [
    {
      "anonymous": false,
      "inputs": [
        {
          "indexed": true,
          "internalType": "address",
          "name": "user",
          "type": "address"
        },
        {
          "indexed": false,
          "internalType": "uint256",
          "name": "newMinNonce",
          "type": "uint256"
        }
      ],
      "name": "CancelAllOrders",
      "type": "event"
    },
    {
      "anonymous": false,
      "inputs": [
        {
          "indexed": true,
          "internalType": "address",
          "name": "user",
          "type": "address"
        },
        {
          "indexed": false,
          "internalType": "uint256[]",
          "name": "orderNonces",
          "type": "uint256[]"
        }
      ],
      "name": "CancelMultipleOrders",
      "type": "event"
    },
    {
      "anonymous": false,
      "inputs": [
        {
          "indexed": true,
          "internalType": "address",
          "name": "currencyManager",
          "type": "address"
        }
      ],
      "name": "NewCurrencyManager",
      "type": "event"
    },
    {
      "anonymous": false,
      "inputs": [
        {
          "indexed": true,
          "internalType": "address",
          "name": "executionManager",
          "type": "address"
        }
      ],
      "name": "NewExecutionManager",
      "type": "event"
    },
    {
      "anonymous": false,
      "inputs": [
        {
          "indexed": true,
          "internalType": "address",
          "name": "protocolFeeManager",
          "type": "address"
        }
      ],
      "name": "NewProtocolFeeManager",
      "type": "event"
    },
    {
      "anonymous": false,
      "inputs": [
        {
          "indexed": true,
          "internalType": "address",
          "name": "protocolFeeRecipient",
          "type": "address"
        }
      ],
      "name": "NewProtocolFeeRecipient",
      "type": "event"
    },
    {
      "anonymous": false,
      "inputs": [
        {
          "indexed": true,
          "internalType": "address",
          "name": "royaltyFeeManager",
          "type": "address"
        }
      ],
      "name": "NewRoyaltyFeeManager",
      "type": "event"
    },
    {
      "anonymous": false,
      "inputs": [
        {
          "indexed": true,
          "internalType": "address",
          "name": "transferSelectorNFT",
          "type": "address"
        }
      ],
      "name": "NewTransferSelectorNFT",
      "type": "event"
    },
    {
      "anonymous": false,
      "inputs": [
        {
          "indexed": true,
          "internalType": "address",
          "name": "previousOwner",
          "type": "address"
        },
        {
          "indexed": true,
          "internalType": "address",
          "name": "newOwner",
          "type": "address"
        }
      ],
      "name": "OwnershipTransferred",
      "type": "event"
    },
    {
      "anonymous": false,
      "inputs": [
        {
          "indexed": true,
          "internalType": "address",
          "name": "collection",
          "type": "address"
        },
        {
          "indexed": true,
          "internalType": "uint256",
          "name": "tokenId",
          "type": "uint256"
        },
        {
          "indexed": true,
          "internalType": "address",
          "name": "royaltyRecipient",
          "type": "address"
        },
        {
          "indexed": false,
          "internalType": "address",
          "name": "currency",
          "type": "address"
        },
        {
          "indexed": false,
          "internalType": "uint256",
          "name": "amount",
          "type": "uint256"
        }
      ],
      "name": "RoyaltyPayment",
      "type": "event"
    },
    {
      "anonymous": false,
      "inputs": [
        {
          "indexed": false,
          "internalType": "bytes32",
          "name": "orderHash",
          "type": "bytes32"
        },
        {
          "indexed": false,
          "internalType": "uint256",
          "name": "orderNonce",
          "type": "uint256"
        },
        {
          "indexed": true,
          "internalType": "address",
          "name": "taker",
          "type": "address"
        },
        {
          "indexed": true,
          "internalType": "address",
          "name": "maker",
          "type": "address"
        },
        {
          "indexed": true,
          "internalType": "address",
          "name": "strategy",
          "type": "address"
        },
        {
          "indexed": false,
          "internalType": "address",
          "name": "currency",
          "type": "address"
        },
        {
          "indexed": false,
          "internalType": "address",
          "name": "collection",
          "type": "address"
        },
        {
          "indexed": false,
          "internalType": "uint256",
          "name": "tokenId",
          "type": "uint256"
        },
        {
          "indexed": false,
          "internalType": "uint256",
          "name": "amount",
          "type": "uint256"
        },
        {
          "indexed": false,
          "internalType": "uint256",
          "name": "price",
          "type": "uint256"
        }
      ],
      "name": "TakerAsk",
      "type": "event"
    },
    {
      "anonymous": false,
      "inputs": [
        {
          "indexed": false,
          "internalType": "bytes32",
          "name": "orderHash",
          "type": "bytes32"
        },
        {
          "indexed": false,
          "internalType": "uint256",
          "name": "orderNonce",
          "type": "uint256"
        },
        {
          "indexed": true,
          "internalType": "address",
          "name": "taker",
          "type": "address"
        },
        {
          "indexed": true,
          "internalType": "address",
          "name": "maker",
          "type": "address"
        },
        {
          "indexed": true,
          "internalType": "address",
          "name": "strategy",
          "type": "address"
        },
        {
          "indexed": false,
          "internalType": "address",
          "name": "currency",
          "type": "address"
        },
        {
          "indexed": false,
          "internalType": "address",
          "name": "collection",
          "type": "address"
        },
        {
          "indexed": false,
          "internalType": "uint256",
          "name": "tokenId",
          "type": "uint256"
        },
        {
          "indexed": false,
          "internalType": "uint256",
          "name": "amount",
          "type": "uint256"
        },
        {
          "indexed": false,
          "internalType": "uint256",
          "name": "price",
          "type": "uint256"
        }
      ],
      "name": "TakerBid",
      "type": "event"
    },
    {
      "inputs": [],
      "name": "PERCENTAGE_PRECISION",
      "outputs": [
        {
          "internalType": "uint256",
          "name": "",
          "type": "uint256"
        }
      ],
      "stateMutability": "view",
      "type": "function"
    },
    {
      "inputs": [],
      "name": "WAVAX",
      "outputs": [
        {
          "internalType": "address",
          "name": "",
          "type": "address"
        }
      ],
      "stateMutability": "view",
      "type": "function"
    },
    {
      "inputs": [
        {
          "components": [
            {
              "components": [
                {
                  "internalType": "bool",
                  "name": "isOrderAsk",
                  "type": "bool"
                },
                {
                  "internalType": "address",
                  "name": "taker",
                  "type": "address"
                },
                {
                  "internalType": "uint256",
                  "name": "price",
                  "type": "uint256"
                },
                {
                  "internalType": "uint256",
                  "name": "tokenId",
                  "type": "uint256"
                },
                {
                  "internalType": "uint256",
                  "name": "minPercentageToAsk",
                  "type": "uint256"
                },
                {
                  "internalType": "bytes",
                  "name": "params",
                  "type": "bytes"
                }
              ],
              "internalType": "struct OrderTypes.TakerOrder",
              "name": "takerBid",
              "type": "tuple"
            },
            {
              "components": [
                {
                  "internalType": "bool",
                  "name": "isOrderAsk",
                  "type": "bool"
                },
                {
                  "internalType": "address",
                  "name": "signer",
                  "type": "address"
                },
                {
                  "internalType": "address",
                  "name": "collection",
                  "type": "address"
                },
                {
                  "internalType": "uint256",
                  "name": "price",
                  "type": "uint256"
                },
                {
                  "internalType": "uint256",
                  "name": "tokenId",
                  "type": "uint256"
                },
                {
                  "internalType": "uint256",
                  "name": "amount",
                  "type": "uint256"
                },
                {
                  "internalType": "address",
                  "name": "strategy",
                  "type": "address"
                },
                {
                  "internalType": "address",
                  "name": "currency",
                  "type": "address"
                },
                {
                  "internalType": "uint256",
                  "name": "nonce",
                  "type": "uint256"
                },
                {
                  "internalType": "uint256",
                  "name": "startTime",
                  "type": "uint256"
                },
                {
                  "internalType": "uint256",
                  "name": "endTime",
                  "type": "uint256"
                },
                {
                  "internalType": "uint256",
                  "name": "minPercentageToAsk",
                  "type": "uint256"
                },
                {
                  "internalType": "bytes",
                  "name": "params",
                  "type": "bytes"
                },
                {
                  "internalType": "uint8",
                  "name": "v",
                  "type": "uint8"
                },
                {
                  "internalType": "bytes32",
                  "name": "r",
                  "type": "bytes32"
                },
                {
                  "internalType": "bytes32",
                  "name": "s",
                  "type": "bytes32"
                }
              ],
              "internalType": "struct OrderTypes.MakerOrder",
              "name": "makerAsk",
              "type": "tuple"
            }
          ],
          "internalType": "struct IJoepegBuyBatcher.Trade[]",
          "name": "trades",
          "type": "tuple[]"
        }
      ],
      "name": "batchBuyWithAVAXAndWAVAX",
      "outputs": [],
      "stateMutability": "payable",
      "type": "function"
    },
    {
      "inputs": [
        {
          "components": [
            {
              "components": [
                {
                  "internalType": "bool",
                  "name": "isOrderAsk",
                  "type": "bool"
                },
                {
                  "internalType": "address",
                  "name": "taker",
                  "type": "address"
                },
                {
                  "internalType": "uint256",
                  "name": "price",
                  "type": "uint256"
                },
                {
                  "internalType": "uint256",
                  "name": "tokenId",
                  "type": "uint256"
                },
                {
                  "internalType": "uint256",
                  "name": "minPercentageToAsk",
                  "type": "uint256"
                },
                {
                  "internalType": "bytes",
                  "name": "params",
                  "type": "bytes"
                }
              ],
              "internalType": "struct OrderTypes.TakerOrder",
              "name": "takerBid",
              "type": "tuple"
            },
            {
              "components": [
                {
                  "internalType": "bool",
                  "name": "isOrderAsk",
                  "type": "bool"
                },
                {
                  "internalType": "address",
                  "name": "signer",
                  "type": "address"
                },
                {
                  "internalType": "address",
                  "name": "collection",
                  "type": "address"
                },
                {
                  "internalType": "uint256",
                  "name": "price",
                  "type": "uint256"
                },
                {
                  "internalType": "uint256",
                  "name": "tokenId",
                  "type": "uint256"
                },
                {
                  "internalType": "uint256",
                  "name": "amount",
                  "type": "uint256"
                },
                {
                  "internalType": "address",
                  "name": "strategy",
                  "type": "address"
                },
                {
                  "internalType": "address",
                  "name": "currency",
                  "type": "address"
                },
                {
                  "internalType": "uint256",
                  "name": "nonce",
                  "type": "uint256"
                },
                {
                  "internalType": "uint256",
                  "name": "startTime",
                  "type": "uint256"
                },
                {
                  "internalType": "uint256",
                  "name": "endTime",
                  "type": "uint256"
                },
                {
                  "internalType": "uint256",
                  "name": "minPercentageToAsk",
                  "type": "uint256"
                },
                {
                  "internalType": "bytes",
                  "name": "params",
                  "type": "bytes"
                },
                {
                  "internalType": "uint8",
                  "name": "v",
                  "type": "uint8"
                },
                {
                  "internalType": "bytes32",
                  "name": "r",
                  "type": "bytes32"
                },
                {
                  "internalType": "bytes32",
                  "name": "s",
                  "type": "bytes32"
                }
              ],
              "internalType": "struct OrderTypes.MakerOrder",
              "name": "makerAsk",
              "type": "tuple"
            }
          ],
          "internalType": "struct IJoepegBuyBatcher.Trade[]",
          "name": "trades",
          "type": "tuple[]"
        }
      ],
      "name": "batchBuyWithAVAXAndWAVAXIgnoringExpiredAsks",
      "outputs": [
        {
          "internalType": "bool[]",
          "name": "transferStatus",
          "type": "bool[]"
        }
      ],
      "stateMutability": "payable",
      "type": "function"
    },
    {
      "inputs": [
        {
          "internalType": "uint256",
          "name": "minNonce",
          "type": "uint256"
        }
      ],
      "name": "cancelAllOrdersForSender",
      "outputs": [],
      "stateMutability": "nonpayable",
      "type": "function"
    },
    {
      "inputs": [
        {
          "internalType": "uint256[]",
          "name": "orderNonces",
          "type": "uint256[]"
        }
      ],
      "name": "cancelMultipleMakerOrders",
      "outputs": [],
      "stateMutability": "nonpayable",
      "type": "function"
    },
    {
      "inputs": [],
      "name": "currencyManager",
      "outputs": [
        {
          "internalType": "contract ICurrencyManager",
          "name": "",
          "type": "address"
        }
      ],
      "stateMutability": "view",
      "type": "function"
    },
    {
      "inputs": [],
      "name": "domainSeparator",
      "outputs": [
        {
          "internalType": "bytes32",
          "name": "",
          "type": "bytes32"
        }
      ],
      "stateMutability": "view",
      "type": "function"
    },
    {
      "inputs": [],
      "name": "executionManager",
      "outputs": [
        {
          "internalType": "contract IExecutionManager",
          "name": "",
          "type": "address"
        }
      ],
      "stateMutability": "view",
      "type": "function"
    },
    {
      "inputs": [
        {
          "internalType": "address",
          "name": "_currencyManager",
          "type": "address"
        },
        {
          "internalType": "address",
          "name": "_executionManager",
          "type": "address"
        },
        {
          "internalType": "address",
          "name": "_protocolFeeManager",
          "type": "address"
        },
        {
          "internalType": "address",
          "name": "_royaltyFeeManager",
          "type": "address"
        },
        {
          "internalType": "address",
          "name": "_WAVAX",
          "type": "address"
        },
        {
          "internalType": "address",
          "name": "_protocolFeeRecipient",
          "type": "address"
        }
      ],
      "name": "initialize",
      "outputs": [],
      "stateMutability": "nonpayable",
      "type": "function"
    },
    {
      "inputs": [
        {
          "internalType": "address",
          "name": "user",
          "type": "address"
        },
        {
          "internalType": "uint256",
          "name": "orderNonce",
          "type": "uint256"
        }
      ],
      "name": "isUserOrderNonceExecutedOrCancelled",
      "outputs": [
        {
          "internalType": "bool",
          "name": "",
          "type": "bool"
        }
      ],
      "stateMutability": "view",
      "type": "function"
    },
    {
      "inputs": [
        {
          "components": [
            {
              "internalType": "bool",
              "name": "isOrderAsk",
              "type": "bool"
            },
            {
              "internalType": "address",
              "name": "taker",
              "type": "address"
            },
            {
              "internalType": "uint256",
              "name": "price",
              "type": "uint256"
            },
            {
              "internalType": "uint256",
              "name": "tokenId",
              "type": "uint256"
            },
            {
              "internalType": "uint256",
              "name": "minPercentageToAsk",
              "type": "uint256"
            },
            {
              "internalType": "bytes",
              "name": "params",
              "type": "bytes"
            }
          ],
          "internalType": "struct OrderTypes.TakerOrder",
          "name": "takerBid",
          "type": "tuple"
        },
        {
          "components": [
            {
              "internalType": "bool",
              "name": "isOrderAsk",
              "type": "bool"
            },
            {
              "internalType": "address",
              "name": "signer",
              "type": "address"
            },
            {
              "internalType": "address",
              "name": "collection",
              "type": "address"
            },
            {
              "internalType": "uint256",
              "name": "price",
              "type": "uint256"
            },
            {
              "internalType": "uint256",
              "name": "tokenId",
              "type": "uint256"
            },
            {
              "internalType": "uint256",
              "name": "amount",
              "type": "uint256"
            },
            {
              "internalType": "address",
              "name": "strategy",
              "type": "address"
            },
            {
              "internalType": "address",
              "name": "currency",
              "type": "address"
            },
            {
              "internalType": "uint256",
              "name": "nonce",
              "type": "uint256"
            },
            {
              "internalType": "uint256",
              "name": "startTime",
              "type": "uint256"
            },
            {
              "internalType": "uint256",
              "name": "endTime",
              "type": "uint256"
            },
            {
              "internalType": "uint256",
              "name": "minPercentageToAsk",
              "type": "uint256"
            },
            {
              "internalType": "bytes",
              "name": "params",
              "type": "bytes"
            },
            {
              "internalType": "uint8",
              "name": "v",
              "type": "uint8"
            },
            {
              "internalType": "bytes32",
              "name": "r",
              "type": "bytes32"
            },
            {
              "internalType": "bytes32",
              "name": "s",
              "type": "bytes32"
            }
          ],
          "internalType": "struct OrderTypes.MakerOrder",
          "name": "makerAsk",
          "type": "tuple"
        }
      ],
      "name": "matchAskWithTakerBid",
      "outputs": [],
      "stateMutability": "nonpayable",
      "type": "function"
    },
    {
      "inputs": [
        {
          "components": [
            {
              "internalType": "bool",
              "name": "isOrderAsk",
              "type": "bool"
            },
            {
              "internalType": "address",
              "name": "taker",
              "type": "address"
            },
            {
              "internalType": "uint256",
              "name": "price",
              "type": "uint256"
            },
            {
              "internalType": "uint256",
              "name": "tokenId",
              "type": "uint256"
            },
            {
              "internalType": "uint256",
              "name": "minPercentageToAsk",
              "type": "uint256"
            },
            {
              "internalType": "bytes",
              "name": "params",
              "type": "bytes"
            }
          ],
          "internalType": "struct OrderTypes.TakerOrder",
          "name": "takerBid",
          "type": "tuple"
        },
        {
          "components": [
            {
              "internalType": "bool",
              "name": "isOrderAsk",
              "type": "bool"
            },
            {
              "internalType": "address",
              "name": "signer",
              "type": "address"
            },
            {
              "internalType": "address",
              "name": "collection",
              "type": "address"
            },
            {
              "internalType": "uint256",
              "name": "price",
              "type": "uint256"
            },
            {
              "internalType": "uint256",
              "name": "tokenId",
              "type": "uint256"
            },
            {
              "internalType": "uint256",
              "name": "amount",
              "type": "uint256"
            },
            {
              "internalType": "address",
              "name": "strategy",
              "type": "address"
            },
            {
              "internalType": "address",
              "name": "currency",
              "type": "address"
            },
            {
              "internalType": "uint256",
              "name": "nonce",
              "type": "uint256"
            },
            {
              "internalType": "uint256",
              "name": "startTime",
              "type": "uint256"
            },
            {
              "internalType": "uint256",
              "name": "endTime",
              "type": "uint256"
            },
            {
              "internalType": "uint256",
              "name": "minPercentageToAsk",
              "type": "uint256"
            },
            {
              "internalType": "bytes",
              "name": "params",
              "type": "bytes"
            },
            {
              "internalType": "uint8",
              "name": "v",
              "type": "uint8"
            },
            {
              "internalType": "bytes32",
              "name": "r",
              "type": "bytes32"
            },
            {
              "internalType": "bytes32",
              "name": "s",
              "type": "bytes32"
            }
          ],
          "internalType": "struct OrderTypes.MakerOrder",
          "name": "makerAsk",
          "type": "tuple"
        }
      ],
      "name": "matchAskWithTakerBidUsingAVAXAndWAVAX",
      "outputs": [],
      "stateMutability": "payable",
      "type": "function"
    },
    {
      "inputs": [
        {
          "components": [
            {
              "internalType": "bool",
              "name": "isOrderAsk",
              "type": "bool"
            },
            {
              "internalType": "address",
              "name": "taker",
              "type": "address"
            },
            {
              "internalType": "uint256",
              "name": "price",
              "type": "uint256"
            },
            {
              "internalType": "uint256",
              "name": "tokenId",
              "type": "uint256"
            },
            {
              "internalType": "uint256",
              "name": "minPercentageToAsk",
              "type": "uint256"
            },
            {
              "internalType": "bytes",
              "name": "params",
              "type": "bytes"
            }
          ],
          "internalType": "struct OrderTypes.TakerOrder",
          "name": "takerAsk",
          "type": "tuple"
        },
        {
          "components": [
            {
              "internalType": "bool",
              "name": "isOrderAsk",
              "type": "bool"
            },
            {
              "internalType": "address",
              "name": "signer",
              "type": "address"
            },
            {
              "internalType": "address",
              "name": "collection",
              "type": "address"
            },
            {
              "internalType": "uint256",
              "name": "price",
              "type": "uint256"
            },
            {
              "internalType": "uint256",
              "name": "tokenId",
              "type": "uint256"
            },
            {
              "internalType": "uint256",
              "name": "amount",
              "type": "uint256"
            },
            {
              "internalType": "address",
              "name": "strategy",
              "type": "address"
            },
            {
              "internalType": "address",
              "name": "currency",
              "type": "address"
            },
            {
              "internalType": "uint256",
              "name": "nonce",
              "type": "uint256"
            },
            {
              "internalType": "uint256",
              "name": "startTime",
              "type": "uint256"
            },
            {
              "internalType": "uint256",
              "name": "endTime",
              "type": "uint256"
            },
            {
              "internalType": "uint256",
              "name": "minPercentageToAsk",
              "type": "uint256"
            },
            {
              "internalType": "bytes",
              "name": "params",
              "type": "bytes"
            },
            {
              "internalType": "uint8",
              "name": "v",
              "type": "uint8"
            },
            {
              "internalType": "bytes32",
              "name": "r",
              "type": "bytes32"
            },
            {
              "internalType": "bytes32",
              "name": "s",
              "type": "bytes32"
            }
          ],
          "internalType": "struct OrderTypes.MakerOrder",
          "name": "makerBid",
          "type": "tuple"
        }
      ],
      "name": "matchBidWithTakerAsk",
      "outputs": [],
      "stateMutability": "nonpayable",
      "type": "function"
    },
    {
      "inputs": [],
      "name": "owner",
      "outputs": [
        {
          "internalType": "address",
          "name": "",
          "type": "address"
        }
      ],
      "stateMutability": "view",
      "type": "function"
    },
    {
      "inputs": [],
      "name": "protocolFeeManager",
      "outputs": [
        {
          "internalType": "contract IProtocolFeeManager",
          "name": "",
          "type": "address"
        }
      ],
      "stateMutability": "view",
      "type": "function"
    },
    {
      "inputs": [],
      "name": "protocolFeeRecipient",
      "outputs": [
        {
          "internalType": "address",
          "name": "",
          "type": "address"
        }
      ],
      "stateMutability": "view",
      "type": "function"
    },
    {
      "inputs": [],
      "name": "renounceOwnership",
      "outputs": [],
      "stateMutability": "nonpayable",
      "type": "function"
    },
    {
      "inputs": [],
      "name": "royaltyFeeManager",
      "outputs": [
        {
          "internalType": "contract IRoyaltyFeeManager",
          "name": "",
          "type": "address"
        }
      ],
      "stateMutability": "view",
      "type": "function"
    },
    {
      "inputs": [
        {
          "internalType": "address",
          "name": "newOwner",
          "type": "address"
        }
      ],
      "name": "transferOwnership",
      "outputs": [],
      "stateMutability": "nonpayable",
      "type": "function"
    },
    {
      "inputs": [],
      "name": "transferSelectorNFT",
      "outputs": [
        {
          "internalType": "contract ITransferSelectorNFT",
          "name": "",
          "type": "address"
        }
      ],
      "stateMutability": "view",
      "type": "function"
    },
    {
      "inputs": [
        {
          "internalType": "address",
          "name": "_currencyManager",
          "type": "address"
        }
      ],
      "name": "updateCurrencyManager",
      "outputs": [],
      "stateMutability": "nonpayable",
      "type": "function"
    },
    {
      "inputs": [
        {
          "internalType": "address",
          "name": "_executionManager",
          "type": "address"
        }
      ],
      "name": "updateExecutionManager",
      "outputs": [],
      "stateMutability": "nonpayable",
      "type": "function"
    },
    {
      "inputs": [
        {
          "internalType": "address",
          "name": "_protocolFeeManager",
          "type": "address"
        }
      ],
      "name": "updateProtocolFeeManager",
      "outputs": [],
      "stateMutability": "nonpayable",
      "type": "function"
    },
    {
      "inputs": [
        {
          "internalType": "address",
          "name": "_protocolFeeRecipient",
          "type": "address"
        }
      ],
      "name": "updateProtocolFeeRecipient",
      "outputs": [],
      "stateMutability": "nonpayable",
      "type": "function"
    },
    {
      "inputs": [
        {
          "internalType": "address",
          "name": "_royaltyFeeManager",
          "type": "address"
        }
      ],
      "name": "updateRoyaltyFeeManager",
      "outputs": [],
      "stateMutability": "nonpayable",
      "type": "function"
    },
    {
      "inputs": [
        {
          "internalType": "address",
          "name": "_transferSelectorNFT",
          "type": "address"
        }
      ],
      "name": "updateTransferSelectorNFT",
      "outputs": [],
      "stateMutability": "nonpayable",
      "type": "function"
    },
    {
      "inputs": [
        {
          "internalType": "address",
          "name": "",
          "type": "address"
        }
      ],
      "name": "userMinOrderNonce",
      "outputs": [
        {
          "internalType": "uint256",
          "name": "",
          "type": "uint256"
        }
      ],
      "stateMutability": "view",
      "type": "function"
    }
  ],
  "transactionHash": "0x042c3d68bd3738389468c8102d89114a8da5cef1628cc18babc9dcb77022dfac",
  "args": [],
  "numDeployments": 1,
  "solcInputHash": "e27c224c09507bb41163b96c985afc0d",
  "bytecode": "0x60a060405261271060805234801561001657600080fd5b50608051613c10610047600039600081816104d101528181611f0b0152818161271701526129fd0152613c106000f3fe6080604052600436106101b75760003560e01c80638da5cb5b116100ec578063cc2a9a5b1161008a578063eb8545aa11610064578063eb8545aa146104f3578063f2fde38b14610513578063f698da2514610533578063f75ff53f1461054957600080fd5b8063cc2a9a5b1461047f578063d4ff41dc1461049f578063e256888f146104bf57600080fd5b80639e53a69a116100c65780639e53a69a146103ff578063a70dbaeb1461041f578063c54987691461043f578063cbd2ec651461045f57600080fd5b80638da5cb5b146103bb57806391932a6b146103d957806397800e4d146103ec57600080fd5b8063483abb9f1161015957806364df049e1161013357806364df049e14610346578063715018a61461036657806373b295c21461037b57806387e4401f1461039b57600080fd5b8063483abb9f146102e65780635ce052d7146103065780635e14f68e1461032657600080fd5b806331e27e271161019557806331e27e271461023b57806338e292091461026b5780633b6d032e1461028b5780634266581e146102ab57600080fd5b80630f747d74146101bc578063127d71f7146101f95780631df47f801461021b575b600080fd5b3480156101c857600080fd5b50609a546101dc906001600160a01b031681565b6040516001600160a01b0390911681526020015b60405180910390f35b34801561020557600080fd5b50610219610214366004612f2e565b610569565b005b34801561022757600080fd5b50610219610236366004612f2e565b61060c565b34801561024757600080fd5b5061025b610256366004612f4b565b610680565b60405190151581526020016101f0565b34801561027757600080fd5b50610219610286366004612f77565b6106ae565b34801561029757600080fd5b506102196102a6366004612f77565b6109ad565b3480156102b757600080fd5b506102d86102c6366004612f2e565b609f6020526000908152604090205481565b6040519081526020016101f0565b3480156102f257600080fd5b50609b546101dc906001600160a01b031681565b34801561031257600080fd5b50610219610321366004612f2e565b610c60565b34801561033257600080fd5b50609e546101dc906001600160a01b031681565b34801561035257600080fd5b506099546101dc906001600160a01b031681565b34801561037257600080fd5b50610219610cfa565b34801561038757600080fd5b506097546101dc906001600160a01b031681565b3480156103a757600080fd5b50609d546101dc906001600160a01b031681565b3480156103c757600080fd5b506065546001600160a01b03166101dc565b6102196103e7366004613037565b610d30565b6102196103fa366004612f77565b610eb2565b34801561040b57600080fd5b5061021961041a366004613037565b610f62565b34801561042b57600080fd5b50609c546101dc906001600160a01b031681565b34801561044b57600080fd5b5061021961045a366004612f2e565b6110ac565b34801561046b57600080fd5b5061021961047a366004613079565b611146565b34801561048b57600080fd5b5061021961049a366004613092565b611238565b3480156104ab57600080fd5b506102196104ba366004612f2e565b61140b565b3480156104cb57600080fd5b506102d87f000000000000000000000000000000000000000000000000000000000000000081565b610506610501366004613037565b6114a5565b6040516101f09190613114565b34801561051f57600080fd5b5061021961052e366004612f2e565b61182e565b34801561053f57600080fd5b506102d860985481565b34801561055557600080fd5b50610219610564366004612f2e565b6118c9565b6065546001600160a01b0316331461059c5760405162461bcd60e51b81526004016105939061315a565b60405180910390fd5b6001600160a01b0381166105c25760405162461bcd60e51b81526004016105939061318f565b609c80546001600160a01b0319166001600160a01b0383169081179091556040517f3f02d3784d3c8c06d26bb0ac131b3c2a0b8970b1b9707b9be5526193cf0b89f390600090a250565b6065546001600160a01b031633146106365760405162461bcd60e51b81526004016105939061315a565b609980546001600160a01b0319166001600160a01b0383169081179091556040517f8cffb07faa2874440346743bdc0a86b06c3335cc47dc49b327d10e77b73ceb1090600090a250565b6001600160a01b038216600090815260a06020908152604080832084845290915290205460ff165b92915050565b600260015414156106d15760405162461bcd60e51b8152600401610593906131c6565b60026001556106e36020820182613216565b80156106f957506106f76020830183613216565b155b6107155760405162461bcd60e51b815260040161059390613233565b6107256040830160208401612f2e565b6001600160a01b0316336001600160a01b0316146107555760405162461bcd60e51b81526004016105939061325f565b6000610768610763836133ab565b611963565b90506107748282611a0a565b6000808061078860e0860160c08701612f2e565b6001600160a01b031663865781ca87876040518363ffffffff1660e01b81526004016107b592919061352b565b606060405180830381865afa1580156107d2573d6000803e3d6000fd5b505050506040513d601f19601f820116820180604052508101906107f691906136d3565b925092509250826108195760405162461bcd60e51b81526004016105939061370a565b600160a0600061082f6040890160208a01612f2e565b6001600160a01b03168152602080820192909252604090810160009081206101008a0135825290925290819020805460ff1916921515929092179091556108b3906108809060608801908801612f2e565b83610892610100890160e08a01612f2e565b336108a360408b0160208c01612f2e565b8b604001358b6101600135611d3e565b6108ed6108c66060870160408801612f2e565b6108d66040880160208901612f2e565b6108e660408a0160208b01612f2e565b8585611f9d565b6108fd60e0860160c08701612f2e565b6001600160a01b03166109166040870160208801612f2e565b6001600160a01b031661092f6040890160208a01612f2e565b6001600160a01b03167f95fb6205e23ff6bda16a2d1dba56b9ad7c783f67c96fa149785052f47696f2be876101008a0180359061096f9060e08d01612f2e565b61097f60608d0160408e01612f2e565b89898f604001356040516109999796959493929190613741565b60405180910390a450506001805550505050565b600260015414156109d05760405162461bcd60e51b8152600401610593906131c6565b60026001556109e26020820182613216565b1580156109f757506109f76020830183613216565b610a135760405162461bcd60e51b815260040161059390613233565b610a236040830160208401612f2e565b6001600160a01b0316336001600160a01b031614610a535760405162461bcd60e51b81526004016105939061325f565b6000610a61610763836133ab565b9050610a6d8282611a0a565b60008080610a8160e0860160c08701612f2e565b6001600160a01b031663ad2390ac87876040518363ffffffff1660e01b8152600401610aae92919061352b565b606060405180830381865afa158015610acb573d6000803e3d6000fd5b505050506040513d601f19601f82011682018060405250810190610aef91906136d3565b92509250925082610b125760405162461bcd60e51b81526004016105939061370a565b600160a06000610b286040890160208a01612f2e565b6001600160a01b03168152602080820192909252604090810160009081206101008a0135825290925290819020805460ff191692151592909217909155610b8a90610b799060608801908801612f2e565b336108e66040890160208a01612f2e565b610bde610b9d6060870160408801612f2e565b83610baf610100890160e08a01612f2e565b610bbf60408a0160208b01612f2e565b610bcf60408c0160208d01612f2e565b8b604001358c60800135611d3e565b610bee60e0860160c08701612f2e565b6001600160a01b0316610c076040870160208801612f2e565b6001600160a01b0316610c206040890160208a01612f2e565b6001600160a01b03167f68cd251d4d267c6e2034ff0088b990352b97b2002c0476587d0c4da889c11330876101008a0180359061096f9060e08d01612f2e565b6065546001600160a01b03163314610c8a5760405162461bcd60e51b81526004016105939061315a565b6001600160a01b038116610cb05760405162461bcd60e51b81526004016105939061318f565b609a80546001600160a01b0319166001600160a01b0383169081179091556040517fb4f5db40df3aced29e88a4babbc3b46e305e07d34098525d18b1497056e6383890600090a250565b6065546001600160a01b03163314610d245760405162461bcd60e51b81526004016105939061315a565b610d2e60006120f9565b565b60026001541415610d535760405162461bcd60e51b8152600401610593906131c6565b60026001556000805b82811015610db257838382818110610d7657610d7661377d565b9050602002810190610d889190613793565b610d9290806137b3565b610da09060400135836137df565b9150610dab816137f7565b9050610d5c565b50610dbc8161214b565b609760009054906101000a90046001600160a01b03166001600160a01b031663d0e30db0346040518263ffffffff1660e01b81526004016000604051808303818588803b158015610e0c57600080fd5b505af1158015610e20573d6000803e3d6000fd5b505050505060005b82811015610ea857610e98848483818110610e4557610e4561377d565b9050602002810190610e579190613793565b610e6190806137b3565b858584818110610e7357610e7361377d565b9050602002810190610e859190613793565b610e93906020810190613812565b6121b1565b610ea1816137f7565b9050610e28565b5050600180555050565b60026001541415610ed55760405162461bcd60e51b8152600401610593906131c6565b6002600155610ee7604083013561214b565b609760009054906101000a90046001600160a01b03166001600160a01b031663d0e30db0346040518263ffffffff1660e01b81526004016000604051808303818588803b158015610f3757600080fd5b505af1158015610f4b573d6000803e3d6000fd5b5050505050610f5a82826121b1565b505060018055565b80610faf5760405162461bcd60e51b815260206004820152601760248201527f43616e63656c3a2043616e6e6f7420626520656d7074790000000000000000006044820152606401610593565b60005b8181101561106457336000908152609f6020526040902054838383818110610fdc57610fdc61377d565b9050602002013510156110015760405162461bcd60e51b815260040161059390613829565b33600090815260a0602052604081206001918585858181106110255761102561377d565b90506020020135815260200190815260200160002060006101000a81548160ff021916908315150217905550808061105c906137f7565b915050610fb2565b50336001600160a01b03167ffa0ae5d80fe3763c880a3839fab0294171a6f730d1f82c4cd5392c6f67b4173283836040516110a092919061386f565b60405180910390a25050565b6065546001600160a01b031633146110d65760405162461bcd60e51b81526004016105939061315a565b6001600160a01b0381166110fc5760405162461bcd60e51b81526004016105939061318f565b609d80546001600160a01b0319166001600160a01b0383169081179091556040517f80e3874461ebbd918ac3e81da0a92e5e51387d70f337237c9123e48d20e5a50890600090a250565b336000908152609f602052604090205481116111745760405162461bcd60e51b815260040161059390613829565b336000908152609f6020526040902054611191906207a1206137df565b81106111e95760405162461bcd60e51b815260206004820152602160248201527f43616e63656c3a2043616e6e6f742063616e63656c206d6f7265206f726465726044820152607360f81b6064820152608401610593565b336000818152609f602052604090819020839055517f1e7178d84f0b0825c65795cd62e7972809ad3aac6917843aaec596161b2c0a979061122d9084815260200190565b60405180910390a250565b600054610100900460ff166112535760005460ff1615611257565b303b155b6112ba5760405162461bcd60e51b815260206004820152602e60248201527f496e697469616c697a61626c653a20636f6e747261637420697320616c72656160448201526d191e481a5b9a5d1a585b1a5e995960921b6064820152608401610593565b600054610100900460ff161580156112dc576000805461ffff19166101011790555b6112e46123d1565b6112ec612400565b604080517f8b73c3c69bb8fe3d512ecc4cf759cc79239f7b179b0ffacaa9a75d522b39400f60208201527f09c73de1316dde4c80e91bee77727ccdf2cbf7435c9e4c7db6c37af85fa4afcb918101919091527fc89efdaa54c0f20c7adf612882df0950f5a951637e0307cdcb4c672f298b8bc660608201524660808201523060a082015260c00160408051808303601f190181529190528051602090910120609855609a80546001600160a01b03199081166001600160a01b038a811691909117909255609b80548216898416179055609c80548216888416179055609d80548216878416179055609780548216868416179055609980549091169184169190911790558015611402576000805461ff00191690555b50505050505050565b6065546001600160a01b031633146114355760405162461bcd60e51b81526004016105939061315a565b6001600160a01b03811661145b5760405162461bcd60e51b81526004016105939061318f565b609b80546001600160a01b0319166001600160a01b0383169081179091556040517f36e2a376eabc3bc60cb88f29c288f53e36874a95a7f407330ab4f166b090569890600090a250565b6060600260015414156114ca5760405162461bcd60e51b8152600401610593906131c6565b60026001558167ffffffffffffffff8111156114e8576114e8613296565b604051908082528060200260200182016040528015611511578160200160208202803683370190505b5090506000805b838110156115ae5761155a8585838181106115355761153561377d565b90506020028101906115479190613793565b611555906020810190613812565b61242f565b1561159e578484828181106115715761157161377d565b90506020028101906115839190613793565b61158d90806137b3565b61159b9060400135836137df565b91505b6115a7816137f7565b9050611518565b5034811115611648576115da33306115c634856138ab565b6097546001600160a01b03169291906124be565b609760009054906101000a90046001600160a01b03166001600160a01b031663d0e30db0346040518263ffffffff1660e01b81526004016000604051808303818588803b15801561162a57600080fd5b505af115801561163e573d6000803e3d6000fd5b50505050506116b2565b609760009054906101000a90046001600160a01b03166001600160a01b031663d0e30db0826040518263ffffffff1660e01b81526004016000604051808303818588803b15801561169857600080fd5b505af11580156116ac573d6000803e3d6000fd5b50505050505b60005b8381101561175d5760006117278686848181106116d4576116d461377d565b90506020028101906116e69190613793565b6116f090806137b3565b8787858181106117025761170261377d565b90506020028101906117149190613793565b611722906020810190613812565b61252f565b90508084838151811061173c5761173c61377d565b9115156020928302919091019091015250611756816137f7565b90506116b5565b508034111561182357600061177282346138ab565b604051909150600090339083908381818185875af1925050503d80600081146117b7576040519150601f19603f3d011682016040523d82523d6000602084013e6117bc565b606091505b50509050806118205760405162461bcd60e51b815260206004820152602a60248201527f4261746368204275793a204661696c656420746f2072657475726e2072656d616044820152690d2dcd2dcce4082ac82b60b31b6064820152608401610593565b50505b506001805592915050565b6065546001600160a01b031633146118585760405162461bcd60e51b81526004016105939061315a565b6001600160a01b0381166118bd5760405162461bcd60e51b815260206004820152602660248201527f4f776e61626c653a206e6577206f776e657220697320746865207a65726f206160448201526564647265737360d01b6064820152608401610593565b6118c6816120f9565b50565b6065546001600160a01b031633146118f35760405162461bcd60e51b81526004016105939061315a565b6001600160a01b0381166119195760405162461bcd60e51b81526004016105939061318f565b609e80546001600160a01b0319166001600160a01b0383169081179091556040517f205d78ab41afe80bd6b6aaa5d7599d5300ff8690da3ab1302c1b552f7baf7d8c90600090a250565b80516020808301516040808501516060860151608087015160a088015160c089015160e08a01516101008b01516101208c01516101408d01516101608e01516101808f01518051908e01209a5160009e6119ed9e7f40261ade532fa1d2c7293df30aaadb9b3c616fae525a0b56d3d411c841a850289e919d919c9b9a9998979695949392016138c2565b604051602081830303815290604052805190602001209050919050565b611a138261242f565b611a5f5760405162461bcd60e51b815260206004820152601d60248201527f4f726465723a204d61746368696e67206f7264657220657870697265640000006044820152606401610593565b6000611a716040840160208501612f2e565b6001600160a01b03161415611ac05760405162461bcd60e51b815260206004820152601560248201527427b93232b91d1024b73b30b634b21039b4b3b732b960591b6044820152606401610593565b60008260a0013511611b145760405162461bcd60e51b815260206004820152601960248201527f4f726465723a20416d6f756e742063616e6e6f742062652030000000000000006044820152606401610593565b611b4e81611b286040850160208601612f2e565b611b3a6101c086016101a08701613955565b856101c00135866101e00135609854612563565b611b8f5760405162461bcd60e51b815260206004820152601260248201527114da59db985d1d5c994e88125b9d985b1a5960721b6044820152606401610593565b609a546001600160a01b03166343b938c5611bb1610100850160e08601612f2e565b6040516001600160e01b031960e084901b1681526001600160a01b039091166004820152602401602060405180830381865afa158015611bf5573d6000803e3d6000fd5b505050506040513d601f19601f82011682018060405250810190611c199190613970565b611c655760405162461bcd60e51b815260206004820152601960248201527f43757272656e63793a204e6f742077686974656c6973746564000000000000006044820152606401610593565b609b546001600160a01b031663999ba27c611c8660e0850160c08601612f2e565b6040516001600160e01b031960e084901b1681526001600160a01b039091166004820152602401602060405180830381865afa158015611cca573d6000803e3d6000fd5b505050506040513d601f19601f82011682018060405250810190611cee9190613970565b611d3a5760405162461bcd60e51b815260206004820152601960248201527f53747261746567793a204e6f742077686974656c6973746564000000000000006044820152606401610593565b5050565b816000611d4b89836126a2565b6099549091506001600160a01b031615801590611d6757508015155b15611d9557609954611d88906001600160a01b0389811691899116846124be565b611d9281836138ab565b91505b50609d546040516371a05ba960e11b81526001600160a01b038a81166004830152602482018a905260448201869052600092169063e340b75290606401600060405180830381865afa158015611def573d6000803e3d6000fd5b505050506040513d6000823e601f3d908101601f19168201604052611e17919081019061398d565b905060005b8151811015611ef9576000828281518110611e3957611e3961377d565b60200260200101519050611e6b88826000015183602001518c6001600160a01b03166124be909392919063ffffffff16565b6020810151611e7a90856138ab565b935080600001516001600160a01b03168a8c6001600160a01b03167f27c4f0403323142b599832f26acd21c74a9e5b809f2215726e244a4ac588cd7d8c8560200151604051611ede9291906001600160a01b03929092168252602082015260400190565b60405180910390a45080611ef1816137f7565b915050611e1c565b50611f0690508383613a58565b611f307f000000000000000000000000000000000000000000000000000000000000000083613a58565b1015611f7e5760405162461bcd60e51b815260206004820152601a60248201527f466565733a20486967686572207468616e2065787065637465640000000000006044820152606401610593565b611f936001600160a01b0387168686846124be565b5050505050505050565b609e5460405163cc15949360e01b81526001600160a01b038781166004830152600092169063cc15949390602401602060405180830381865afa158015611fe8573d6000803e3d6000fd5b505050506040513d601f19601f8201168201806040525081019061200c9190613a77565b90506001600160a01b0381166120785760405162461bcd60e51b815260206004820152602b60248201527f5472616e736665723a204e6f204e4654207472616e73666572206d616e61676560448201526a7220617661696c61626c6560a81b6064820152608401610593565b6040516333f2fa9f60e01b81526001600160a01b0387811660048301528681166024830152858116604483015260648201859052608482018490528216906333f2fa9f9060a401600060405180830381600087803b1580156120d957600080fd5b505af11580156120ed573d6000803e3d6000fd5b50505050505050505050565b606580546001600160a01b038381166001600160a01b0319831681179093556040519116919082907f8be0079c531659141344cd1fd0a4f28419497f9722a3daafe3b4186f6b6457e090600090a35050565b34811115612162576118c633306115c634856138ab565b3481146118c65760405162461bcd60e51b815260206004820152601960248201527f4f726465723a204d73672e76616c756520746f6f2068696768000000000000006044820152606401610593565b6121bb8282612752565b60006121c9610763836133ab565b90506121d58282611a0a565b600080806121e960e0860160c08701612f2e565b6001600160a01b031663865781ca87876040518363ffffffff1660e01b815260040161221692919061352b565b606060405180830381865afa158015612233573d6000803e3d6000fd5b505050506040513d601f19601f8201168201806040525081019061225791906136d3565b9250925092508261227a5760405162461bcd60e51b81526004016105939061370a565b600160a060006122906040890160208a01612f2e565b6001600160a01b03168152602080820192909252604090810160009081206101008a0135825290925290819020805460ff191692151592909217909155612302906122e19060608801908801612f2e565b836122f26040890160208a01612f2e565b8960400135896101600135612844565b6123156108c66060870160408801612f2e565b61232560e0860160c08701612f2e565b6001600160a01b031661233e6040870160208801612f2e565b6001600160a01b03166123576040890160208a01612f2e565b6001600160a01b03167f95fb6205e23ff6bda16a2d1dba56b9ad7c783f67c96fa149785052f47696f2be876101008a018035906123979060e08d01612f2e565b6123a760608d0160408e01612f2e565b89898f604001356040516123c19796959493929190613741565b60405180910390a4505050505050565b600054610100900460ff166123f85760405162461bcd60e51b815260040161059390613a94565b610d2e612a8f565b600054610100900460ff166124275760405162461bcd60e51b815260040161059390613a94565b610d2e612abc565b600060a0816124446040850160208601612f2e565b6001600160a01b0316815260208082019290925260409081016000908120610100860135825290925290205460ff161580156106a85750609f600061248f6040850160208601612f2e565b6001600160a01b03166001600160a01b0316815260200190815260200160002054826101000135101592915050565b6040516001600160a01b03808516602483015283166044820152606481018290526125299085906323b872dd60e01b906084015b60408051601f198184030181529190526020810180516001600160e01b03166001600160e01b031990931692909217909152612aec565b50505050565b600061253b8383612752565b6125448261242f565b612550575060006106a8565b61255a83836121b1565b50600192915050565b60405161190160f01b6020820152602281018290526042810187905260009081906062016040516020818303038152906040528051906020012090506125b2876001600160a01b03163b151590565b1561267457604080516020810187905280820186905260f888901b6001600160f81b0319166060820152815160418183030181526061820192839052630b135d3f60e11b9092526001600160a01b03891691631626ba7e91612618918591606501613b37565b602060405180830381865afa158015612635573d6000803e3d6000fd5b505050506040513d601f19601f820116820180604052508101906126599190613b50565b6001600160e01b031916631626ba7e60e01b14915050612698565b866001600160a01b031661268a82888888612bc3565b6001600160a01b0316149150505b9695505050505050565b609c546040516238062960e91b81526001600160a01b038481166004830152600092839291169063700c520090602401602060405180830381865afa1580156126ef573d6000803e3d6000fd5b505050506040513d601f19601f820116820180604052508101906127139190613b7a565b90507f00000000000000000000000000000000000000000000000000000000000000006127408483613a58565b61274a9190613b93565b949350505050565b61275f6020820182613216565b801561277557506127736020830183613216565b155b6127915760405162461bcd60e51b815260040161059390613233565b6097546001600160a01b03166127ae610100830160e08401612f2e565b6001600160a01b0316146128045760405162461bcd60e51b815260206004820152601d60248201527f4f726465723a2043757272656e6379206d7573742062652057415641580000006044820152606401610593565b6128146040830160208401612f2e565b6001600160a01b0316336001600160a01b031614611d3a5760405162461bcd60e51b81526004016105939061325f565b81600061285187836126a2565b6099549091506001600160a01b03161580159061286d57508015155b1561289c5760995460975461288f916001600160a01b03918216911683612d56565b61289981836138ab565b91505b50609d546040516371a05ba960e11b81526001600160a01b0388811660048301526024820188905260448201869052600092169063e340b75290606401600060405180830381865afa1580156128f6573d6000803e3d6000fd5b505050506040513d6000823e601f3d908101601f1916820160405261291e919081019061398d565b905060005b81518110156129eb5760008282815181106129405761294061377d565b60209081029190910181015180519181015160975491935061296e926001600160a01b039092169190612d56565b602081015161297d90856138ab565b8151609754602080850151604080516001600160a01b03948516815292830191909152939750918116928b92918d16917f27c4f0403323142b599832f26acd21c74a9e5b809f2215726e244a4ac588cd7d910160405180910390a450806129e3816137f7565b915050612923565b506129f890508383613a58565b612a227f000000000000000000000000000000000000000000000000000000000000000083613a58565b1015612a705760405162461bcd60e51b815260206004820152601a60248201527f466565733a20486967686572207468616e2065787065637465640000000000006044820152606401610593565b609754612a87906001600160a01b03168583612d56565b505050505050565b600054610100900460ff16612ab65760405162461bcd60e51b815260040161059390613a94565b60018055565b600054610100900460ff16612ae35760405162461bcd60e51b815260040161059390613a94565b610d2e336120f9565b6000612b41826040518060400160405280602081526020017f5361666545524332303a206c6f772d6c6576656c2063616c6c206661696c6564815250856001600160a01b0316612d869092919063ffffffff16565b805190915015612bbe5780806020019051810190612b5f9190613970565b612bbe5760405162461bcd60e51b815260206004820152602a60248201527f5361666545524332303a204552433230206f7065726174696f6e20646964206e6044820152691bdd081cdd58d8d9595960b21b6064820152608401610593565b505050565b60007f7fffffffffffffffffffffffffffffff5d576e7357a4501ddfe92f46681b20a0821115612c355760405162461bcd60e51b815260206004820152601e60248201527f5369676e61747572653a20496e76616c6964207320706172616d6574657200006044820152606401610593565b8360ff16601b1480612c4a57508360ff16601c145b612c965760405162461bcd60e51b815260206004820152601e60248201527f5369676e61747572653a20496e76616c6964207620706172616d6574657200006044820152606401610593565b6040805160008082526020820180845288905260ff871692820192909252606081018590526080810184905260019060a0016020604051602081039080840390855afa158015612cea573d6000803e3d6000fd5b5050604051601f1901519150506001600160a01b038116612d4d5760405162461bcd60e51b815260206004820152601960248201527f5369676e61747572653a20496e76616c6964207369676e6572000000000000006044820152606401610593565b95945050505050565b6040516001600160a01b038316602482015260448101829052612bbe90849063a9059cbb60e01b906064016124f2565b6060612d958484600085612d9f565b90505b9392505050565b606082471015612e005760405162461bcd60e51b815260206004820152602660248201527f416464726573733a20696e73756666696369656e742062616c616e636520666f6044820152651c8818d85b1b60d21b6064820152608401610593565b6001600160a01b0385163b612e575760405162461bcd60e51b815260206004820152601d60248201527f416464726573733a2063616c6c20746f206e6f6e2d636f6e74726163740000006044820152606401610593565b600080866001600160a01b03168587604051612e739190613bb5565b60006040518083038185875af1925050503d8060008114612eb0576040519150601f19603f3d011682016040523d82523d6000602084013e612eb5565b606091505b5091509150612ec5828286612ed0565b979650505050505050565b60608315612edf575081612d98565b825115612eef5782518084602001fd5b8160405162461bcd60e51b81526004016105939190613bc7565b6001600160a01b03811681146118c657600080fd5b8035612f2981612f09565b919050565b600060208284031215612f4057600080fd5b8135612d9881612f09565b60008060408385031215612f5e57600080fd5b8235612f6981612f09565b946020939093013593505050565b60008060408385031215612f8a57600080fd5b823567ffffffffffffffff80821115612fa257600080fd5b9084019060c08287031215612fb657600080fd5b90925060208401359080821115612fcc57600080fd5b5083016102008186031215612fe057600080fd5b809150509250929050565b60008083601f840112612ffd57600080fd5b50813567ffffffffffffffff81111561301557600080fd5b6020830191508360208260051b850101111561303057600080fd5b9250929050565b6000806020838503121561304a57600080fd5b823567ffffffffffffffff81111561306157600080fd5b61306d85828601612feb565b90969095509350505050565b60006020828403121561308b57600080fd5b5035919050565b60008060008060008060c087890312156130ab57600080fd5b86356130b681612f09565b955060208701356130c681612f09565b945060408701356130d681612f09565b935060608701356130e681612f09565b925060808701356130f681612f09565b915060a087013561310681612f09565b809150509295509295509295565b6020808252825182820181905260009190848201906040850190845b8181101561314e578351151583529284019291840191600101613130565b50909695505050505050565b6020808252818101527f4f776e61626c653a2063616c6c6572206973206e6f7420746865206f776e6572604082015260600190565b6020808252601d908201527f4f776e65723a2043616e6e6f74206265206e756c6c2061646472657373000000604082015260600190565b6020808252601f908201527f5265656e7472616e637947756172643a207265656e7472616e742063616c6c00604082015260600190565b80151581146118c657600080fd5b8035612f29816131fd565b60006020828403121561322857600080fd5b8135612d98816131fd565b6020808252601290820152714f726465723a2057726f6e6720736964657360701b604082015260600190565b6020808252601f908201527f4f726465723a2054616b6572206d757374206265207468652073656e64657200604082015260600190565b634e487b7160e01b600052604160045260246000fd5b604051610200810167ffffffffffffffff811182821017156132d0576132d0613296565b60405290565b6040805190810167ffffffffffffffff811182821017156132d0576132d0613296565b604051601f8201601f1916810167ffffffffffffffff8111828210171561332257613322613296565b604052919050565b600082601f83011261333b57600080fd5b813567ffffffffffffffff81111561335557613355613296565b613368601f8201601f19166020016132f9565b81815284602083860101111561337d57600080fd5b816020850160208301376000918101602001919091529392505050565b803560ff81168114612f2957600080fd5b600061020082360312156133be57600080fd5b6133c66132ac565b6133cf8361320b565b81526133dd60208401612f1e565b60208201526133ee60408401612f1e565b6040820152606083013560608201526080830135608082015260a083013560a082015261341d60c08401612f1e565b60c082015261342e60e08401612f1e565b60e082015261010083810135908201526101208084013590820152610140808401359082015261016080840135908201526101808084013567ffffffffffffffff81111561347b57600080fd5b6134873682870161332a565b8284015250506101a061349b81850161339a565b908201526101c083810135908201526101e092830135928101929092525090565b6000808335601e198436030181126134d357600080fd5b830160208101925035905067ffffffffffffffff8111156134f357600080fd5b80360383131561303057600080fd5b81835281816020850137506000828201602090810191909152601f909101601f19169091010190565b604081526000610100843561353f816131fd565b15156040840152602085013561355481612f09565b60018060a01b03811660608501525060408501356080840152606085013560a0840152608085013560c084015261358e60a08601866134bc565b60c060e08601526135a28386018284613502565b91505083810360208501526102006135c3826135bd8861320b565b15159052565b6135cf60208701612f1e565b6001600160a01b031660208301526135e960408701612f1e565b6001600160a01b038116604084015250606086013560608301526080860135608083015260a086013560a083015261362360c08701612f1e565b6001600160a01b031660c083015261363d60e08701612f1e565b6001600160a01b031660e0830152828601359282019290925261012080860135908201526101408086013590820152610160808601359082015261018091613687838701876134bc565b82858501526136998385018284613502565b94505050506101a06136ac81870161339a565b60ff16908201526101c085810135908201526101e094850135940193909352509092915050565b6000806000606084860312156136e857600080fd5b83516136f3816131fd565b602085015160409095015190969495509392505050565b6020808252601b908201527f53747261746567793a20457865637574696f6e20696e76616c69640000000000604082015260600190565b96875260208701959095526001600160a01b039384166040870152919092166060850152608084019190915260a083015260c082015260e00190565b634e487b7160e01b600052603260045260246000fd5b60008235603e198336030181126137a957600080fd5b9190910192915050565b6000823560be198336030181126137a957600080fd5b634e487b7160e01b600052601160045260246000fd5b600082198211156137f2576137f26137c9565b500190565b600060001982141561380b5761380b6137c9565b5060010190565b600082356101fe198336030181126137a957600080fd5b60208082526026908201527f43616e63656c3a204f72646572206e6f6e6365206c6f776572207468616e20636040820152651d5c9c995b9d60d21b606082015260800190565b6020808252810182905260006001600160fb1b0383111561388f57600080fd5b8260051b80856040850137600092016040019182525092915050565b6000828210156138bd576138bd6137c9565b500390565b8e81528d151560208201526001600160a01b038d811660408301528c1660608201526101c081018b60808301528a60a08301528960c083015261391060e083018a6001600160a01b03169052565b6001600160a01b0388166101008301526101208201969096526101408101949094526101608401929092526101808301526101a0909101529998505050505050505050565b60006020828403121561396757600080fd5b612d988261339a565b60006020828403121561398257600080fd5b8151612d98816131fd565b600060208083850312156139a057600080fd5b825167ffffffffffffffff808211156139b857600080fd5b818501915085601f8301126139cc57600080fd5b8151818111156139de576139de613296565b6139ec848260051b016132f9565b818152848101925060069190911b830184019087821115613a0c57600080fd5b928401925b81841015612ec55760408489031215613a2a5760008081fd5b613a326132d6565b8451613a3d81612f09565b81528486015186820152835260409093019291840191613a11565b6000816000190483118215151615613a7257613a726137c9565b500290565b600060208284031215613a8957600080fd5b8151612d9881612f09565b6020808252602b908201527f496e697469616c697a61626c653a20636f6e7472616374206973206e6f74206960408201526a6e697469616c697a696e6760a81b606082015260800190565b60005b83811015613afa578181015183820152602001613ae2565b838111156125295750506000910152565b60008151808452613b23816020860160208601613adf565b601f01601f19169290920160200192915050565b828152604060208201526000612d956040830184613b0b565b600060208284031215613b6257600080fd5b81516001600160e01b031981168114612d9857600080fd5b600060208284031215613b8c57600080fd5b5051919050565b600082613bb057634e487b7160e01b600052601260045260246000fd5b500490565b600082516137a9818460208701613adf565b602081526000612d986020830184613b0b56fea2646970667358221220516e7aae540651b1d87599bd630f4a5a719609f5c92af07d67aa72980a7393e764736f6c634300080a0033",
  "devdoc": {
    "kind": "dev",
    "methods": {
      "batchBuyWithAVAXAndWAVAX(((bool,address,uint256,uint256,uint256,bytes),(bool,address,address,uint256,uint256,uint256,address,address,uint256,uint256,uint256,uint256,bytes,uint8,bytes32,bytes32))[])": {
        "params": {
          "trades": "an array of trades"
        }
      },
      "batchBuyWithAVAXAndWAVAXIgnoringExpiredAsks(((bool,address,uint256,uint256,uint256,bytes),(bool,address,address,uint256,uint256,uint256,address,address,uint256,uint256,uint256,uint256,bytes,uint8,bytes32,bytes32))[])": {
        "details": "Used when the caller doesn't want the transaction to revert if a maker ask already expired",
        "params": {
          "trades": "an array of trades"
        }
      },
      "cancelAllOrdersForSender(uint256)": {
        "params": {
          "minNonce": "minimum user nonce"
        }
      },
      "cancelMultipleMakerOrders(uint256[])": {
        "params": {
          "orderNonces": "array of order nonces"
        }
      },
      "initialize(address,address,address,address,address,address)": {
        "params": {
          "_WAVAX": "wrapped ether address (for other chains, use wrapped native asset)",
          "_currencyManager": "currency manager address",
          "_executionManager": "execution manager address",
          "_protocolFeeManager": "protocol fee manager address",
          "_protocolFeeRecipient": "protocol fee recipient",
          "_royaltyFeeManager": "royalty fee manager address"
        }
      },
      "isUserOrderNonceExecutedOrCancelled(address,uint256)": {
        "params": {
          "orderNonce": "nonce of the order",
          "user": "address of user"
        }
      },
      "matchAskWithTakerBid((bool,address,uint256,uint256,uint256,bytes),(bool,address,address,uint256,uint256,uint256,address,address,uint256,uint256,uint256,uint256,bytes,uint8,bytes32,bytes32))": {
        "params": {
          "makerAsk": "maker ask order",
          "takerBid": "taker bid order"
        }
      },
      "matchAskWithTakerBidUsingAVAXAndWAVAX((bool,address,uint256,uint256,uint256,bytes),(bool,address,address,uint256,uint256,uint256,address,address,uint256,uint256,uint256,uint256,bytes,uint8,bytes32,bytes32))": {
        "params": {
          "makerAsk": "maker ask order",
          "takerBid": "taker bid order"
        }
      },
      "matchBidWithTakerAsk((bool,address,uint256,uint256,uint256,bytes),(bool,address,address,uint256,uint256,uint256,address,address,uint256,uint256,uint256,uint256,bytes,uint8,bytes32,bytes32))": {
        "params": {
          "makerBid": "maker bid order",
          "takerAsk": "taker ask order"
        }
      },
      "owner()": {
        "details": "Returns the address of the current owner."
      },
      "renounceOwnership()": {
        "details": "Leaves the contract without owner. It will not be possible to call `onlyOwner` functions anymore. Can only be called by the current owner. NOTE: Renouncing ownership will leave the contract without an owner, thereby removing any functionality that is only available to the owner."
      },
      "transferOwnership(address)": {
        "details": "Transfers ownership of the contract to a new account (`newOwner`). Can only be called by the current owner."
      },
      "updateCurrencyManager(address)": {
        "params": {
          "_currencyManager": "new currency manager address"
        }
      },
      "updateExecutionManager(address)": {
        "params": {
          "_executionManager": "new execution manager address"
        }
      },
      "updateProtocolFeeManager(address)": {
        "params": {
          "_protocolFeeManager": "new protocol fee manager address"
        }
      },
      "updateProtocolFeeRecipient(address)": {
        "params": {
          "_protocolFeeRecipient": "new recipient for protocol fees"
        }
      },
      "updateRoyaltyFeeManager(address)": {
        "params": {
          "_royaltyFeeManager": "new fee manager address"
        }
      },
      "updateTransferSelectorNFT(address)": {
        "params": {
          "_transferSelectorNFT": "new transfer selector address"
        }
      }
    },
    "title": "JoepegExchange",
    "version": 1
  },
  "userdoc": {
    "kind": "user",
    "methods": {
      "batchBuyWithAVAXAndWAVAX(((bool,address,uint256,uint256,uint256,bytes),(bool,address,address,uint256,uint256,uint256,address,address,uint256,uint256,uint256,uint256,bytes,uint8,bytes32,bytes32))[])": {
        "notice": "Match multiple asks with their respective taker bid order using AVAX and WAVAX"
      },
      "batchBuyWithAVAXAndWAVAXIgnoringExpiredAsks(((bool,address,uint256,uint256,uint256,bytes),(bool,address,address,uint256,uint256,uint256,address,address,uint256,uint256,uint256,uint256,bytes,uint8,bytes32,bytes32))[])": {
        "notice": "Match multiple asks with their respective taker bid order using AVAX and WAVAX, ignoring expired maker asks"
      },
      "cancelAllOrdersForSender(uint256)": {
        "notice": "Cancel all pending orders for a sender"
      },
      "cancelMultipleMakerOrders(uint256[])": {
        "notice": "Cancel maker orders"
      },
      "initialize(address,address,address,address,address,address)": {
        "notice": "Constructor"
      },
      "isUserOrderNonceExecutedOrCancelled(address,uint256)": {
        "notice": "Check whether user order nonce is executed or cancelled"
      },
      "matchAskWithTakerBid((bool,address,uint256,uint256,uint256,bytes),(bool,address,address,uint256,uint256,uint256,address,address,uint256,uint256,uint256,uint256,bytes,uint8,bytes32,bytes32))": {
        "notice": "Match a takerBid with a matchAsk"
      },
      "matchAskWithTakerBidUsingAVAXAndWAVAX((bool,address,uint256,uint256,uint256,bytes),(bool,address,address,uint256,uint256,uint256,address,address,uint256,uint256,uint256,uint256,bytes,uint8,bytes32,bytes32))": {
        "notice": "Match ask with a taker bid order using AVAX"
      },
      "matchBidWithTakerAsk((bool,address,uint256,uint256,uint256,bytes),(bool,address,address,uint256,uint256,uint256,address,address,uint256,uint256,uint256,uint256,bytes,uint8,bytes32,bytes32))": {
        "notice": "Match a takerAsk with a makerBid"
      },
      "updateCurrencyManager(address)": {
        "notice": "Update currency manager"
      },
      "updateExecutionManager(address)": {
        "notice": "Update execution manager"
      },
      "updateProtocolFeeManager(address)": {
        "notice": "Update protocol fee manager"
      },
      "updateProtocolFeeRecipient(address)": {
        "notice": "Update protocol fee recipient"
      },
      "updateRoyaltyFeeManager(address)": {
        "notice": "Update royalty fee manager"
      },
      "updateTransferSelectorNFT(address)": {
        "notice": "Update transfer selector NFT"
      }
    },
    "notice": "Fork of the LooksRareExchange contract with some minor additions.",
    "version": 1
  },
  "storageLayout": {
    "storage": [
      {
        "astId": 702,
        "contract": "contracts/JoepegExchange.sol:JoepegExchange",
        "label": "_initialized",
        "offset": 0,
        "slot": "0",
        "type": "t_bool"
      },
      {
        "astId": 705,
        "contract": "contracts/JoepegExchange.sol:JoepegExchange",
        "label": "_initializing",
        "offset": 1,
        "slot": "0",
        "type": "t_bool"
      },
      {
        "astId": 894,
        "contract": "contracts/JoepegExchange.sol:JoepegExchange",
        "label": "_status",
        "offset": 0,
        "slot": "1",
        "type": "t_uint256"
      },
      {
        "astId": 938,
        "contract": "contracts/JoepegExchange.sol:JoepegExchange",
        "label": "__gap",
        "offset": 0,
        "slot": "2",
        "type": "t_array(t_uint256)49_storage"
      },
      {
        "astId": 1223,
        "contract": "contracts/JoepegExchange.sol:JoepegExchange",
        "label": "__gap",
        "offset": 0,
        "slot": "51",
        "type": "t_array(t_uint256)50_storage"
      },
      {
        "astId": 582,
        "contract": "contracts/JoepegExchange.sol:JoepegExchange",
        "label": "_owner",
        "offset": 0,
        "slot": "101",
        "type": "t_address"
      },
      {
        "astId": 694,
        "contract": "contracts/JoepegExchange.sol:JoepegExchange",
        "label": "__gap",
        "offset": 0,
        "slot": "102",
        "type": "t_array(t_uint256)49_storage"
      },
      {
        "astId": 10214,
        "contract": "contracts/JoepegExchange.sol:JoepegExchange",
        "label": "WAVAX",
        "offset": 0,
        "slot": "151",
        "type": "t_address"
      },
      {
        "astId": 10216,
        "contract": "contracts/JoepegExchange.sol:JoepegExchange",
        "label": "domainSeparator",
        "offset": 0,
        "slot": "152",
        "type": "t_bytes32"
      },
      {
        "astId": 10218,
        "contract": "contracts/JoepegExchange.sol:JoepegExchange",
        "label": "protocolFeeRecipient",
        "offset": 0,
        "slot": "153",
        "type": "t_address"
      },
      {
        "astId": 10221,
        "contract": "contracts/JoepegExchange.sol:JoepegExchange",
        "label": "currencyManager",
        "offset": 0,
        "slot": "154",
        "type": "t_contract(ICurrencyManager)14356"
      },
      {
        "astId": 10224,
        "contract": "contracts/JoepegExchange.sol:JoepegExchange",
        "label": "executionManager",
        "offset": 0,
        "slot": "155",
        "type": "t_contract(IExecutionManager)14393"
      },
      {
        "astId": 10227,
        "contract": "contracts/JoepegExchange.sol:JoepegExchange",
        "label": "protocolFeeManager",
        "offset": 0,
        "slot": "156",
        "type": "t_contract(IProtocolFeeManager)14615"
      },
      {
        "astId": 10230,
        "contract": "contracts/JoepegExchange.sol:JoepegExchange",
        "label": "royaltyFeeManager",
        "offset": 0,
        "slot": "157",
        "type": "t_contract(IRoyaltyFeeManager)14646"
      },
      {
        "astId": 10233,
        "contract": "contracts/JoepegExchange.sol:JoepegExchange",
        "label": "transferSelectorNFT",
        "offset": 0,
        "slot": "158",
        "type": "t_contract(ITransferSelectorNFT)14827"
      },
      {
        "astId": 10237,
        "contract": "contracts/JoepegExchange.sol:JoepegExchange",
        "label": "userMinOrderNonce",
        "offset": 0,
        "slot": "159",
        "type": "t_mapping(t_address,t_uint256)"
      },
      {
        "astId": 10243,
        "contract": "contracts/JoepegExchange.sol:JoepegExchange",
        "label": "_isUserOrderNonceExecutedOrCancelled",
        "offset": 0,
        "slot": "160",
        "type": "t_mapping(t_address,t_mapping(t_uint256,t_bool))"
      }
    ],
    "types": {
      "t_address": {
        "encoding": "inplace",
        "label": "address",
        "numberOfBytes": "20"
      },
      "t_array(t_uint256)49_storage": {
        "base": "t_uint256",
        "encoding": "inplace",
        "label": "uint256[49]",
        "numberOfBytes": "1568"
      },
      "t_array(t_uint256)50_storage": {
        "base": "t_uint256",
        "encoding": "inplace",
        "label": "uint256[50]",
        "numberOfBytes": "1600"
      },
      "t_bool": {
        "encoding": "inplace",
        "label": "bool",
        "numberOfBytes": "1"
      },
      "t_bytes32": {
        "encoding": "inplace",
        "label": "bytes32",
        "numberOfBytes": "32"
      },
      "t_contract(ICurrencyManager)14356": {
        "encoding": "inplace",
        "label": "contract ICurrencyManager",
        "numberOfBytes": "20"
      },
      "t_contract(IExecutionManager)14393": {
        "encoding": "inplace",
        "label": "contract IExecutionManager",
        "numberOfBytes": "20"
      },
      "t_contract(IProtocolFeeManager)14615": {
        "encoding": "inplace",
        "label": "contract IProtocolFeeManager",
        "numberOfBytes": "20"
      },
      "t_contract(IRoyaltyFeeManager)14646": {
        "encoding": "inplace",
        "label": "contract IRoyaltyFeeManager",
        "numberOfBytes": "20"
      },
      "t_contract(ITransferSelectorNFT)14827": {
        "encoding": "inplace",
        "label": "contract ITransferSelectorNFT",
        "numberOfBytes": "20"
      },
      "t_mapping(t_address,t_mapping(t_uint256,t_bool))": {
        "encoding": "mapping",
        "key": "t_address",
        "label": "mapping(address => mapping(uint256 => bool))",
        "numberOfBytes": "32",
        "value": "t_mapping(t_uint256,t_bool)"
      },
      "t_mapping(t_address,t_uint256)": {
        "encoding": "mapping",
        "key": "t_address",
        "label": "mapping(address => uint256)",
        "numberOfBytes": "32",
        "value": "t_uint256"
      },
      "t_mapping(t_uint256,t_bool)": {
        "encoding": "mapping",
        "key": "t_uint256",
        "label": "mapping(uint256 => bool)",
        "numberOfBytes": "32",
        "value": "t_bool"
      },
      "t_uint256": {
        "encoding": "inplace",
        "label": "uint256",
        "numberOfBytes": "32"
      }
    }
  }
}