{
  "address": "0xF1e07f8ae53ae6C89f26BA29C9e47a434B0fB09D",
  "abi": [
    {
      "inputs": [
        {
          "internalType": "address",
          "name": "_joepegExchange",
          "type": "address"
        }
      ],
      "name": "initialize",
      "outputs": [],
      "stateMutability": "nonpayable",
      "type": "function"
    },
    {
      "inputs": [],
      "name": "joepegExchange",
      "outputs": [
        {
          "internalType": "address",
          "name": "",
          "type": "address"
        }
      ],
      "stateMutability": "view",
      "type": "function"
    },
    {
      "inputs": [
        {
          "internalType": "address",
          "name": "collection",
          "type": "address"
        },
        {
          "internalType": "address",
          "name": "from",
          "type": "address"
        },
        {
          "internalType": "address",
          "name": "to",
          "type": "address"
        },
        {
          "internalType": "uint256",
          "name": "tokenId",
          "type": "uint256"
        },
        {
          "internalType": "uint256",
          "name": "amount",
          "type": "uint256"
        }
      ],
      "name": "transferNonFungibleToken",
      "outputs": [],
      "stateMutability": "nonpayable",
      "type": "function"
    }
  ],
  "transactionHash": "0x11a30ee22f36788e6e5ed8442ab032bc9214174a89c4a85494556a5067de76b5",
  "args": [],
  "numDeployments": 1,
  "solcInputHash": "e27c224c09507bb41163b96c985afc0d",
  "bytecode": "0x608060405234801561001057600080fd5b50610333806100206000396000f3fe608060405234801561001057600080fd5b50600436106100415760003560e01c806333f2fa9f14610046578063c4d66de81461005b578063fd43bbdd1461006e575b600080fd5b610059610054366004610286565b6100a3565b005b6100596100693660046102db565b61018e565b600054610087906201000090046001600160a01b031681565b6040516001600160a01b03909116815260200160405180910390f35b6000546201000090046001600160a01b031633146101085760405162461bcd60e51b815260206004820152601d60248201527f5472616e736665723a204f6e6c79204a6f6570656745786368616e676500000060448201526064015b60405180910390fd5b604051637921219560e11b81526001600160a01b0385811660048301528481166024830152604482018490526064820183905260a06084830152600060a483015286169063f242432a9060c401600060405180830381600087803b15801561016f57600080fd5b505af1158015610183573d6000803e3d6000fd5b505050505050505050565b600054610100900460ff166101a95760005460ff16156101ad565b303b155b6102105760405162461bcd60e51b815260206004820152602e60248201527f496e697469616c697a61626c653a20636f6e747261637420697320616c72656160448201526d191e481a5b9a5d1a585b1a5e995960921b60648201526084016100ff565b600054610100900460ff16158015610232576000805461ffff19166101011790555b6000805462010000600160b01b031916620100006001600160a01b038516021790558015610266576000805461ff00191690555b5050565b80356001600160a01b038116811461028157600080fd5b919050565b600080600080600060a0868803121561029e57600080fd5b6102a78661026a565b94506102b56020870161026a565b93506102c36040870161026a565b94979396509394606081013594506080013592915050565b6000602082840312156102ed57600080fd5b6102f68261026a565b939250505056fea2646970667358221220d5b604cd3b6dde6fb3eaaffd14e90408e1a4c044a5c8356808ceb88b5e5e233f64736f6c634300080a0033",
  "devdoc": {
    "kind": "dev",
    "methods": {
      "initialize(address)": {
        "params": {
          "_joepegExchange": "address of the Joepeg exchange"
        }
      },
      "transferNonFungibleToken(address,address,address,uint256,uint256)": {
        "params": {
          "amount": "amount of tokens (1 and more for ERC1155)",
          "collection": "address of the collection",
          "from": "address of the sender",
          "to": "address of the recipient",
          "tokenId": "tokenId"
        }
      }
    },
    "title": "TransferManagerERC1155",
    "version": 1
  },
  "userdoc": {
    "kind": "user",
    "methods": {
      "initialize(address)": {
        "notice": "Initializer"
      },
      "transferNonFungibleToken(address,address,address,uint256,uint256)": {
        "notice": "Transfer ERC1155 token(s)"
      }
    },
    "notice": "It allows the transfer of ERC1155 tokens.",
    "version": 1
  },
  "storageLayout": {
    "storage": [
      {
        "astId": 702,
        "contract": "contracts/TransferManagerERC1155.sol:TransferManagerERC1155",
        "label": "_initialized",
        "offset": 0,
        "slot": "0",
        "type": "t_bool"
      },
      {
        "astId": 705,
        "contract": "contracts/TransferManagerERC1155.sol:TransferManagerERC1155",
        "label": "_initializing",
        "offset": 1,
        "slot": "0",
        "type": "t_bool"
      },
      {
        "astId": 13932,
        "contract": "contracts/TransferManagerERC1155.sol:TransferManagerERC1155",
        "label": "joepegExchange",
        "offset": 2,
        "slot": "0",
        "type": "t_address"
      }
    ],
    "types": {
      "t_address": {
        "encoding": "inplace",
        "label": "address",
        "numberOfBytes": "20"
      },
      "t_bool": {
        "encoding": "inplace",
        "label": "bool",
        "numberOfBytes": "1"
      }
    }
  }
}