{
  "address": "0x326193b84FAaF337d1a0b33807cc598C23EA63f2",
  "abi": [
    {
      "anonymous": false,
      "inputs": [
        {
          "indexed": true,
          "internalType": "address",
          "name": "collection",
          "type": "address"
        },
        {
          "indexed": true,
          "internalType": "address",
          "name": "transferManager",
          "type": "address"
        }
      ],
      "name": "CollectionTransferManagerAdded",
      "type": "event"
    },
    {
      "anonymous": false,
      "inputs": [
        {
          "indexed": true,
          "internalType": "address",
          "name": "collection",
          "type": "address"
        }
      ],
      "name": "CollectionTransferManagerRemoved",
      "type": "event"
    },
    {
      "anonymous": false,
      "inputs": [
        {
          "indexed": true,
          "internalType": "address",
          "name": "previousOwner",
          "type": "address"
        },
        {
          "indexed": true,
          "internalType": "address",
          "name": "newOwner",
          "type": "address"
        }
      ],
      "name": "OwnershipTransferred",
      "type": "event"
    },
    {
      "inputs": [],
      "name": "INTERFACE_ID_ERC1155",
      "outputs": [
        {
          "internalType": "bytes4",
          "name": "",
          "type": "bytes4"
        }
      ],
      "stateMutability": "view",
      "type": "function"
    },
    {
      "inputs": [],
      "name": "INTERFACE_ID_ERC721",
      "outputs": [
        {
          "internalType": "bytes4",
          "name": "",
          "type": "bytes4"
        }
      ],
      "stateMutability": "view",
      "type": "function"
    },
    {
      "inputs": [
        {
          "internalType": "address",
          "name": "collection",
          "type": "address"
        },
        {
          "internalType": "address",
          "name": "transferManager",
          "type": "address"
        }
      ],
      "name": "addCollectionTransferManager",
      "outputs": [],
      "stateMutability": "nonpayable",
      "type": "function"
    },
    {
      "inputs": [
        {
          "internalType": "address",
          "name": "collection",
          "type": "address"
        }
      ],
      "name": "checkTransferManagerForToken",
      "outputs": [
        {
          "internalType": "address",
          "name": "transferManager",
          "type": "address"
        }
      ],
      "stateMutability": "view",
      "type": "function"
    },
    {
      "inputs": [
        {
          "internalType": "address",
          "name": "_transferManagerERC721",
          "type": "address"
        },
        {
          "internalType": "address",
          "name": "_transferManagerERC1155",
          "type": "address"
        }
      ],
      "name": "initialize",
      "outputs": [],
      "stateMutability": "nonpayable",
      "type": "function"
    },
    {
      "inputs": [],
      "name": "owner",
      "outputs": [
        {
          "internalType": "address",
          "name": "",
          "type": "address"
        }
      ],
      "stateMutability": "view",
      "type": "function"
    },
    {
      "inputs": [
        {
          "internalType": "address",
          "name": "collection",
          "type": "address"
        }
      ],
      "name": "removeCollectionTransferManager",
      "outputs": [],
      "stateMutability": "nonpayable",
      "type": "function"
    },
    {
      "inputs": [],
      "name": "renounceOwnership",
      "outputs": [],
      "stateMutability": "nonpayable",
      "type": "function"
    },
    {
      "inputs": [],
      "name": "transferManagerERC1155",
      "outputs": [
        {
          "internalType": "address",
          "name": "",
          "type": "address"
        }
      ],
      "stateMutability": "view",
      "type": "function"
    },
    {
      "inputs": [],
      "name": "transferManagerERC721",
      "outputs": [
        {
          "internalType": "address",
          "name": "",
          "type": "address"
        }
      ],
      "stateMutability": "view",
      "type": "function"
    },
    {
      "inputs": [
        {
          "internalType": "address",
          "name": "",
          "type": "address"
        }
      ],
      "name": "transferManagerSelectorForCollection",
      "outputs": [
        {
          "internalType": "address",
          "name": "",
          "type": "address"
        }
      ],
      "stateMutability": "view",
      "type": "function"
    },
    {
      "inputs": [
        {
          "internalType": "address",
          "name": "newOwner",
          "type": "address"
        }
      ],
      "name": "transferOwnership",
      "outputs": [],
      "stateMutability": "nonpayable",
      "type": "function"
    }
  ],
  "transactionHash": "0x0a75ab38e59fd653837129369286786d914dbbebede1361b9c84530ad1094090",
  "args": [],
  "numDeployments": 1,
  "solcInputHash": "e27c224c09507bb41163b96c985afc0d",
  "bytecode": "0x608060405234801561001057600080fd5b506109a4806100206000396000f3fe608060405234801561001057600080fd5b50600436106100b45760003560e01c8063715018a611610071578063715018a6146101745780638da5cb5b1461017c578063bc6bc0cd1461018d578063cc1594931461019b578063f048d320146101ae578063f2fde38b146101c157600080fd5b806325c6a895146100b9578063283b00e1146100ce57806333bf6156146100fe5780634216a75314610125578063485cc9551461014e5780637053fb7914610161575b600080fd5b6100cc6100c7366004610877565b6101d4565b005b6065546100e1906001600160a01b031681565b6040516001600160a01b0390911681526020015b60405180910390f35b61010c636cdb3d1360e11b81565b6040516001600160e01b031990911681526020016100f5565b6100e16101333660046108aa565b6067602052600090815260409020546001600160a01b031681565b6100cc61015c366004610877565b61034f565b6100cc61016f3660046108aa565b610442565b6100cc610548565b6033546001600160a01b03166100e1565b61010c6380ac58cd60e01b81565b6100e16101a93660046108aa565b61057e565b6066546100e1906001600160a01b031681565b6100cc6101cf3660046108aa565b610714565b6033546001600160a01b031633146102075760405162461bcd60e51b81526004016101fe906108cc565b60405180910390fd5b6001600160a01b03821661027c5760405162461bcd60e51b815260206004820152603660248201527f5472616e7366657253656c6563746f724e46543a20436f6c6c656374696f6e2060448201527563616e6e6f74206265206e756c6c206164647265737360501b60648201526084016101fe565b6001600160a01b0381166102f85760405162461bcd60e51b815260206004820152603b60248201527f5472616e7366657253656c6563746f724e46543a205472616e736665724d616e60448201527f616765722063616e6e6f74206265206e756c6c2061646472657373000000000060648201526084016101fe565b6001600160a01b0382811660008181526067602052604080822080546001600160a01b0319169486169485179055517fda166be6ba0ebb71be3f83e7d669765de552ea08978bfe3e3e42d54174111b629190a35050565b600054610100900460ff1661036a5760005460ff161561036e565b303b155b6103d15760405162461bcd60e51b815260206004820152602e60248201527f496e697469616c697a61626c653a20636f6e747261637420697320616c72656160448201526d191e481a5b9a5d1a585b1a5e995960921b60648201526084016101fe565b600054610100900460ff161580156103f3576000805461ffff19166101011790555b6103fb6107af565b606580546001600160a01b038086166001600160a01b0319928316179092556066805492851692909116919091179055801561043d576000805461ff00191690555b505050565b6033546001600160a01b0316331461046c5760405162461bcd60e51b81526004016101fe906108cc565b6001600160a01b03818116600090815260676020526040902054166104f95760405162461bcd60e51b815260206004820152603760248201527f5472616e7366657253656c6563746f724e46543a20436f6c6c656374696f6e2060448201527f686173206e6f207472616e73666572206d616e6167657200000000000000000060648201526084016101fe565b6001600160a01b03811660008181526067602052604080822080546001600160a01b0319169055517f8c3bf4babc197f3db0e7ec65aaf23fc0efb0e689436aeea8514c3f01fd97841f9190a250565b6033546001600160a01b031633146105725760405162461bcd60e51b81526004016101fe906108cc565b61057c60006107de565b565b6001600160a01b03808216600090815260676020526040902054168061070f576040516301ffc9a760e01b81526380ac58cd60e01b60048201526001600160a01b038316906301ffc9a790602401602060405180830381865afa1580156105e9573d6000803e3d6000fd5b505050506040513d601f19601f8201168201806040525081019061060d9190610901565b156106235750506065546001600160a01b031690565b6040516301ffc9a760e01b8152636cdb3d1360e11b60048201526001600160a01b038316906301ffc9a790602401602060405180830381865afa15801561066e573d6000803e3d6000fd5b505050506040513d601f19601f820116820180604052508101906106929190610901565b156106a85750506066546001600160a01b031690565b60405162461bcd60e51b815260206004820152603660248201527f5472616e7366657253656c6563746f724e46543a204e6f204e4654207472616e60448201527573666572206d616e6167657220617661696c61626c6560501b60648201526084016101fe565b919050565b6033546001600160a01b0316331461073e5760405162461bcd60e51b81526004016101fe906108cc565b6001600160a01b0381166107a35760405162461bcd60e51b815260206004820152602660248201527f4f776e61626c653a206e6577206f776e657220697320746865207a65726f206160448201526564647265737360d01b60648201526084016101fe565b6107ac816107de565b50565b600054610100900460ff166107d65760405162461bcd60e51b81526004016101fe90610923565b61057c610830565b603380546001600160a01b038381166001600160a01b0319831681179093556040519116919082907f8be0079c531659141344cd1fd0a4f28419497f9722a3daafe3b4186f6b6457e090600090a35050565b600054610100900460ff166108575760405162461bcd60e51b81526004016101fe90610923565b61057c336107de565b80356001600160a01b038116811461070f57600080fd5b6000806040838503121561088a57600080fd5b61089383610860565b91506108a160208401610860565b90509250929050565b6000602082840312156108bc57600080fd5b6108c582610860565b9392505050565b6020808252818101527f4f776e61626c653a2063616c6c6572206973206e6f7420746865206f776e6572604082015260600190565b60006020828403121561091357600080fd5b815180151581146108c557600080fd5b6020808252602b908201527f496e697469616c697a61626c653a20636f6e7472616374206973206e6f74206960408201526a6e697469616c697a696e6760a81b60608201526080019056fea2646970667358221220fe6f1f3f639097dfa9437e94d25f77d0fbbd10da0e8d4bd7f4cbcf986395f80464736f6c634300080a0033",
  "devdoc": {
    "kind": "dev",
    "methods": {
      "addCollectionTransferManager(address,address)": {
        "details": "It is meant to be used for exceptions only (e.g., CryptoKitties)",
        "params": {
          "collection": "collection address to add specific transfer rule"
        }
      },
      "checkTransferManagerForToken(address)": {
        "details": "Support for ERC165 interface is checked AFTER custom implementation",
        "params": {
          "collection": "collection address"
        },
        "returns": {
          "transferManager": "address of transfer manager to use"
        }
      },
      "initialize(address,address)": {
        "params": {
          "_transferManagerERC1155": "address of the ERC1155 transfer manager",
          "_transferManagerERC721": "address of the ERC721 transfer manager"
        }
      },
      "owner()": {
        "details": "Returns the address of the current owner."
      },
      "removeCollectionTransferManager(address)": {
        "params": {
          "collection": "collection address to remove exception"
        }
      },
      "renounceOwnership()": {
        "details": "Leaves the contract without owner. It will not be possible to call `onlyOwner` functions anymore. Can only be called by the current owner. NOTE: Renouncing ownership will leave the contract without an owner, thereby removing any functionality that is only available to the owner."
      },
      "transferOwnership(address)": {
        "details": "Transfers ownership of the contract to a new account (`newOwner`). Can only be called by the current owner."
      }
    },
    "title": "TransferSelectorNFT",
    "version": 1
  },
  "userdoc": {
    "kind": "user",
    "methods": {
      "addCollectionTransferManager(address,address)": {
        "notice": "Add a transfer manager for a collection"
      },
      "checkTransferManagerForToken(address)": {
        "notice": "Check the transfer manager for a token"
      },
      "initialize(address,address)": {
        "notice": "Initializer"
      },
      "removeCollectionTransferManager(address)": {
        "notice": "Remove a transfer manager for a collection"
      }
    },
    "notice": "It selects the NFT transfer manager based on a collection address.",
    "version": 1
  },
  "storageLayout": {
    "storage": [
      {
        "astId": 702,
        "contract": "contracts/TransferSelectorNFT.sol:TransferSelectorNFT",
        "label": "_initialized",
        "offset": 0,
        "slot": "0",
        "type": "t_bool"
      },
      {
        "astId": 705,
        "contract": "contracts/TransferSelectorNFT.sol:TransferSelectorNFT",
        "label": "_initializing",
        "offset": 1,
        "slot": "0",
        "type": "t_bool"
      },
      {
        "astId": 1223,
        "contract": "contracts/TransferSelectorNFT.sol:TransferSelectorNFT",
        "label": "__gap",
        "offset": 0,
        "slot": "1",
        "type": "t_array(t_uint256)50_storage"
      },
      {
        "astId": 582,
        "contract": "contracts/TransferSelectorNFT.sol:TransferSelectorNFT",
        "label": "_owner",
        "offset": 0,
        "slot": "51",
        "type": "t_address"
      },
      {
        "astId": 694,
        "contract": "contracts/TransferSelectorNFT.sol:TransferSelectorNFT",
        "label": "__gap",
        "offset": 0,
        "slot": "52",
        "type": "t_array(t_uint256)49_storage"
      },
      {
        "astId": 14130,
        "contract": "contracts/TransferSelectorNFT.sol:TransferSelectorNFT",
        "label": "transferManagerERC721",
        "offset": 0,
        "slot": "101",
        "type": "t_address"
      },
      {
        "astId": 14132,
        "contract": "contracts/TransferSelectorNFT.sol:TransferSelectorNFT",
        "label": "transferManagerERC1155",
        "offset": 0,
        "slot": "102",
        "type": "t_address"
      },
      {
        "astId": 14136,
        "contract": "contracts/TransferSelectorNFT.sol:TransferSelectorNFT",
        "label": "transferManagerSelectorForCollection",
        "offset": 0,
        "slot": "103",
        "type": "t_mapping(t_address,t_address)"
      }
    ],
    "types": {
      "t_address": {
        "encoding": "inplace",
        "label": "address",
        "numberOfBytes": "20"
      },
      "t_array(t_uint256)49_storage": {
        "base": "t_uint256",
        "encoding": "inplace",
        "label": "uint256[49]",
        "numberOfBytes": "1568"
      },
      "t_array(t_uint256)50_storage": {
        "base": "t_uint256",
        "encoding": "inplace",
        "label": "uint256[50]",
        "numberOfBytes": "1600"
      },
      "t_bool": {
        "encoding": "inplace",
        "label": "bool",
        "numberOfBytes": "1"
      },
      "t_mapping(t_address,t_address)": {
        "encoding": "mapping",
        "key": "t_address",
        "label": "mapping(address => address)",
        "numberOfBytes": "32",
        "value": "t_address"
      },
      "t_uint256": {
        "encoding": "inplace",
        "label": "uint256",
        "numberOfBytes": "32"
      }
    }
  }
}