{
  "address": "0x24363BE929a3C8C7f47ed2072a73cd5510445fa6",
  "abi": [
    {
      "anonymous": false,
      "inputs": [
        {
          "indexed": true,
          "internalType": "address",
          "name": "currency",
          "type": "address"
        }
      ],
      "name": "CurrencyRemoved",
      "type": "event"
    },
    {
      "anonymous": false,
      "inputs": [
        {
          "indexed": true,
          "internalType": "address",
          "name": "currency",
          "type": "address"
        }
      ],
      "name": "CurrencyWhitelisted",
      "type": "event"
    },
    {
      "anonymous": false,
      "inputs": [
        {
          "indexed": true,
          "internalType": "address",
          "name": "previousOwner",
          "type": "address"
        },
        {
          "indexed": true,
          "internalType": "address",
          "name": "newOwner",
          "type": "address"
        }
      ],
      "name": "OwnershipTransferred",
      "type": "event"
    },
    {
      "inputs": [
        {
          "internalType": "address",
          "name": "currency",
          "type": "address"
        }
      ],
      "name": "addCurrency",
      "outputs": [],
      "stateMutability": "nonpayable",
      "type": "function"
    },
    {
      "inputs": [],
      "name": "initialize",
      "outputs": [],
      "stateMutability": "nonpayable",
      "type": "function"
    },
    {
      "inputs": [
        {
          "internalType": "address",
          "name": "currency",
          "type": "address"
        }
      ],
      "name": "isCurrencyWhitelisted",
      "outputs": [
        {
          "internalType": "bool",
          "name": "",
          "type": "bool"
        }
      ],
      "stateMutability": "view",
      "type": "function"
    },
    {
      "inputs": [],
      "name": "owner",
      "outputs": [
        {
          "internalType": "address",
          "name": "",
          "type": "address"
        }
      ],
      "stateMutability": "view",
      "type": "function"
    },
    {
      "inputs": [
        {
          "internalType": "address",
          "name": "currency",
          "type": "address"
        }
      ],
      "name": "removeCurrency",
      "outputs": [],
      "stateMutability": "nonpayable",
      "type": "function"
    },
    {
      "inputs": [],
      "name": "renounceOwnership",
      "outputs": [],
      "stateMutability": "nonpayable",
      "type": "function"
    },
    {
      "inputs": [
        {
          "internalType": "address",
          "name": "newOwner",
          "type": "address"
        }
      ],
      "name": "transferOwnership",
      "outputs": [],
      "stateMutability": "nonpayable",
      "type": "function"
    },
    {
      "inputs": [],
      "name": "viewCountWhitelistedCurrencies",
      "outputs": [
        {
          "internalType": "uint256",
          "name": "",
          "type": "uint256"
        }
      ],
      "stateMutability": "view",
      "type": "function"
    },
    {
      "inputs": [
        {
          "internalType": "uint256",
          "name": "cursor",
          "type": "uint256"
        },
        {
          "internalType": "uint256",
          "name": "size",
          "type": "uint256"
        }
      ],
      "name": "viewWhitelistedCurrencies",
      "outputs": [
        {
          "internalType": "address[]",
          "name": "",
          "type": "address[]"
        },
        {
          "internalType": "uint256",
          "name": "",
          "type": "uint256"
        }
      ],
      "stateMutability": "view",
      "type": "function"
    }
  ],
  "transactionHash": "0x2f620004bc5f511dd14331e1f1e55448a152bf61eb94186ab706d9ee636f2fde",
  "args": [],
  "numDeployments": 1,
  "solcInputHash": "c3df39ac32defc26e5e55ee2f225e8a6",
  "bytecode": "0x608060405234801561001057600080fd5b50610a0d806100206000396000f3fe608060405234801561001057600080fd5b50600436106100935760003560e01c806385f39b0a1161006657806385f39b0a146100e85780638ab234b6146101095780638da5cb5b1461011c578063c5d3a10714610137578063f2fde38b1461014a57600080fd5b80631facfd9c1461009857806343b938c5146100b3578063715018a6146100d65780638129fc1c146100e0575b600080fd5b6100a061015d565b6040519081526020015b60405180910390f35b6100c66100c1366004610819565b61016e565b60405190151581526020016100aa565b6100de610181565b005b6100de6101c0565b6100fb6100f6366004610842565b610281565b6040516100aa929190610864565b6100de610117366004610819565b610376565b6033546040516001600160a01b0390911681526020016100aa565b6100de610145366004610819565b61043b565b6100de610158366004610819565b6104ff565b60006101696065610597565b905090565b600061017b6065836105a1565b92915050565b6033546001600160a01b031633146101b45760405162461bcd60e51b81526004016101ab906108b5565b60405180910390fd5b6101be60006105c6565b565b600054610100900460ff166101db5760005460ff16156101df565b303b155b6102425760405162461bcd60e51b815260206004820152602e60248201527f496e697469616c697a61626c653a20636f6e747261637420697320616c72656160448201526d191e481a5b9a5d1a585b1a5e995960921b60648201526084016101ab565b600054610100900460ff16158015610264576000805461ffff19166101011790555b61026c610618565b801561027e576000805461ff00191690555b50565b6060600082846102916065610597565b61029b9190610900565b8111156102ba57846102ad6065610597565b6102b79190610900565b90505b60008167ffffffffffffffff8111156102d5576102d5610917565b6040519080825280602002602001820160405280156102fe578160200160208202803683370190505b50905060005b8281101561035d57610321610319828961092d565b606590610647565b82828151811061033357610333610945565b6001600160a01b0390921660209283029190910190910152806103558161095b565b915050610304565b5080610369838861092d565b9350935050509250929050565b6033546001600160a01b031633146103a05760405162461bcd60e51b81526004016101ab906108b5565b6103ab6065826105a1565b156103f85760405162461bcd60e51b815260206004820152601d60248201527f43757272656e63793a20416c72656164792077686974656c697374656400000060448201526064016101ab565b610403606582610653565b506040516001600160a01b038216907f3cbf62b327efb2d06d36e16c10a2f5c00cf0568e2b805bd56969b15d2736107890600090a250565b6033546001600160a01b031633146104655760405162461bcd60e51b81526004016101ab906108b5565b6104706065826105a1565b6104bc5760405162461bcd60e51b815260206004820152601960248201527f43757272656e63793a204e6f742077686974656c69737465640000000000000060448201526064016101ab565b6104c7606582610668565b506040516001600160a01b038216907fa40d69111be14f29022626d38310e47cc2d7f4cb728961509c2f65a4bee08c5b90600090a250565b6033546001600160a01b031633146105295760405162461bcd60e51b81526004016101ab906108b5565b6001600160a01b03811661058e5760405162461bcd60e51b815260206004820152602660248201527f4f776e61626c653a206e6577206f776e657220697320746865207a65726f206160448201526564647265737360d01b60648201526084016101ab565b61027e816105c6565b600061017b825490565b6001600160a01b038116600090815260018301602052604081205415155b9392505050565b603380546001600160a01b038381166001600160a01b0319831681179093556040519116919082907f8be0079c531659141344cd1fd0a4f28419497f9722a3daafe3b4186f6b6457e090600090a35050565b600054610100900460ff1661063f5760405162461bcd60e51b81526004016101ab90610976565b6101be61067d565b60006105bf83836106ad565b60006105bf836001600160a01b0384166106d7565b60006105bf836001600160a01b038416610726565b600054610100900460ff166106a45760405162461bcd60e51b81526004016101ab90610976565b6101be336105c6565b60008260000182815481106106c4576106c4610945565b9060005260206000200154905092915050565b600081815260018301602052604081205461071e5750815460018181018455600084815260208082209093018490558454848252828601909352604090209190915561017b565b50600061017b565b6000818152600183016020526040812054801561080f57600061074a600183610900565b855490915060009061075e90600190610900565b90508181146107c357600086600001828154811061077e5761077e610945565b90600052602060002001549050808760000184815481106107a1576107a1610945565b6000918252602080832090910192909255918252600188019052604090208390555b85548690806107d4576107d46109c1565b60019003818190600052602060002001600090559055856001016000868152602001908152602001600020600090556001935050505061017b565b600091505061017b565b60006020828403121561082b57600080fd5b81356001600160a01b03811681146105bf57600080fd5b6000806040838503121561085557600080fd5b50508035926020909101359150565b604080825283519082018190526000906020906060840190828701845b828110156108a65781516001600160a01b031684529284019290840190600101610881565b50505092019290925292915050565b6020808252818101527f4f776e61626c653a2063616c6c6572206973206e6f7420746865206f776e6572604082015260600190565b634e487b7160e01b600052601160045260246000fd5b600082821015610912576109126108ea565b500390565b634e487b7160e01b600052604160045260246000fd5b60008219821115610940576109406108ea565b500190565b634e487b7160e01b600052603260045260246000fd5b600060001982141561096f5761096f6108ea565b5060010190565b6020808252602b908201527f496e697469616c697a61626c653a20636f6e7472616374206973206e6f74206960408201526a6e697469616c697a696e6760a81b606082015260800190565b634e487b7160e01b600052603160045260246000fdfea264697066735822122061efa761a8fe653cae6de9aaecce1e998323b59631b524dd0ce221debd3400b464736f6c634300080a0033",
  "devdoc": {
    "kind": "dev",
    "methods": {
      "addCurrency(address)": {
        "params": {
          "currency": "address of the currency to add"
        }
      },
      "isCurrencyWhitelisted(address)": {
        "params": {
          "currency": "address of the currency"
        }
      },
      "owner()": {
        "details": "Returns the address of the current owner."
      },
      "removeCurrency(address)": {
        "params": {
          "currency": "address of the currency to remove"
        }
      },
      "renounceOwnership()": {
        "details": "Leaves the contract without owner. It will not be possible to call `onlyOwner` functions anymore. Can only be called by the current owner. NOTE: Renouncing ownership will leave the contract without an owner, thereby removing any functionality that is only available to the owner."
      },
      "transferOwnership(address)": {
        "details": "Transfers ownership of the contract to a new account (`newOwner`). Can only be called by the current owner."
      },
      "viewWhitelistedCurrencies(uint256,uint256)": {
        "params": {
          "cursor": "cursor (should start at 0 for first request)",
          "size": "size of the response (e.g., 50)"
        }
      }
    },
    "title": "CurrencyManager",
    "version": 1
  },
  "userdoc": {
    "kind": "user",
    "methods": {
      "addCurrency(address)": {
        "notice": "Add a currency in the system"
      },
      "isCurrencyWhitelisted(address)": {
        "notice": "Returns if a currency is in the system"
      },
      "removeCurrency(address)": {
        "notice": "Remove a currency from the system"
      },
      "viewCountWhitelistedCurrencies()": {
        "notice": "View number of whitelisted currencies"
      },
      "viewWhitelistedCurrencies(uint256,uint256)": {
        "notice": "See whitelisted currencies in the system"
      }
    },
    "notice": "It allows adding/removing currencies for trading on the Joepeg exchange.",
    "version": 1
  },
  "storageLayout": {
    "storage": [
      {
        "astId": 702,
        "contract": "contracts/CurrencyManager.sol:CurrencyManager",
        "label": "_initialized",
        "offset": 0,
        "slot": "0",
        "type": "t_bool"
      },
      {
        "astId": 705,
        "contract": "contracts/CurrencyManager.sol:CurrencyManager",
        "label": "_initializing",
        "offset": 1,
        "slot": "0",
        "type": "t_bool"
      },
      {
        "astId": 1223,
        "contract": "contracts/CurrencyManager.sol:CurrencyManager",
        "label": "__gap",
        "offset": 0,
        "slot": "1",
        "type": "t_array(t_uint256)50_storage"
      },
      {
        "astId": 582,
        "contract": "contracts/CurrencyManager.sol:CurrencyManager",
        "label": "_owner",
        "offset": 0,
        "slot": "51",
        "type": "t_address"
      },
      {
        "astId": 694,
        "contract": "contracts/CurrencyManager.sol:CurrencyManager",
        "label": "__gap",
        "offset": 0,
        "slot": "52",
        "type": "t_array(t_uint256)49_storage"
      },
      {
        "astId": 7096,
        "contract": "contracts/CurrencyManager.sol:CurrencyManager",
        "label": "_whitelistedCurrencies",
        "offset": 0,
        "slot": "101",
        "type": "t_struct(AddressSet)6785_storage"
      }
    ],
    "types": {
      "t_address": {
        "encoding": "inplace",
        "label": "address",
        "numberOfBytes": "20"
      },
      "t_array(t_bytes32)dyn_storage": {
        "base": "t_bytes32",
        "encoding": "dynamic_array",
        "label": "bytes32[]",
        "numberOfBytes": "32"
      },
      "t_array(t_uint256)49_storage": {
        "base": "t_uint256",
        "encoding": "inplace",
        "label": "uint256[49]",
        "numberOfBytes": "1568"
      },
      "t_array(t_uint256)50_storage": {
        "base": "t_uint256",
        "encoding": "inplace",
        "label": "uint256[50]",
        "numberOfBytes": "1600"
      },
      "t_bool": {
        "encoding": "inplace",
        "label": "bool",
        "numberOfBytes": "1"
      },
      "t_bytes32": {
        "encoding": "inplace",
        "label": "bytes32",
        "numberOfBytes": "32"
      },
      "t_mapping(t_bytes32,t_uint256)": {
        "encoding": "mapping",
        "key": "t_bytes32",
        "label": "mapping(bytes32 => uint256)",
        "numberOfBytes": "32",
        "value": "t_uint256"
      },
      "t_struct(AddressSet)6785_storage": {
        "encoding": "inplace",
        "label": "struct EnumerableSet.AddressSet",
        "members": [
          {
            "astId": 6784,
            "contract": "contracts/CurrencyManager.sol:CurrencyManager",
            "label": "_inner",
            "offset": 0,
            "slot": "0",
            "type": "t_struct(Set)6484_storage"
          }
        ],
        "numberOfBytes": "64"
      },
      "t_struct(Set)6484_storage": {
        "encoding": "inplace",
        "label": "struct EnumerableSet.Set",
        "members": [
          {
            "astId": 6479,
            "contract": "contracts/CurrencyManager.sol:CurrencyManager",
            "label": "_values",
            "offset": 0,
            "slot": "0",
            "type": "t_array(t_bytes32)dyn_storage"
          },
          {
            "astId": 6483,
            "contract": "contracts/CurrencyManager.sol:CurrencyManager",
            "label": "_indexes",
            "offset": 0,
            "slot": "1",
            "type": "t_mapping(t_bytes32,t_uint256)"
          }
        ],
        "numberOfBytes": "64"
      },
      "t_uint256": {
        "encoding": "inplace",
        "label": "uint256",
        "numberOfBytes": "32"
      }
    }
  }
}