{
  "address": "0xaf515bc8F3D89Ad01D5149d84e5Fd413207f3cCa",
  "abi": [
    {
      "anonymous": false,
      "inputs": [
        {
          "indexed": true,
          "internalType": "address",
          "name": "account",
          "type": "address"
        },
        {
          "indexed": true,
          "internalType": "address",
          "name": "operator",
          "type": "address"
        },
        {
          "indexed": false,
          "internalType": "bool",
          "name": "approved",
          "type": "bool"
        }
      ],
      "name": "ApprovalForAll",
      "type": "event"
    },
    {
      "anonymous": false,
      "inputs": [
        {
          "indexed": true,
          "internalType": "address",
          "name": "previousOwner",
          "type": "address"
        },
        {
          "indexed": true,
          "internalType": "address",
          "name": "newOwner",
          "type": "address"
        }
      ],
      "name": "OwnershipTransferred",
      "type": "event"
    },
    {
      "anonymous": false,
      "inputs": [
        {
          "indexed": true,
          "internalType": "address",
          "name": "operator",
          "type": "address"
        },
        {
          "indexed": true,
          "internalType": "address",
          "name": "from",
          "type": "address"
        },
        {
          "indexed": true,
          "internalType": "address",
          "name": "to",
          "type": "address"
        },
        {
          "indexed": false,
          "internalType": "uint256[]",
          "name": "ids",
          "type": "uint256[]"
        },
        {
          "indexed": false,
          "internalType": "uint256[]",
          "name": "values",
          "type": "uint256[]"
        }
      ],
      "name": "TransferBatch",
      "type": "event"
    },
    {
      "anonymous": false,
      "inputs": [
        {
          "indexed": true,
          "internalType": "address",
          "name": "operator",
          "type": "address"
        },
        {
          "indexed": true,
          "internalType": "address",
          "name": "from",
          "type": "address"
        },
        {
          "indexed": true,
          "internalType": "address",
          "name": "to",
          "type": "address"
        },
        {
          "indexed": false,
          "internalType": "uint256",
          "name": "id",
          "type": "uint256"
        },
        {
          "indexed": false,
          "internalType": "uint256",
          "name": "value",
          "type": "uint256"
        }
      ],
      "name": "TransferSingle",
      "type": "event"
    },
    {
      "anonymous": false,
      "inputs": [
        {
          "indexed": false,
          "internalType": "string",
          "name": "value",
          "type": "string"
        },
        {
          "indexed": true,
          "internalType": "uint256",
          "name": "id",
          "type": "uint256"
        }
      ],
      "name": "URI",
      "type": "event"
    },
    {
      "inputs": [],
      "name": "INTERFACE_ID_ERC2981",
      "outputs": [
        {
          "internalType": "bytes4",
          "name": "",
          "type": "bytes4"
        }
      ],
      "stateMutability": "view",
      "type": "function"
    },
    {
      "inputs": [
        {
          "internalType": "address",
          "name": "account",
          "type": "address"
        },
        {
          "internalType": "uint256",
          "name": "id",
          "type": "uint256"
        }
      ],
      "name": "balanceOf",
      "outputs": [
        {
          "internalType": "uint256",
          "name": "",
          "type": "uint256"
        }
      ],
      "stateMutability": "view",
      "type": "function"
    },
    {
      "inputs": [
        {
          "internalType": "address[]",
          "name": "accounts",
          "type": "address[]"
        },
        {
          "internalType": "uint256[]",
          "name": "ids",
          "type": "uint256[]"
        }
      ],
      "name": "balanceOfBatch",
      "outputs": [
        {
          "internalType": "uint256[]",
          "name": "",
          "type": "uint256[]"
        }
      ],
      "stateMutability": "view",
      "type": "function"
    },
    {
      "inputs": [
        {
          "internalType": "address",
          "name": "account",
          "type": "address"
        },
        {
          "internalType": "address",
          "name": "operator",
          "type": "address"
        }
      ],
      "name": "isApprovedForAll",
      "outputs": [
        {
          "internalType": "bool",
          "name": "",
          "type": "bool"
        }
      ],
      "stateMutability": "view",
      "type": "function"
    },
    {
      "inputs": [
        {
          "internalType": "address",
          "name": "_to",
          "type": "address"
        },
        {
          "internalType": "uint256",
          "name": "_tokenId",
          "type": "uint256"
        },
        {
          "internalType": "uint256",
          "name": "_amount",
          "type": "uint256"
        }
      ],
      "name": "mint",
      "outputs": [
        {
          "internalType": "uint256",
          "name": "",
          "type": "uint256"
        }
      ],
      "stateMutability": "nonpayable",
      "type": "function"
    },
    {
      "inputs": [],
      "name": "owner",
      "outputs": [
        {
          "internalType": "address",
          "name": "",
          "type": "address"
        }
      ],
      "stateMutability": "view",
      "type": "function"
    },
    {
      "inputs": [],
      "name": "renounceOwnership",
      "outputs": [],
      "stateMutability": "nonpayable",
      "type": "function"
    },
    {
      "inputs": [
        {
          "internalType": "uint256",
          "name": "_tokenId",
          "type": "uint256"
        },
        {
          "internalType": "uint256",
          "name": "_salePrice",
          "type": "uint256"
        }
      ],
      "name": "royaltyInfo",
      "outputs": [
        {
          "internalType": "address",
          "name": "receiver",
          "type": "address"
        },
        {
          "internalType": "uint256",
          "name": "royaltyAmount",
          "type": "uint256"
        }
      ],
      "stateMutability": "view",
      "type": "function"
    },
    {
      "inputs": [
        {
          "internalType": "address",
          "name": "from",
          "type": "address"
        },
        {
          "internalType": "address",
          "name": "to",
          "type": "address"
        },
        {
          "internalType": "uint256[]",
          "name": "ids",
          "type": "uint256[]"
        },
        {
          "internalType": "uint256[]",
          "name": "amounts",
          "type": "uint256[]"
        },
        {
          "internalType": "bytes",
          "name": "data",
          "type": "bytes"
        }
      ],
      "name": "safeBatchTransferFrom",
      "outputs": [],
      "stateMutability": "nonpayable",
      "type": "function"
    },
    {
      "inputs": [
        {
          "internalType": "address",
          "name": "from",
          "type": "address"
        },
        {
          "internalType": "address",
          "name": "to",
          "type": "address"
        },
        {
          "internalType": "uint256",
          "name": "id",
          "type": "uint256"
        },
        {
          "internalType": "uint256",
          "name": "amount",
          "type": "uint256"
        },
        {
          "internalType": "bytes",
          "name": "data",
          "type": "bytes"
        }
      ],
      "name": "safeTransferFrom",
      "outputs": [],
      "stateMutability": "nonpayable",
      "type": "function"
    },
    {
      "inputs": [
        {
          "internalType": "address",
          "name": "operator",
          "type": "address"
        },
        {
          "internalType": "bool",
          "name": "approved",
          "type": "bool"
        }
      ],
      "name": "setApprovalForAll",
      "outputs": [],
      "stateMutability": "nonpayable",
      "type": "function"
    },
    {
      "inputs": [
        {
          "internalType": "bytes4",
          "name": "interfaceId",
          "type": "bytes4"
        }
      ],
      "name": "supportsInterface",
      "outputs": [
        {
          "internalType": "bool",
          "name": "",
          "type": "bool"
        }
      ],
      "stateMutability": "view",
      "type": "function"
    },
    {
      "inputs": [
        {
          "internalType": "address",
          "name": "newOwner",
          "type": "address"
        }
      ],
      "name": "transferOwnership",
      "outputs": [],
      "stateMutability": "nonpayable",
      "type": "function"
    },
    {
      "inputs": [
        {
          "internalType": "uint256",
          "name": "",
          "type": "uint256"
        }
      ],
      "name": "uri",
      "outputs": [
        {
          "internalType": "string",
          "name": "",
          "type": "string"
        }
      ],
      "stateMutability": "view",
      "type": "function"
    }
  ],
  "transactionHash": "0x837ccda25ec4911815fd25b184e6ef9b11f1b53b89ddafe4f041339c25c09513",
  "args": [],
  "numDeployments": 1,
  "solcInputHash": "e27c224c09507bb41163b96c985afc0d",
  "bytecode": "0x60806040523480156200001157600080fd5b50604051806080016040528060568152602001620019ee60569139620000378162000049565b50620000433362000062565b62000197565b80516200005e906002906020840190620000b4565b5050565b600380546001600160a01b038381166001600160a01b0319831681179093556040519116919082907f8be0079c531659141344cd1fd0a4f28419497f9722a3daafe3b4186f6b6457e090600090a35050565b828054620000c2906200015a565b90600052602060002090601f016020900481019282620000e6576000855562000131565b82601f106200010157805160ff191683800117855562000131565b8280016001018555821562000131579182015b828111156200013157825182559160200191906001019062000114565b506200013f92915062000143565b5090565b5b808211156200013f576000815560010162000144565b600181811c908216806200016f57607f821691505b602082108114156200019157634e487b7160e01b600052602260045260246000fd5b50919050565b61184780620001a76000396000f3fe608060405234801561001057600080fd5b50600436106100e95760003560e01c8063715018a61161008c578063b060dd8611610066578063b060dd8614610207578063e985e9c51461022e578063f242432a1461026a578063f2fde38b1461027d57600080fd5b8063715018a6146101d15780638da5cb5b146101d9578063a22cb465146101f457600080fd5b8063156e29f6116100c8578063156e29f6146101575780632a55205a1461016a5780632eb2c2d61461019c5780634e1273f4146101b157600080fd5b8062fdd58e146100ee57806301ffc9a7146101145780630e89341c14610137575b600080fd5b6101016100fc366004610fc3565b610290565b6040519081526020015b60405180910390f35b610127610122366004611003565b610327565b604051901515815260200161010b565b61014a610145366004611027565b610352565b60405161010b919061108d565b6101016101653660046110a0565b6103e6565b61017d6101783660046110d3565b61040b565b604080516001600160a01b03909316835260208301919091520161010b565b6101af6101aa366004611241565b610436565b005b6101c46101bf3660046112eb565b6104cd565b60405161010b91906113f1565b6101af6105f7565b6003546040516001600160a01b03909116815260200161010b565b6101af610202366004611404565b61065d565b61021563152a902d60e11b81565b6040516001600160e01b0319909116815260200161010b565b61012761023c366004611440565b6001600160a01b03918216600090815260016020908152604080832093909416825291909152205460ff1690565b6101af61027836600461146a565b61066c565b6101af61028b3660046114cf565b6106f3565b60006001600160a01b0383166103015760405162461bcd60e51b815260206004820152602b60248201527f455243313135353a2062616c616e636520717565727920666f7220746865207a60448201526a65726f206164647265737360a81b60648201526084015b60405180910390fd5b506000908152602081815260408083206001600160a01b03949094168352929052205490565b60006001600160e01b0319821663152a902d60e11b148061034c575061034c826107be565b92915050565b606060028054610361906114ea565b80601f016020809104026020016040519081016040528092919081815260200182805461038d906114ea565b80156103da5780601f106103af576101008083540402835291602001916103da565b820191906000526020600020905b8154815290600101906020018083116103bd57829003601f168201915b50505050509050919050565b60006104038484846040518060200160405280600081525061080e565b509092915050565b6000806104206003546001600160a01b031690565b915061042d60648461153b565b90509250929050565b6001600160a01b0385163314806104525750610452853361023c565b6104b95760405162461bcd60e51b815260206004820152603260248201527f455243313135353a207472616e736665722063616c6c6572206973206e6f74206044820152711bdddb995c881b9bdc88185c1c1c9bdd995960721b60648201526084016102f8565b6104c68585858585610918565b5050505050565b606081518351146105325760405162461bcd60e51b815260206004820152602960248201527f455243313135353a206163636f756e747320616e6420696473206c656e677468604482015268040dad2e6dac2e8c6d60bb1b60648201526084016102f8565b6000835167ffffffffffffffff81111561054e5761054e6110f5565b604051908082528060200260200182016040528015610577578160200160208202803683370190505b50905060005b84518110156105ef576105c285828151811061059b5761059b61155d565b60200260200101518583815181106105b5576105b561155d565b6020026020010151610290565b8282815181106105d4576105d461155d565b60209081029190910101526105e881611573565b905061057d565b509392505050565b6003546001600160a01b031633146106515760405162461bcd60e51b815260206004820181905260248201527f4f776e61626c653a2063616c6c6572206973206e6f7420746865206f776e657260448201526064016102f8565b61065b6000610af5565b565b610668338383610b47565b5050565b6001600160a01b0385163314806106885750610688853361023c565b6106e65760405162461bcd60e51b815260206004820152602960248201527f455243313135353a2063616c6c6572206973206e6f74206f776e6572206e6f7260448201526808185c1c1c9bdd995960ba1b60648201526084016102f8565b6104c68585858585610c28565b6003546001600160a01b0316331461074d5760405162461bcd60e51b815260206004820181905260248201527f4f776e61626c653a2063616c6c6572206973206e6f7420746865206f776e657260448201526064016102f8565b6001600160a01b0381166107b25760405162461bcd60e51b815260206004820152602660248201527f4f776e61626c653a206e6577206f776e657220697320746865207a65726f206160448201526564647265737360d01b60648201526084016102f8565b6107bb81610af5565b50565b60006001600160e01b03198216636cdb3d1360e11b14806107ef57506001600160e01b031982166303a24d0760e21b145b8061034c57506301ffc9a760e01b6001600160e01b031983161461034c565b6001600160a01b03841661086e5760405162461bcd60e51b815260206004820152602160248201527f455243313135353a206d696e7420746f20746865207a65726f206164647265736044820152607360f81b60648201526084016102f8565b336108888160008761087f88610d45565b6104c688610d45565b6000848152602081815260408083206001600160a01b0389168452909152812080548592906108b890849061158e565b909155505060408051858152602081018590526001600160a01b0380881692600092918516917fc3d58168c5ae7397731d063d5bbf3d657854427343f4c083240f7aacaa2d0f62910160405180910390a46104c681600087878787610d90565b815183511461097a5760405162461bcd60e51b815260206004820152602860248201527f455243313135353a2069647320616e6420616d6f756e7473206c656e677468206044820152670dad2e6dac2e8c6d60c31b60648201526084016102f8565b6001600160a01b0384166109a05760405162461bcd60e51b81526004016102f8906115a6565b3360005b8451811015610a875760008582815181106109c1576109c161155d565b6020026020010151905060008583815181106109df576109df61155d565b602090810291909101810151600084815280835260408082206001600160a01b038e168352909352919091205490915081811015610a2f5760405162461bcd60e51b81526004016102f8906115eb565b6000838152602081815260408083206001600160a01b038e8116855292528083208585039055908b16825281208054849290610a6c90849061158e565b9250508190555050505080610a8090611573565b90506109a4565b50846001600160a01b0316866001600160a01b0316826001600160a01b03167f4a39dc06d4c0dbc64b70af90fd698a233a518aa5d07e595d983b8c0526c8f7fb8787604051610ad7929190611635565b60405180910390a4610aed818787878787610eec565b505050505050565b600380546001600160a01b038381166001600160a01b0319831681179093556040519116919082907f8be0079c531659141344cd1fd0a4f28419497f9722a3daafe3b4186f6b6457e090600090a35050565b816001600160a01b0316836001600160a01b03161415610bbb5760405162461bcd60e51b815260206004820152602960248201527f455243313135353a2073657474696e6720617070726f76616c20737461747573604482015268103337b91039b2b63360b91b60648201526084016102f8565b6001600160a01b03838116600081815260016020908152604080832094871680845294825291829020805460ff191686151590811790915591519182527f17307eab39ab6107e8899845ad3d59bd9653f200f220920489ca2b5937696c31910160405180910390a3505050565b6001600160a01b038416610c4e5760405162461bcd60e51b81526004016102f8906115a6565b33610c5e81878761087f88610d45565b6000848152602081815260408083206001600160a01b038a16845290915290205483811015610c9f5760405162461bcd60e51b81526004016102f8906115eb565b6000858152602081815260408083206001600160a01b038b8116855292528083208785039055908816825281208054869290610cdc90849061158e565b909155505060408051868152602081018690526001600160a01b03808916928a821692918616917fc3d58168c5ae7397731d063d5bbf3d657854427343f4c083240f7aacaa2d0f62910160405180910390a4610d3c828888888888610d90565b50505050505050565b60408051600180825281830190925260609160009190602080830190803683370190505090508281600081518110610d7f57610d7f61155d565b602090810291909101015292915050565b6001600160a01b0384163b15610aed5760405163f23a6e6160e01b81526001600160a01b0385169063f23a6e6190610dd49089908990889088908890600401611663565b6020604051808303816000875af1925050508015610e0f575060408051601f3d908101601f19168201909252610e0c918101906116a8565b60015b610ebc57610e1b6116c5565b806308c379a01415610e555750610e306116e1565b80610e3b5750610e57565b8060405162461bcd60e51b81526004016102f8919061108d565b505b60405162461bcd60e51b815260206004820152603460248201527f455243313135353a207472616e7366657220746f206e6f6e20455243313135356044820152732932b1b2b4bb32b91034b6b83632b6b2b73a32b960611b60648201526084016102f8565b6001600160e01b0319811663f23a6e6160e01b14610d3c5760405162461bcd60e51b81526004016102f89061176b565b6001600160a01b0384163b15610aed5760405163bc197c8160e01b81526001600160a01b0385169063bc197c8190610f3090899089908890889088906004016117b3565b6020604051808303816000875af1925050508015610f6b575060408051601f3d908101601f19168201909252610f68918101906116a8565b60015b610f7757610e1b6116c5565b6001600160e01b0319811663bc197c8160e01b14610d3c5760405162461bcd60e51b81526004016102f89061176b565b80356001600160a01b0381168114610fbe57600080fd5b919050565b60008060408385031215610fd657600080fd5b610fdf83610fa7565b946020939093013593505050565b6001600160e01b0319811681146107bb57600080fd5b60006020828403121561101557600080fd5b813561102081610fed565b9392505050565b60006020828403121561103957600080fd5b5035919050565b6000815180845260005b818110156110665760208185018101518683018201520161104a565b81811115611078576000602083870101525b50601f01601f19169290920160200192915050565b6020815260006110206020830184611040565b6000806000606084860312156110b557600080fd5b6110be84610fa7565b95602085013595506040909401359392505050565b600080604083850312156110e657600080fd5b50508035926020909101359150565b634e487b7160e01b600052604160045260246000fd5b601f8201601f1916810167ffffffffffffffff81118282101715611131576111316110f5565b6040525050565b600067ffffffffffffffff821115611152576111526110f5565b5060051b60200190565b600082601f83011261116d57600080fd5b8135602061117a82611138565b604051611187828261110b565b83815260059390931b85018201928281019150868411156111a757600080fd5b8286015b848110156111c257803583529183019183016111ab565b509695505050505050565b600082601f8301126111de57600080fd5b813567ffffffffffffffff8111156111f8576111f86110f5565b60405161120f601f8301601f19166020018261110b565b81815284602083860101111561122457600080fd5b816020850160208301376000918101602001919091529392505050565b600080600080600060a0868803121561125957600080fd5b61126286610fa7565b945061127060208701610fa7565b9350604086013567ffffffffffffffff8082111561128d57600080fd5b61129989838a0161115c565b945060608801359150808211156112af57600080fd5b6112bb89838a0161115c565b935060808801359150808211156112d157600080fd5b506112de888289016111cd565b9150509295509295909350565b600080604083850312156112fe57600080fd5b823567ffffffffffffffff8082111561131657600080fd5b818501915085601f83011261132a57600080fd5b8135602061133782611138565b604051611344828261110b565b83815260059390931b850182019282810191508984111561136457600080fd5b948201945b838610156113895761137a86610fa7565b82529482019490820190611369565b9650508601359250508082111561139f57600080fd5b506113ac8582860161115c565b9150509250929050565b600081518084526020808501945080840160005b838110156113e6578151875295820195908201906001016113ca565b509495945050505050565b60208152600061102060208301846113b6565b6000806040838503121561141757600080fd5b61142083610fa7565b91506020830135801515811461143557600080fd5b809150509250929050565b6000806040838503121561145357600080fd5b61145c83610fa7565b915061042d60208401610fa7565b600080600080600060a0868803121561148257600080fd5b61148b86610fa7565b945061149960208701610fa7565b93506040860135925060608601359150608086013567ffffffffffffffff8111156114c357600080fd5b6112de888289016111cd565b6000602082840312156114e157600080fd5b61102082610fa7565b600181811c908216806114fe57607f821691505b6020821081141561151f57634e487b7160e01b600052602260045260246000fd5b50919050565b634e487b7160e01b600052601160045260246000fd5b60008261155857634e487b7160e01b600052601260045260246000fd5b500490565b634e487b7160e01b600052603260045260246000fd5b600060001982141561158757611587611525565b5060010190565b600082198211156115a1576115a1611525565b500190565b60208082526025908201527f455243313135353a207472616e7366657220746f20746865207a65726f206164604082015264647265737360d81b606082015260800190565b6020808252602a908201527f455243313135353a20696e73756666696369656e742062616c616e636520666f60408201526939103a3930b739b332b960b11b606082015260800190565b60408152600061164860408301856113b6565b828103602084015261165a81856113b6565b95945050505050565b6001600160a01b03868116825285166020820152604081018490526060810183905260a06080820181905260009061169d90830184611040565b979650505050505050565b6000602082840312156116ba57600080fd5b815161102081610fed565b600060033d11156116de5760046000803e5060005160e01c5b90565b600060443d10156116ef5790565b6040516003193d81016004833e81513d67ffffffffffffffff816024840111818411171561171f57505050505090565b82850191508151818111156117375750505050505090565b843d87010160208285010111156117515750505050505090565b6117606020828601018761110b565b509095945050505050565b60208082526028908201527f455243313135353a204552433131353552656365697665722072656a656374656040820152676420746f6b656e7360c01b606082015260800190565b6001600160a01b0386811682528516602082015260a0604082018190526000906117df908301866113b6565b82810360608401526117f181866113b6565b905082810360808401526118058185611040565b9897505050505050505056fea26469706673582212209d6817b6741cecb616bcd8c7c29ac6e5312f70fdd21c6f4d13b9762059f6ccd564736f6c634300080a003368747470733a2f2f696b7a7474702e6d7970696e6174612e636c6f75642f697066732f516d51466b4c535179736a393473354776544850797a547872617777746a67696959533254424c677276773843572f32313734",
  "devdoc": {
    "author": "Trader Joe",
    "kind": "dev",
    "methods": {
      "balanceOf(address,uint256)": {
        "details": "See {IERC1155-balanceOf}. Requirements: - `account` cannot be the zero address."
      },
      "balanceOfBatch(address[],uint256[])": {
        "details": "See {IERC1155-balanceOfBatch}. Requirements: - `accounts` and `ids` must have the same length."
      },
      "isApprovedForAll(address,address)": {
        "details": "See {IERC1155-isApprovedForAll}."
      },
      "mint(address,uint256,uint256)": {
        "details": "Mint `_amount` NFT with `_tokenId` to `_to`",
        "params": {
          "_amount": "The number of tokens to mint",
          "_to": "The address that will receive the mint",
          "_tokenId": "The tokenId to mint"
        },
        "returns": {
          "_0": "the `tokenId` of the minted NFT"
        }
      },
      "owner()": {
        "details": "Returns the address of the current owner."
      },
      "renounceOwnership()": {
        "details": "Leaves the contract without owner. It will not be possible to call `onlyOwner` functions anymore. Can only be called by the current owner. NOTE: Renouncing ownership will leave the contract without an owner, thereby removing any functionality that is only available to the owner."
      },
      "royaltyInfo(uint256,uint256)": {
        "details": "Returns how much royalty is owed and to whom, based on a sale price that may be denominated in any unit of exchange. The royalty amount is denominated and should be payed in that same unit of exchange."
      },
      "safeBatchTransferFrom(address,address,uint256[],uint256[],bytes)": {
        "details": "See {IERC1155-safeBatchTransferFrom}."
      },
      "safeTransferFrom(address,address,uint256,uint256,bytes)": {
        "details": "See {IERC1155-safeTransferFrom}."
      },
      "setApprovalForAll(address,bool)": {
        "details": "See {IERC1155-setApprovalForAll}."
      },
      "transferOwnership(address)": {
        "details": "Transfers ownership of the contract to a new account (`newOwner`). Can only be called by the current owner."
      },
      "uri(uint256)": {
        "details": "See {IERC1155MetadataURI-uri}. This implementation returns the same URI for *all* token types. It relies on the token type ID substitution mechanism https://eips.ethereum.org/EIPS/eip-1155#metadata[defined in the EIP]. Clients calling this function must replace the `\\{id\\}` substring with the actual token type ID."
      }
    },
    "title": "Mock ERC1155 Token",
    "version": 1
  },
  "userdoc": {
    "kind": "user",
    "methods": {},
    "version": 1
  },
  "storageLayout": {
    "storage": [
      {
        "astId": 2873,
        "contract": "contracts/mocks/ERC1155Token.sol:ERC1155Token",
        "label": "_balances",
        "offset": 0,
        "slot": "0",
        "type": "t_mapping(t_uint256,t_mapping(t_address,t_uint256))"
      },
      {
        "astId": 2879,
        "contract": "contracts/mocks/ERC1155Token.sol:ERC1155Token",
        "label": "_operatorApprovals",
        "offset": 0,
        "slot": "1",
        "type": "t_mapping(t_address,t_mapping(t_address,t_bool))"
      },
      {
        "astId": 2881,
        "contract": "contracts/mocks/ERC1155Token.sol:ERC1155Token",
        "label": "_uri",
        "offset": 0,
        "slot": "2",
        "type": "t_string_storage"
      },
      {
        "astId": 2622,
        "contract": "contracts/mocks/ERC1155Token.sol:ERC1155Token",
        "label": "_owner",
        "offset": 0,
        "slot": "3",
        "type": "t_address"
      }
    ],
    "types": {
      "t_address": {
        "encoding": "inplace",
        "label": "address",
        "numberOfBytes": "20"
      },
      "t_bool": {
        "encoding": "inplace",
        "label": "bool",
        "numberOfBytes": "1"
      },
      "t_mapping(t_address,t_bool)": {
        "encoding": "mapping",
        "key": "t_address",
        "label": "mapping(address => bool)",
        "numberOfBytes": "32",
        "value": "t_bool"
      },
      "t_mapping(t_address,t_mapping(t_address,t_bool))": {
        "encoding": "mapping",
        "key": "t_address",
        "label": "mapping(address => mapping(address => bool))",
        "numberOfBytes": "32",
        "value": "t_mapping(t_address,t_bool)"
      },
      "t_mapping(t_address,t_uint256)": {
        "encoding": "mapping",
        "key": "t_address",
        "label": "mapping(address => uint256)",
        "numberOfBytes": "32",
        "value": "t_uint256"
      },
      "t_mapping(t_uint256,t_mapping(t_address,t_uint256))": {
        "encoding": "mapping",
        "key": "t_uint256",
        "label": "mapping(uint256 => mapping(address => uint256))",
        "numberOfBytes": "32",
        "value": "t_mapping(t_address,t_uint256)"
      },
      "t_string_storage": {
        "encoding": "bytes",
        "label": "string",
        "numberOfBytes": "32"
      },
      "t_uint256": {
        "encoding": "inplace",
        "label": "uint256",
        "numberOfBytes": "32"
      }
    }
  }
}