{
  "address": "0x096401CE39A38a6516dDDe5a085A28bb77d89755",
  "abi": [
    {
      "inputs": [],
      "name": "RoyaltyFeeManager__InvalidRoyaltyFeeRegistryV2",
      "type": "error"
    },
    {
      "inputs": [],
      "name": "RoyaltyFeeManager__RoyaltyFeeRegistryV2AlreadyInitialized",
      "type": "error"
    },
    {
      "anonymous": false,
      "inputs": [
        {
          "indexed": true,
          "internalType": "address",
          "name": "previousOwner",
          "type": "address"
        },
        {
          "indexed": true,
          "internalType": "address",
          "name": "newOwner",
          "type": "address"
        }
      ],
      "name": "OwnershipTransferred",
      "type": "event"
    },
    {
      "anonymous": false,
      "inputs": [
        {
          "indexed": true,
          "internalType": "address",
          "name": "newRoyaltyFeeRegistryV2",
          "type": "address"
        }
      ],
      "name": "RoyaltyFeeRegistryV2Initialized",
      "type": "event"
    },
    {
      "inputs": [],
      "name": "INTERFACE_ID_ERC2981",
      "outputs": [
        {
          "internalType": "bytes4",
          "name": "",
          "type": "bytes4"
        }
      ],
      "stateMutability": "view",
      "type": "function"
    },
    {
      "inputs": [
        {
          "internalType": "address",
          "name": "_collection",
          "type": "address"
        },
        {
          "internalType": "uint256",
          "name": "_tokenId",
          "type": "uint256"
        },
        {
          "internalType": "uint256",
          "name": "_amount",
          "type": "uint256"
        }
      ],
      "name": "calculateRoyaltyFeeAmountParts",
      "outputs": [
        {
          "components": [
            {
              "internalType": "address",
              "name": "receiver",
              "type": "address"
            },
            {
              "internalType": "uint256",
              "name": "amount",
              "type": "uint256"
            }
          ],
          "internalType": "struct RoyaltyFeeTypes.FeeAmountPart[]",
          "name": "",
          "type": "tuple[]"
        }
      ],
      "stateMutability": "view",
      "type": "function"
    },
    {
      "inputs": [
        {
          "internalType": "address",
          "name": "collection",
          "type": "address"
        },
        {
          "internalType": "uint256",
          "name": "tokenId",
          "type": "uint256"
        },
        {
          "internalType": "uint256",
          "name": "amount",
          "type": "uint256"
        }
      ],
      "name": "calculateRoyaltyFeeAndGetRecipient",
      "outputs": [
        {
          "internalType": "address",
          "name": "",
          "type": "address"
        },
        {
          "internalType": "uint256",
          "name": "",
          "type": "uint256"
        }
      ],
      "stateMutability": "view",
      "type": "function"
    },
    {
      "inputs": [
        {
          "internalType": "address",
          "name": "_royaltyFeeRegistry",
          "type": "address"
        },
        {
          "internalType": "address",
          "name": "_royaltyFeeRegistryV2",
          "type": "address"
        }
      ],
      "name": "initialize",
      "outputs": [],
      "stateMutability": "nonpayable",
      "type": "function"
    },
    {
      "inputs": [
        {
          "internalType": "address",
          "name": "_royaltyFeeRegistryV2",
          "type": "address"
        }
      ],
      "name": "initializeRoyaltyFeeRegistryV2",
      "outputs": [],
      "stateMutability": "nonpayable",
      "type": "function"
    },
    {
      "inputs": [],
      "name": "owner",
      "outputs": [
        {
          "internalType": "address",
          "name": "",
          "type": "address"
        }
      ],
      "stateMutability": "view",
      "type": "function"
    },
    {
      "inputs": [],
      "name": "renounceOwnership",
      "outputs": [],
      "stateMutability": "nonpayable",
      "type": "function"
    },
    {
      "inputs": [],
      "name": "royaltyFeeRegistry",
      "outputs": [
        {
          "internalType": "contract IRoyaltyFeeRegistry",
          "name": "",
          "type": "address"
        }
      ],
      "stateMutability": "view",
      "type": "function"
    },
    {
      "inputs": [],
      "name": "royaltyFeeRegistryV2",
      "outputs": [
        {
          "internalType": "contract IRoyaltyFeeRegistryV2",
          "name": "",
          "type": "address"
        }
      ],
      "stateMutability": "view",
      "type": "function"
    },
    {
      "inputs": [
        {
          "internalType": "address",
          "name": "newOwner",
          "type": "address"
        }
      ],
      "name": "transferOwnership",
      "outputs": [],
      "stateMutability": "nonpayable",
      "type": "function"
    }
  ],
  "transactionHash": "0x43e834840b1c1b096ab7fdb6592763cc0f68ac99468b1a89b1d9dfe9f440fbea",
  "args": [],
  "numDeployments": 1,
  "solcInputHash": "e27c224c09507bb41163b96c985afc0d",
  "bytecode": "0x608060405234801561001057600080fd5b50610b8d806100206000396000f3fe608060405234801561001057600080fd5b506004361061009e5760003560e01c8063c16f515611610066578063c16f515614610124578063c235c88914610137578063e340b7521461014a578063f2fde38b1461016a578063f4f635fa1461017d57600080fd5b806304b0f1c3146100a3578063485cc955146100b8578063715018a6146100cb5780638da5cb5b146100d3578063b060dd86146100fd575b600080fd5b6100b66100b1366004610848565b6101af565b005b6100b66100c6366004610865565b6101ee565b6100b66102d5565b6033546001600160a01b03165b6040516001600160a01b0390911681526020015b60405180910390f35b61010b63152a902d60e11b81565b6040516001600160e01b031990911681526020016100f4565b6065546100e0906001600160a01b031681565b6066546100e0906001600160a01b031681565b61015d61015836600461089e565b61030b565b6040516100f491906108d3565b6100b6610178366004610848565b6104a7565b61019061018b36600461089e565b61053f565b604080516001600160a01b0390931683526020830191909152016100f4565b6033546001600160a01b031633146101e25760405162461bcd60e51b81526004016101d99061092b565b60405180910390fd5b6101eb81610559565b50565b600054610100900460ff166102095760005460ff161561020d565b303b155b6102705760405162461bcd60e51b815260206004820152602e60248201527f496e697469616c697a61626c653a20636f6e747261637420697320616c72656160448201526d191e481a5b9a5d1a585b1a5e995960921b60648201526084016101d9565b600054610100900460ff16158015610292576000805461ffff19166101011790555b61029a6105f4565b606580546001600160a01b0319166001600160a01b0385161790556102be82610559565b80156102d0576000805461ff00191690555b505050565b6033546001600160a01b031633146102ff5760405162461bcd60e51b81526004016101d99061092b565b6103096000610623565b565b6066546060906001600160a01b0316156103ac57606654604051637dfaf43360e11b81526001600160a01b03868116600483015260248201859052600092169063fbf5e86690604401600060405180830381865afa158015610371573d6000803e3d6000fd5b505050506040513d6000823e601f3d908101601f1916820160405261039991908101906109d0565b8051909150156103aa5790506104a0565b505b6000806103ba868686610675565b90925090506001600160a01b03821615806103d3575080155b1561041f576040805160008082526020820190925290610415565b60408051808201909152600080825260208201528152602001906001900390816103ee5790505b50925050506104a0565b604080516001808252818301909252600091816020015b60408051808201909152600080825260208201528152602001906001900390816104365790505090506040518060400160405280846001600160a01b03168152602001838152508160008151811061049057610490610aa6565b6020908102919091010152925050505b9392505050565b6033546001600160a01b031633146104d15760405162461bcd60e51b81526004016101d99061092b565b6001600160a01b0381166105365760405162461bcd60e51b815260206004820152602660248201527f4f776e61626c653a206e6577206f776e657220697320746865207a65726f206160448201526564647265737360d01b60648201526084016101d9565b6101eb81610623565b60008061054d858585610675565b91509150935093915050565b6066546001600160a01b0316156105835760405163e28450f560e01b815260040160405180910390fd5b6001600160a01b0381166105aa57604051631196b00d60e31b815260040160405180910390fd5b606680546001600160a01b0319166001600160a01b0383169081179091556040517fcb141030124020a1d341cdabcaa89e3c8c5da5a051e150f8be79d76cd27457df90600090a250565b600054610100900460ff1661061b5760405162461bcd60e51b81526004016101d990610abc565b610309610803565b603380546001600160a01b038381166001600160a01b0319831681179093556040519116919082907f8be0079c531659141344cd1fd0a4f28419497f9722a3daafe3b4186f6b6457e090600090a35050565b606554604051632782d6c760e01b81526001600160a01b038581166004830152602482018490526000928392839283921690632782d6c7906044016040805180830381865afa1580156106cc573d6000803e3d6000fd5b505050506040513d601f19601f820116820180604052508101906106f09190610b07565b90925090506001600160a01b0382161580610709575080155b156107f7576040516301ffc9a760e01b815263152a902d60e11b60048201526001600160a01b038816906301ffc9a790602401602060405180830381865afa158015610759573d6000803e3d6000fd5b505050506040513d601f19601f8201168201806040525081019061077d9190610b35565b156107f75760405163152a902d60e11b815260048101879052602481018690526001600160a01b03881690632a55205a906044016040805180830381865afa1580156107cd573d6000803e3d6000fd5b505050506040513d601f19601f820116820180604052508101906107f19190610b07565b90925090505b90969095509350505050565b600054610100900460ff1661082a5760405162461bcd60e51b81526004016101d990610abc565b61030933610623565b6001600160a01b03811681146101eb57600080fd5b60006020828403121561085a57600080fd5b81356104a081610833565b6000806040838503121561087857600080fd5b823561088381610833565b9150602083013561089381610833565b809150509250929050565b6000806000606084860312156108b357600080fd5b83356108be81610833565b95602085013595506040909401359392505050565b602080825282518282018190526000919060409081850190868401855b8281101561091e57815180516001600160a01b031685528601518685015292840192908501906001016108f0565b5091979650505050505050565b6020808252818101527f4f776e61626c653a2063616c6c6572206973206e6f7420746865206f776e6572604082015260600190565b634e487b7160e01b600052604160045260246000fd5b6040805190810167ffffffffffffffff8111828210171561099957610999610960565b60405290565b604051601f8201601f1916810167ffffffffffffffff811182821017156109c8576109c8610960565b604052919050565b600060208083850312156109e357600080fd5b825167ffffffffffffffff808211156109fb57600080fd5b818501915085601f830112610a0f57600080fd5b815181811115610a2157610a21610960565b610a2f848260051b0161099f565b818152848101925060069190911b830184019087821115610a4f57600080fd5b928401925b81841015610a9b5760408489031215610a6d5760008081fd5b610a75610976565b8451610a8081610833565b81528486015186820152835260409093019291840191610a54565b979650505050505050565b634e487b7160e01b600052603260045260246000fd5b6020808252602b908201527f496e697469616c697a61626c653a20636f6e7472616374206973206e6f74206960408201526a6e697469616c697a696e6760a81b606082015260800190565b60008060408385031215610b1a57600080fd5b8251610b2581610833565b6020939093015192949293505050565b600060208284031215610b4757600080fd5b815180151581146104a057600080fdfea26469706673582212208e0317a0b49cec0c4e932cefeffe49dc99907389ae214ec30087371712983f0364736f6c634300080a0033",
  "devdoc": {
    "kind": "dev",
    "methods": {
      "calculateRoyaltyFeeAmountParts(address,uint256,uint256)": {
        "params": {
          "_amount": "amount to transfer",
          "_collection": "address of the NFT contract",
          "_tokenId": "tokenId"
        }
      },
      "calculateRoyaltyFeeAndGetRecipient(address,uint256,uint256)": {
        "params": {
          "amount": "amount to transfer",
          "collection": "address of the NFT contract",
          "tokenId": "tokenId"
        }
      },
      "initialize(address,address)": {
        "params": {
          "_royaltyFeeRegistry": "address of the RoyaltyFeeRegistry",
          "_royaltyFeeRegistryV2": "address of the RoyaltyFeeRegistryV2"
        }
      },
      "initializeRoyaltyFeeRegistryV2(address)": {
        "details": "We have this method because `royaltyFeeRegistryV2` was added after the initial deploy of this contract.",
        "params": {
          "_royaltyFeeRegistryV2": "address of royalty fee registry V2"
        }
      },
      "owner()": {
        "details": "Returns the address of the current owner."
      },
      "renounceOwnership()": {
        "details": "Leaves the contract without owner. It will not be possible to call `onlyOwner` functions anymore. Can only be called by the current owner. NOTE: Renouncing ownership will leave the contract without an owner, thereby removing any functionality that is only available to the owner."
      },
      "transferOwnership(address)": {
        "details": "Transfers ownership of the contract to a new account (`newOwner`). Can only be called by the current owner."
      }
    },
    "title": "RoyaltyFeeManager",
    "version": 1
  },
  "userdoc": {
    "kind": "user",
    "methods": {
      "calculateRoyaltyFeeAmountParts(address,uint256,uint256)": {
        "notice": "Calculate royalty fee amount parts"
      },
      "calculateRoyaltyFeeAndGetRecipient(address,uint256,uint256)": {
        "notice": "Calculate royalty fee and get recipient"
      },
      "initialize(address,address)": {
        "notice": "Initializer"
      },
      "initializeRoyaltyFeeRegistryV2(address)": {
        "notice": "Initialize `royaltyFeeRegistryV2` if not already set."
      }
    },
    "notice": "Handles the logic to check and transfer royalty fees (if any).",
    "version": 1
  },
  "storageLayout": {
    "storage": [
      {
        "astId": 702,
        "contract": "contracts/RoyaltyFeeManager.sol:RoyaltyFeeManager",
        "label": "_initialized",
        "offset": 0,
        "slot": "0",
        "type": "t_bool"
      },
      {
        "astId": 705,
        "contract": "contracts/RoyaltyFeeManager.sol:RoyaltyFeeManager",
        "label": "_initializing",
        "offset": 1,
        "slot": "0",
        "type": "t_bool"
      },
      {
        "astId": 1223,
        "contract": "contracts/RoyaltyFeeManager.sol:RoyaltyFeeManager",
        "label": "__gap",
        "offset": 0,
        "slot": "1",
        "type": "t_array(t_uint256)50_storage"
      },
      {
        "astId": 582,
        "contract": "contracts/RoyaltyFeeManager.sol:RoyaltyFeeManager",
        "label": "_owner",
        "offset": 0,
        "slot": "51",
        "type": "t_address"
      },
      {
        "astId": 694,
        "contract": "contracts/RoyaltyFeeManager.sol:RoyaltyFeeManager",
        "label": "__gap",
        "offset": 0,
        "slot": "52",
        "type": "t_array(t_uint256)49_storage"
      },
      {
        "astId": 12072,
        "contract": "contracts/RoyaltyFeeManager.sol:RoyaltyFeeManager",
        "label": "royaltyFeeRegistry",
        "offset": 0,
        "slot": "101",
        "type": "t_contract(IRoyaltyFeeRegistry)14687"
      },
      {
        "astId": 12075,
        "contract": "contracts/RoyaltyFeeManager.sol:RoyaltyFeeManager",
        "label": "royaltyFeeRegistryV2",
        "offset": 0,
        "slot": "102",
        "type": "t_contract(IRoyaltyFeeRegistryV2)14731"
      }
    ],
    "types": {
      "t_address": {
        "encoding": "inplace",
        "label": "address",
        "numberOfBytes": "20"
      },
      "t_array(t_uint256)49_storage": {
        "base": "t_uint256",
        "encoding": "inplace",
        "label": "uint256[49]",
        "numberOfBytes": "1568"
      },
      "t_array(t_uint256)50_storage": {
        "base": "t_uint256",
        "encoding": "inplace",
        "label": "uint256[50]",
        "numberOfBytes": "1600"
      },
      "t_bool": {
        "encoding": "inplace",
        "label": "bool",
        "numberOfBytes": "1"
      },
      "t_contract(IRoyaltyFeeRegistry)14687": {
        "encoding": "inplace",
        "label": "contract IRoyaltyFeeRegistry",
        "numberOfBytes": "20"
      },
      "t_contract(IRoyaltyFeeRegistryV2)14731": {
        "encoding": "inplace",
        "label": "contract IRoyaltyFeeRegistryV2",
        "numberOfBytes": "20"
      },
      "t_uint256": {
        "encoding": "inplace",
        "label": "uint256",
        "numberOfBytes": "32"
      }
    }
  }
}