{
  "address": "0xC1ac6046d6Ce863a03CBB24cCAd7862F675730D2",
  "abi": [
    {
      "anonymous": false,
      "inputs": [
        {
          "indexed": true,
          "internalType": "address",
          "name": "previousOwner",
          "type": "address"
        },
        {
          "indexed": true,
          "internalType": "address",
          "name": "newOwner",
          "type": "address"
        }
      ],
      "name": "OwnershipTransferred",
      "type": "event"
    },
    {
      "inputs": [],
      "name": "INTERFACE_ID_ERC1155",
      "outputs": [
        {
          "internalType": "bytes4",
          "name": "",
          "type": "bytes4"
        }
      ],
      "stateMutability": "view",
      "type": "function"
    },
    {
      "inputs": [],
      "name": "INTERFACE_ID_ERC2981",
      "outputs": [
        {
          "internalType": "bytes4",
          "name": "",
          "type": "bytes4"
        }
      ],
      "stateMutability": "view",
      "type": "function"
    },
    {
      "inputs": [],
      "name": "INTERFACE_ID_ERC721",
      "outputs": [
        {
          "internalType": "bytes4",
          "name": "",
          "type": "bytes4"
        }
      ],
      "stateMutability": "view",
      "type": "function"
    },
    {
      "inputs": [
        {
          "internalType": "address",
          "name": "collection",
          "type": "address"
        }
      ],
      "name": "checkForCollectionSetter",
      "outputs": [
        {
          "internalType": "address",
          "name": "",
          "type": "address"
        },
        {
          "internalType": "uint8",
          "name": "",
          "type": "uint8"
        }
      ],
      "stateMutability": "view",
      "type": "function"
    },
    {
      "inputs": [
        {
          "internalType": "address",
          "name": "_royaltyFeeRegistry",
          "type": "address"
        }
      ],
      "name": "initialize",
      "outputs": [],
      "stateMutability": "nonpayable",
      "type": "function"
    },
    {
      "inputs": [],
      "name": "owner",
      "outputs": [
        {
          "internalType": "address",
          "name": "",
          "type": "address"
        }
      ],
      "stateMutability": "view",
      "type": "function"
    },
    {
      "inputs": [],
      "name": "renounceOwnership",
      "outputs": [],
      "stateMutability": "nonpayable",
      "type": "function"
    },
    {
      "inputs": [],
      "name": "royaltyFeeRegistry",
      "outputs": [
        {
          "internalType": "address",
          "name": "",
          "type": "address"
        }
      ],
      "stateMutability": "view",
      "type": "function"
    },
    {
      "inputs": [
        {
          "internalType": "address",
          "name": "newOwner",
          "type": "address"
        }
      ],
      "name": "transferOwnership",
      "outputs": [],
      "stateMutability": "nonpayable",
      "type": "function"
    },
    {
      "inputs": [
        {
          "internalType": "address",
          "name": "_owner",
          "type": "address"
        }
      ],
      "name": "updateOwnerOfRoyaltyFeeRegistry",
      "outputs": [],
      "stateMutability": "nonpayable",
      "type": "function"
    },
    {
      "inputs": [
        {
          "internalType": "uint256",
          "name": "_royaltyFeeLimit",
          "type": "uint256"
        }
      ],
      "name": "updateRoyaltyFeeLimit",
      "outputs": [],
      "stateMutability": "nonpayable",
      "type": "function"
    },
    {
      "inputs": [
        {
          "internalType": "address",
          "name": "collection",
          "type": "address"
        },
        {
          "internalType": "address",
          "name": "setter",
          "type": "address"
        },
        {
          "internalType": "address",
          "name": "receiver",
          "type": "address"
        },
        {
          "internalType": "uint256",
          "name": "fee",
          "type": "uint256"
        }
      ],
      "name": "updateRoyaltyInfoForCollection",
      "outputs": [],
      "stateMutability": "nonpayable",
      "type": "function"
    },
    {
      "inputs": [
        {
          "internalType": "address",
          "name": "collection",
          "type": "address"
        },
        {
          "internalType": "address",
          "name": "setter",
          "type": "address"
        },
        {
          "internalType": "address",
          "name": "receiver",
          "type": "address"
        },
        {
          "internalType": "uint256",
          "name": "fee",
          "type": "uint256"
        }
      ],
      "name": "updateRoyaltyInfoForCollectionIfAdmin",
      "outputs": [],
      "stateMutability": "nonpayable",
      "type": "function"
    },
    {
      "inputs": [
        {
          "internalType": "address",
          "name": "collection",
          "type": "address"
        },
        {
          "internalType": "address",
          "name": "setter",
          "type": "address"
        },
        {
          "internalType": "address",
          "name": "receiver",
          "type": "address"
        },
        {
          "internalType": "uint256",
          "name": "fee",
          "type": "uint256"
        }
      ],
      "name": "updateRoyaltyInfoForCollectionIfOwner",
      "outputs": [],
      "stateMutability": "nonpayable",
      "type": "function"
    },
    {
      "inputs": [
        {
          "internalType": "address",
          "name": "collection",
          "type": "address"
        },
        {
          "internalType": "address",
          "name": "setter",
          "type": "address"
        },
        {
          "internalType": "address",
          "name": "receiver",
          "type": "address"
        },
        {
          "internalType": "uint256",
          "name": "fee",
          "type": "uint256"
        }
      ],
      "name": "updateRoyaltyInfoForCollectionIfSetter",
      "outputs": [],
      "stateMutability": "nonpayable",
      "type": "function"
    }
  ],
  "transactionHash": "0xf93772b356bcda9a3134ea77638ae74068cecc21ad7a848e8b6034b4b44ff86b",
  "args": [],
  "numDeployments": 1,
  "solcInputHash": "e27c224c09507bb41163b96c985afc0d",
  "bytecode": "0x608060405234801561001057600080fd5b50611065806100206000396000f3fe608060405234801561001057600080fd5b50600436106100f55760003560e01c8063b9223c9d11610097578063c4d66de811610066578063c4d66de8146101db578063c54e5497146101ee578063e72ba45614610222578063f2fde38b1461023557600080fd5b8063b9223c9d14610194578063bbdf9b68146101a7578063bc6bc0cd146101ba578063c16f5156146101c857600080fd5b8063715018a6116100d3578063715018a6146101465780638da5cb5b1461014e578063ab01667014610173578063b060dd861461018657600080fd5b8063275da5ef146100fa57806333bf61561461010f5780633755fa8014610133575b600080fd5b61010d610108366004610e8a565b610248565b005b61011d636cdb3d1360e11b81565b60405161012a9190610edb565b60405180910390f35b61010d610141366004610e8a565b61038f565b61010d61051b565b6033546001600160a01b03165b6040516001600160a01b03909116815260200161012a565b61010d610181366004610e8a565b610551565b61011d63152a902d60e11b81565b61010d6101a2366004610ef0565b6106cb565b61010d6101b5366004610e8a565b610757565b61011d6380ac58cd60e01b81565b60655461015b906001600160a01b031681565b61010d6101e9366004610f09565b6107fd565b6102016101fc366004610f09565b6108da565b604080516001600160a01b03909316835260ff90911660208301520161012a565b61010d610230366004610f09565b610ad7565b61010d610243366004610f09565b610b33565b6065546040516338c7be4760e21b81526001600160a01b038681166004830152600092169063e31ef91c90602401606060405180830381865afa158015610293573d6000803e3d6000fd5b505050506040513d601f19601f820116820180604052508101906102b79190610f2d565b5090915050336001600160a01b038216146103125760405162461bcd60e51b815260206004820152601660248201527529b2ba3a32b91d102737ba103a34329039b2ba3a32b960511b60448201526064015b60405180910390fd5b60655460405163177bf36d60e31b81526001600160a01b03878116600483015286811660248301528581166044830152606482018590529091169063bbdf9b6890608401600060405180830381600087803b15801561037057600080fd5b505af1158015610384573d6000803e3d6000fd5b505050505050505050565b6040516301ffc9a760e01b81526001600160a01b038516906301ffc9a7906103c29063152a902d60e11b90600401610edb565b602060405180830381865afa1580156103df573d6000803e3d6000fd5b505050506040513d601f19601f820116820180604052508101906104039190610f70565b156104505760405162461bcd60e51b815260206004820152601a60248201527f4f776e65723a204d757374206e6f7420626520455243323938310000000000006044820152606401610309565b836001600160a01b0316638da5cb5b6040518163ffffffff1660e01b8152600401602060405180830381865afa15801561048e573d6000803e3d6000fd5b505050506040513d601f19601f820116820180604052508101906104b29190610f92565b6001600160a01b0316336001600160a01b0316146105095760405162461bcd60e51b815260206004820152601460248201527327bbb732b91d102737ba103a34329037bbb732b960611b6044820152606401610309565b61051584848484610bce565b50505050565b6033546001600160a01b031633146105455760405162461bcd60e51b815260040161030990610faf565b61054f6000610dc9565b565b6040516301ffc9a760e01b81526001600160a01b038516906301ffc9a7906105849063152a902d60e11b90600401610edb565b602060405180830381865afa1580156105a1573d6000803e3d6000fd5b505050506040513d601f19601f820116820180604052508101906105c59190610f70565b156106125760405162461bcd60e51b815260206004820152601a60248201527f41646d696e3a204d757374206e6f7420626520455243323938310000000000006044820152606401610309565b836001600160a01b031663f851a4406040518163ffffffff1660e01b8152600401602060405180830381865afa158015610650573d6000803e3d6000fd5b505050506040513d601f19601f820116820180604052508101906106749190610f92565b6001600160a01b0316336001600160a01b0316146105095760405162461bcd60e51b815260206004820152601460248201527320b236b4b71d102737ba103a34329030b236b4b760611b6044820152606401610309565b6033546001600160a01b031633146106f55760405162461bcd60e51b815260040161030990610faf565b60655460405163b9223c9d60e01b8152600481018390526001600160a01b039091169063b9223c9d906024015b600060405180830381600087803b15801561073c57600080fd5b505af1158015610750573d6000803e3d6000fd5b5050505050565b6033546001600160a01b031633146107815760405162461bcd60e51b815260040161030990610faf565b60655460405163177bf36d60e31b81526001600160a01b03868116600483015285811660248301528481166044830152606482018490529091169063bbdf9b6890608401600060405180830381600087803b1580156107df57600080fd5b505af11580156107f3573d6000803e3d6000fd5b5050505050505050565b600054610100900460ff166108185760005460ff161561081c565b303b155b61087f5760405162461bcd60e51b815260206004820152602e60248201527f496e697469616c697a61626c653a20636f6e747261637420697320616c72656160448201526d191e481a5b9a5d1a585b1a5e995960921b6064820152608401610309565b600054610100900460ff161580156108a1576000805461ffff19166101011790555b6108a9610e1b565b606580546001600160a01b0319166001600160a01b03841617905580156108d6576000805461ff00191690555b5050565b6065546040516338c7be4760e21b81526001600160a01b038381166004830152600092839283929091169063e31ef91c90602401606060405180830381865afa15801561092b573d6000803e3d6000fd5b505050506040513d601f19601f8201168201806040525081019061094f9190610f2d565b50909150506001600160a01b0381161561096d579360009350915050565b6040516301ffc9a760e01b81526001600160a01b038516906301ffc9a7906109a09063152a902d60e11b90600401610edb565b602060405180830381865afa9250505080156109d9575060408051601f3d908101601f191682019092526109d691810190610f70565b60015b6109e2576109f8565b80156109f657506000946001945092505050565b505b836001600160a01b0316638da5cb5b6040518163ffffffff1660e01b8152600401602060405180830381865afa925050508015610a52575060408051601f3d908101601f19168201909252610a4f91810190610f92565b60015b610acc57836001600160a01b031663f851a4406040518163ffffffff1660e01b8152600401602060405180830381865afa925050508015610ab0575060408051601f3d908101601f19168201909252610aad91810190610f92565b60015b610ac1575060009360049350915050565b946003945092505050565b946002945092505050565b6033546001600160a01b03163314610b015760405162461bcd60e51b815260040161030990610faf565b60655460405163f2fde38b60e01b81526001600160a01b0383811660048301529091169063f2fde38b90602401610722565b6033546001600160a01b03163314610b5d5760405162461bcd60e51b815260040161030990610faf565b6001600160a01b038116610bc25760405162461bcd60e51b815260206004820152602660248201527f4f776e61626c653a206e6577206f776e657220697320746865207a65726f206160448201526564647265737360d01b6064820152608401610309565b610bcb81610dc9565b50565b6065546040516338c7be4760e21b81526001600160a01b038681166004830152600092169063e31ef91c90602401606060405180830381865afa158015610c19573d6000803e3d6000fd5b505050506040513d601f19601f82011682018060405250810190610c3d9190610f2d565b50909150506001600160a01b03811615610c8f5760405162461bcd60e51b815260206004820152601360248201527214d95d1d195c8e88105b1c9958591e481cd95d606a1b6044820152606401610309565b6040516301ffc9a760e01b81526001600160a01b038616906301ffc9a790610cc2906380ac58cd60e01b90600401610edb565b602060405180830381865afa158015610cdf573d6000803e3d6000fd5b505050506040513d601f19601f82011682018060405250810190610d039190610f70565b80610d7d57506040516301ffc9a760e01b81526001600160a01b038616906301ffc9a790610d3c90636cdb3d1360e11b90600401610edb565b602060405180830381865afa158015610d59573d6000803e3d6000fd5b505050506040513d601f19601f82011682018060405250810190610d7d9190610f70565b6103125760405162461bcd60e51b815260206004820152601a60248201527f5365747465723a204e6f74204552433732312f455243313135350000000000006044820152606401610309565b603380546001600160a01b038381166001600160a01b0319831681179093556040519116919082907f8be0079c531659141344cd1fd0a4f28419497f9722a3daafe3b4186f6b6457e090600090a35050565b600054610100900460ff16610e425760405162461bcd60e51b815260040161030990610fe4565b61054f600054610100900460ff16610e6c5760405162461bcd60e51b815260040161030990610fe4565b61054f33610dc9565b6001600160a01b0381168114610bcb57600080fd5b60008060008060808587031215610ea057600080fd5b8435610eab81610e75565b93506020850135610ebb81610e75565b92506040850135610ecb81610e75565b9396929550929360600135925050565b6001600160e01b031991909116815260200190565b600060208284031215610f0257600080fd5b5035919050565b600060208284031215610f1b57600080fd5b8135610f2681610e75565b9392505050565b600080600060608486031215610f4257600080fd5b8351610f4d81610e75565b6020850151909350610f5e81610e75565b80925050604084015190509250925092565b600060208284031215610f8257600080fd5b81518015158114610f2657600080fd5b600060208284031215610fa457600080fd5b8151610f2681610e75565b6020808252818101527f4f776e61626c653a2063616c6c6572206973206e6f7420746865206f776e6572604082015260600190565b6020808252602b908201527f496e697469616c697a61626c653a20636f6e7472616374206973206e6f74206960408201526a6e697469616c697a696e6760a81b60608201526080019056fea26469706673582212205d3f7b1604815392188f6c0f6ae4a4bda3ddccec0db58f3f6b081c87d68e92ea64736f6c634300080a0033",
  "devdoc": {
    "kind": "dev",
    "methods": {
      "checkForCollectionSetter(address)": {
        "params": {
          "collection": "collection address"
        },
        "returns": {
          "_0": "(whether there is a setter (address(0 if not)), Position 0: Royalty setter is set in the registry 1: ERC2981 and no setter 2: setter can be set using owner() 3: setter can be set using admin() 4: setter cannot be set, nor support for ERC2981"
        }
      },
      "initialize(address)": {
        "params": {
          "_royaltyFeeRegistry": "address of the royalty fee registry"
        }
      },
      "owner()": {
        "details": "Returns the address of the current owner."
      },
      "renounceOwnership()": {
        "details": "Leaves the contract without owner. It will not be possible to call `onlyOwner` functions anymore. Can only be called by the current owner. NOTE: Renouncing ownership will leave the contract without an owner, thereby removing any functionality that is only available to the owner."
      },
      "transferOwnership(address)": {
        "details": "Transfers ownership of the contract to a new account (`newOwner`). Can only be called by the current owner."
      },
      "updateOwnerOfRoyaltyFeeRegistry(address)": {
        "details": "Can be used for migration of this royalty fee setter contract",
        "params": {
          "_owner": "new owner address"
        }
      },
      "updateRoyaltyFeeLimit(uint256)": {
        "params": {
          "_royaltyFeeLimit": "new royalty fee limit (500 = 5%, 1,000 = 10%)"
        }
      },
      "updateRoyaltyInfoForCollection(address,address,address,uint256)": {
        "details": "Can only be called by contract owner (of this)",
        "params": {
          "collection": "address of the NFT contract",
          "fee": "fee (500 = 5%, 1,000 = 10%)",
          "receiver": "receiver for the royalty fee",
          "setter": "address that sets the receiver"
        }
      },
      "updateRoyaltyInfoForCollectionIfAdmin(address,address,address,uint256)": {
        "details": "Only to be called if there is no setter address",
        "params": {
          "collection": "address of the NFT contract",
          "fee": "fee (500 = 5%, 1,000 = 10%)",
          "receiver": "receiver for the royalty fee",
          "setter": "address that sets the receiver"
        }
      },
      "updateRoyaltyInfoForCollectionIfOwner(address,address,address,uint256)": {
        "details": "Only to be called if there is no setter address",
        "params": {
          "collection": "address of the NFT contract",
          "fee": "fee (500 = 5%, 1,000 = 10%)",
          "receiver": "receiver for the royalty fee",
          "setter": "address that sets the receiver"
        }
      },
      "updateRoyaltyInfoForCollectionIfSetter(address,address,address,uint256)": {
        "details": "Only to be called if there msg.sender is the setter",
        "params": {
          "collection": "address of the NFT contract",
          "fee": "fee (500 = 5%, 1,000 = 10%)",
          "receiver": "receiver for the royalty fee",
          "setter": "address that sets the receiver"
        }
      }
    },
    "title": "RoyaltyFeeSetter",
    "version": 1
  },
  "userdoc": {
    "kind": "user",
    "methods": {
      "checkForCollectionSetter(address)": {
        "notice": "Check royalty info for collection"
      },
      "initialize(address)": {
        "notice": "Initializer"
      },
      "updateOwnerOfRoyaltyFeeRegistry(address)": {
        "notice": "Update owner of royalty fee registry"
      },
      "updateRoyaltyFeeLimit(uint256)": {
        "notice": "Update royalty info for collection"
      },
      "updateRoyaltyInfoForCollection(address,address,address,uint256)": {
        "notice": "Update royalty info for collection"
      },
      "updateRoyaltyInfoForCollectionIfAdmin(address,address,address,uint256)": {
        "notice": "Update royalty info for collection if admin"
      },
      "updateRoyaltyInfoForCollectionIfOwner(address,address,address,uint256)": {
        "notice": "Update royalty info for collection if owner"
      },
      "updateRoyaltyInfoForCollectionIfSetter(address,address,address,uint256)": {
        "notice": "Update royalty info for collection"
      }
    },
    "notice": "Used to allow creators to set royalty parameters in the RoyaltyFeeRegistry.",
    "version": 1
  },
  "storageLayout": {
    "storage": [
      {
        "astId": 702,
        "contract": "contracts/RoyaltyFeeSetter.sol:RoyaltyFeeSetter",
        "label": "_initialized",
        "offset": 0,
        "slot": "0",
        "type": "t_bool"
      },
      {
        "astId": 705,
        "contract": "contracts/RoyaltyFeeSetter.sol:RoyaltyFeeSetter",
        "label": "_initializing",
        "offset": 1,
        "slot": "0",
        "type": "t_bool"
      },
      {
        "astId": 1223,
        "contract": "contracts/RoyaltyFeeSetter.sol:RoyaltyFeeSetter",
        "label": "__gap",
        "offset": 0,
        "slot": "1",
        "type": "t_array(t_uint256)50_storage"
      },
      {
        "astId": 582,
        "contract": "contracts/RoyaltyFeeSetter.sol:RoyaltyFeeSetter",
        "label": "_owner",
        "offset": 0,
        "slot": "51",
        "type": "t_address"
      },
      {
        "astId": 694,
        "contract": "contracts/RoyaltyFeeSetter.sol:RoyaltyFeeSetter",
        "label": "__gap",
        "offset": 0,
        "slot": "52",
        "type": "t_array(t_uint256)49_storage"
      },
      {
        "astId": 12970,
        "contract": "contracts/RoyaltyFeeSetter.sol:RoyaltyFeeSetter",
        "label": "royaltyFeeRegistry",
        "offset": 0,
        "slot": "101",
        "type": "t_address"
      }
    ],
    "types": {
      "t_address": {
        "encoding": "inplace",
        "label": "address",
        "numberOfBytes": "20"
      },
      "t_array(t_uint256)49_storage": {
        "base": "t_uint256",
        "encoding": "inplace",
        "label": "uint256[49]",
        "numberOfBytes": "1568"
      },
      "t_array(t_uint256)50_storage": {
        "base": "t_uint256",
        "encoding": "inplace",
        "label": "uint256[50]",
        "numberOfBytes": "1600"
      },
      "t_bool": {
        "encoding": "inplace",
        "label": "bool",
        "numberOfBytes": "1"
      },
      "t_uint256": {
        "encoding": "inplace",
        "label": "uint256",
        "numberOfBytes": "32"
      }
    }
  }
}