{
  "address": "0x371B96A06d8f5d0d985ae420e2369c13610065E5",
  "abi": [
    {
      "inputs": [],
      "name": "RoyaltyFeeSetterV2__CollectionCannotSupportERC2981",
      "type": "error"
    },
    {
      "inputs": [],
      "name": "RoyaltyFeeSetterV2__CollectionIsNotNFT",
      "type": "error"
    },
    {
      "inputs": [],
      "name": "RoyaltyFeeSetterV2__NotCollectionAdmin",
      "type": "error"
    },
    {
      "inputs": [],
      "name": "RoyaltyFeeSetterV2__NotCollectionOwner",
      "type": "error"
    },
    {
      "inputs": [],
      "name": "RoyaltyFeeSetterV2__NotCollectionSetter",
      "type": "error"
    },
    {
      "inputs": [],
      "name": "RoyaltyFeeSetterV2__SetterAlreadySet",
      "type": "error"
    },
    {
      "anonymous": false,
      "inputs": [
        {
          "indexed": true,
          "internalType": "address",
          "name": "previousOwner",
          "type": "address"
        },
        {
          "indexed": true,
          "internalType": "address",
          "name": "newOwner",
          "type": "address"
        }
      ],
      "name": "OwnershipTransferred",
      "type": "event"
    },
    {
      "inputs": [],
      "name": "INTERFACE_ID_ERC1155",
      "outputs": [
        {
          "internalType": "bytes4",
          "name": "",
          "type": "bytes4"
        }
      ],
      "stateMutability": "view",
      "type": "function"
    },
    {
      "inputs": [],
      "name": "INTERFACE_ID_ERC2981",
      "outputs": [
        {
          "internalType": "bytes4",
          "name": "",
          "type": "bytes4"
        }
      ],
      "stateMutability": "view",
      "type": "function"
    },
    {
      "inputs": [],
      "name": "INTERFACE_ID_ERC721",
      "outputs": [
        {
          "internalType": "bytes4",
          "name": "",
          "type": "bytes4"
        }
      ],
      "stateMutability": "view",
      "type": "function"
    },
    {
      "inputs": [
        {
          "internalType": "address",
          "name": "_royaltyFeeRegistryV2",
          "type": "address"
        }
      ],
      "name": "initialize",
      "outputs": [],
      "stateMutability": "nonpayable",
      "type": "function"
    },
    {
      "inputs": [],
      "name": "owner",
      "outputs": [
        {
          "internalType": "address",
          "name": "",
          "type": "address"
        }
      ],
      "stateMutability": "view",
      "type": "function"
    },
    {
      "inputs": [],
      "name": "renounceOwnership",
      "outputs": [],
      "stateMutability": "nonpayable",
      "type": "function"
    },
    {
      "inputs": [],
      "name": "royaltyFeeRegistryV2",
      "outputs": [
        {
          "internalType": "contract IRoyaltyFeeRegistryV2",
          "name": "",
          "type": "address"
        }
      ],
      "stateMutability": "view",
      "type": "function"
    },
    {
      "inputs": [
        {
          "internalType": "address",
          "name": "newOwner",
          "type": "address"
        }
      ],
      "name": "transferOwnership",
      "outputs": [],
      "stateMutability": "nonpayable",
      "type": "function"
    },
    {
      "inputs": [
        {
          "internalType": "address",
          "name": "_owner",
          "type": "address"
        }
      ],
      "name": "updateOwnerOfRoyaltyFeeRegistryV2",
      "outputs": [],
      "stateMutability": "nonpayable",
      "type": "function"
    },
    {
      "inputs": [
        {
          "internalType": "uint256",
          "name": "_royaltyFeeLimit",
          "type": "uint256"
        }
      ],
      "name": "updateRoyaltyFeeLimit",
      "outputs": [],
      "stateMutability": "nonpayable",
      "type": "function"
    },
    {
      "inputs": [
        {
          "internalType": "address",
          "name": "_collection",
          "type": "address"
        },
        {
          "internalType": "address",
          "name": "_setter",
          "type": "address"
        },
        {
          "components": [
            {
              "internalType": "address",
              "name": "receiver",
              "type": "address"
            },
            {
              "internalType": "uint256",
              "name": "fee",
              "type": "uint256"
            }
          ],
          "internalType": "struct RoyaltyFeeTypes.FeeInfoPart[]",
          "name": "_feeInfoParts",
          "type": "tuple[]"
        }
      ],
      "name": "updateRoyaltyInfoPartsForCollection",
      "outputs": [],
      "stateMutability": "nonpayable",
      "type": "function"
    },
    {
      "inputs": [
        {
          "internalType": "address",
          "name": "_collection",
          "type": "address"
        },
        {
          "internalType": "address",
          "name": "_setter",
          "type": "address"
        },
        {
          "components": [
            {
              "internalType": "address",
              "name": "receiver",
              "type": "address"
            },
            {
              "internalType": "uint256",
              "name": "fee",
              "type": "uint256"
            }
          ],
          "internalType": "struct RoyaltyFeeTypes.FeeInfoPart[]",
          "name": "_feeInfoParts",
          "type": "tuple[]"
        }
      ],
      "name": "updateRoyaltyInfoPartsForCollectionIfAdmin",
      "outputs": [],
      "stateMutability": "nonpayable",
      "type": "function"
    },
    {
      "inputs": [
        {
          "internalType": "address",
          "name": "_collection",
          "type": "address"
        },
        {
          "internalType": "address",
          "name": "_setter",
          "type": "address"
        },
        {
          "components": [
            {
              "internalType": "address",
              "name": "receiver",
              "type": "address"
            },
            {
              "internalType": "uint256",
              "name": "fee",
              "type": "uint256"
            }
          ],
          "internalType": "struct RoyaltyFeeTypes.FeeInfoPart[]",
          "name": "_feeInfoParts",
          "type": "tuple[]"
        }
      ],
      "name": "updateRoyaltyInfoPartsForCollectionIfOwner",
      "outputs": [],
      "stateMutability": "nonpayable",
      "type": "function"
    },
    {
      "inputs": [
        {
          "internalType": "address",
          "name": "_collection",
          "type": "address"
        },
        {
          "internalType": "address",
          "name": "_setter",
          "type": "address"
        },
        {
          "components": [
            {
              "internalType": "address",
              "name": "receiver",
              "type": "address"
            },
            {
              "internalType": "uint256",
              "name": "fee",
              "type": "uint256"
            }
          ],
          "internalType": "struct RoyaltyFeeTypes.FeeInfoPart[]",
          "name": "_feeInfoParts",
          "type": "tuple[]"
        }
      ],
      "name": "updateRoyaltyInfoPartsForCollectionIfSetter",
      "outputs": [],
      "stateMutability": "nonpayable",
      "type": "function"
    }
  ],
  "transactionHash": "0xc46f6d1613dbff827f69ea2dda25dcda0238edb88a89b3b6b57808cfc69e5195",
  "args": [],
  "numDeployments": 1,
  "solcInputHash": "e27c224c09507bb41163b96c985afc0d",
  "bytecode": "0x608060405234801561001057600080fd5b50610e28806100206000396000f3fe608060405234801561001057600080fd5b50600436106100ea5760003560e01c8063b060dd861161008c578063c235c88911610066578063c235c889146101bd578063c4d66de8146101d0578063ccc60033146101e3578063f2fde38b146101f657600080fd5b8063b060dd861461018e578063b9223c9d1461019c578063bc6bc0cd146101af57600080fd5b806333bf6156116100c857806333bf61561461012a578063715018a61461014e5780638b452d9c146101565780638da5cb5b1461016957600080fd5b806324f00862146100ef5780632a943b78146101045780632ff8c05814610117575b600080fd5b6101026100fd366004610b77565b610209565b005b610102610112366004610b77565b61033e565b610102610125366004610b77565b6103dc565b610138636cdb3d1360e11b81565b6040516101459190610c73565b60405180910390f35b6101026104e2565b610102610164366004610c88565b610518565b6033546001600160a01b03165b6040516001600160a01b039091168152602001610145565b61013863152a902d60e11b81565b6101026101aa366004610cac565b6105a5565b6101386380ac58cd60e01b81565b606554610176906001600160a01b031681565b6101026101de366004610c88565b610600565b6101026101f1366004610b77565b6106dd565b610102610204366004610c88565b610802565b6040516301ffc9a760e01b81526001600160a01b038416906301ffc9a79061023c9063152a902d60e11b90600401610c73565b602060405180830381865afa158015610259573d6000803e3d6000fd5b505050506040513d601f19601f8201168201806040525081019061027d9190610cc5565b1561029b576040516361620abf60e11b815260040160405180910390fd5b826001600160a01b0316638da5cb5b6040518163ffffffff1660e01b8152600401602060405180830381865afa1580156102d9573d6000803e3d6000fd5b505050506040513d601f19601f820116820180604052508101906102fd9190610ce7565b6001600160a01b0316336001600160a01b03161461032e57604051632c1e1af360e21b815260040160405180910390fd5b61033983838361089d565b505050565b6033546001600160a01b031633146103715760405162461bcd60e51b815260040161036890610d04565b60405180910390fd5b606554604051630552876f60e31b81526001600160a01b0390911690632a943b78906103a590869086908690600401610d39565b600060405180830381600087803b1580156103bf57600080fd5b505af11580156103d3573d6000803e3d6000fd5b50505050505050565b6065546040516303c621db60e41b81526001600160a01b0385811660048301526000921690633c621db090602401602060405180830381865afa158015610427573d6000803e3d6000fd5b505050506040513d601f19601f8201168201806040525081019061044b9190610ce7565b9050336001600160a01b0382161461047657604051636540cea560e01b815260040160405180910390fd5b606554604051630552876f60e31b81526001600160a01b0390911690632a943b78906104aa90879087908790600401610d39565b600060405180830381600087803b1580156104c457600080fd5b505af11580156104d8573d6000803e3d6000fd5b5050505050505050565b6033546001600160a01b0316331461050c5760405162461bcd60e51b815260040161036890610d04565b6105166000610a46565b565b6033546001600160a01b031633146105425760405162461bcd60e51b815260040161036890610d04565b60655460405163f2fde38b60e01b81526001600160a01b0383811660048301529091169063f2fde38b906024015b600060405180830381600087803b15801561058a57600080fd5b505af115801561059e573d6000803e3d6000fd5b5050505050565b6033546001600160a01b031633146105cf5760405162461bcd60e51b815260040161036890610d04565b60655460405163b9223c9d60e01b8152600481018390526001600160a01b039091169063b9223c9d90602401610570565b600054610100900460ff1661061b5760005460ff161561061f565b303b155b6106825760405162461bcd60e51b815260206004820152602e60248201527f496e697469616c697a61626c653a20636f6e747261637420697320616c72656160448201526d191e481a5b9a5d1a585b1a5e995960921b6064820152608401610368565b600054610100900460ff161580156106a4576000805461ffff19166101011790555b6106ac610a98565b606580546001600160a01b0319166001600160a01b03841617905580156106d9576000805461ff00191690555b5050565b6040516301ffc9a760e01b81526001600160a01b038416906301ffc9a7906107109063152a902d60e11b90600401610c73565b602060405180830381865afa15801561072d573d6000803e3d6000fd5b505050506040513d601f19601f820116820180604052508101906107519190610cc5565b1561076f576040516361620abf60e11b815260040160405180910390fd5b826001600160a01b031663f851a4406040518163ffffffff1660e01b8152600401602060405180830381865afa1580156107ad573d6000803e3d6000fd5b505050506040513d601f19601f820116820180604052508101906107d19190610ce7565b6001600160a01b0316336001600160a01b03161461032e5760405163737b66b160e01b815260040160405180910390fd5b6033546001600160a01b0316331461082c5760405162461bcd60e51b815260040161036890610d04565b6001600160a01b0381166108915760405162461bcd60e51b815260206004820152602660248201527f4f776e61626c653a206e6577206f776e657220697320746865207a65726f206160448201526564647265737360d01b6064820152608401610368565b61089a81610a46565b50565b6065546040516303c621db60e41b81526001600160a01b0385811660048301526000921690633c621db090602401602060405180830381865afa1580156108e8573d6000803e3d6000fd5b505050506040513d601f19601f8201168201806040525081019061090c9190610ce7565b90506001600160a01b038116156109365760405163e488be7960e01b815260040160405180910390fd5b6040516301ffc9a760e01b81526001600160a01b038516906301ffc9a790610969906380ac58cd60e01b90600401610c73565b602060405180830381865afa158015610986573d6000803e3d6000fd5b505050506040513d601f19601f820116820180604052508101906109aa9190610cc5565b158015610a2857506040516301ffc9a760e01b81526001600160a01b038516906301ffc9a7906109e590636cdb3d1360e11b90600401610c73565b602060405180830381865afa158015610a02573d6000803e3d6000fd5b505050506040513d601f19601f82011682018060405250810190610a269190610cc5565b155b156104765760405163ee576a6f60e01b815260040160405180910390fd5b603380546001600160a01b038381166001600160a01b0319831681179093556040519116919082907f8be0079c531659141344cd1fd0a4f28419497f9722a3daafe3b4186f6b6457e090600090a35050565b600054610100900460ff16610abf5760405162461bcd60e51b815260040161036890610da7565b610516600054610100900460ff16610ae95760405162461bcd60e51b815260040161036890610da7565b61051633610a46565b6001600160a01b038116811461089a57600080fd5b634e487b7160e01b600052604160045260246000fd5b6040805190810167ffffffffffffffff81118282101715610b4057610b40610b07565b60405290565b604051601f8201601f1916810167ffffffffffffffff81118282101715610b6f57610b6f610b07565b604052919050565b600080600060608486031215610b8c57600080fd5b8335610b9781610af2565b9250602084810135610ba881610af2565b925060408581013567ffffffffffffffff80821115610bc657600080fd5b818801915088601f830112610bda57600080fd5b813581811115610bec57610bec610b07565b610bfa858260051b01610b46565b818152858101925060069190911b83018501908a821115610c1a57600080fd5b928501925b81841015610c635784848c031215610c375760008081fd5b610c3f610b1d565b8435610c4a81610af2565b8152848701358782015283529284019291850191610c1f565b8096505050505050509250925092565b6001600160e01b031991909116815260200190565b600060208284031215610c9a57600080fd5b8135610ca581610af2565b9392505050565b600060208284031215610cbe57600080fd5b5035919050565b600060208284031215610cd757600080fd5b81518015158114610ca557600080fd5b600060208284031215610cf957600080fd5b8151610ca581610af2565b6020808252818101527f4f776e61626c653a2063616c6c6572206973206e6f7420746865206f776e6572604082015260600190565b60006060820160018060a01b0380871684526020818716818601526040606081870152838751808652608088019150838901955060005b81811015610d97578651805187168452850151858401529584019591830191600101610d70565b50909a9950505050505050505050565b6020808252602b908201527f496e697469616c697a61626c653a20636f6e7472616374206973206e6f74206960408201526a6e697469616c697a696e6760a81b60608201526080019056fea2646970667358221220116465e9d80661f2a9826878a90f4ba4b3cdeaea913c43c6cda36c6277f49c9d64736f6c634300080a0033",
  "devdoc": {
    "kind": "dev",
    "methods": {
      "initialize(address)": {
        "params": {
          "_royaltyFeeRegistryV2": "address of the royalty fee registry"
        }
      },
      "owner()": {
        "details": "Returns the address of the current owner."
      },
      "renounceOwnership()": {
        "details": "Leaves the contract without owner. It will not be possible to call `onlyOwner` functions anymore. Can only be called by the current owner. NOTE: Renouncing ownership will leave the contract without an owner, thereby removing any functionality that is only available to the owner."
      },
      "transferOwnership(address)": {
        "details": "Transfers ownership of the contract to a new account (`newOwner`). Can only be called by the current owner."
      },
      "updateOwnerOfRoyaltyFeeRegistryV2(address)": {
        "details": "Can be used for migration of this royalty fee setter contract",
        "params": {
          "_owner": "new owner address"
        }
      },
      "updateRoyaltyFeeLimit(uint256)": {
        "params": {
          "_royaltyFeeLimit": "new royalty fee limit (500 = 5%, 1,000 = 10%)"
        }
      },
      "updateRoyaltyInfoPartsForCollection(address,address,(address,uint256)[])": {
        "details": "Can only be called by contract owner (of this)",
        "params": {
          "_collection": "address of the NFT contract",
          "_feeInfoParts": "fee info parts",
          "_setter": "address that sets the receiver"
        }
      },
      "updateRoyaltyInfoPartsForCollectionIfAdmin(address,address,(address,uint256)[])": {
        "details": "Only to be called if there is no setter address",
        "params": {
          "_collection": "address of the NFT contract",
          "_feeInfoParts": "fee info parts",
          "_setter": "address that sets the receiver"
        }
      },
      "updateRoyaltyInfoPartsForCollectionIfOwner(address,address,(address,uint256)[])": {
        "details": "Only to be called if there is no setter address",
        "params": {
          "_collection": "address of the NFT contract",
          "_feeInfoParts": "fee info parts",
          "_setter": "address that sets the receiver"
        }
      },
      "updateRoyaltyInfoPartsForCollectionIfSetter(address,address,(address,uint256)[])": {
        "details": "Only to be called if the msg.sender is the setter",
        "params": {
          "_collection": "address of the NFT contract",
          "_feeInfoParts": "fee info parts",
          "_setter": "address that sets the receiver"
        }
      }
    },
    "title": "RoyaltyFeeSetter",
    "version": 1
  },
  "userdoc": {
    "kind": "user",
    "methods": {
      "initialize(address)": {
        "notice": "Initializer"
      },
      "updateOwnerOfRoyaltyFeeRegistryV2(address)": {
        "notice": "Update owner of royalty fee registry"
      },
      "updateRoyaltyFeeLimit(uint256)": {
        "notice": "Update royalty info for collection"
      },
      "updateRoyaltyInfoPartsForCollection(address,address,(address,uint256)[])": {
        "notice": "Update royalty info for collection"
      },
      "updateRoyaltyInfoPartsForCollectionIfAdmin(address,address,(address,uint256)[])": {
        "notice": "Update royalty info for collection if admin"
      },
      "updateRoyaltyInfoPartsForCollectionIfOwner(address,address,(address,uint256)[])": {
        "notice": "Update royalty info for collection if owner"
      },
      "updateRoyaltyInfoPartsForCollectionIfSetter(address,address,(address,uint256)[])": {
        "notice": "Update royalty info for collection"
      }
    },
    "notice": "Used to allow creators to set royalty information in RoyaltyFeeRegistryV2.",
    "version": 1
  },
  "storageLayout": {
    "storage": [
      {
        "astId": 702,
        "contract": "contracts/RoyaltyFeeSetterV2.sol:RoyaltyFeeSetterV2",
        "label": "_initialized",
        "offset": 0,
        "slot": "0",
        "type": "t_bool"
      },
      {
        "astId": 705,
        "contract": "contracts/RoyaltyFeeSetterV2.sol:RoyaltyFeeSetterV2",
        "label": "_initializing",
        "offset": 1,
        "slot": "0",
        "type": "t_bool"
      },
      {
        "astId": 1223,
        "contract": "contracts/RoyaltyFeeSetterV2.sol:RoyaltyFeeSetterV2",
        "label": "__gap",
        "offset": 0,
        "slot": "1",
        "type": "t_array(t_uint256)50_storage"
      },
      {
        "astId": 582,
        "contract": "contracts/RoyaltyFeeSetterV2.sol:RoyaltyFeeSetterV2",
        "label": "_owner",
        "offset": 0,
        "slot": "51",
        "type": "t_address"
      },
      {
        "astId": 694,
        "contract": "contracts/RoyaltyFeeSetterV2.sol:RoyaltyFeeSetterV2",
        "label": "__gap",
        "offset": 0,
        "slot": "52",
        "type": "t_array(t_uint256)49_storage"
      },
      {
        "astId": 13363,
        "contract": "contracts/RoyaltyFeeSetterV2.sol:RoyaltyFeeSetterV2",
        "label": "royaltyFeeRegistryV2",
        "offset": 0,
        "slot": "101",
        "type": "t_contract(IRoyaltyFeeRegistryV2)14731"
      }
    ],
    "types": {
      "t_address": {
        "encoding": "inplace",
        "label": "address",
        "numberOfBytes": "20"
      },
      "t_array(t_uint256)49_storage": {
        "base": "t_uint256",
        "encoding": "inplace",
        "label": "uint256[49]",
        "numberOfBytes": "1568"
      },
      "t_array(t_uint256)50_storage": {
        "base": "t_uint256",
        "encoding": "inplace",
        "label": "uint256[50]",
        "numberOfBytes": "1600"
      },
      "t_bool": {
        "encoding": "inplace",
        "label": "bool",
        "numberOfBytes": "1"
      },
      "t_contract(IRoyaltyFeeRegistryV2)14731": {
        "encoding": "inplace",
        "label": "contract IRoyaltyFeeRegistryV2",
        "numberOfBytes": "20"
      },
      "t_uint256": {
        "encoding": "inplace",
        "label": "uint256",
        "numberOfBytes": "32"
      }
    }
  }
}