{
  "address": "0xdFd825d3ba4D6C57086caEf5dDE554d343931b73",
  "abi": [
    {
      "inputs": [
        {
          "internalType": "address",
          "name": "_joepegExchange",
          "type": "address"
        }
      ],
      "name": "initialize",
      "outputs": [],
      "stateMutability": "nonpayable",
      "type": "function"
    },
    {
      "inputs": [],
      "name": "joepegExchange",
      "outputs": [
        {
          "internalType": "address",
          "name": "",
          "type": "address"
        }
      ],
      "stateMutability": "view",
      "type": "function"
    },
    {
      "inputs": [
        {
          "internalType": "address",
          "name": "collection",
          "type": "address"
        },
        {
          "internalType": "address",
          "name": "from",
          "type": "address"
        },
        {
          "internalType": "address",
          "name": "to",
          "type": "address"
        },
        {
          "internalType": "uint256",
          "name": "tokenId",
          "type": "uint256"
        },
        {
          "internalType": "uint256",
          "name": "amount",
          "type": "uint256"
        }
      ],
      "name": "transferNonFungibleToken",
      "outputs": [],
      "stateMutability": "nonpayable",
      "type": "function"
    }
  ],
  "transactionHash": "0x4baec6d734098ce1b6f5b45b3238dc495f2df1308bc33edf7dd686472a929d3b",
  "args": [],
  "numDeployments": 1,
  "solcInputHash": "e27c224c09507bb41163b96c985afc0d",
  "bytecode": "0x608060405234801561001057600080fd5b5061031e806100206000396000f3fe608060405234801561001057600080fd5b50600436106100415760003560e01c806333f2fa9f14610046578063c4d66de81461005b578063fd43bbdd1461006e575b600080fd5b610059610054366004610271565b6100a3565b005b6100596100693660046102c6565b610179565b600054610087906201000090046001600160a01b031681565b6040516001600160a01b03909116815260200160405180910390f35b6000546201000090046001600160a01b031633146101085760405162461bcd60e51b815260206004820152601d60248201527f5472616e736665723a204f6e6c79204a6f6570656745786368616e676500000060448201526064015b60405180910390fd5b6040516323b872dd60e01b81526001600160a01b0385811660048301528481166024830152604482018490528616906323b872dd90606401600060405180830381600087803b15801561015a57600080fd5b505af115801561016e573d6000803e3d6000fd5b505050505050505050565b600054610100900460ff166101945760005460ff1615610198565b303b155b6101fb5760405162461bcd60e51b815260206004820152602e60248201527f496e697469616c697a61626c653a20636f6e747261637420697320616c72656160448201526d191e481a5b9a5d1a585b1a5e995960921b60648201526084016100ff565b600054610100900460ff1615801561021d576000805461ffff19166101011790555b6000805462010000600160b01b031916620100006001600160a01b038516021790558015610251576000805461ff00191690555b5050565b80356001600160a01b038116811461026c57600080fd5b919050565b600080600080600060a0868803121561028957600080fd5b61029286610255565b94506102a060208701610255565b93506102ae60408701610255565b94979396509394606081013594506080013592915050565b6000602082840312156102d857600080fd5b6102e182610255565b939250505056fea26469706673582212200f033ce6be7532e807071574004fb22f245a6c907fbe49826f455b2e69d9a22964736f6c634300080a0033",
  "devdoc": {
    "kind": "dev",
    "methods": {
      "initialize(address)": {
        "params": {
          "_joepegExchange": "address of the Joepeg exchange"
        }
      },
      "transferNonFungibleToken(address,address,address,uint256,uint256)": {
        "params": {
          "collection": "address of the collection",
          "from": "address of the sender",
          "to": "address of the recipient",
          "tokenId": "tokenId"
        }
      }
    },
    "title": "TransferManagerNonCompliantERC721",
    "version": 1
  },
  "userdoc": {
    "kind": "user",
    "methods": {
      "initialize(address)": {
        "notice": "Initializer"
      },
      "transferNonFungibleToken(address,address,address,uint256,uint256)": {
        "notice": "Transfer ERC721 token"
      }
    },
    "notice": "It allows the transfer of ERC721 tokens without safeTransferFrom.",
    "version": 1
  },
  "storageLayout": {
    "storage": [
      {
        "astId": 702,
        "contract": "contracts/TransferManagerNonCompliantERC721.sol:TransferManagerNonCompliantERC721",
        "label": "_initialized",
        "offset": 0,
        "slot": "0",
        "type": "t_bool"
      },
      {
        "astId": 705,
        "contract": "contracts/TransferManagerNonCompliantERC721.sol:TransferManagerNonCompliantERC721",
        "label": "_initializing",
        "offset": 1,
        "slot": "0",
        "type": "t_bool"
      },
      {
        "astId": 14058,
        "contract": "contracts/TransferManagerNonCompliantERC721.sol:TransferManagerNonCompliantERC721",
        "label": "joepegExchange",
        "offset": 2,
        "slot": "0",
        "type": "t_address"
      }
    ],
    "types": {
      "t_address": {
        "encoding": "inplace",
        "label": "address",
        "numberOfBytes": "20"
      },
      "t_bool": {
        "encoding": "inplace",
        "label": "bool",
        "numberOfBytes": "1"
      }
    }
  }
}