{
  "address": "0x42Ac9B9CA43b2C36Ac1E78eA3bc71905f55a589a",
  "abi": [
    {
      "inputs": [
        {
          "internalType": "address",
          "name": "nft",
          "type": "address"
        }
      ],
      "name": "BatchTransferNFT__UnsupportedContract",
      "type": "error"
    },
    {
      "inputs": [],
      "name": "PendingOwnable__NoPendingOwner",
      "type": "error"
    },
    {
      "inputs": [],
      "name": "PendingOwnable__NotOwner",
      "type": "error"
    },
    {
      "inputs": [],
      "name": "PendingOwnable__NotPendingOwner",
      "type": "error"
    },
    {
      "inputs": [],
      "name": "PendingOwnable__PendingOwnerAlreadySet",
      "type": "error"
    },
    {
      "inputs": [],
      "name": "SafeAccessControlEnumerable__RoleIsDefaultAdmin",
      "type": "error"
    },
    {
      "inputs": [
        {
          "internalType": "bytes32",
          "name": "role",
          "type": "bytes32"
        },
        {
          "internalType": "address",
          "name": "sender",
          "type": "address"
        }
      ],
      "name": "SafeAccessControlEnumerable__SenderMissingRoleAndIsNotOwner",
      "type": "error"
    },
    {
      "inputs": [],
      "name": "SafePausable__AlreadyPaused",
      "type": "error"
    },
    {
      "inputs": [],
      "name": "SafePausable__AlreadyUnpaused",
      "type": "error"
    },
    {
      "anonymous": false,
      "inputs": [
        {
          "indexed": true,
          "internalType": "address",
          "name": "previousOwner",
          "type": "address"
        },
        {
          "indexed": true,
          "internalType": "address",
          "name": "newOwner",
          "type": "address"
        }
      ],
      "name": "OwnershipTransferred",
      "type": "event"
    },
    {
      "anonymous": false,
      "inputs": [
        {
          "indexed": false,
          "internalType": "address",
          "name": "account",
          "type": "address"
        }
      ],
      "name": "Paused",
      "type": "event"
    },
    {
      "anonymous": false,
      "inputs": [
        {
          "indexed": true,
          "internalType": "address",
          "name": "pendingOwner",
          "type": "address"
        }
      ],
      "name": "PendingOwnerSet",
      "type": "event"
    },
    {
      "anonymous": false,
      "inputs": [
        {
          "indexed": true,
          "internalType": "bytes32",
          "name": "role",
          "type": "bytes32"
        },
        {
          "indexed": true,
          "internalType": "bytes32",
          "name": "previousAdminRole",
          "type": "bytes32"
        },
        {
          "indexed": true,
          "internalType": "bytes32",
          "name": "newAdminRole",
          "type": "bytes32"
        }
      ],
      "name": "RoleAdminChanged",
      "type": "event"
    },
    {
      "anonymous": false,
      "inputs": [
        {
          "indexed": true,
          "internalType": "bytes32",
          "name": "role",
          "type": "bytes32"
        },
        {
          "indexed": true,
          "internalType": "address",
          "name": "account",
          "type": "address"
        },
        {
          "indexed": true,
          "internalType": "address",
          "name": "sender",
          "type": "address"
        }
      ],
      "name": "RoleGranted",
      "type": "event"
    },
    {
      "anonymous": false,
      "inputs": [
        {
          "indexed": true,
          "internalType": "bytes32",
          "name": "role",
          "type": "bytes32"
        },
        {
          "indexed": true,
          "internalType": "address",
          "name": "account",
          "type": "address"
        },
        {
          "indexed": true,
          "internalType": "address",
          "name": "sender",
          "type": "address"
        }
      ],
      "name": "RoleRevoked",
      "type": "event"
    },
    {
      "anonymous": false,
      "inputs": [
        {
          "indexed": false,
          "internalType": "address",
          "name": "account",
          "type": "address"
        }
      ],
      "name": "Unpaused",
      "type": "event"
    },
    {
      "inputs": [],
      "name": "DEFAULT_ADMIN_ROLE",
      "outputs": [
        {
          "internalType": "bytes32",
          "name": "",
          "type": "bytes32"
        }
      ],
      "stateMutability": "view",
      "type": "function"
    },
    {
      "inputs": [],
      "name": "PAUSER_ADMIN_ROLE",
      "outputs": [
        {
          "internalType": "bytes32",
          "name": "",
          "type": "bytes32"
        }
      ],
      "stateMutability": "view",
      "type": "function"
    },
    {
      "inputs": [],
      "name": "PAUSER_ROLE",
      "outputs": [
        {
          "internalType": "bytes32",
          "name": "",
          "type": "bytes32"
        }
      ],
      "stateMutability": "view",
      "type": "function"
    },
    {
      "inputs": [],
      "name": "UNPAUSER_ADMIN_ROLE",
      "outputs": [
        {
          "internalType": "bytes32",
          "name": "",
          "type": "bytes32"
        }
      ],
      "stateMutability": "view",
      "type": "function"
    },
    {
      "inputs": [],
      "name": "UNPAUSER_ROLE",
      "outputs": [
        {
          "internalType": "bytes32",
          "name": "",
          "type": "bytes32"
        }
      ],
      "stateMutability": "view",
      "type": "function"
    },
    {
      "inputs": [
        {
          "components": [
            {
              "internalType": "address",
              "name": "nft",
              "type": "address"
            },
            {
              "internalType": "address",
              "name": "recipient",
              "type": "address"
            },
            {
              "internalType": "uint256",
              "name": "tokenId",
              "type": "uint256"
            },
            {
              "internalType": "uint256",
              "name": "amount",
              "type": "uint256"
            }
          ],
          "internalType": "struct IBatchTransferNFT.Transfer[]",
          "name": "_transfers",
          "type": "tuple[]"
        }
      ],
      "name": "batchTransfer",
      "outputs": [],
      "stateMutability": "nonpayable",
      "type": "function"
    },
    {
      "inputs": [],
      "name": "becomeOwner",
      "outputs": [],
      "stateMutability": "nonpayable",
      "type": "function"
    },
    {
      "inputs": [
        {
          "internalType": "bytes32",
          "name": "role",
          "type": "bytes32"
        }
      ],
      "name": "getRoleAdmin",
      "outputs": [
        {
          "internalType": "bytes32",
          "name": "",
          "type": "bytes32"
        }
      ],
      "stateMutability": "view",
      "type": "function"
    },
    {
      "inputs": [
        {
          "internalType": "bytes32",
          "name": "role",
          "type": "bytes32"
        },
        {
          "internalType": "uint256",
          "name": "index",
          "type": "uint256"
        }
      ],
      "name": "getRoleMember",
      "outputs": [
        {
          "internalType": "address",
          "name": "",
          "type": "address"
        }
      ],
      "stateMutability": "view",
      "type": "function"
    },
    {
      "inputs": [
        {
          "internalType": "bytes32",
          "name": "role",
          "type": "bytes32"
        }
      ],
      "name": "getRoleMemberCount",
      "outputs": [
        {
          "internalType": "uint256",
          "name": "",
          "type": "uint256"
        }
      ],
      "stateMutability": "view",
      "type": "function"
    },
    {
      "inputs": [
        {
          "internalType": "bytes32",
          "name": "role",
          "type": "bytes32"
        },
        {
          "internalType": "address",
          "name": "account",
          "type": "address"
        }
      ],
      "name": "grantRole",
      "outputs": [],
      "stateMutability": "nonpayable",
      "type": "function"
    },
    {
      "inputs": [
        {
          "internalType": "bytes32",
          "name": "role",
          "type": "bytes32"
        },
        {
          "internalType": "address",
          "name": "account",
          "type": "address"
        }
      ],
      "name": "hasRole",
      "outputs": [
        {
          "internalType": "bool",
          "name": "",
          "type": "bool"
        }
      ],
      "stateMutability": "view",
      "type": "function"
    },
    {
      "inputs": [],
      "name": "owner",
      "outputs": [
        {
          "internalType": "address",
          "name": "",
          "type": "address"
        }
      ],
      "stateMutability": "view",
      "type": "function"
    },
    {
      "inputs": [],
      "name": "pause",
      "outputs": [],
      "stateMutability": "nonpayable",
      "type": "function"
    },
    {
      "inputs": [],
      "name": "paused",
      "outputs": [
        {
          "internalType": "bool",
          "name": "",
          "type": "bool"
        }
      ],
      "stateMutability": "view",
      "type": "function"
    },
    {
      "inputs": [],
      "name": "pendingOwner",
      "outputs": [
        {
          "internalType": "address",
          "name": "",
          "type": "address"
        }
      ],
      "stateMutability": "view",
      "type": "function"
    },
    {
      "inputs": [],
      "name": "renounceOwnership",
      "outputs": [],
      "stateMutability": "nonpayable",
      "type": "function"
    },
    {
      "inputs": [
        {
          "internalType": "bytes32",
          "name": "role",
          "type": "bytes32"
        },
        {
          "internalType": "address",
          "name": "account",
          "type": "address"
        }
      ],
      "name": "renounceRole",
      "outputs": [],
      "stateMutability": "nonpayable",
      "type": "function"
    },
    {
      "inputs": [],
      "name": "revokePendingOwner",
      "outputs": [],
      "stateMutability": "nonpayable",
      "type": "function"
    },
    {
      "inputs": [
        {
          "internalType": "bytes32",
          "name": "role",
          "type": "bytes32"
        },
        {
          "internalType": "address",
          "name": "account",
          "type": "address"
        }
      ],
      "name": "revokeRole",
      "outputs": [],
      "stateMutability": "nonpayable",
      "type": "function"
    },
    {
      "inputs": [
        {
          "internalType": "address",
          "name": "pendingOwner_",
          "type": "address"
        }
      ],
      "name": "setPendingOwner",
      "outputs": [],
      "stateMutability": "nonpayable",
      "type": "function"
    },
    {
      "inputs": [
        {
          "internalType": "bytes4",
          "name": "interfaceId",
          "type": "bytes4"
        }
      ],
      "name": "supportsInterface",
      "outputs": [
        {
          "internalType": "bool",
          "name": "",
          "type": "bool"
        }
      ],
      "stateMutability": "view",
      "type": "function"
    },
    {
      "inputs": [],
      "name": "unpause",
      "outputs": [],
      "stateMutability": "nonpayable",
      "type": "function"
    }
  ],
  "transactionHash": "0x66e850ea849a265f32e46f86f86a97c3bae32081777a0244eba18a2c797c2e9b",
  "args": [],
  "numDeployments": 2,
  "solcInputHash": "d9954e70e91d5d6c9ca9d16a2f8e91ef",
  "bytecode": "0x60806040523480156200001157600080fd5b506200001d33620000c5565b6004805460ff19169055620000737f65d7a28e3265b37a6474929f336521b332c1681b933f6cb9f3376673440d862a7fe0e65c783ac33ff1c5ccf4399c9185066773921d6f8d050bf80781603021f0976200011a565b620000bf7f427da25fe773164f88948d3e215c94b6554e2ed5e5f203a821c9f2f6131cf75a7fe516f7ac9747f401e208331379a0bafe3c9c4dbb6501fd23bcef278f7ebaf4e56200011a565b62000548565b620000e46000620000de6000546001600160a01b031690565b62000165565b6001600160a01b03811615620001015762000101600082620001a8565b6200011781620001e660201b6200095b1760201c565b50565b600082815260026020526040808220600101805490849055905190918391839186917fbd79b86ffe0ab8e8776151514217cd7cacd52c909f66475c3af44e129f0b00ff9190a4505050565b6200017c82826200024060201b620009b51760201c565b6000828152600360209081526040909120620001a391839062000a1d620002c5821b17901c565b505050565b620001bf8282620002e560201b62000a321760201c565b6000828152600360209081526040909120620001a391839062000ab862000389821b17901c565b600080546001600160a01b038381166001600160a01b031980841682178555600180549091169055604051919092169283917f8be0079c531659141344cd1fd0a4f28419497f9722a3daafe3b4186f6b6457e09190a35050565b60008281526002602090815260408083206001600160a01b038516845290915290205460ff1615620002c15760008281526002602090815260408083206001600160a01b0385168085529252808320805460ff1916905551339285917ff6391f5c32d9c69d2a47ea670b442974b53935d1edc7fd64eb21e047a839171b9190a45b5050565b6000620002dc836001600160a01b038416620003a0565b90505b92915050565b60008281526002602090815260408083206001600160a01b038516845290915290205460ff16620002c15760008281526002602090815260408083206001600160a01b03851684529091529020805460ff19166001179055620003453390565b6001600160a01b0316816001600160a01b0316837f2f8788117e7eff1d82e926ec794901d17c78024a50270940304540a733656f0d60405160405180910390a45050565b6000620002dc836001600160a01b038416620004a4565b6000818152600183016020526040812054801562000499576000620003c7600183620004f6565b8554909150600090620003dd90600190620004f6565b9050818114620004495760008660000182815481106200040157620004016200051c565b90600052602060002001549050808760000184815481106200042757620004276200051c565b6000918252602080832090910192909255918252600188019052604090208390555b85548690806200045d576200045d62000532565b600190038181906000526020600020016000905590558560010160008681526020019081526020016000206000905560019350505050620002df565b6000915050620002df565b6000818152600183016020526040812054620004ed57508154600181810184556000848152602080822090930184905584548482528286019093526040902091909155620002df565b506000620002df565b6000828210156200051757634e487b7160e01b600052601160045260246000fd5b500390565b634e487b7160e01b600052603260045260246000fd5b634e487b7160e01b600052603160045260246000fd5b61126c80620005586000396000f3fe608060405234801561001057600080fd5b506004361061014d5760003560e01c80638da5cb5b116100c3578063d47a1a271161007c578063d47a1a27146102c5578063d547741f146102d8578063e30c3978146102eb578063e63ab1e9146102fc578063f9dca98914610323578063fb1bb9de1461032b57600080fd5b80638da5cb5b1461024c5780639010d07c1461027157806391d1485414610284578063a217fddf14610297578063c42069ec1461029f578063ca15c873146102b257600080fd5b80633f4ba83a116101155780633f4ba83a146101fa5780635c975abb1461020257806367ab8a4e1461020d57806370a9525014610215578063715018a61461023c5780638456cb591461024457600080fd5b806301ffc9a714610152578063248a9ca31461017a57806325a00473146101ab5780632f2ff15d146101d257806336568abe146101e7575b600080fd5b610165610160366004611006565b610352565b60405190151581526020015b60405180910390f35b61019d610188366004611030565b60009081526002602052604090206001015490565b604051908152602001610171565b61019d7fe0e65c783ac33ff1c5ccf4399c9185066773921d6f8d050bf80781603021f09781565b6101e56101e0366004611065565b61037d565b005b6101e56101f5366004611065565b61040b565b6101e5610439565b60045460ff16610165565b6101e56104e9565b61019d7fe516f7ac9747f401e208331379a0bafe3c9c4dbb6501fd23bcef278f7ebaf4e581565b6101e5610549565b6101e561057e565b6000546001600160a01b03165b6040516001600160a01b039091168152602001610171565b61025961027f366004611091565b61062c565b610165610292366004611065565b61064b565b61019d600081565b6101e56102ad3660046110b3565b610676565b61019d6102c0366004611030565b6106d4565b6101e56102d33660046110ce565b6106eb565b6101e56102e6366004611065565b610899565b6001546001600160a01b0316610259565b61019d7f65d7a28e3265b37a6474929f336521b332c1681b933f6cb9f3376673440d862a81565b6101e561091c565b61019d7f427da25fe773164f88948d3e215c94b6554e2ed5e5f203a821c9f2f6131cf75a81565b60006001600160e01b0319821663d47a1a2760e01b1480610377575061037782610acd565b92915050565b818061039c57604051637c972d8960e11b815260040160405180910390fd5b60008381526002602052604081206001015490546001600160a01b031633148015906103cf57506103cd813361064b565b155b156103fb57604051633085a16360e11b8152600481018290523360248201526044015b60405180910390fd5b6104058484610af2565b50505050565b818061042a57604051637c972d8960e11b815260040160405180910390fd5b6104348383610b14565b505050565b7f427da25fe773164f88948d3e215c94b6554e2ed5e5f203a821c9f2f6131cf75a61046c6000546001600160a01b031690565b6001600160a01b0316336001600160a01b0316141580156104945750610492813361064b565b155b156104bb57604051633085a16360e11b8152600481018290523360248201526044016103f2565b60045460ff166104de57604051638e829c3b60e01b815260040160405180910390fd5b6104e6610b8e565b50565b6000546001600160a01b0316331461051457604051639f216c1360e01b815260040160405180910390fd5b6001546001600160a01b031661053d5760405163ecfad6bf60e01b815260040160405180910390fd5b6105476000610c21565b565b6000546001600160a01b0316331461057457604051639f216c1360e01b815260040160405180910390fd5b6105476000610c6b565b7f65d7a28e3265b37a6474929f336521b332c1681b933f6cb9f3376673440d862a6105b16000546001600160a01b031690565b6001600160a01b0316336001600160a01b0316141580156105d957506105d7813361064b565b155b1561060057604051633085a16360e11b8152600481018290523360248201526044016103f2565b60045460ff161561062457604051631d5d4f7f60e01b815260040160405180910390fd5b6104e6610caa565b60008281526003602052604081206106449083610d25565b9392505050565b60009182526002602090815260408084206001600160a01b0393909316845291905290205460ff1690565b6000546001600160a01b031633146106a157604051639f216c1360e01b815260040160405180910390fd5b6001546001600160a01b0316156106cb5760405163716b1fbf60e01b815260040160405180910390fd5b6104e681610c21565b600081815260036020526040812061037790610d31565b60045460ff16156107315760405162461bcd60e51b815260206004820152601060248201526f14185d5cd8589b194e881c185d5cd95960821b60448201526064016103f2565b8060005b8181101561040557600084848381811061075157610751611143565b9050608002018036038101906107679190611159565b90506107768160000151610d3b565b156107f657805160208201516040808401519051632142170760e11b81523360048201526001600160a01b03928316602482015260448101919091529116906342842e0e906064015b600060405180830381600087803b1580156107d957600080fd5b505af11580156107ed573d6000803e3d6000fd5b50505050610890565b805161080190610dae565b15610869578051602082015160408084015160608501519151637921219560e11b81523360048201526001600160a01b0393841660248201526044810191909152606481019190915260a06084820152600060a482015291169063f242432a9060c4016107bf565b8051604051638ac031a160e01b81526001600160a01b0390911660048201526024016103f2565b50600101610735565b81806108b857604051637c972d8960e11b815260040160405180910390fd5b60008381526002602052604081206001015490546001600160a01b031633148015906108eb57506108e9813361064b565b155b1561091257604051633085a16360e11b8152600481018290523360248201526044016103f2565b6104058484610de4565b6001546001600160a01b031633141580610934575033155b1561095257604051633982680960e11b815260040160405180910390fd5b61054733610c6b565b600080546001600160a01b038381166001600160a01b031980841682178555600180549091169055604051919092169283917f8be0079c531659141344cd1fd0a4f28419497f9722a3daafe3b4186f6b6457e09190a35050565b6109bf828261064b565b15610a195760008281526002602090815260408083206001600160a01b0385168085529252808320805460ff1916905551339285917ff6391f5c32d9c69d2a47ea670b442974b53935d1edc7fd64eb21e047a839171b9190a45b5050565b6000610644836001600160a01b038416610e06565b610a3c828261064b565b610a195760008281526002602090815260408083206001600160a01b03851684529091529020805460ff19166001179055610a743390565b6001600160a01b0316816001600160a01b0316837f2f8788117e7eff1d82e926ec794901d17c78024a50270940304540a733656f0d60405160405180910390a45050565b6000610644836001600160a01b038416610ef9565b60006001600160e01b0319821663f3353d7760e01b1480610377575061037782610f48565b610afc8282610a32565b60008281526003602052604090206104349082610ab8565b6001600160a01b0381163314610b845760405162461bcd60e51b815260206004820152602f60248201527f416363657373436f6e74726f6c3a2063616e206f6e6c792072656e6f756e636560448201526e103937b632b9903337b91039b2b63360891b60648201526084016103f2565b610a198282610de4565b60045460ff16610bd75760405162461bcd60e51b815260206004820152601460248201527314185d5cd8589b194e881b9bdd081c185d5cd95960621b60448201526064016103f2565b6004805460ff191690557f5db9ee0a495bf2e6ff9c91a7834c1ba4fdd244a5e8aa4e537bd38aeae4b073aa335b6040516001600160a01b03909116815260200160405180910390a1565b600180546001600160a01b0319166001600160a01b0383169081179091556040517f68f49b346b94582a8b5f9d10e3fe3365318fe8f191ff8dce7c59c6cad06b02f590600090a250565b610c876000610c826000546001600160a01b031690565b610de4565b6001600160a01b03811615610ca157610ca1600082610af2565b6104e68161095b565b60045460ff1615610cf05760405162461bcd60e51b815260206004820152601060248201526f14185d5cd8589b194e881c185d5cd95960821b60448201526064016103f2565b6004805460ff191660011790557f62e78cea01bee320cd4e420270b5ea74000d11b0c9f74754ebdbfc544b05a258610c043390565b60006106448383610f62565b6000610377825490565b6040516301ffc9a760e01b81526380ac58cd60e01b60048201526000906001600160a01b038316906301ffc9a7906024015b602060405180830381865afa158015610d8a573d6000803e3d6000fd5b505050506040513d601f19601f8201168201806040525081019061037791906111d9565b6040516301ffc9a760e01b8152636cdb3d1360e11b60048201526000906001600160a01b038316906301ffc9a790602401610d6d565b610dee82826109b5565b60008281526003602052604090206104349082610a1d565b60008181526001830160205260408120548015610eef576000610e2a6001836111fb565b8554909150600090610e3e906001906111fb565b9050818114610ea3576000866000018281548110610e5e57610e5e611143565b9060005260206000200154905080876000018481548110610e8157610e81611143565b6000918252602080832090910192909255918252600188019052604090208390555b8554869080610eb457610eb4611220565b600190038181906000526020600020016000905590558560010160008681526020019081526020016000206000905560019350505050610377565b6000915050610377565b6000818152600183016020526040812054610f4057508154600181810184556000848152602080822090930184905584548482528286019093526040902091909155610377565b506000610377565b6000610f5382610f8c565b80610377575061037782610fc1565b6000826000018281548110610f7957610f79611143565b9060005260206000200154905092915050565b60006001600160e01b031982166322d7505760e11b148061037757506301ffc9a760e01b6001600160e01b0319831614610377565b60006001600160e01b03198216635a05180f60e01b148061037757506103778260006001600160e01b03198216637965db0b60e01b1480610377575061037782610f8c565b60006020828403121561101857600080fd5b81356001600160e01b03198116811461064457600080fd5b60006020828403121561104257600080fd5b5035919050565b80356001600160a01b038116811461106057600080fd5b919050565b6000806040838503121561107857600080fd5b8235915061108860208401611049565b90509250929050565b600080604083850312156110a457600080fd5b50508035926020909101359150565b6000602082840312156110c557600080fd5b61064482611049565b600080602083850312156110e157600080fd5b823567ffffffffffffffff808211156110f957600080fd5b818501915085601f83011261110d57600080fd5b81358181111561111c57600080fd5b8660208260071b850101111561113157600080fd5b60209290920196919550909350505050565b634e487b7160e01b600052603260045260246000fd5b60006080828403121561116b57600080fd5b6040516080810181811067ffffffffffffffff8211171561119c57634e487b7160e01b600052604160045260246000fd5b6040526111a883611049565b81526111b660208401611049565b602082015260408301356040820152606083013560608201528091505092915050565b6000602082840312156111eb57600080fd5b8151801515811461064457600080fd5b60008282101561121b57634e487b7160e01b600052601160045260246000fd5b500390565b634e487b7160e01b600052603160045260246000fdfea26469706673582212202a415a97bed9f0276b835b0de347c9b066da9e352e1cb583776b78114b4d931764736f6c634300080a0033",
  "devdoc": {
    "kind": "dev",
    "methods": {
      "batchTransfer((address,address,uint256,uint256)[])": {
        "details": "The function can get paused",
        "params": {
          "_transfers": "The list of transfer. The different nft needs to support either the IERC721 or IERC1155 interface"
        }
      },
      "getRoleAdmin(bytes32)": {
        "details": "Returns the admin role that controls `role`. See {grantRole} and {revokeRole}. To change a role's admin, use {_setRoleAdmin}."
      },
      "getRoleMember(bytes32,uint256)": {
        "details": "Returns one of the accounts that have `role`. `index` must be a value between 0 and {getRoleMemberCount}, non-inclusive. Role bearers are not sorted in any particular way, and their ordering may change at any point. WARNING: When using {getRoleMember} and {getRoleMemberCount}, make sure you perform all queries on the same block. See the following https://forum.openzeppelin.com/t/iterating-over-elements-on-enumerableset-in-openzeppelin-contracts/2296[forum post] for more information."
      },
      "getRoleMemberCount(bytes32)": {
        "details": "Returns the number of accounts that have `role`. Can be used together with {getRoleMember} to enumerate all bearers of a role."
      },
      "grantRole(bytes32,address)": {
        "details": "If `account` had not been already granted `role`, emits a {RoleGranted} event. Requirements: - the caller must be the `owner` or have ``role``'s admin role. - the role granted can't be `DEFAULT_ADMIN`",
        "params": {
          "account": "The address of the account",
          "role": "The role to grant"
        }
      },
      "hasRole(bytes32,address)": {
        "details": "Returns `true` if `account` has been granted `role`."
      },
      "owner()": {
        "returns": {
          "_0": "The address of the current owner"
        }
      },
      "pause()": {
        "details": "Sensible part of a contract might be pausable for security reasons. Requirements: - the caller must be the `owner` or have the ``role`` role. - the contrat needs to be unpaused."
      },
      "paused()": {
        "details": "Returns true if the contract is paused, and false otherwise."
      },
      "pendingOwner()": {
        "returns": {
          "_0": "The address of the current pending owner"
        }
      },
      "renounceRole(bytes32,address)": {
        "details": "Roles are often managed via {grantRole} and {revokeRole}: this function's purpose is to provide a mechanism for accounts to lose their privileges if they are compromised (such as when a trusted device is misplaced). If the calling account had been revoked `role`, emits a {RoleRevoked} event. Requirements: - the caller must be `account`. - the role renounced can't be `DEFAULT_ADMIN`",
        "params": {
          "account": "The address of the account",
          "role": "The role to renounce"
        }
      },
      "revokeRole(bytes32,address)": {
        "details": "If `account` had been granted `role`, emits a {RoleRevoked} event. Requirements: - the caller must be the `owner` or have ``role``'s admin role. - the role revoked can't be `DEFAULT_ADMIN`",
        "params": {
          "account": "The address of the account",
          "role": "The role to revoke"
        }
      },
      "supportsInterface(bytes4)": {
        "details": "Returns true if this contract implements the interface defined by `interfaceId`. See the corresponding https://eips.ethereum.org/EIPS/eip-165#how-interfaces-are-identified[EIP section] to learn more about how these ids are created. This function call must use less than 30 000 gas."
      },
      "unpause()": {
        "details": "Sensible part of a contract might be pausable for security reasons. Requirements: - the caller must be the `owner` or have the ``role`` role. - the contrat needs to be unpaused."
      }
    },
    "title": "BatchTransferNFT",
    "version": 1
  },
  "userdoc": {
    "kind": "user",
    "methods": {
      "batchTransfer((address,address,uint256,uint256)[])": {
        "notice": "Batch transfer different NFT in a single call"
      },
      "becomeOwner()": {
        "notice": "Transfers the ownership to the new owner (`pendingOwner`). Can only be called by the pending owner"
      },
      "grantRole(bytes32,address)": {
        "notice": "Grants `role` to `account`."
      },
      "owner()": {
        "notice": "Returns the address of the current owner"
      },
      "pause()": {
        "notice": "Pauses the contract."
      },
      "pendingOwner()": {
        "notice": "Returns the address of the current pending owner"
      },
      "renounceOwnership()": {
        "notice": "Leaves the contract without owner. It will not be possible to call `onlyOwner` functions anymore. Can only be called by the current owner. NOTE: Renouncing ownership will leave the contract without an owner, thereby removing any functionality that is only available to the owner."
      },
      "renounceRole(bytes32,address)": {
        "notice": "Revokes `role` from the calling account."
      },
      "revokePendingOwner()": {
        "notice": "Revoke the pending owner address. This address will not be able to call {becomeOwner} to become the owner anymore. Can only be called by the owner"
      },
      "revokeRole(bytes32,address)": {
        "notice": "Revokes `role` from `account`."
      },
      "setPendingOwner(address)": {
        "notice": "Sets the pending owner address. This address will be able to become the owner of this contract by calling {becomeOwner}"
      },
      "unpause()": {
        "notice": "Unpauses the contract."
      }
    },
    "notice": "Enables to batch transfer multiple NFTs in a single call to this contract",
    "version": 1
  },
  "storageLayout": {
    "storage": [
      {
        "astId": 16076,
        "contract": "contracts/utils/BatchTransferNFT.sol:BatchTransferNFT",
        "label": "_owner",
        "offset": 0,
        "slot": "0",
        "type": "t_address"
      },
      {
        "astId": 16078,
        "contract": "contracts/utils/BatchTransferNFT.sol:BatchTransferNFT",
        "label": "_pendingOwner",
        "offset": 0,
        "slot": "1",
        "type": "t_address"
      },
      {
        "astId": 2107,
        "contract": "contracts/utils/BatchTransferNFT.sol:BatchTransferNFT",
        "label": "_roles",
        "offset": 0,
        "slot": "2",
        "type": "t_mapping(t_bytes32,t_struct(RoleData)2102_storage)"
      },
      {
        "astId": 2410,
        "contract": "contracts/utils/BatchTransferNFT.sol:BatchTransferNFT",
        "label": "_roleMembers",
        "offset": 0,
        "slot": "3",
        "type": "t_mapping(t_bytes32,t_struct(AddressSet)6785_storage)"
      },
      {
        "astId": 2773,
        "contract": "contracts/utils/BatchTransferNFT.sol:BatchTransferNFT",
        "label": "_paused",
        "offset": 0,
        "slot": "4",
        "type": "t_bool"
      }
    ],
    "types": {
      "t_address": {
        "encoding": "inplace",
        "label": "address",
        "numberOfBytes": "20"
      },
      "t_array(t_bytes32)dyn_storage": {
        "base": "t_bytes32",
        "encoding": "dynamic_array",
        "label": "bytes32[]",
        "numberOfBytes": "32"
      },
      "t_bool": {
        "encoding": "inplace",
        "label": "bool",
        "numberOfBytes": "1"
      },
      "t_bytes32": {
        "encoding": "inplace",
        "label": "bytes32",
        "numberOfBytes": "32"
      },
      "t_mapping(t_address,t_bool)": {
        "encoding": "mapping",
        "key": "t_address",
        "label": "mapping(address => bool)",
        "numberOfBytes": "32",
        "value": "t_bool"
      },
      "t_mapping(t_bytes32,t_struct(AddressSet)6785_storage)": {
        "encoding": "mapping",
        "key": "t_bytes32",
        "label": "mapping(bytes32 => struct EnumerableSet.AddressSet)",
        "numberOfBytes": "32",
        "value": "t_struct(AddressSet)6785_storage"
      },
      "t_mapping(t_bytes32,t_struct(RoleData)2102_storage)": {
        "encoding": "mapping",
        "key": "t_bytes32",
        "label": "mapping(bytes32 => struct AccessControl.RoleData)",
        "numberOfBytes": "32",
        "value": "t_struct(RoleData)2102_storage"
      },
      "t_mapping(t_bytes32,t_uint256)": {
        "encoding": "mapping",
        "key": "t_bytes32",
        "label": "mapping(bytes32 => uint256)",
        "numberOfBytes": "32",
        "value": "t_uint256"
      },
      "t_struct(AddressSet)6785_storage": {
        "encoding": "inplace",
        "label": "struct EnumerableSet.AddressSet",
        "members": [
          {
            "astId": 6784,
            "contract": "contracts/utils/BatchTransferNFT.sol:BatchTransferNFT",
            "label": "_inner",
            "offset": 0,
            "slot": "0",
            "type": "t_struct(Set)6484_storage"
          }
        ],
        "numberOfBytes": "64"
      },
      "t_struct(RoleData)2102_storage": {
        "encoding": "inplace",
        "label": "struct AccessControl.RoleData",
        "members": [
          {
            "astId": 2099,
            "contract": "contracts/utils/BatchTransferNFT.sol:BatchTransferNFT",
            "label": "members",
            "offset": 0,
            "slot": "0",
            "type": "t_mapping(t_address,t_bool)"
          },
          {
            "astId": 2101,
            "contract": "contracts/utils/BatchTransferNFT.sol:BatchTransferNFT",
            "label": "adminRole",
            "offset": 0,
            "slot": "1",
            "type": "t_bytes32"
          }
        ],
        "numberOfBytes": "64"
      },
      "t_struct(Set)6484_storage": {
        "encoding": "inplace",
        "label": "struct EnumerableSet.Set",
        "members": [
          {
            "astId": 6479,
            "contract": "contracts/utils/BatchTransferNFT.sol:BatchTransferNFT",
            "label": "_values",
            "offset": 0,
            "slot": "0",
            "type": "t_array(t_bytes32)dyn_storage"
          },
          {
            "astId": 6483,
            "contract": "contracts/utils/BatchTransferNFT.sol:BatchTransferNFT",
            "label": "_indexes",
            "offset": 0,
            "slot": "1",
            "type": "t_mapping(t_bytes32,t_uint256)"
          }
        ],
        "numberOfBytes": "64"
      },
      "t_uint256": {
        "encoding": "inplace",
        "label": "uint256",
        "numberOfBytes": "32"
      }
    }
  }
}