{
  "address": "0x62bFC6Ba204959CdddEE7a3D9d6B0d1742198bF7",
  "abi": [
    {
      "inputs": [
        {
          "internalType": "address",
          "name": "nft",
          "type": "address"
        }
      ],
      "name": "BatchTransferNFT__UnsupportedContract",
      "type": "error"
    },
    {
      "inputs": [
        {
          "internalType": "address",
          "name": "sender",
          "type": "address"
        }
      ],
      "name": "PausableAdmin__AddressIsAlreadyPauseAdmin",
      "type": "error"
    },
    {
      "inputs": [
        {
          "internalType": "address",
          "name": "sender",
          "type": "address"
        }
      ],
      "name": "PausableAdmin__AddressIsNotPauseAdmin",
      "type": "error"
    },
    {
      "inputs": [],
      "name": "PausableAdmin__AlreadyPaused",
      "type": "error"
    },
    {
      "inputs": [],
      "name": "PausableAdmin__AlreadyUnpaused",
      "type": "error"
    },
    {
      "inputs": [
        {
          "internalType": "address",
          "name": "sender",
          "type": "address"
        }
      ],
      "name": "PausableAdmin__OnlyPauseAdmin",
      "type": "error"
    },
    {
      "inputs": [],
      "name": "PendingOwnable__NoPendingOwner",
      "type": "error"
    },
    {
      "inputs": [],
      "name": "PendingOwnable__NotOwner",
      "type": "error"
    },
    {
      "inputs": [],
      "name": "PendingOwnable__NotPendingOwner",
      "type": "error"
    },
    {
      "inputs": [],
      "name": "PendingOwnable__PendingOwnerAlreadySet",
      "type": "error"
    },
    {
      "anonymous": false,
      "inputs": [
        {
          "indexed": true,
          "internalType": "address",
          "name": "previousOwner",
          "type": "address"
        },
        {
          "indexed": true,
          "internalType": "address",
          "name": "newOwner",
          "type": "address"
        }
      ],
      "name": "OwnershipTransferred",
      "type": "event"
    },
    {
      "anonymous": false,
      "inputs": [
        {
          "indexed": false,
          "internalType": "address",
          "name": "newAdmin",
          "type": "address"
        }
      ],
      "name": "PauseAdminAdded",
      "type": "event"
    },
    {
      "anonymous": false,
      "inputs": [
        {
          "indexed": false,
          "internalType": "address",
          "name": "sender",
          "type": "address"
        },
        {
          "indexed": false,
          "internalType": "address",
          "name": "removedAdmin",
          "type": "address"
        }
      ],
      "name": "PauseAdminRemoved",
      "type": "event"
    },
    {
      "anonymous": false,
      "inputs": [
        {
          "indexed": false,
          "internalType": "address",
          "name": "revokedAdmin",
          "type": "address"
        }
      ],
      "name": "PauseAdminRevoked",
      "type": "event"
    },
    {
      "anonymous": false,
      "inputs": [
        {
          "indexed": false,
          "internalType": "address",
          "name": "account",
          "type": "address"
        }
      ],
      "name": "Paused",
      "type": "event"
    },
    {
      "anonymous": false,
      "inputs": [
        {
          "indexed": true,
          "internalType": "address",
          "name": "pendingOwner",
          "type": "address"
        }
      ],
      "name": "PendingOwnerSet",
      "type": "event"
    },
    {
      "anonymous": false,
      "inputs": [
        {
          "indexed": false,
          "internalType": "address",
          "name": "account",
          "type": "address"
        }
      ],
      "name": "Unpaused",
      "type": "event"
    },
    {
      "inputs": [
        {
          "internalType": "address",
          "name": "_newAdmin",
          "type": "address"
        }
      ],
      "name": "addPauseAdmin",
      "outputs": [],
      "stateMutability": "nonpayable",
      "type": "function"
    },
    {
      "inputs": [
        {
          "components": [
            {
              "internalType": "address",
              "name": "nft",
              "type": "address"
            },
            {
              "internalType": "address",
              "name": "recipient",
              "type": "address"
            },
            {
              "internalType": "uint256",
              "name": "tokenId",
              "type": "uint256"
            },
            {
              "internalType": "uint256",
              "name": "amount",
              "type": "uint256"
            }
          ],
          "internalType": "struct IBatchTransferNFT.Transfer[]",
          "name": "_transfers",
          "type": "tuple[]"
        }
      ],
      "name": "batchTransfer",
      "outputs": [],
      "stateMutability": "nonpayable",
      "type": "function"
    },
    {
      "inputs": [],
      "name": "becomeOwner",
      "outputs": [],
      "stateMutability": "nonpayable",
      "type": "function"
    },
    {
      "inputs": [],
      "name": "getNumberOfPauseAdmin",
      "outputs": [
        {
          "internalType": "uint256",
          "name": "",
          "type": "uint256"
        }
      ],
      "stateMutability": "view",
      "type": "function"
    },
    {
      "inputs": [
        {
          "internalType": "uint256",
          "name": "_index",
          "type": "uint256"
        }
      ],
      "name": "getPauseAdminAt",
      "outputs": [
        {
          "internalType": "address",
          "name": "",
          "type": "address"
        }
      ],
      "stateMutability": "view",
      "type": "function"
    },
    {
      "inputs": [],
      "name": "owner",
      "outputs": [
        {
          "internalType": "address",
          "name": "",
          "type": "address"
        }
      ],
      "stateMutability": "view",
      "type": "function"
    },
    {
      "inputs": [],
      "name": "pause",
      "outputs": [],
      "stateMutability": "nonpayable",
      "type": "function"
    },
    {
      "inputs": [],
      "name": "paused",
      "outputs": [
        {
          "internalType": "bool",
          "name": "",
          "type": "bool"
        }
      ],
      "stateMutability": "view",
      "type": "function"
    },
    {
      "inputs": [],
      "name": "pendingOwner",
      "outputs": [
        {
          "internalType": "address",
          "name": "",
          "type": "address"
        }
      ],
      "stateMutability": "view",
      "type": "function"
    },
    {
      "inputs": [
        {
          "internalType": "address",
          "name": "_admin",
          "type": "address"
        }
      ],
      "name": "removePauseAdmin",
      "outputs": [],
      "stateMutability": "nonpayable",
      "type": "function"
    },
    {
      "inputs": [],
      "name": "renounceOwnership",
      "outputs": [],
      "stateMutability": "nonpayable",
      "type": "function"
    },
    {
      "inputs": [],
      "name": "revokePauseAdmin",
      "outputs": [],
      "stateMutability": "nonpayable",
      "type": "function"
    },
    {
      "inputs": [],
      "name": "revokePendingOwner",
      "outputs": [],
      "stateMutability": "nonpayable",
      "type": "function"
    },
    {
      "inputs": [
        {
          "internalType": "address",
          "name": "pendingOwner_",
          "type": "address"
        }
      ],
      "name": "setPendingOwner",
      "outputs": [],
      "stateMutability": "nonpayable",
      "type": "function"
    },
    {
      "inputs": [
        {
          "internalType": "bytes4",
          "name": "interfaceId",
          "type": "bytes4"
        }
      ],
      "name": "supportsInterface",
      "outputs": [
        {
          "internalType": "bool",
          "name": "",
          "type": "bool"
        }
      ],
      "stateMutability": "pure",
      "type": "function"
    },
    {
      "inputs": [],
      "name": "unpause",
      "outputs": [],
      "stateMutability": "nonpayable",
      "type": "function"
    }
  ],
  "transactionHash": "0xafa48d514ff0fb40b946bad5751a5df5d05b1296816cf9593475050ff7458bbb",
  "args": [],
  "numDeployments": 1,
  "solcInputHash": "bfb3b5490f6e4046313e7ac556970da1",
  "bytecode": "0x608060405234801561001057600080fd5b5061001a33610035565b6001805460ff60a01b191690556100303361008f565b61017f565b600080546001600160a01b038381166001600160a01b031980841682178555600180549091169055604051919092169283917f8be0079c531659141344cd1fd0a4f28419497f9722a3daafe3b4186f6b6457e09190a35050565b6100a781600261011260201b6106891790919060201c565b6100d357604051630abf5ec960e41b81526001600160a01b038216600482015260240160405180910390fd5b6040516001600160a01b03821681527feab9d6a70f5f6ff36fb4e7d7c5fd6fd92619a212353eaab70320dffa41e5792d9060200160405180910390a150565b6000610127836001600160a01b038416610130565b90505b92915050565b60008181526001830160205260408120546101775750815460018181018455600084815260208082209093018490558454848252828601909352604090209190915561012a565b50600061012a565b610e938061018e6000396000f3fe608060405234801561001057600080fd5b50600436106101005760003560e01c80638456cb5911610097578063d47a1a2711610066578063d47a1a27146101e1578063dabbe091146101f4578063e30c397814610207578063f9dca9891461021857600080fd5b80638456cb591461019f5780638da5cb5b146101a7578063c19e11ee146101b8578063c42069ec146101ce57600080fd5b80634e07ad3c116100d35780634e07ad3c146101525780635c975abb1461017d57806367ab8a4e1461018f578063715018a61461019757600080fd5b806301ffc9a7146101055780630c5b314a1461012d5780631cd36796146101375780633f4ba83a1461014a575b600080fd5b610118610113366004610c7b565b610220565b60405190151581526020015b60405180910390f35b61013561024b565b005b610135610145366004610cc1565b610256565b61013561028d565b610165610160366004610cdc565b6102ea565b6040516001600160a01b039091168152602001610124565b600154600160a01b900460ff16610118565b6101356102f7565b610135610355565b61013561038a565b6000546001600160a01b0316610165565b6101c06103ec565b604051908152602001610124565b6101356101dc366004610cc1565b6103fd565b6101356101ef366004610cf5565b61045b565b610135610202366004610cc1565b610616565b6001546001600160a01b0316610165565b61013561064a565b60006001600160e01b0319821663d47a1a2760e01b14806102455750610245826106a5565b92915050565b610254336106ca565b565b6000546001600160a01b0316331461028157604051639f216c1360e01b815260040160405180910390fd5b61028a8161073d565b50565b6000546001600160a01b031633146102b857604051639f216c1360e01b815260040160405180910390fd5b600154600160a01b900460ff166102e2576040516324f6d9a360e11b815260040160405180910390fd5b6102546107a9565b6000610245600283610846565b6000546001600160a01b0316331461032257604051639f216c1360e01b815260040160405180910390fd5b6001546001600160a01b031661034b5760405163ecfad6bf60e01b815260040160405180910390fd5b6102546000610852565b6000546001600160a01b0316331461038057604051639f216c1360e01b815260040160405180910390fd5b610254600061089c565b6103956002336108f6565b6103b95760405163450b91b360e11b81523360048201526024015b60405180910390fd5b600154600160a01b900460ff16156103e45760405163fa18e8a360e01b815260040160405180910390fd5b610254610918565b60006103f860026109a0565b905090565b6000546001600160a01b0316331461042857604051639f216c1360e01b815260040160405180910390fd5b6001546001600160a01b0316156104525760405163716b1fbf60e01b815260040160405180910390fd5b61028a81610852565b600154600160a01b900460ff16156104a85760405162461bcd60e51b815260206004820152601060248201526f14185d5cd8589b194e881c185d5cd95960821b60448201526064016103b0565b8060005b818110156106105760008484838181106104c8576104c8610d6a565b9050608002018036038101906104de9190610d80565b90506104ed81600001516109aa565b1561056d57805160208201516040808401519051632142170760e11b81523360048201526001600160a01b03928316602482015260448101919091529116906342842e0e906064015b600060405180830381600087803b15801561055057600080fd5b505af1158015610564573d6000803e3d6000fd5b50505050610607565b805161057890610a1d565b156105e0578051602082015160408084015160608501519151637921219560e11b81523360048201526001600160a01b0393841660248201526044810191909152606481019190915260a06084820152600060a482015291169063f242432a9060c401610536565b8051604051638ac031a160e01b81526001600160a01b0390911660048201526024016103b0565b506001016104ac565b50505050565b6000546001600160a01b0316331461064157604051639f216c1360e01b815260040160405180910390fd5b61028a81610a53565b6001546001600160a01b031633141580610662575033155b1561068057604051633982680960e11b815260040160405180910390fd5b6102543361089c565b600061069e836001600160a01b038416610ac4565b9392505050565b60006001600160e01b031982166345aa0a9f60e01b1480610245575061024582610b13565b6106d5600282610b49565b6106fd576040516357b2ba3b60e01b81526001600160a01b03821660048201526024016103b0565b6040516001600160a01b03821681527fd66e1c004562def51fd78e093eb872abd590ee1776d62efa0c8168f0f25bedac906020015b60405180910390a150565b610748600282610689565b61077057604051630abf5ec960e41b81526001600160a01b03821660048201526024016103b0565b6040516001600160a01b03821681527feab9d6a70f5f6ff36fb4e7d7c5fd6fd92619a212353eaab70320dffa41e5792d90602001610732565b600154600160a01b900460ff166107f95760405162461bcd60e51b815260206004820152601460248201527314185d5cd8589b194e881b9bdd081c185d5cd95960621b60448201526064016103b0565b6001805460ff60a01b191690557f5db9ee0a495bf2e6ff9c91a7834c1ba4fdd244a5e8aa4e537bd38aeae4b073aa335b6040516001600160a01b03909116815260200160405180910390a1565b600061069e8383610b5e565b600180546001600160a01b0319166001600160a01b0383169081179091556040517f68f49b346b94582a8b5f9d10e3fe3365318fe8f191ff8dce7c59c6cad06b02f590600090a250565b600080546001600160a01b038381166001600160a01b031980841682178555600180549091169055604051919092169283917f8be0079c531659141344cd1fd0a4f28419497f9722a3daafe3b4186f6b6457e09190a35050565b6001600160a01b0381166000908152600183016020526040812054151561069e565b600154600160a01b900460ff16156109655760405162461bcd60e51b815260206004820152601060248201526f14185d5cd8589b194e881c185d5cd95960821b60448201526064016103b0565b6001805460ff60a01b1916600160a01b1790557f62e78cea01bee320cd4e420270b5ea74000d11b0c9f74754ebdbfc544b05a2586108293390565b6000610245825490565b6040516301ffc9a760e01b81526380ac58cd60e01b60048201526000906001600160a01b038316906301ffc9a7906024015b602060405180830381865afa1580156109f9573d6000803e3d6000fd5b505050506040513d601f19601f820116820180604052508101906102459190610e00565b6040516301ffc9a760e01b8152636cdb3d1360e11b60048201526000906001600160a01b038316906301ffc9a7906024016109dc565b610a5e600282610b49565b610a86576040516357b2ba3b60e01b81526001600160a01b03821660048201526024016103b0565b604080513381526001600160a01b03831660208201527f6882c6d99f00a0bb4f85b5c1829bca3a8ef01af6a4268c223dc71626f44407799101610732565b6000818152600183016020526040812054610b0b57508154600181810184556000848152602080822090930184905584548482528286019093526040902091909155610245565b506000610245565b60006001600160e01b031982166301ffc9a760e01b148061024557506001600160e01b031982166322d7505760e11b1492915050565b600061069e836001600160a01b038416610b88565b6000826000018281548110610b7557610b75610d6a565b9060005260206000200154905092915050565b60008181526001830160205260408120548015610c71576000610bac600183610e22565b8554909150600090610bc090600190610e22565b9050818114610c25576000866000018281548110610be057610be0610d6a565b9060005260206000200154905080876000018481548110610c0357610c03610d6a565b6000918252602080832090910192909255918252600188019052604090208390555b8554869080610c3657610c36610e47565b600190038181906000526020600020016000905590558560010160008681526020019081526020016000206000905560019350505050610245565b6000915050610245565b600060208284031215610c8d57600080fd5b81356001600160e01b03198116811461069e57600080fd5b80356001600160a01b0381168114610cbc57600080fd5b919050565b600060208284031215610cd357600080fd5b61069e82610ca5565b600060208284031215610cee57600080fd5b5035919050565b60008060208385031215610d0857600080fd5b823567ffffffffffffffff80821115610d2057600080fd5b818501915085601f830112610d3457600080fd5b813581811115610d4357600080fd5b8660208260071b8501011115610d5857600080fd5b60209290920196919550909350505050565b634e487b7160e01b600052603260045260246000fd5b600060808284031215610d9257600080fd5b6040516080810181811067ffffffffffffffff82111715610dc357634e487b7160e01b600052604160045260246000fd5b604052610dcf83610ca5565b8152610ddd60208401610ca5565b602082015260408301356040820152606083013560608201528091505092915050565b600060208284031215610e1257600080fd5b8151801515811461069e57600080fd5b600082821015610e4257634e487b7160e01b600052601160045260246000fd5b500390565b634e487b7160e01b600052603160045260246000fdfea264697066735822122059834d97a2796de0b61e5999f03b14621849adddeed69d37dc78d4e1c280b96864736f6c634300080a0033",
  "devdoc": {
    "kind": "dev",
    "methods": {
      "addPauseAdmin(address)": {
        "details": "Only callable by the owner",
        "params": {
          "_newAdmin": "The address of the new admin to add"
        }
      },
      "batchTransfer((address,address,uint256,uint256)[])": {
        "details": "The function can get paused",
        "params": {
          "_transfers": "The list of transfer. The different nft needs to support either the IERC721 or IERC1155 interface"
        }
      },
      "getNumberOfPauseAdmin()": {
        "returns": {
          "_0": "The number of pause admins"
        }
      },
      "getPauseAdminAt(uint256)": {
        "params": {
          "_index": "The index in the array"
        },
        "returns": {
          "_0": "The address of the admin at index `_index`"
        }
      },
      "owner()": {
        "returns": {
          "_0": "The address of the current owner"
        }
      },
      "pause()": {
        "details": "Only callable by any pause admin"
      },
      "paused()": {
        "details": "Returns true if the contract is paused, and false otherwise."
      },
      "pendingOwner()": {
        "returns": {
          "_0": "The address of the current pending owner"
        }
      },
      "removePauseAdmin(address)": {
        "details": "Only callable by the owner",
        "params": {
          "_admin": "The address of the admin to remove"
        }
      },
      "revokePauseAdmin()": {
        "details": "Only callable by the admin himself"
      },
      "supportsInterface(bytes4)": {
        "details": "Returns true if this contract implements the interface defined by `interfaceId`. See the corresponding https://eips.ethereum.org/EIPS/eip-165#how-interfaces-are-identified[EIP section] to learn more about how these ids are created. This function call must use less than 30 000 gas."
      },
      "unpause()": {
        "details": "Only callable by the owner"
      }
    },
    "title": "BatchTransferNFT",
    "version": 1
  },
  "userdoc": {
    "kind": "user",
    "methods": {
      "addPauseAdmin(address)": {
        "notice": "Function to add a pause admin"
      },
      "batchTransfer((address,address,uint256,uint256)[])": {
        "notice": "Batch transfer different NFT in a single call"
      },
      "becomeOwner()": {
        "notice": "Transfers the ownership to the new owner (`pendingOwner). Can only be called by the pending owner"
      },
      "getNumberOfPauseAdmin()": {
        "notice": "View function to return the number of pause admins"
      },
      "getPauseAdminAt(uint256)": {
        "notice": "View function to return the pause admin at index `_index`"
      },
      "owner()": {
        "notice": "Returns the address of the current owner"
      },
      "pause()": {
        "notice": "Function to pause the contract"
      },
      "pendingOwner()": {
        "notice": "Returns the address of the current pending owner"
      },
      "removePauseAdmin(address)": {
        "notice": "Function to remove a pause admin"
      },
      "renounceOwnership()": {
        "notice": "Leaves the contract without owner. It will not be possible to call `onlyOwner` functions anymore. Can only be called by the current owner. NOTE: Renouncing ownership will leave the contract without an owner, thereby removing any functionality that is only available to the owner."
      },
      "revokePauseAdmin()": {
        "notice": "Function callable by any admin to revoke their role"
      },
      "revokePendingOwner()": {
        "notice": "Revoke the pending owner address. This address will not be able to call {becomeOwner} to become the owner anymore. Can only be called by the owner"
      },
      "setPendingOwner(address)": {
        "notice": "Sets the pending owner address. This address will be able to become the owner of this contract by calling {becomeOwner}"
      },
      "unpause()": {
        "notice": "Function to unpause the contract"
      }
    },
    "notice": "Enables to batch transfer multiple NFTs in a single call to this contract",
    "version": 1
  },
  "storageLayout": {
    "storage": [
      {
        "astId": 9304,
        "contract": "contracts/utils/BatchTransferNFT.sol:BatchTransferNFT",
        "label": "_owner",
        "offset": 0,
        "slot": "0",
        "type": "t_address"
      },
      {
        "astId": 9306,
        "contract": "contracts/utils/BatchTransferNFT.sol:BatchTransferNFT",
        "label": "_pendingOwner",
        "offset": 0,
        "slot": "1",
        "type": "t_address"
      },
      {
        "astId": 700,
        "contract": "contracts/utils/BatchTransferNFT.sol:BatchTransferNFT",
        "label": "_paused",
        "offset": 20,
        "slot": "1",
        "type": "t_bool"
      },
      {
        "astId": 9073,
        "contract": "contracts/utils/BatchTransferNFT.sol:BatchTransferNFT",
        "label": "_pauseAdmins",
        "offset": 0,
        "slot": "2",
        "type": "t_struct(AddressSet)4319_storage"
      }
    ],
    "types": {
      "t_address": {
        "encoding": "inplace",
        "label": "address",
        "numberOfBytes": "20"
      },
      "t_array(t_bytes32)dyn_storage": {
        "base": "t_bytes32",
        "encoding": "dynamic_array",
        "label": "bytes32[]",
        "numberOfBytes": "32"
      },
      "t_bool": {
        "encoding": "inplace",
        "label": "bool",
        "numberOfBytes": "1"
      },
      "t_bytes32": {
        "encoding": "inplace",
        "label": "bytes32",
        "numberOfBytes": "32"
      },
      "t_mapping(t_bytes32,t_uint256)": {
        "encoding": "mapping",
        "key": "t_bytes32",
        "label": "mapping(bytes32 => uint256)",
        "numberOfBytes": "32",
        "value": "t_uint256"
      },
      "t_struct(AddressSet)4319_storage": {
        "encoding": "inplace",
        "label": "struct EnumerableSet.AddressSet",
        "members": [
          {
            "astId": 4318,
            "contract": "contracts/utils/BatchTransferNFT.sol:BatchTransferNFT",
            "label": "_inner",
            "offset": 0,
            "slot": "0",
            "type": "t_struct(Set)4018_storage"
          }
        ],
        "numberOfBytes": "64"
      },
      "t_struct(Set)4018_storage": {
        "encoding": "inplace",
        "label": "struct EnumerableSet.Set",
        "members": [
          {
            "astId": 4013,
            "contract": "contracts/utils/BatchTransferNFT.sol:BatchTransferNFT",
            "label": "_values",
            "offset": 0,
            "slot": "0",
            "type": "t_array(t_bytes32)dyn_storage"
          },
          {
            "astId": 4017,
            "contract": "contracts/utils/BatchTransferNFT.sol:BatchTransferNFT",
            "label": "_indexes",
            "offset": 0,
            "slot": "1",
            "type": "t_mapping(t_bytes32,t_uint256)"
          }
        ],
        "numberOfBytes": "64"
      },
      "t_uint256": {
        "encoding": "inplace",
        "label": "uint256",
        "numberOfBytes": "32"
      }
    }
  }
}