{
  "address": "0x7684769ae591e4cEEA7021D0f88e739D8592Cb04",
  "abi": [
    {
      "inputs": [
        {
          "internalType": "address",
          "name": "nft",
          "type": "address"
        }
      ],
      "name": "BatchTransferNFT__UnsupportedContract",
      "type": "error"
    },
    {
      "inputs": [
        {
          "internalType": "address",
          "name": "sender",
          "type": "address"
        }
      ],
      "name": "PausableAdmin__AddressIsAlreadyPauseAdmin",
      "type": "error"
    },
    {
      "inputs": [
        {
          "internalType": "address",
          "name": "sender",
          "type": "address"
        }
      ],
      "name": "PausableAdmin__AddressIsNotPauseAdmin",
      "type": "error"
    },
    {
      "inputs": [],
      "name": "PausableAdmin__AlreadyPaused",
      "type": "error"
    },
    {
      "inputs": [],
      "name": "PausableAdmin__AlreadyUnpaused",
      "type": "error"
    },
    {
      "inputs": [
        {
          "internalType": "address",
          "name": "sender",
          "type": "address"
        }
      ],
      "name": "PausableAdmin__OnlyPauseAdmin",
      "type": "error"
    },
    {
      "inputs": [],
      "name": "PendingOwnable__NoPendingOwner",
      "type": "error"
    },
    {
      "inputs": [],
      "name": "PendingOwnable__NotOwner",
      "type": "error"
    },
    {
      "inputs": [],
      "name": "PendingOwnable__NotPendingOwner",
      "type": "error"
    },
    {
      "inputs": [],
      "name": "PendingOwnable__PendingOwnerAlreadySet",
      "type": "error"
    },
    {
      "anonymous": false,
      "inputs": [
        {
          "indexed": true,
          "internalType": "address",
          "name": "previousOwner",
          "type": "address"
        },
        {
          "indexed": true,
          "internalType": "address",
          "name": "newOwner",
          "type": "address"
        }
      ],
      "name": "OwnershipTransferred",
      "type": "event"
    },
    {
      "anonymous": false,
      "inputs": [
        {
          "indexed": false,
          "internalType": "address",
          "name": "newAdmin",
          "type": "address"
        }
      ],
      "name": "PauseAdminAdded",
      "type": "event"
    },
    {
      "anonymous": false,
      "inputs": [
        {
          "indexed": false,
          "internalType": "address",
          "name": "sender",
          "type": "address"
        },
        {
          "indexed": false,
          "internalType": "address",
          "name": "removedAdmin",
          "type": "address"
        }
      ],
      "name": "PauseAdminRemoved",
      "type": "event"
    },
    {
      "anonymous": false,
      "inputs": [
        {
          "indexed": false,
          "internalType": "address",
          "name": "account",
          "type": "address"
        }
      ],
      "name": "Paused",
      "type": "event"
    },
    {
      "anonymous": false,
      "inputs": [
        {
          "indexed": true,
          "internalType": "address",
          "name": "pendingOwner",
          "type": "address"
        }
      ],
      "name": "PendingOwnerSet",
      "type": "event"
    },
    {
      "anonymous": false,
      "inputs": [
        {
          "indexed": false,
          "internalType": "address",
          "name": "account",
          "type": "address"
        }
      ],
      "name": "Unpaused",
      "type": "event"
    },
    {
      "inputs": [
        {
          "internalType": "address",
          "name": "_newAdmin",
          "type": "address"
        }
      ],
      "name": "addPauseAdmin",
      "outputs": [],
      "stateMutability": "nonpayable",
      "type": "function"
    },
    {
      "inputs": [
        {
          "components": [
            {
              "internalType": "address",
              "name": "nft",
              "type": "address"
            },
            {
              "internalType": "address",
              "name": "recipient",
              "type": "address"
            },
            {
              "internalType": "uint256",
              "name": "tokenId",
              "type": "uint256"
            },
            {
              "internalType": "uint256",
              "name": "amount",
              "type": "uint256"
            }
          ],
          "internalType": "struct IBatchTransferNFT.Transfer[]",
          "name": "_transfers",
          "type": "tuple[]"
        }
      ],
      "name": "batchTransfer",
      "outputs": [],
      "stateMutability": "nonpayable",
      "type": "function"
    },
    {
      "inputs": [],
      "name": "becomeOwner",
      "outputs": [],
      "stateMutability": "nonpayable",
      "type": "function"
    },
    {
      "inputs": [],
      "name": "getNumberOfPauseAdmin",
      "outputs": [
        {
          "internalType": "uint256",
          "name": "",
          "type": "uint256"
        }
      ],
      "stateMutability": "view",
      "type": "function"
    },
    {
      "inputs": [
        {
          "internalType": "uint256",
          "name": "_index",
          "type": "uint256"
        }
      ],
      "name": "getPauseAdminAt",
      "outputs": [
        {
          "internalType": "address",
          "name": "",
          "type": "address"
        }
      ],
      "stateMutability": "view",
      "type": "function"
    },
    {
      "inputs": [
        {
          "internalType": "address",
          "name": "_user",
          "type": "address"
        }
      ],
      "name": "isPauseAdmin",
      "outputs": [
        {
          "internalType": "bool",
          "name": "",
          "type": "bool"
        }
      ],
      "stateMutability": "view",
      "type": "function"
    },
    {
      "inputs": [],
      "name": "owner",
      "outputs": [
        {
          "internalType": "address",
          "name": "",
          "type": "address"
        }
      ],
      "stateMutability": "view",
      "type": "function"
    },
    {
      "inputs": [],
      "name": "pause",
      "outputs": [],
      "stateMutability": "nonpayable",
      "type": "function"
    },
    {
      "inputs": [],
      "name": "paused",
      "outputs": [
        {
          "internalType": "bool",
          "name": "",
          "type": "bool"
        }
      ],
      "stateMutability": "view",
      "type": "function"
    },
    {
      "inputs": [],
      "name": "pendingOwner",
      "outputs": [
        {
          "internalType": "address",
          "name": "",
          "type": "address"
        }
      ],
      "stateMutability": "view",
      "type": "function"
    },
    {
      "inputs": [
        {
          "internalType": "address",
          "name": "_admin",
          "type": "address"
        }
      ],
      "name": "removePauseAdmin",
      "outputs": [],
      "stateMutability": "nonpayable",
      "type": "function"
    },
    {
      "inputs": [],
      "name": "renounceOwnership",
      "outputs": [],
      "stateMutability": "nonpayable",
      "type": "function"
    },
    {
      "inputs": [],
      "name": "renouncePauseAdmin",
      "outputs": [],
      "stateMutability": "nonpayable",
      "type": "function"
    },
    {
      "inputs": [],
      "name": "revokePendingOwner",
      "outputs": [],
      "stateMutability": "nonpayable",
      "type": "function"
    },
    {
      "inputs": [
        {
          "internalType": "address",
          "name": "pendingOwner_",
          "type": "address"
        }
      ],
      "name": "setPendingOwner",
      "outputs": [],
      "stateMutability": "nonpayable",
      "type": "function"
    },
    {
      "inputs": [
        {
          "internalType": "bytes4",
          "name": "interfaceId",
          "type": "bytes4"
        }
      ],
      "name": "supportsInterface",
      "outputs": [
        {
          "internalType": "bool",
          "name": "",
          "type": "bool"
        }
      ],
      "stateMutability": "pure",
      "type": "function"
    },
    {
      "inputs": [],
      "name": "unpause",
      "outputs": [],
      "stateMutability": "nonpayable",
      "type": "function"
    }
  ],
  "transactionHash": "0x900d9d55c4815058c6410542cd59e90275a0a768f5abc1fee93036bbb32f5b10",
  "args": [],
  "numDeployments": 1,
  "solcInputHash": "e10b1addd71e6206194d293758a6bd5a",
  "bytecode": "0x608060405234801561001057600080fd5b5061001a33610035565b6001805460ff60a01b191690556100303361008f565b61017f565b600080546001600160a01b038381166001600160a01b031980841682178555600180549091169055604051919092169283917f8be0079c531659141344cd1fd0a4f28419497f9722a3daafe3b4186f6b6457e09190a35050565b6100a781600261011260201b6106ba1790919060201c565b6100d357604051630abf5ec960e41b81526001600160a01b038216600482015260240160405180910390fd5b6040516001600160a01b03821681527feab9d6a70f5f6ff36fb4e7d7c5fd6fd92619a212353eaab70320dffa41e5792d9060200160405180910390a150565b6000610127836001600160a01b038416610130565b90505b92915050565b60008181526001830160205260408120546101775750815460018181018455600084815260208082209093018490558454848252828601909352604090209190915561012a565b50600061012a565b610e928061018e6000396000f3fe608060405234801561001057600080fd5b506004361061010b5760003560e01c80638da5cb5b116100a2578063d28cf52611610071578063d28cf526146101f7578063d47a1a27146101ff578063dabbe09114610212578063e30c397814610225578063f9dca9891461023657600080fd5b80638da5cb5b146101aa578063b6028c65146101bb578063c19e11ee146101ce578063c42069ec146101e457600080fd5b80635c975abb116100de5780635c975abb1461018057806367ab8a4e14610192578063715018a61461019a5780638456cb59146101a257600080fd5b806301ffc9a7146101105780631cd36796146101385780633f4ba83a1461014d5780634e07ad3c14610155575b600080fd5b61012361011e366004610c7a565b61023e565b60405190151581526020015b60405180910390f35b61014b610146366004610cc0565b610269565b005b61014b6102a0565b610168610163366004610cdb565b6102ff565b6040516001600160a01b03909116815260200161012f565b600154600160a01b900460ff16610123565b61014b61030c565b61014b61036a565b61014b61039f565b6000546001600160a01b0316610168565b6101236101c9366004610cc0565b610401565b6101d661040e565b60405190815260200161012f565b61014b6101f2366004610cc0565b61041f565b61014b61047d565b61014b61020d366004610cf4565b610486565b61014b610220366004610cc0565b610641565b6001546001600160a01b0316610168565b61014b610675565b60006001600160e01b0319821663d47a1a2760e01b14806102635750610263826106d6565b92915050565b6000546001600160a01b0316331461029457604051639f216c1360e01b815260040160405180910390fd5b61029d816106fb565b50565b6000546001600160a01b031633146102cb57604051639f216c1360e01b815260040160405180910390fd5b600154600160a01b900460ff166102f5576040516324f6d9a360e11b815260040160405180910390fd5b6102fd61076e565b565b600061026360028361080b565b6000546001600160a01b0316331461033757604051639f216c1360e01b815260040160405180910390fd5b6001546001600160a01b03166103605760405163ecfad6bf60e01b815260040160405180910390fd5b6102fd6000610817565b6000546001600160a01b0316331461039557604051639f216c1360e01b815260040160405180910390fd5b6102fd6000610861565b6103aa6002336108bb565b6103ce5760405163450b91b360e11b81523360048201526024015b60405180910390fd5b600154600160a01b900460ff16156103f95760405163fa18e8a360e01b815260040160405180910390fd5b6102fd6108dd565b60006102636002836108bb565b600061041a6002610965565b905090565b6000546001600160a01b0316331461044a57604051639f216c1360e01b815260040160405180910390fd5b6001546001600160a01b0316156104745760405163716b1fbf60e01b815260040160405180910390fd5b61029d81610817565b6102fd3361096f565b600154600160a01b900460ff16156104d35760405162461bcd60e51b815260206004820152601060248201526f14185d5cd8589b194e881c185d5cd95960821b60448201526064016103c5565b8060005b8181101561063b5760008484838181106104f3576104f3610d69565b9050608002018036038101906105099190610d7f565b905061051881600001516109e0565b1561059857805160208201516040808401519051632142170760e11b81523360048201526001600160a01b03928316602482015260448101919091529116906342842e0e906064015b600060405180830381600087803b15801561057b57600080fd5b505af115801561058f573d6000803e3d6000fd5b50505050610632565b80516105a390610a53565b1561060b578051602082015160408084015160608501519151637921219560e11b81523360048201526001600160a01b0393841660248201526044810191909152606481019190915260a06084820152600060a482015291169063f242432a9060c401610561565b8051604051638ac031a160e01b81526001600160a01b0390911660048201526024016103c5565b506001016104d7565b50505050565b6000546001600160a01b0316331461066c57604051639f216c1360e01b815260040160405180910390fd5b61029d8161096f565b6000546001600160a01b031661068c6002336108bb565b61069957610699336106fb565b6106a46002826108bb565b156106b2576106b28161096f565b61029d610a89565b60006106cf836001600160a01b038416610ac8565b9392505050565b60006001600160e01b031982166316bfa14b60e11b1480610263575061026382610b17565b6107066002826106ba565b61072e57604051630abf5ec960e41b81526001600160a01b03821660048201526024016103c5565b6040516001600160a01b03821681527feab9d6a70f5f6ff36fb4e7d7c5fd6fd92619a212353eaab70320dffa41e5792d906020015b60405180910390a150565b600154600160a01b900460ff166107be5760405162461bcd60e51b815260206004820152601460248201527314185d5cd8589b194e881b9bdd081c185d5cd95960621b60448201526064016103c5565b6001805460ff60a01b191690557f5db9ee0a495bf2e6ff9c91a7834c1ba4fdd244a5e8aa4e537bd38aeae4b073aa335b6040516001600160a01b03909116815260200160405180910390a1565b60006106cf8383610b4d565b600180546001600160a01b0319166001600160a01b0383169081179091556040517f68f49b346b94582a8b5f9d10e3fe3365318fe8f191ff8dce7c59c6cad06b02f590600090a250565b600080546001600160a01b038381166001600160a01b031980841682178555600180549091169055604051919092169283917f8be0079c531659141344cd1fd0a4f28419497f9722a3daafe3b4186f6b6457e09190a35050565b6001600160a01b038116600090815260018301602052604081205415156106cf565b600154600160a01b900460ff161561092a5760405162461bcd60e51b815260206004820152601060248201526f14185d5cd8589b194e881c185d5cd95960821b60448201526064016103c5565b6001805460ff60a01b1916600160a01b1790557f62e78cea01bee320cd4e420270b5ea74000d11b0c9f74754ebdbfc544b05a2586107ee3390565b6000610263825490565b61097a600282610b77565b6109a2576040516357b2ba3b60e01b81526001600160a01b03821660048201526024016103c5565b604080513381526001600160a01b03831660208201527f6882c6d99f00a0bb4f85b5c1829bca3a8ef01af6a4268c223dc71626f44407799101610763565b6040516301ffc9a760e01b81526380ac58cd60e01b60048201526000906001600160a01b038316906301ffc9a7906024015b602060405180830381865afa158015610a2f573d6000803e3d6000fd5b505050506040513d601f19601f820116820180604052508101906102639190610dff565b6040516301ffc9a760e01b8152636cdb3d1360e11b60048201526000906001600160a01b038316906301ffc9a790602401610a12565b6001546001600160a01b031633141580610aa1575033155b15610abf57604051633982680960e11b815260040160405180910390fd5b6102fd33610861565b6000818152600183016020526040812054610b0f57508154600181810184556000848152602080822090930184905584548482528286019093526040902091909155610263565b506000610263565b60006001600160e01b031982166301ffc9a760e01b148061026357506001600160e01b031982166322d7505760e11b1492915050565b6000826000018281548110610b6457610b64610d69565b9060005260206000200154905092915050565b60006106cf836001600160a01b03841660008181526001830160205260408120548015610c70576000610bab600183610e21565b8554909150600090610bbf90600190610e21565b9050818114610c24576000866000018281548110610bdf57610bdf610d69565b9060005260206000200154905080876000018481548110610c0257610c02610d69565b6000918252602080832090910192909255918252600188019052604090208390555b8554869080610c3557610c35610e46565b600190038181906000526020600020016000905590558560010160008681526020019081526020016000206000905560019350505050610263565b6000915050610263565b600060208284031215610c8c57600080fd5b81356001600160e01b0319811681146106cf57600080fd5b80356001600160a01b0381168114610cbb57600080fd5b919050565b600060208284031215610cd257600080fd5b6106cf82610ca4565b600060208284031215610ced57600080fd5b5035919050565b60008060208385031215610d0757600080fd5b823567ffffffffffffffff80821115610d1f57600080fd5b818501915085601f830112610d3357600080fd5b813581811115610d4257600080fd5b8660208260071b8501011115610d5757600080fd5b60209290920196919550909350505050565b634e487b7160e01b600052603260045260246000fd5b600060808284031215610d9157600080fd5b6040516080810181811067ffffffffffffffff82111715610dc257634e487b7160e01b600052604160045260246000fd5b604052610dce83610ca4565b8152610ddc60208401610ca4565b602082015260408301356040820152606083013560608201528091505092915050565b600060208284031215610e1157600080fd5b815180151581146106cf57600080fd5b600082821015610e4157634e487b7160e01b600052601160045260246000fd5b500390565b634e487b7160e01b600052603160045260246000fdfea264697066735822122018c84187f1f68452828eca3d278f828840824ee861d37b1447218b397fb8275b64736f6c634300080a0033",
  "devdoc": {
    "kind": "dev",
    "methods": {
      "addPauseAdmin(address)": {
        "details": "Only callable by the owner",
        "params": {
          "_newAdmin": "The address of the new admin to add"
        }
      },
      "batchTransfer((address,address,uint256,uint256)[])": {
        "details": "The function can get paused",
        "params": {
          "_transfers": "The list of transfer. The different nft needs to support either the IERC721 or IERC1155 interface"
        }
      },
      "getNumberOfPauseAdmin()": {
        "returns": {
          "_0": "The number of pause admins"
        }
      },
      "getPauseAdminAt(uint256)": {
        "params": {
          "_index": "The index in the array"
        },
        "returns": {
          "_0": "The address of the admin at index `_index`"
        }
      },
      "isPauseAdmin(address)": {
        "params": {
          "_user": "The address of the user"
        },
        "returns": {
          "_0": "Whether the user is an admin (true) or not (false)"
        }
      },
      "owner()": {
        "returns": {
          "_0": "The address of the current owner"
        }
      },
      "pause()": {
        "details": "Only callable by any pause admin"
      },
      "paused()": {
        "details": "Returns true if the contract is paused, and false otherwise."
      },
      "pendingOwner()": {
        "returns": {
          "_0": "The address of the current pending owner"
        }
      },
      "removePauseAdmin(address)": {
        "details": "Only callable by the owner",
        "params": {
          "_admin": "The address of the admin to remove"
        }
      },
      "renouncePauseAdmin()": {
        "details": "Only callable by the admin himself"
      },
      "supportsInterface(bytes4)": {
        "details": "Returns true if this contract implements the interface defined by `interfaceId`. See the corresponding https://eips.ethereum.org/EIPS/eip-165#how-interfaces-are-identified[EIP section] to learn more about how these ids are created. This function call must use less than 30 000 gas."
      },
      "unpause()": {
        "details": "Only callable by the owner"
      }
    },
    "title": "BatchTransferNFT",
    "version": 1
  },
  "userdoc": {
    "kind": "user",
    "methods": {
      "addPauseAdmin(address)": {
        "notice": "Function to add a pause admin"
      },
      "batchTransfer((address,address,uint256,uint256)[])": {
        "notice": "Batch transfer different NFT in a single call"
      },
      "becomeOwner()": {
        "notice": "Transfers the ownership to the new owner (`pendingOwner`). This will also remove the previousOwner of PauseAdmin and add the new owner. Can only be called by the pending owner (checked within the `super.becomeOwner()`)"
      },
      "getNumberOfPauseAdmin()": {
        "notice": "View function to return the number of pause admins"
      },
      "getPauseAdminAt(uint256)": {
        "notice": "View function to return the pause admin at index `_index`"
      },
      "isPauseAdmin(address)": {
        "notice": "View function to check whether a user is an admin (true) or not (false)"
      },
      "owner()": {
        "notice": "Returns the address of the current owner"
      },
      "pause()": {
        "notice": "Function to pause the contract"
      },
      "pendingOwner()": {
        "notice": "Returns the address of the current pending owner"
      },
      "removePauseAdmin(address)": {
        "notice": "Function to remove a pause admin"
      },
      "renounceOwnership()": {
        "notice": "Leaves the contract without owner. It will not be possible to call `onlyOwner` functions anymore. Can only be called by the current owner. NOTE: Renouncing ownership will leave the contract without an owner, thereby removing any functionality that is only available to the owner."
      },
      "renouncePauseAdmin()": {
        "notice": "Function callable by any admin to renounce their role"
      },
      "revokePendingOwner()": {
        "notice": "Revoke the pending owner address. This address will not be able to call {becomeOwner} to become the owner anymore. Can only be called by the owner"
      },
      "setPendingOwner(address)": {
        "notice": "Sets the pending owner address. This address will be able to become the owner of this contract by calling {becomeOwner}"
      },
      "unpause()": {
        "notice": "Function to unpause the contract"
      }
    },
    "notice": "Enables to batch transfer multiple NFTs in a single call to this contract",
    "version": 1
  },
  "storageLayout": {
    "storage": [
      {
        "astId": 9340,
        "contract": "contracts/utils/BatchTransferNFT.sol:BatchTransferNFT",
        "label": "_owner",
        "offset": 0,
        "slot": "0",
        "type": "t_address"
      },
      {
        "astId": 9342,
        "contract": "contracts/utils/BatchTransferNFT.sol:BatchTransferNFT",
        "label": "_pendingOwner",
        "offset": 0,
        "slot": "1",
        "type": "t_address"
      },
      {
        "astId": 700,
        "contract": "contracts/utils/BatchTransferNFT.sol:BatchTransferNFT",
        "label": "_paused",
        "offset": 20,
        "slot": "1",
        "type": "t_bool"
      },
      {
        "astId": 9076,
        "contract": "contracts/utils/BatchTransferNFT.sol:BatchTransferNFT",
        "label": "_pauseAdmins",
        "offset": 0,
        "slot": "2",
        "type": "t_struct(AddressSet)4319_storage"
      }
    ],
    "types": {
      "t_address": {
        "encoding": "inplace",
        "label": "address",
        "numberOfBytes": "20"
      },
      "t_array(t_bytes32)dyn_storage": {
        "base": "t_bytes32",
        "encoding": "dynamic_array",
        "label": "bytes32[]",
        "numberOfBytes": "32"
      },
      "t_bool": {
        "encoding": "inplace",
        "label": "bool",
        "numberOfBytes": "1"
      },
      "t_bytes32": {
        "encoding": "inplace",
        "label": "bytes32",
        "numberOfBytes": "32"
      },
      "t_mapping(t_bytes32,t_uint256)": {
        "encoding": "mapping",
        "key": "t_bytes32",
        "label": "mapping(bytes32 => uint256)",
        "numberOfBytes": "32",
        "value": "t_uint256"
      },
      "t_struct(AddressSet)4319_storage": {
        "encoding": "inplace",
        "label": "struct EnumerableSet.AddressSet",
        "members": [
          {
            "astId": 4318,
            "contract": "contracts/utils/BatchTransferNFT.sol:BatchTransferNFT",
            "label": "_inner",
            "offset": 0,
            "slot": "0",
            "type": "t_struct(Set)4018_storage"
          }
        ],
        "numberOfBytes": "64"
      },
      "t_struct(Set)4018_storage": {
        "encoding": "inplace",
        "label": "struct EnumerableSet.Set",
        "members": [
          {
            "astId": 4013,
            "contract": "contracts/utils/BatchTransferNFT.sol:BatchTransferNFT",
            "label": "_values",
            "offset": 0,
            "slot": "0",
            "type": "t_array(t_bytes32)dyn_storage"
          },
          {
            "astId": 4017,
            "contract": "contracts/utils/BatchTransferNFT.sol:BatchTransferNFT",
            "label": "_indexes",
            "offset": 0,
            "slot": "1",
            "type": "t_mapping(t_bytes32,t_uint256)"
          }
        ],
        "numberOfBytes": "64"
      },
      "t_uint256": {
        "encoding": "inplace",
        "label": "uint256",
        "numberOfBytes": "32"
      }
    }
  }
}