{
  "address": "0x70bFe6C82DaE3993De108d3932D0750C32728f76",
  "abi": [
    {
      "anonymous": false,
      "inputs": [
        {
          "indexed": true,
          "internalType": "address",
          "name": "strategy",
          "type": "address"
        }
      ],
      "name": "NewCollectionBidStrategy",
      "type": "event"
    },
    {
      "anonymous": false,
      "inputs": [
        {
          "indexed": true,
          "internalType": "address",
          "name": "previousOwner",
          "type": "address"
        },
        {
          "indexed": true,
          "internalType": "address",
          "name": "newOwner",
          "type": "address"
        }
      ],
      "name": "OwnershipTransferred",
      "type": "event"
    },
    {
      "anonymous": false,
      "inputs": [
        {
          "indexed": true,
          "internalType": "address",
          "name": "strategy",
          "type": "address"
        }
      ],
      "name": "StrategyRemoved",
      "type": "event"
    },
    {
      "anonymous": false,
      "inputs": [
        {
          "indexed": true,
          "internalType": "address",
          "name": "strategy",
          "type": "address"
        }
      ],
      "name": "StrategyWhitelisted",
      "type": "event"
    },
    {
      "inputs": [
        {
          "internalType": "address",
          "name": "strategy",
          "type": "address"
        }
      ],
      "name": "addStrategy",
      "outputs": [],
      "stateMutability": "nonpayable",
      "type": "function"
    },
    {
      "inputs": [],
      "name": "initialize",
      "outputs": [],
      "stateMutability": "nonpayable",
      "type": "function"
    },
    {
      "inputs": [
        {
          "internalType": "address",
          "name": "strategy",
          "type": "address"
        }
      ],
      "name": "isStrategyWhitelisted",
      "outputs": [
        {
          "internalType": "bool",
          "name": "",
          "type": "bool"
        }
      ],
      "stateMutability": "view",
      "type": "function"
    },
    {
      "inputs": [],
      "name": "owner",
      "outputs": [
        {
          "internalType": "address",
          "name": "",
          "type": "address"
        }
      ],
      "stateMutability": "view",
      "type": "function"
    },
    {
      "inputs": [
        {
          "internalType": "address",
          "name": "strategy",
          "type": "address"
        }
      ],
      "name": "removeStrategy",
      "outputs": [],
      "stateMutability": "nonpayable",
      "type": "function"
    },
    {
      "inputs": [],
      "name": "renounceOwnership",
      "outputs": [],
      "stateMutability": "nonpayable",
      "type": "function"
    },
    {
      "inputs": [
        {
          "internalType": "address",
          "name": "newOwner",
          "type": "address"
        }
      ],
      "name": "transferOwnership",
      "outputs": [],
      "stateMutability": "nonpayable",
      "type": "function"
    },
    {
      "inputs": [],
      "name": "viewCountWhitelistedStrategies",
      "outputs": [
        {
          "internalType": "uint256",
          "name": "",
          "type": "uint256"
        }
      ],
      "stateMutability": "view",
      "type": "function"
    },
    {
      "inputs": [
        {
          "internalType": "uint256",
          "name": "cursor",
          "type": "uint256"
        },
        {
          "internalType": "uint256",
          "name": "size",
          "type": "uint256"
        }
      ],
      "name": "viewWhitelistedStrategies",
      "outputs": [
        {
          "internalType": "address[]",
          "name": "",
          "type": "address[]"
        },
        {
          "internalType": "uint256",
          "name": "",
          "type": "uint256"
        }
      ],
      "stateMutability": "view",
      "type": "function"
    }
  ],
  "transactionHash": "0xbd55bc2d73f6da1346efdb250aae1776081faea96c9fbbaa6a7fb1d86711c649",
  "args": [],
  "numDeployments": 1,
  "solcInputHash": "74ac0471e0eeac02914c4a972d6a0330",
  "bytecode": "0x608060405234801561001057600080fd5b50610a11806100206000396000f3fe608060405234801561001057600080fd5b50600436106100935760003560e01c80638129fc1c116100665780638129fc1c146100f25780638da5cb5b146100fa578063985e3a2f14610115578063999ba27c1461012b578063f2fde38b1461014e57600080fd5b8063175188e814610098578063223e5479146100ad57806331fb5b1f146100c0578063715018a6146100ea575b600080fd5b6100ab6100a636600461081d565b610161565b005b6100ab6100bb36600461081d565b61022e565b6100d36100ce366004610846565b6102f3565b6040516100e1929190610868565b60405180910390f35b6100ab6103e8565b6100ab61041e565b6033546040516001600160a01b0390911681526020016100e1565b61011d6104df565b6040519081526020016100e1565b61013e61013936600461081d565b6104f0565b60405190151581526020016100e1565b6100ab61015c36600461081d565b610503565b6033546001600160a01b031633146101945760405162461bcd60e51b815260040161018b906108b9565b60405180910390fd5b61019f60658261059b565b6101eb5760405162461bcd60e51b815260206004820152601960248201527f53747261746567793a204e6f742077686974656c697374656400000000000000604482015260640161018b565b6101f66065826105c0565b506040516001600160a01b038216907f09a1db4b80c32706328728508c941a6b954f31eb5affd32f236c1fd405f8fea490600090a250565b6033546001600160a01b031633146102585760405162461bcd60e51b815260040161018b906108b9565b61026360658261059b565b156102b05760405162461bcd60e51b815260206004820152601d60248201527f53747261746567793a20416c72656164792077686974656c6973746564000000604482015260640161018b565b6102bb6065826105d5565b506040516001600160a01b038216907f6b583e2e3ad2e182671d77905fee57b1ffd8ce2aa5c0b652ca029317919751a490600090a250565b60606000828461030360656105ea565b61030d9190610904565b81111561032c578461031f60656105ea565b6103299190610904565b90505b60008167ffffffffffffffff8111156103475761034761091b565b604051908082528060200260200182016040528015610370578160200160208202803683370190505b50905060005b828110156103cf5761039361038b8289610931565b6065906105f4565b8282815181106103a5576103a5610949565b6001600160a01b0390921660209283029190910190910152806103c78161095f565b915050610376565b50806103db8388610931565b9350935050509250929050565b6033546001600160a01b031633146104125760405162461bcd60e51b815260040161018b906108b9565b61041c6000610600565b565b600054610100900460ff166104395760005460ff161561043d565b303b155b6104a05760405162461bcd60e51b815260206004820152602e60248201527f496e697469616c697a61626c653a20636f6e747261637420697320616c72656160448201526d191e481a5b9a5d1a585b1a5e995960921b606482015260840161018b565b600054610100900460ff161580156104c2576000805461ffff19166101011790555b6104ca610652565b80156104dc576000805461ff00191690555b50565b60006104eb60656105ea565b905090565b60006104fd60658361059b565b92915050565b6033546001600160a01b0316331461052d5760405162461bcd60e51b815260040161018b906108b9565b6001600160a01b0381166105925760405162461bcd60e51b815260206004820152602660248201527f4f776e61626c653a206e6577206f776e657220697320746865207a65726f206160448201526564647265737360d01b606482015260840161018b565b6104dc81610600565b6001600160a01b038116600090815260018301602052604081205415155b9392505050565b60006105b9836001600160a01b038416610681565b60006105b9836001600160a01b038416610774565b60006104fd825490565b60006105b983836107c3565b603380546001600160a01b038381166001600160a01b0319831681179093556040519116919082907f8be0079c531659141344cd1fd0a4f28419497f9722a3daafe3b4186f6b6457e090600090a35050565b600054610100900460ff166106795760405162461bcd60e51b815260040161018b9061097a565b61041c6107ed565b6000818152600183016020526040812054801561076a5760006106a5600183610904565b85549091506000906106b990600190610904565b905081811461071e5760008660000182815481106106d9576106d9610949565b90600052602060002001549050808760000184815481106106fc576106fc610949565b6000918252602080832090910192909255918252600188019052604090208390555b855486908061072f5761072f6109c5565b6001900381819060005260206000200160009055905585600101600086815260200190815260200160002060009055600193505050506104fd565b60009150506104fd565b60008181526001830160205260408120546107bb575081546001818101845560008481526020808220909301849055845484825282860190935260409020919091556104fd565b5060006104fd565b60008260000182815481106107da576107da610949565b9060005260206000200154905092915050565b600054610100900460ff166108145760405162461bcd60e51b815260040161018b9061097a565b61041c33610600565b60006020828403121561082f57600080fd5b81356001600160a01b03811681146105b957600080fd5b6000806040838503121561085957600080fd5b50508035926020909101359150565b604080825283519082018190526000906020906060840190828701845b828110156108aa5781516001600160a01b031684529284019290840190600101610885565b50505092019290925292915050565b6020808252818101527f4f776e61626c653a2063616c6c6572206973206e6f7420746865206f776e6572604082015260600190565b634e487b7160e01b600052601160045260246000fd5b600082821015610916576109166108ee565b500390565b634e487b7160e01b600052604160045260246000fd5b60008219821115610944576109446108ee565b500190565b634e487b7160e01b600052603260045260246000fd5b6000600019821415610973576109736108ee565b5060010190565b6020808252602b908201527f496e697469616c697a61626c653a20636f6e7472616374206973206e6f74206960408201526a6e697469616c697a696e6760a81b606082015260800190565b634e487b7160e01b600052603160045260246000fdfea2646970667358221220ce1c6d5e88dc300744395ddafb58a3b467ff232eed9b481692b5a47c7e8d1c8364736f6c634300080a0033",
  "devdoc": {
    "kind": "dev",
    "methods": {
      "addStrategy(address)": {
        "params": {
          "strategy": "address of the strategy to add"
        }
      },
      "isStrategyWhitelisted(address)": {
        "params": {
          "strategy": "address of the strategy"
        }
      },
      "owner()": {
        "details": "Returns the address of the current owner."
      },
      "removeStrategy(address)": {
        "params": {
          "strategy": "address of the strategy to remove"
        }
      },
      "renounceOwnership()": {
        "details": "Leaves the contract without owner. It will not be possible to call `onlyOwner` functions anymore. Can only be called by the current owner. NOTE: Renouncing ownership will leave the contract without an owner, thereby removing any functionality that is only available to the owner."
      },
      "transferOwnership(address)": {
        "details": "Transfers ownership of the contract to a new account (`newOwner`). Can only be called by the current owner."
      },
      "viewWhitelistedStrategies(uint256,uint256)": {
        "params": {
          "cursor": "cursor (should start at 0 for first request)",
          "size": "size of the response (e.g., 50)"
        }
      }
    },
    "title": "ExecutionManager",
    "version": 1
  },
  "userdoc": {
    "kind": "user",
    "methods": {
      "addStrategy(address)": {
        "notice": "Add an execution strategy in the system"
      },
      "isStrategyWhitelisted(address)": {
        "notice": "Returns if an execution strategy is in the system"
      },
      "removeStrategy(address)": {
        "notice": "Remove an execution strategy from the system"
      },
      "viewCountWhitelistedStrategies()": {
        "notice": "View number of whitelisted strategies"
      },
      "viewWhitelistedStrategies(uint256,uint256)": {
        "notice": "See whitelisted strategies in the system"
      }
    },
    "notice": "It allows adding/removing execution strategies for trading on the Joepeg exchange.",
    "version": 1
  },
  "storageLayout": {
    "storage": [
      {
        "astId": 130,
        "contract": "contracts/ExecutionManager.sol:ExecutionManager",
        "label": "_initialized",
        "offset": 0,
        "slot": "0",
        "type": "t_bool"
      },
      {
        "astId": 133,
        "contract": "contracts/ExecutionManager.sol:ExecutionManager",
        "label": "_initializing",
        "offset": 1,
        "slot": "0",
        "type": "t_bool"
      },
      {
        "astId": 540,
        "contract": "contracts/ExecutionManager.sol:ExecutionManager",
        "label": "__gap",
        "offset": 0,
        "slot": "1",
        "type": "t_array(t_uint256)50_storage"
      },
      {
        "astId": 10,
        "contract": "contracts/ExecutionManager.sol:ExecutionManager",
        "label": "_owner",
        "offset": 0,
        "slot": "51",
        "type": "t_address"
      },
      {
        "astId": 122,
        "contract": "contracts/ExecutionManager.sol:ExecutionManager",
        "label": "__gap",
        "offset": 0,
        "slot": "52",
        "type": "t_array(t_uint256)49_storage"
      },
      {
        "astId": 3588,
        "contract": "contracts/ExecutionManager.sol:ExecutionManager",
        "label": "_whitelistedStrategies",
        "offset": 0,
        "slot": "101",
        "type": "t_struct(AddressSet)3075_storage"
      }
    ],
    "types": {
      "t_address": {
        "encoding": "inplace",
        "label": "address",
        "numberOfBytes": "20"
      },
      "t_array(t_bytes32)dyn_storage": {
        "base": "t_bytes32",
        "encoding": "dynamic_array",
        "label": "bytes32[]",
        "numberOfBytes": "32"
      },
      "t_array(t_uint256)49_storage": {
        "base": "t_uint256",
        "encoding": "inplace",
        "label": "uint256[49]",
        "numberOfBytes": "1568"
      },
      "t_array(t_uint256)50_storage": {
        "base": "t_uint256",
        "encoding": "inplace",
        "label": "uint256[50]",
        "numberOfBytes": "1600"
      },
      "t_bool": {
        "encoding": "inplace",
        "label": "bool",
        "numberOfBytes": "1"
      },
      "t_bytes32": {
        "encoding": "inplace",
        "label": "bytes32",
        "numberOfBytes": "32"
      },
      "t_mapping(t_bytes32,t_uint256)": {
        "encoding": "mapping",
        "key": "t_bytes32",
        "label": "mapping(bytes32 => uint256)",
        "numberOfBytes": "32",
        "value": "t_uint256"
      },
      "t_struct(AddressSet)3075_storage": {
        "encoding": "inplace",
        "label": "struct EnumerableSet.AddressSet",
        "members": [
          {
            "astId": 3074,
            "contract": "contracts/ExecutionManager.sol:ExecutionManager",
            "label": "_inner",
            "offset": 0,
            "slot": "0",
            "type": "t_struct(Set)2774_storage"
          }
        ],
        "numberOfBytes": "64"
      },
      "t_struct(Set)2774_storage": {
        "encoding": "inplace",
        "label": "struct EnumerableSet.Set",
        "members": [
          {
            "astId": 2769,
            "contract": "contracts/ExecutionManager.sol:ExecutionManager",
            "label": "_values",
            "offset": 0,
            "slot": "0",
            "type": "t_array(t_bytes32)dyn_storage"
          },
          {
            "astId": 2773,
            "contract": "contracts/ExecutionManager.sol:ExecutionManager",
            "label": "_indexes",
            "offset": 0,
            "slot": "1",
            "type": "t_mapping(t_bytes32,t_uint256)"
          }
        ],
        "numberOfBytes": "64"
      },
      "t_uint256": {
        "encoding": "inplace",
        "label": "uint256",
        "numberOfBytes": "32"
      }
    }
  }
}