{
  "address": "0x08FdaDD9b2325Be86Cec83C0e8031839a76D6818",
  "abi": [
    {
      "inputs": [
        {
          "internalType": "address",
          "name": "_wavax",
          "type": "address"
        }
      ],
      "stateMutability": "nonpayable",
      "type": "constructor"
    },
    {
      "inputs": [],
      "name": "JoepegAuctionHouse__AuctionAlreadyExists",
      "type": "error"
    },
    {
      "inputs": [],
      "name": "JoepegAuctionHouse__CurrencyMismatch",
      "type": "error"
    },
    {
      "inputs": [],
      "name": "JoepegAuctionHouse__DutchAuctionCannotSettleUnstartedAuction",
      "type": "error"
    },
    {
      "inputs": [],
      "name": "JoepegAuctionHouse__DutchAuctionCreatorCannotSettle",
      "type": "error"
    },
    {
      "inputs": [],
      "name": "JoepegAuctionHouse__DutchAuctionInvalidStartEndPrice",
      "type": "error"
    },
    {
      "inputs": [],
      "name": "JoepegAuctionHouse__EnglishAuctionCannotBidOnEndedAuction",
      "type": "error"
    },
    {
      "inputs": [],
      "name": "JoepegAuctionHouse__EnglishAuctionCannotBidOnUnstartedAuction",
      "type": "error"
    },
    {
      "inputs": [],
      "name": "JoepegAuctionHouse__EnglishAuctionCannotCancelWithExistingBid",
      "type": "error"
    },
    {
      "inputs": [],
      "name": "JoepegAuctionHouse__EnglishAuctionCannotSettleUnstartedAuction",
      "type": "error"
    },
    {
      "inputs": [],
      "name": "JoepegAuctionHouse__EnglishAuctionCannotSettleWithoutBid",
      "type": "error"
    },
    {
      "inputs": [],
      "name": "JoepegAuctionHouse__EnglishAuctionCreatorCannotPlaceBid",
      "type": "error"
    },
    {
      "inputs": [],
      "name": "JoepegAuctionHouse__EnglishAuctionInsufficientBidAmount",
      "type": "error"
    },
    {
      "inputs": [],
      "name": "JoepegAuctionHouse__EnglishAuctionInvalidMinBidIncrementPct",
      "type": "error"
    },
    {
      "inputs": [],
      "name": "JoepegAuctionHouse__EnglishAuctionInvalidRefreshTime",
      "type": "error"
    },
    {
      "inputs": [],
      "name": "JoepegAuctionHouse__EnglishAuctionOnlyCreatorCanSettleBeforeEndTime",
      "type": "error"
    },
    {
      "inputs": [],
      "name": "JoepegAuctionHouse__ExpectedNonNullAddress",
      "type": "error"
    },
    {
      "inputs": [],
      "name": "JoepegAuctionHouse__FeesHigherThanExpected",
      "type": "error"
    },
    {
      "inputs": [],
      "name": "JoepegAuctionHouse__InvalidDropInterval",
      "type": "error"
    },
    {
      "inputs": [],
      "name": "JoepegAuctionHouse__InvalidDuration",
      "type": "error"
    },
    {
      "inputs": [],
      "name": "JoepegAuctionHouse__InvalidMinPercentageToAsk",
      "type": "error"
    },
    {
      "inputs": [],
      "name": "JoepegAuctionHouse__InvalidStartTime",
      "type": "error"
    },
    {
      "inputs": [],
      "name": "JoepegAuctionHouse__NoAuctionExists",
      "type": "error"
    },
    {
      "inputs": [],
      "name": "JoepegAuctionHouse__OnlyAuctionCreatorCanCancel",
      "type": "error"
    },
    {
      "inputs": [],
      "name": "JoepegAuctionHouse__UnsupportedCurrency",
      "type": "error"
    },
    {
      "inputs": [
        {
          "internalType": "address",
          "name": "sender",
          "type": "address"
        }
      ],
      "name": "PausableAdmin__AddressIsAlreadyPauseAdmin",
      "type": "error"
    },
    {
      "inputs": [
        {
          "internalType": "address",
          "name": "sender",
          "type": "address"
        }
      ],
      "name": "PausableAdmin__AddressIsNotPauseAdmin",
      "type": "error"
    },
    {
      "inputs": [],
      "name": "PausableAdmin__AlreadyPaused",
      "type": "error"
    },
    {
      "inputs": [],
      "name": "PausableAdmin__AlreadyUnpaused",
      "type": "error"
    },
    {
      "inputs": [
        {
          "internalType": "address",
          "name": "sender",
          "type": "address"
        }
      ],
      "name": "PausableAdmin__OnlyPauseAdmin",
      "type": "error"
    },
    {
      "inputs": [],
      "name": "PendingOwnable__NoPendingOwner",
      "type": "error"
    },
    {
      "inputs": [],
      "name": "PendingOwnable__NotOwner",
      "type": "error"
    },
    {
      "inputs": [],
      "name": "PendingOwnable__NotPendingOwner",
      "type": "error"
    },
    {
      "inputs": [],
      "name": "PendingOwnable__PendingOwnerAlreadySet",
      "type": "error"
    },
    {
      "anonymous": false,
      "inputs": [
        {
          "indexed": true,
          "internalType": "address",
          "name": "oldCurrencyManager",
          "type": "address"
        },
        {
          "indexed": true,
          "internalType": "address",
          "name": "newCurrencyManager",
          "type": "address"
        }
      ],
      "name": "CurrencyManagerSet",
      "type": "event"
    },
    {
      "anonymous": false,
      "inputs": [
        {
          "indexed": true,
          "internalType": "address",
          "name": "caller",
          "type": "address"
        },
        {
          "indexed": false,
          "internalType": "address",
          "name": "creator",
          "type": "address"
        },
        {
          "indexed": true,
          "internalType": "address",
          "name": "collection",
          "type": "address"
        },
        {
          "indexed": true,
          "internalType": "uint256",
          "name": "tokenId",
          "type": "uint256"
        },
        {
          "indexed": false,
          "internalType": "uint256",
          "name": "nonce",
          "type": "uint256"
        }
      ],
      "name": "DutchAuctionCancel",
      "type": "event"
    },
    {
      "anonymous": false,
      "inputs": [
        {
          "indexed": true,
          "internalType": "address",
          "name": "creator",
          "type": "address"
        },
        {
          "indexed": false,
          "internalType": "address",
          "name": "buyer",
          "type": "address"
        },
        {
          "indexed": false,
          "internalType": "address",
          "name": "currency",
          "type": "address"
        },
        {
          "indexed": true,
          "internalType": "address",
          "name": "collection",
          "type": "address"
        },
        {
          "indexed": true,
          "internalType": "uint256",
          "name": "tokenId",
          "type": "uint256"
        },
        {
          "indexed": false,
          "internalType": "uint256",
          "name": "nonce",
          "type": "uint256"
        },
        {
          "indexed": false,
          "internalType": "uint256",
          "name": "price",
          "type": "uint256"
        }
      ],
      "name": "DutchAuctionSettle",
      "type": "event"
    },
    {
      "anonymous": false,
      "inputs": [
        {
          "indexed": true,
          "internalType": "address",
          "name": "creator",
          "type": "address"
        },
        {
          "indexed": false,
          "internalType": "address",
          "name": "currency",
          "type": "address"
        },
        {
          "indexed": true,
          "internalType": "address",
          "name": "collection",
          "type": "address"
        },
        {
          "indexed": true,
          "internalType": "uint256",
          "name": "tokenId",
          "type": "uint256"
        },
        {
          "indexed": false,
          "internalType": "uint256",
          "name": "nonce",
          "type": "uint256"
        },
        {
          "indexed": false,
          "internalType": "uint256",
          "name": "startPrice",
          "type": "uint256"
        },
        {
          "indexed": false,
          "internalType": "uint256",
          "name": "endPrice",
          "type": "uint256"
        },
        {
          "indexed": false,
          "internalType": "uint96",
          "name": "startTime",
          "type": "uint96"
        },
        {
          "indexed": false,
          "internalType": "uint96",
          "name": "endTime",
          "type": "uint96"
        },
        {
          "indexed": false,
          "internalType": "uint256",
          "name": "dropInterval",
          "type": "uint256"
        },
        {
          "indexed": false,
          "internalType": "uint256",
          "name": "minPercentageToAsk",
          "type": "uint256"
        }
      ],
      "name": "DutchAuctionStart",
      "type": "event"
    },
    {
      "anonymous": false,
      "inputs": [
        {
          "indexed": true,
          "internalType": "address",
          "name": "caller",
          "type": "address"
        },
        {
          "indexed": false,
          "internalType": "address",
          "name": "creator",
          "type": "address"
        },
        {
          "indexed": true,
          "internalType": "address",
          "name": "collection",
          "type": "address"
        },
        {
          "indexed": true,
          "internalType": "uint256",
          "name": "tokenId",
          "type": "uint256"
        },
        {
          "indexed": false,
          "internalType": "uint256",
          "name": "nonce",
          "type": "uint256"
        }
      ],
      "name": "EnglishAuctionCancel",
      "type": "event"
    },
    {
      "anonymous": false,
      "inputs": [
        {
          "indexed": true,
          "internalType": "uint256",
          "name": "oldEnglishAuctionMinBidIncrementPct",
          "type": "uint256"
        },
        {
          "indexed": true,
          "internalType": "uint256",
          "name": "newEnglishAuctionMinBidIncrementPct",
          "type": "uint256"
        }
      ],
      "name": "EnglishAuctionMinBidIncrementPctSet",
      "type": "event"
    },
    {
      "anonymous": false,
      "inputs": [
        {
          "indexed": true,
          "internalType": "address",
          "name": "creator",
          "type": "address"
        },
        {
          "indexed": false,
          "internalType": "address",
          "name": "bidder",
          "type": "address"
        },
        {
          "indexed": false,
          "internalType": "address",
          "name": "currency",
          "type": "address"
        },
        {
          "indexed": true,
          "internalType": "address",
          "name": "collection",
          "type": "address"
        },
        {
          "indexed": true,
          "internalType": "uint256",
          "name": "tokenId",
          "type": "uint256"
        },
        {
          "indexed": false,
          "internalType": "uint256",
          "name": "nonce",
          "type": "uint256"
        },
        {
          "indexed": false,
          "internalType": "uint256",
          "name": "bidAmount",
          "type": "uint256"
        },
        {
          "indexed": false,
          "internalType": "uint96",
          "name": "endTimeExtension",
          "type": "uint96"
        }
      ],
      "name": "EnglishAuctionPlaceBid",
      "type": "event"
    },
    {
      "anonymous": false,
      "inputs": [
        {
          "indexed": true,
          "internalType": "uint96",
          "name": "oldEnglishAuctionRefreshTime",
          "type": "uint96"
        },
        {
          "indexed": true,
          "internalType": "uint96",
          "name": "newEnglishAuctionRefreshTime",
          "type": "uint96"
        }
      ],
      "name": "EnglishAuctionRefreshTimeSet",
      "type": "event"
    },
    {
      "anonymous": false,
      "inputs": [
        {
          "indexed": true,
          "internalType": "address",
          "name": "creator",
          "type": "address"
        },
        {
          "indexed": false,
          "internalType": "address",
          "name": "buyer",
          "type": "address"
        },
        {
          "indexed": false,
          "internalType": "address",
          "name": "currency",
          "type": "address"
        },
        {
          "indexed": true,
          "internalType": "address",
          "name": "collection",
          "type": "address"
        },
        {
          "indexed": true,
          "internalType": "uint256",
          "name": "tokenId",
          "type": "uint256"
        },
        {
          "indexed": false,
          "internalType": "uint256",
          "name": "nonce",
          "type": "uint256"
        },
        {
          "indexed": false,
          "internalType": "uint256",
          "name": "price",
          "type": "uint256"
        }
      ],
      "name": "EnglishAuctionSettle",
      "type": "event"
    },
    {
      "anonymous": false,
      "inputs": [
        {
          "indexed": true,
          "internalType": "address",
          "name": "creator",
          "type": "address"
        },
        {
          "indexed": false,
          "internalType": "address",
          "name": "currency",
          "type": "address"
        },
        {
          "indexed": true,
          "internalType": "address",
          "name": "collection",
          "type": "address"
        },
        {
          "indexed": true,
          "internalType": "uint256",
          "name": "tokenId",
          "type": "uint256"
        },
        {
          "indexed": false,
          "internalType": "uint256",
          "name": "nonce",
          "type": "uint256"
        },
        {
          "indexed": false,
          "internalType": "uint256",
          "name": "startPrice",
          "type": "uint256"
        },
        {
          "indexed": false,
          "internalType": "uint96",
          "name": "startTime",
          "type": "uint96"
        },
        {
          "indexed": false,
          "internalType": "uint96",
          "name": "endTime",
          "type": "uint96"
        },
        {
          "indexed": false,
          "internalType": "uint256",
          "name": "minPercentageToAsk",
          "type": "uint256"
        }
      ],
      "name": "EnglishAuctionStart",
      "type": "event"
    },
    {
      "anonymous": false,
      "inputs": [
        {
          "indexed": true,
          "internalType": "address",
          "name": "previousOwner",
          "type": "address"
        },
        {
          "indexed": true,
          "internalType": "address",
          "name": "newOwner",
          "type": "address"
        }
      ],
      "name": "OwnershipTransferred",
      "type": "event"
    },
    {
      "anonymous": false,
      "inputs": [
        {
          "indexed": false,
          "internalType": "address",
          "name": "newAdmin",
          "type": "address"
        }
      ],
      "name": "PauseAdminAdded",
      "type": "event"
    },
    {
      "anonymous": false,
      "inputs": [
        {
          "indexed": false,
          "internalType": "address",
          "name": "sender",
          "type": "address"
        },
        {
          "indexed": false,
          "internalType": "address",
          "name": "removedAdmin",
          "type": "address"
        }
      ],
      "name": "PauseAdminRemoved",
      "type": "event"
    },
    {
      "anonymous": false,
      "inputs": [
        {
          "indexed": false,
          "internalType": "address",
          "name": "account",
          "type": "address"
        }
      ],
      "name": "Paused",
      "type": "event"
    },
    {
      "anonymous": false,
      "inputs": [
        {
          "indexed": true,
          "internalType": "address",
          "name": "pendingOwner",
          "type": "address"
        }
      ],
      "name": "PendingOwnerSet",
      "type": "event"
    },
    {
      "anonymous": false,
      "inputs": [
        {
          "indexed": true,
          "internalType": "address",
          "name": "oldProtocolFeeManager",
          "type": "address"
        },
        {
          "indexed": true,
          "internalType": "address",
          "name": "newProtocolFeeManager",
          "type": "address"
        }
      ],
      "name": "ProtocolFeeManagerSet",
      "type": "event"
    },
    {
      "anonymous": false,
      "inputs": [
        {
          "indexed": true,
          "internalType": "address",
          "name": "oldProtocolFeeRecipient",
          "type": "address"
        },
        {
          "indexed": true,
          "internalType": "address",
          "name": "newProtocolFeeRecipient",
          "type": "address"
        }
      ],
      "name": "ProtocolFeeRecipientSet",
      "type": "event"
    },
    {
      "anonymous": false,
      "inputs": [
        {
          "indexed": true,
          "internalType": "address",
          "name": "oldRoyaltyFeeManager",
          "type": "address"
        },
        {
          "indexed": true,
          "internalType": "address",
          "name": "newRoyaltyFeeManager",
          "type": "address"
        }
      ],
      "name": "RoyaltyFeeManagerSet",
      "type": "event"
    },
    {
      "anonymous": false,
      "inputs": [
        {
          "indexed": true,
          "internalType": "address",
          "name": "collection",
          "type": "address"
        },
        {
          "indexed": true,
          "internalType": "uint256",
          "name": "tokenId",
          "type": "uint256"
        },
        {
          "indexed": true,
          "internalType": "address",
          "name": "royaltyRecipient",
          "type": "address"
        },
        {
          "indexed": false,
          "internalType": "address",
          "name": "currency",
          "type": "address"
        },
        {
          "indexed": false,
          "internalType": "uint256",
          "name": "amount",
          "type": "uint256"
        }
      ],
      "name": "RoyaltyPayment",
      "type": "event"
    },
    {
      "anonymous": false,
      "inputs": [
        {
          "indexed": false,
          "internalType": "address",
          "name": "account",
          "type": "address"
        }
      ],
      "name": "Unpaused",
      "type": "event"
    },
    {
      "inputs": [],
      "name": "PERCENTAGE_PRECISION",
      "outputs": [
        {
          "internalType": "uint256",
          "name": "",
          "type": "uint256"
        }
      ],
      "stateMutability": "view",
      "type": "function"
    },
    {
      "inputs": [],
      "name": "WAVAX",
      "outputs": [
        {
          "internalType": "address",
          "name": "",
          "type": "address"
        }
      ],
      "stateMutability": "view",
      "type": "function"
    },
    {
      "inputs": [
        {
          "internalType": "address",
          "name": "_newAdmin",
          "type": "address"
        }
      ],
      "name": "addPauseAdmin",
      "outputs": [],
      "stateMutability": "nonpayable",
      "type": "function"
    },
    {
      "inputs": [],
      "name": "becomeOwner",
      "outputs": [],
      "stateMutability": "nonpayable",
      "type": "function"
    },
    {
      "inputs": [
        {
          "internalType": "contract IERC721",
          "name": "_collection",
          "type": "address"
        },
        {
          "internalType": "uint256",
          "name": "_tokenId",
          "type": "uint256"
        }
      ],
      "name": "cancelDutchAuction",
      "outputs": [],
      "stateMutability": "nonpayable",
      "type": "function"
    },
    {
      "inputs": [
        {
          "internalType": "contract IERC721",
          "name": "_collection",
          "type": "address"
        },
        {
          "internalType": "uint256",
          "name": "_tokenId",
          "type": "uint256"
        }
      ],
      "name": "cancelEnglishAuction",
      "outputs": [],
      "stateMutability": "nonpayable",
      "type": "function"
    },
    {
      "inputs": [],
      "name": "currencyManager",
      "outputs": [
        {
          "internalType": "contract ICurrencyManager",
          "name": "",
          "type": "address"
        }
      ],
      "stateMutability": "view",
      "type": "function"
    },
    {
      "inputs": [
        {
          "internalType": "address",
          "name": "",
          "type": "address"
        },
        {
          "internalType": "uint256",
          "name": "",
          "type": "uint256"
        }
      ],
      "name": "dutchAuctions",
      "outputs": [
        {
          "internalType": "address",
          "name": "creator",
          "type": "address"
        },
        {
          "internalType": "uint96",
          "name": "startTime",
          "type": "uint96"
        },
        {
          "internalType": "address",
          "name": "currency",
          "type": "address"
        },
        {
          "internalType": "uint96",
          "name": "endTime",
          "type": "uint96"
        },
        {
          "internalType": "uint256",
          "name": "nonce",
          "type": "uint256"
        },
        {
          "internalType": "uint256",
          "name": "startPrice",
          "type": "uint256"
        },
        {
          "internalType": "uint256",
          "name": "endPrice",
          "type": "uint256"
        },
        {
          "internalType": "uint256",
          "name": "dropInterval",
          "type": "uint256"
        },
        {
          "internalType": "uint256",
          "name": "minPercentageToAsk",
          "type": "uint256"
        }
      ],
      "stateMutability": "view",
      "type": "function"
    },
    {
      "inputs": [
        {
          "internalType": "contract IERC721",
          "name": "_collection",
          "type": "address"
        },
        {
          "internalType": "uint256",
          "name": "_tokenId",
          "type": "uint256"
        }
      ],
      "name": "emergencyCancelDutchAuction",
      "outputs": [],
      "stateMutability": "nonpayable",
      "type": "function"
    },
    {
      "inputs": [
        {
          "internalType": "contract IERC721",
          "name": "_collection",
          "type": "address"
        },
        {
          "internalType": "uint256",
          "name": "_tokenId",
          "type": "uint256"
        }
      ],
      "name": "emergencyCancelEnglishAuction",
      "outputs": [],
      "stateMutability": "nonpayable",
      "type": "function"
    },
    {
      "inputs": [],
      "name": "englishAuctionMinBidIncrementPct",
      "outputs": [
        {
          "internalType": "uint256",
          "name": "",
          "type": "uint256"
        }
      ],
      "stateMutability": "view",
      "type": "function"
    },
    {
      "inputs": [],
      "name": "englishAuctionRefreshTime",
      "outputs": [
        {
          "internalType": "uint96",
          "name": "",
          "type": "uint96"
        }
      ],
      "stateMutability": "view",
      "type": "function"
    },
    {
      "inputs": [
        {
          "internalType": "address",
          "name": "",
          "type": "address"
        },
        {
          "internalType": "uint256",
          "name": "",
          "type": "uint256"
        }
      ],
      "name": "englishAuctions",
      "outputs": [
        {
          "internalType": "address",
          "name": "creator",
          "type": "address"
        },
        {
          "internalType": "address",
          "name": "currency",
          "type": "address"
        },
        {
          "internalType": "uint96",
          "name": "startTime",
          "type": "uint96"
        },
        {
          "internalType": "address",
          "name": "lastBidder",
          "type": "address"
        },
        {
          "internalType": "uint96",
          "name": "endTime",
          "type": "uint96"
        },
        {
          "internalType": "uint256",
          "name": "nonce",
          "type": "uint256"
        },
        {
          "internalType": "uint256",
          "name": "lastBidPrice",
          "type": "uint256"
        },
        {
          "internalType": "uint256",
          "name": "startPrice",
          "type": "uint256"
        },
        {
          "internalType": "uint256",
          "name": "minPercentageToAsk",
          "type": "uint256"
        }
      ],
      "stateMutability": "view",
      "type": "function"
    },
    {
      "inputs": [
        {
          "internalType": "address",
          "name": "_collection",
          "type": "address"
        },
        {
          "internalType": "uint256",
          "name": "_tokenId",
          "type": "uint256"
        }
      ],
      "name": "getDutchAuctionSalePrice",
      "outputs": [
        {
          "internalType": "uint256",
          "name": "",
          "type": "uint256"
        }
      ],
      "stateMutability": "view",
      "type": "function"
    },
    {
      "inputs": [],
      "name": "getNumberOfPauseAdmin",
      "outputs": [
        {
          "internalType": "uint256",
          "name": "",
          "type": "uint256"
        }
      ],
      "stateMutability": "view",
      "type": "function"
    },
    {
      "inputs": [
        {
          "internalType": "uint256",
          "name": "_index",
          "type": "uint256"
        }
      ],
      "name": "getPauseAdminAt",
      "outputs": [
        {
          "internalType": "address",
          "name": "",
          "type": "address"
        }
      ],
      "stateMutability": "view",
      "type": "function"
    },
    {
      "inputs": [
        {
          "internalType": "uint256",
          "name": "_englishAuctionMinBidIncrementPct",
          "type": "uint256"
        },
        {
          "internalType": "uint96",
          "name": "_englishAuctionRefreshTime",
          "type": "uint96"
        },
        {
          "internalType": "address",
          "name": "_currencyManager",
          "type": "address"
        },
        {
          "internalType": "address",
          "name": "_protocolFeeManager",
          "type": "address"
        },
        {
          "internalType": "address",
          "name": "_royaltyFeeManager",
          "type": "address"
        },
        {
          "internalType": "address",
          "name": "_protocolFeeRecipient",
          "type": "address"
        }
      ],
      "name": "initialize",
      "outputs": [],
      "stateMutability": "nonpayable",
      "type": "function"
    },
    {
      "inputs": [
        {
          "internalType": "address",
          "name": "_user",
          "type": "address"
        }
      ],
      "name": "isPauseAdmin",
      "outputs": [
        {
          "internalType": "bool",
          "name": "",
          "type": "bool"
        }
      ],
      "stateMutability": "view",
      "type": "function"
    },
    {
      "inputs": [
        {
          "internalType": "address",
          "name": "",
          "type": "address"
        },
        {
          "internalType": "address",
          "name": "",
          "type": "address"
        },
        {
          "internalType": "uint256",
          "name": "",
          "type": "uint256"
        },
        {
          "internalType": "bytes",
          "name": "",
          "type": "bytes"
        }
      ],
      "name": "onERC721Received",
      "outputs": [
        {
          "internalType": "bytes4",
          "name": "",
          "type": "bytes4"
        }
      ],
      "stateMutability": "pure",
      "type": "function"
    },
    {
      "inputs": [],
      "name": "owner",
      "outputs": [
        {
          "internalType": "address",
          "name": "",
          "type": "address"
        }
      ],
      "stateMutability": "view",
      "type": "function"
    },
    {
      "inputs": [],
      "name": "pause",
      "outputs": [],
      "stateMutability": "nonpayable",
      "type": "function"
    },
    {
      "inputs": [],
      "name": "paused",
      "outputs": [
        {
          "internalType": "bool",
          "name": "",
          "type": "bool"
        }
      ],
      "stateMutability": "view",
      "type": "function"
    },
    {
      "inputs": [],
      "name": "pendingOwner",
      "outputs": [
        {
          "internalType": "address",
          "name": "",
          "type": "address"
        }
      ],
      "stateMutability": "view",
      "type": "function"
    },
    {
      "inputs": [
        {
          "internalType": "contract IERC721",
          "name": "_collection",
          "type": "address"
        },
        {
          "internalType": "uint256",
          "name": "_tokenId",
          "type": "uint256"
        },
        {
          "internalType": "uint256",
          "name": "_amount",
          "type": "uint256"
        }
      ],
      "name": "placeEnglishAuctionBid",
      "outputs": [],
      "stateMutability": "nonpayable",
      "type": "function"
    },
    {
      "inputs": [
        {
          "internalType": "contract IERC721",
          "name": "_collection",
          "type": "address"
        },
        {
          "internalType": "uint256",
          "name": "_tokenId",
          "type": "uint256"
        },
        {
          "internalType": "uint256",
          "name": "_wavaxAmount",
          "type": "uint256"
        }
      ],
      "name": "placeEnglishAuctionBidWithAVAXAndWAVAX",
      "outputs": [],
      "stateMutability": "payable",
      "type": "function"
    },
    {
      "inputs": [],
      "name": "protocolFeeManager",
      "outputs": [
        {
          "internalType": "contract IProtocolFeeManager",
          "name": "",
          "type": "address"
        }
      ],
      "stateMutability": "view",
      "type": "function"
    },
    {
      "inputs": [],
      "name": "protocolFeeRecipient",
      "outputs": [
        {
          "internalType": "address",
          "name": "",
          "type": "address"
        }
      ],
      "stateMutability": "view",
      "type": "function"
    },
    {
      "inputs": [
        {
          "internalType": "address",
          "name": "_admin",
          "type": "address"
        }
      ],
      "name": "removePauseAdmin",
      "outputs": [],
      "stateMutability": "nonpayable",
      "type": "function"
    },
    {
      "inputs": [],
      "name": "renounceOwnership",
      "outputs": [],
      "stateMutability": "nonpayable",
      "type": "function"
    },
    {
      "inputs": [],
      "name": "renouncePauseAdmin",
      "outputs": [],
      "stateMutability": "nonpayable",
      "type": "function"
    },
    {
      "inputs": [],
      "name": "revokePendingOwner",
      "outputs": [],
      "stateMutability": "nonpayable",
      "type": "function"
    },
    {
      "inputs": [],
      "name": "royaltyFeeManager",
      "outputs": [
        {
          "internalType": "contract IRoyaltyFeeManager",
          "name": "",
          "type": "address"
        }
      ],
      "stateMutability": "view",
      "type": "function"
    },
    {
      "inputs": [
        {
          "internalType": "contract IERC721",
          "name": "_collection",
          "type": "address"
        },
        {
          "internalType": "uint256",
          "name": "_tokenId",
          "type": "uint256"
        },
        {
          "internalType": "contract IERC20",
          "name": "_currency",
          "type": "address"
        },
        {
          "internalType": "uint96",
          "name": "_startTime",
          "type": "uint96"
        },
        {
          "internalType": "uint96",
          "name": "_duration",
          "type": "uint96"
        },
        {
          "internalType": "uint256",
          "name": "_dropInterval",
          "type": "uint256"
        },
        {
          "internalType": "uint256",
          "name": "_startPrice",
          "type": "uint256"
        },
        {
          "internalType": "uint256",
          "name": "_endPrice",
          "type": "uint256"
        },
        {
          "internalType": "uint256",
          "name": "_minPercentageToAsk",
          "type": "uint256"
        }
      ],
      "name": "scheduleDutchAuction",
      "outputs": [],
      "stateMutability": "nonpayable",
      "type": "function"
    },
    {
      "inputs": [
        {
          "internalType": "contract IERC721",
          "name": "_collection",
          "type": "address"
        },
        {
          "internalType": "uint256",
          "name": "_tokenId",
          "type": "uint256"
        },
        {
          "internalType": "contract IERC20",
          "name": "_currency",
          "type": "address"
        },
        {
          "internalType": "uint96",
          "name": "_startTime",
          "type": "uint96"
        },
        {
          "internalType": "uint96",
          "name": "_duration",
          "type": "uint96"
        },
        {
          "internalType": "uint256",
          "name": "_startPrice",
          "type": "uint256"
        },
        {
          "internalType": "uint256",
          "name": "_minPercentageToAsk",
          "type": "uint256"
        }
      ],
      "name": "scheduleEnglishAuction",
      "outputs": [],
      "stateMutability": "nonpayable",
      "type": "function"
    },
    {
      "inputs": [
        {
          "internalType": "address",
          "name": "pendingOwner_",
          "type": "address"
        }
      ],
      "name": "setPendingOwner",
      "outputs": [],
      "stateMutability": "nonpayable",
      "type": "function"
    },
    {
      "inputs": [
        {
          "internalType": "contract IERC721",
          "name": "_collection",
          "type": "address"
        },
        {
          "internalType": "uint256",
          "name": "_tokenId",
          "type": "uint256"
        }
      ],
      "name": "settleDutchAuction",
      "outputs": [],
      "stateMutability": "nonpayable",
      "type": "function"
    },
    {
      "inputs": [
        {
          "internalType": "contract IERC721",
          "name": "_collection",
          "type": "address"
        },
        {
          "internalType": "uint256",
          "name": "_tokenId",
          "type": "uint256"
        }
      ],
      "name": "settleDutchAuctionWithAVAXAndWAVAX",
      "outputs": [],
      "stateMutability": "payable",
      "type": "function"
    },
    {
      "inputs": [
        {
          "internalType": "contract IERC721",
          "name": "_collection",
          "type": "address"
        },
        {
          "internalType": "uint256",
          "name": "_tokenId",
          "type": "uint256"
        }
      ],
      "name": "settleEnglishAuction",
      "outputs": [],
      "stateMutability": "nonpayable",
      "type": "function"
    },
    {
      "inputs": [
        {
          "internalType": "contract IERC721",
          "name": "_collection",
          "type": "address"
        },
        {
          "internalType": "uint256",
          "name": "_tokenId",
          "type": "uint256"
        },
        {
          "internalType": "contract IERC20",
          "name": "_currency",
          "type": "address"
        },
        {
          "internalType": "uint96",
          "name": "_duration",
          "type": "uint96"
        },
        {
          "internalType": "uint256",
          "name": "_dropInterval",
          "type": "uint256"
        },
        {
          "internalType": "uint256",
          "name": "_startPrice",
          "type": "uint256"
        },
        {
          "internalType": "uint256",
          "name": "_endPrice",
          "type": "uint256"
        },
        {
          "internalType": "uint256",
          "name": "_minPercentageToAsk",
          "type": "uint256"
        }
      ],
      "name": "startDutchAuction",
      "outputs": [],
      "stateMutability": "nonpayable",
      "type": "function"
    },
    {
      "inputs": [
        {
          "internalType": "contract IERC721",
          "name": "_collection",
          "type": "address"
        },
        {
          "internalType": "uint256",
          "name": "_tokenId",
          "type": "uint256"
        },
        {
          "internalType": "contract IERC20",
          "name": "_currency",
          "type": "address"
        },
        {
          "internalType": "uint96",
          "name": "_duration",
          "type": "uint96"
        },
        {
          "internalType": "uint256",
          "name": "_startPrice",
          "type": "uint256"
        },
        {
          "internalType": "uint256",
          "name": "_minPercentageToAsk",
          "type": "uint256"
        }
      ],
      "name": "startEnglishAuction",
      "outputs": [],
      "stateMutability": "nonpayable",
      "type": "function"
    },
    {
      "inputs": [
        {
          "internalType": "bytes4",
          "name": "interfaceId",
          "type": "bytes4"
        }
      ],
      "name": "supportsInterface",
      "outputs": [
        {
          "internalType": "bool",
          "name": "",
          "type": "bool"
        }
      ],
      "stateMutability": "view",
      "type": "function"
    },
    {
      "inputs": [],
      "name": "unpause",
      "outputs": [],
      "stateMutability": "nonpayable",
      "type": "function"
    },
    {
      "inputs": [
        {
          "internalType": "address",
          "name": "_currencyManager",
          "type": "address"
        }
      ],
      "name": "updateCurrencyManager",
      "outputs": [],
      "stateMutability": "nonpayable",
      "type": "function"
    },
    {
      "inputs": [
        {
          "internalType": "uint256",
          "name": "_englishAuctionMinBidIncrementPct",
          "type": "uint256"
        }
      ],
      "name": "updateEnglishAuctionMinBidIncrementPct",
      "outputs": [],
      "stateMutability": "nonpayable",
      "type": "function"
    },
    {
      "inputs": [
        {
          "internalType": "uint96",
          "name": "_englishAuctionRefreshTime",
          "type": "uint96"
        }
      ],
      "name": "updateEnglishAuctionRefreshTime",
      "outputs": [],
      "stateMutability": "nonpayable",
      "type": "function"
    },
    {
      "inputs": [
        {
          "internalType": "address",
          "name": "_protocolFeeManager",
          "type": "address"
        }
      ],
      "name": "updateProtocolFeeManager",
      "outputs": [],
      "stateMutability": "nonpayable",
      "type": "function"
    },
    {
      "inputs": [
        {
          "internalType": "address",
          "name": "_protocolFeeRecipient",
          "type": "address"
        }
      ],
      "name": "updateProtocolFeeRecipient",
      "outputs": [],
      "stateMutability": "nonpayable",
      "type": "function"
    },
    {
      "inputs": [
        {
          "internalType": "address",
          "name": "_royaltyFeeManager",
          "type": "address"
        }
      ],
      "name": "updateRoyaltyFeeManager",
      "outputs": [],
      "stateMutability": "nonpayable",
      "type": "function"
    },
    {
      "inputs": [
        {
          "internalType": "address",
          "name": "",
          "type": "address"
        }
      ],
      "name": "userLatestAuctionNonce",
      "outputs": [
        {
          "internalType": "uint256",
          "name": "",
          "type": "uint256"
        }
      ],
      "stateMutability": "view",
      "type": "function"
    }
  ],
  "transactionHash": "0xbd6662d74841c444c402b50bea9d8730119013c75adf74ed0e83d2e10cf2a6fe",
  "args": [
    "0xB31f66AA3C1e785363F0875A1B74E27b85FD66c7"
  ],
  "numDeployments": 1,
  "solcInputHash": "88f367e016644d9842393fd87a5eaa0e",
  "bytecode": "0x60a06040523480156200001157600080fd5b5060405162004ab638038062004ab6833981016040819052620000349162000046565b6001600160a01b031660805262000078565b6000602082840312156200005957600080fd5b81516001600160a01b03811681146200007157600080fd5b9392505050565b6080516149e3620000d36000396000818161076a015281816112d001528181611fe30152818161202a015281816120b001528181612df801528181612e4201528181612e7201528181612f050152612f3301526149e36000f3fe6080604052600436106102ae5760003560e01c806373c3259711610175578063c19e11ee116100dc578063dabbe09111610095578063ed66ec7d1161006f578063ed66ec7d146109fd578063eeb360b714610a1d578063f080e0bf14610a3d578063f9dca98914610a5d57600080fd5b8063dabbe091146109a9578063e256888f146109c9578063e30c3978146109df57600080fd5b8063c19e11ee1461090c578063c42069ec14610921578063c549876914610941578063c70f852d14610961578063d163a90614610974578063d28cf5261461099457600080fd5b8063955b25381161012e578063955b25381461084c578063a1fd34e01461086c578063a70dbaeb1461088c578063ad354df8146108ac578063b6028c65146108cc578063ba038505146108ec57600080fd5b806373c325971461078c5780638456cb59146107ac578063874b5d0d146107c157806387e4401f146107ee5780638da5cb5b1461080e57806390bdc0871461082c57600080fd5b8063516971a81161021957806367ab8a4e116101d257806367ab8a4e146105f05780636e41d47d146106055780636fc4cde114610625578063715018a61461065d57806373918a1c1461067257806373b295c21461075857600080fd5b8063516971a8146105455780635c975abb146105655780635ce052d71461057d5780635d28be2e1461059d57806364df049e146105b057806367a54889146105d057600080fd5b8063150b7a021161026b578063150b7a021461046b5780631cd36796146104b05780631df47f80146104d057806327370809146104f05780633f4ba83a146105105780634e07ad3c1461052557600080fd5b806301ffc9a7146102b35780630d299e6f146102e85780630f747d741461030a5780631082eea214610342578063127d71f71461042757806312e64f0314610447575b600080fd5b3480156102bf57600080fd5b506102d36102ce3660046142fd565b610a72565b60405190151581526020015b60405180910390f35b3480156102f457600080fd5b50610308610303366004614358565b610a9d565b005b34801561031657600080fd5b5060cd5461032a906001600160a01b031681565b6040516001600160a01b0390911681526020016102df565b34801561034e57600080fd5b506103c961035d3660046143df565b60d260209081526000928352604080842090915290825290208054600182015460028301546003840154600485015460058601546006909601546001600160a01b03808716976001600160601b03600160a01b9889900481169892881697929092049091169493929189565b604080516001600160a01b039a8b1681526001600160601b03998a1660208201529990971696890196909652959093166060870152608086019190915260a085015260c084015260e0830191909152610100820152610120016102df565b34801561043357600080fd5b5061030861044236600461440b565b610bf7565b34801561045357600080fd5b5061045d60d45481565b6040519081526020016102df565b34801561047757600080fd5b50610497610486366004614428565b630a85bd0160e11b95945050505050565b6040516001600160e01b031990911681526020016102df565b3480156104bc57600080fd5b506103086104cb36600461440b565b610c2e565b3480156104dc57600080fd5b506103086104eb36600461440b565b610c62565b3480156104fc57600080fd5b5061030861050b3660046143df565b610c96565b34801561051c57600080fd5b50610308610ef5565b34801561053157600080fd5b5061032a6105403660046144c7565b610f4d565b34801561055157600080fd5b506103086105603660046143df565b610f5a565b34801561057157600080fd5b5060675460ff166102d3565b34801561058957600080fd5b5061030861059836600461440b565b6111b3565b6103086105ab3660046143df565b6111e7565b3480156105bc57600080fd5b5060d05461032a906001600160a01b031681565b3480156105dc57600080fd5b506103086105eb3660046144e0565b611325565b3480156105fc57600080fd5b5061030861142a565b34801561061157600080fd5b506103086106203660046143df565b611488565b34801561063157600080fd5b5060d554610645906001600160601b031681565b6040516001600160601b0390911681526020016102df565b34801561066957600080fd5b5061030861178b565b34801561067e57600080fd5b506106fa61068d3660046143df565b60d360209081526000928352604080842090915290825290208054600182015460028301546003840154600485015460058601546006909601546001600160a01b0395861696858716966001600160601b03600160a01b9788900481169791871696919091041693929189565b604080516001600160a01b039a8b168152988a1660208a01526001600160601b039788169089015297909416606087015293909116608085015260a084015260c083019190915260e0820152610100810191909152610120016102df565b34801561076457600080fd5b5061032a7f000000000000000000000000000000000000000000000000000000000000000081565b34801561079857600080fd5b506103086107a7366004614557565b6117c0565b3480156107b857600080fd5b506103086118ec565b3480156107cd57600080fd5b5061045d6107dc36600461440b565b60d16020526000908152604090205481565b3480156107fa57600080fd5b5060cf5461032a906001600160a01b031681565b34801561081a57600080fd5b506033546001600160a01b031661032a565b34801561083857600080fd5b506103086108473660046144c7565b611942565b34801561085857600080fd5b506103086108673660046145cc565b611976565b34801561087857600080fd5b5061045d6108873660046143df565b611aac565b34801561089857600080fd5b5060ce5461032a906001600160a01b031681565b3480156108b857600080fd5b506103086108c73660046143df565b611c21565b3480156108d857600080fd5b506102d36108e736600461440b565b611d1c565b3480156108f857600080fd5b50610308610907366004614601565b611d29565b34801561091857600080fd5b5061045d611e52565b34801561092d57600080fd5b5061030861093c36600461440b565b611e63565b34801561094d57600080fd5b5061030861095c36600461440b565b611ec1565b61030861096f3660046145cc565b611ef5565b34801561098057600080fd5b5061030861098f366004614664565b6120ed565b3480156109a057600080fd5b50610308612121565b3480156109b557600080fd5b506103086109c436600461440b565b61212a565b3480156109d557600080fd5b5061045d61271081565b3480156109eb57600080fd5b506034546001600160a01b031661032a565b348015610a0957600080fd5b50610308610a1836600461467f565b61215e565b348015610a2957600080fd5b50610308610a383660046143df565b61229a565b348015610a4957600080fd5b50610308610a583660046143df565b6124b0565b348015610a6957600080fd5b506103086125bb565b60006001600160e01b03198216630a85bd0160e11b1480610a975750610a978261260a565b92915050565b60675460ff1615610ac95760405162461bcd60e51b8152600401610ac0906146f4565b60405180910390fd5b60cd546040516343b938c560e01b81526001600160a01b03808a166004830152899216906343b938c590602401602060405180830381865afa158015610b13573d6000803e3d6000fd5b505050506040513d601f19601f82011682018060405250810190610b37919061471e565b610b5357604051625bbd3f60e51b815260040160405180910390fd5b866001600160601b031642811015610b7e5760405163d13ab50760e01b815260040160405180910390fd5b82801580610b8d575061271081115b15610bab5760405163d317635f60e01b815260040160405180910390fd5b6002609b541415610bce5760405162461bcd60e51b8152600401610ac090614740565b6002609b55610be48c8c8c8c8c8c8c8c8c61262f565b6001609b55505050505050505050505050565b6033546001600160a01b03163314610c2257604051639f216c1360e01b815260040160405180910390fd5b610c2b81612a24565b50565b6033546001600160a01b03163314610c5957604051639f216c1360e01b815260040160405180910390fd5b610c2b81612a9d565b6033546001600160a01b03163314610c8d57604051639f216c1360e01b815260040160405180910390fd5b610c2b81612b10565b60675460ff1615610cb95760405162461bcd60e51b8152600401610ac0906146f4565b6002609b541415610cdc5760405162461bcd60e51b8152600401610ac090614740565b6002609b8190556001600160a01b03808416600090815260d360209081526040808320868452825291829020825161012081018452815485168082526001830154808716948301949094526001600160601b03600160a01b94859004811695830195909552958201549485166060820152919093049091166080820152600382015460a0820152600482015460c0820152600582015460e082015260069091015461010082015283913314610da45760405163642a6a5360e01b815260040160405180910390fd5b60608101516001600160a01b031615610dd05760405163088207f160e11b815260040160405180910390fd5b6001600160a01b03808316600090815260d36020908152604080832087845290915280822080546001600160a01b031916815560018101839055600281018390556003810183905560048082018490556005820184905560069091019290925583519051632142170760e11b8152928716926342842e0e92610e589230929091899101614777565b600060405180830381600087803b158015610e7257600080fd5b505af1158015610e86573d6000803e3d6000fd5b5050825160a08401516040518794506001600160a01b038716935033927f9b2b3a11685c55784f4d3819a5bbaa39baa4be3732cd6d9514970ea6e3ac065c92610ee2926001600160a01b03929092168252602082015260400190565b60405180910390a450506001609b555050565b6033546001600160a01b03163314610f2057604051639f216c1360e01b815260040160405180910390fd5b60675460ff16610f43576040516324f6d9a360e11b815260040160405180910390fd5b610f4b612b89565b565b6000610a97609983612c1c565b6002609b541415610f7d5760405162461bcd60e51b8152600401610ac090614740565b6002609b556033546001600160a01b03163314610fad57604051639f216c1360e01b815260040160405180910390fd5b6001600160a01b03808316600090815260d360209081526040808320858452825291829020825161012081018452815485168082526001830154808716948301949094526001600160601b03600160a01b9485900481169583019590955260028301549586166060830152929094049092166080840152600382015460a0840152600482015460c0840152600582015460e084015260069091015461010083015283919061106e57604051636cf011bd60e11b815260040160405180910390fd5b606081015160c08201516001600160a01b03808516600090815260d36020908152604080832089845290915280822080546001600160a01b031916815560018101839055600281018390556003810183905560048082018490556005820184905560069091019290925585519051632142170760e11b8152928916926342842e0e9261110092309290918b9101614777565b600060405180830381600087803b15801561111a57600080fd5b505af115801561112e573d6000803e3d6000fd5b505050506000811115611154576020830151611154906001600160a01b03168383612c2f565b825160a0840151604080516001600160a01b0393841681526020810192909252879287169133917f9b2b3a11685c55784f4d3819a5bbaa39baa4be3732cd6d9514970ea6e3ac065c910160405180910390a450506001609b5550505050565b6033546001600160a01b031633146111de57604051639f216c1360e01b815260040160405180910390fd5b610c2b81612c97565b60675460ff161561120a5760405162461bcd60e51b8152600401610ac0906146f4565b6002609b54141561122d5760405162461bcd60e51b8152600401610ac090614740565b6002609b8190556001600160a01b03808416600090815260d260209081526040808320868452825291829020825161012081018452815480861682526001600160601b03600160a01b918290048116948301949094526001830154808716958301869052049092166060830152938401546080820152600384015460a0820152600484015460c0820152600584015460e0820152600690930154610100840152907f000000000000000000000000000000000000000000000000000000000000000016811461130f5760405163026bd50160e51b815260040160405180910390fd5b61131a848484612d10565b50506001609b555050565b600054610100900460ff166113405760005460ff1615611344565b303b155b6113a75760405162461bcd60e51b815260206004820152602e60248201527f496e697469616c697a61626c653a20636f6e747261637420697320616c72656160448201526d191e481a5b9a5d1a585b1a5e995960921b6064820152608401610ac0565b600054610100900460ff161580156113c9576000805461ffff19166101011790555b6113d1613050565b6113d961308f565b6113e2876130be565b6113eb86613123565b6113f485612c97565b6113fd84612a24565b611406836131a1565b61140f82612b10565b8015611421576000805461ff00191690555b50505050505050565b6033546001600160a01b0316331461145557604051639f216c1360e01b815260040160405180910390fd5b6034546001600160a01b031661147e5760405163ecfad6bf60e01b815260040160405180910390fd5b610f4b600061321a565b60675460ff16156114ab5760405162461bcd60e51b8152600401610ac0906146f4565b6002609b5414156114ce5760405162461bcd60e51b8152600401610ac090614740565b6002609b8190556001600160a01b03808416600090815260d360209081526040808320868452825291829020825161012081018452815485168082526001830154808716948301949094526001600160601b03600160a01b94859004811695830195909552958201549485166060820152919093049091166080820152600382015460a0820152600482015460c0820152600582015460e0820152600690910154610100820152839161159457604051636cf011bd60e11b815260040160405180910390fd5b60c08101516115b657604051638041ccb360e01b815260040160405180910390fd5b80604001516001600160601b03164210156115e45760405163554eda4360e01b815260040160405180910390fd5b80516001600160a01b0316331480159061160a575080608001516001600160601b031642105b15611628576040516310b13ed760e11b815260040160405180910390fd5b6001600160a01b038216600090815260d3602090815260408083208684528252822080546001600160a01b0319168155600181018390556002810183905560038101839055600481018390556005810183905560060191909155810151815160c08301516101008401516116a493869388939192309290613264565b6060810151604051632142170760e11b81526001600160a01b038616916342842e0e916116d79130918890600401614777565b600060405180830381600087803b1580156116f157600080fd5b505af1158015611705573d6000803e3d6000fd5b5050505082826001600160a01b031682600001516001600160a01b03167f5a1800c8b3fb615959d2545c3516c92c95a323c12a305acfe2bd3e88ef8b7d1c846060015185602001518660a001518760c00151604051610ee294939291906001600160a01b0394851681529290931660208301526040820152606081019190915260800190565b6033546001600160a01b031633146117b657604051639f216c1360e01b815260040160405180910390fd5b610f4b6000613428565b60675460ff16156117e35760405162461bcd60e51b8152600401610ac0906146f4565b60cd546040516343b938c560e01b81526001600160a01b038089166004830152889216906343b938c590602401602060405180830381865afa15801561182d573d6000803e3d6000fd5b505050506040513d601f19601f82011682018060405250810190611851919061471e565b61186d57604051625bbd3f60e51b815260040160405180910390fd5b8180158061187c575061271081115b1561189a5760405163d317635f60e01b815260040160405180910390fd5b6002609b5414156118bd5760405162461bcd60e51b8152600401610ac090614740565b6002609b556118db8a8a8a6118d142613485565b8b8b8b8b8b61262f565b6001609b5550505050505050505050565b6118f76099336134f1565b6119165760405163450b91b360e11b8152336004820152602401610ac0565b60675460ff161561193a5760405163fa18e8a360e01b815260040160405180910390fd5b610f4b613513565b6033546001600160a01b0316331461196d57604051639f216c1360e01b815260040160405180910390fd5b610c2b816130be565b60675460ff16156119995760405162461bcd60e51b8152600401610ac0906146f4565b6002609b5414156119bc5760405162461bcd60e51b8152600401610ac090614740565b6002609b8190556001600160a01b03808516600090815260d36020908152604080832087845282529182902082516101208101845281548516815260018201548086169382018490526001600160601b03600160a01b91829004811695830195909552958201549485166060820152949093049091166080840152600382015460a0840152600482015460c0840152600582015460e084015260069091015461010083015280611a7f57604051636cf011bd60e11b815260040160405180910390fd5b611a946001600160a01b03821633308661356b565b611aa085858585613592565b50506001609b55505050565b6001600160a01b03808316600090815260d2602090815260408083208584528252808320815161012081018352815480871682526001600160601b03600160a01b918290048116958301869052600184015497881694830194909452909504909116606085015260028101546080850152600381015460a0850152600481015460c0850152600581015460e085015260060154610100840152909190421015611b59576000915050610a97565b80606001516001600160601b03164210611b785760c001519050610a97565b600081602001516001600160601b031642611b9391906147b1565b905060008260e0015182611ba791906147c8565b905060008360e0015184602001518560600151611bc491906147ea565b6001600160601b0316611bd791906147c8565b905060008460c001518560a00151611bef91906147b1565b905081611bfc8285614812565b611c0691906147c8565b8560a00151611c1591906147b1565b98975050505050505050565b60675460ff1615611c445760405162461bcd60e51b8152600401610ac0906146f4565b6002609b541415611c675760405162461bcd60e51b8152600401610ac090614740565b6002609b8190556001600160a01b03808416600090815260d260209081526040808320868452825291829020825161012081018452815480861682526001600160601b03600160a01b9182900481169483019490945260018301549586169482019490945292909304166060820152918101546080830152600381015460a0830152600481015460c0830152600581015460e083015260060154610100820152611d12838383612d10565b50506001609b5550565b6000610a976099836134f1565b60675460ff1615611d4c5760405162461bcd60e51b8152600401610ac0906146f4565b60cd546040516343b938c560e01b81526001600160a01b038087166004830152869216906343b938c590602401602060405180830381865afa158015611d96573d6000803e3d6000fd5b505050506040513d601f19601f82011682018060405250810190611dba919061471e565b611dd657604051625bbd3f60e51b815260040160405180910390fd5b81801580611de5575061271081115b15611e035760405163d317635f60e01b815260040160405180910390fd5b6002609b541415611e265760405162461bcd60e51b8152600401610ac090614740565b6002609b55611e42888888611e3a42613485565b8989896138f3565b6001609b555b5050505050505050565b6000611e5e6099613c56565b905090565b6033546001600160a01b03163314611e8e57604051639f216c1360e01b815260040160405180910390fd5b6034546001600160a01b031615611eb85760405163716b1fbf60e01b815260040160405180910390fd5b610c2b8161321a565b6033546001600160a01b03163314611eec57604051639f216c1360e01b815260040160405180910390fd5b610c2b816131a1565b60675460ff1615611f185760405162461bcd60e51b8152600401610ac0906146f4565b6002609b541415611f3b5760405162461bcd60e51b8152600401610ac090614740565b6002609b8190556001600160a01b03808516600090815260d36020908152604080832087845282529182902082516101208101845281548516815260018201548086169382018490526001600160601b03600160a01b91829004811695830195909552958201548086166060830152959095049092166080850152600382015460a0850152600482015460c0850152600582015460e0850152600690910154610100840152907f00000000000000000000000000000000000000000000000000000000000000001681146120225760405163026bd50160e51b815260040160405180910390fd5b341561209d577f00000000000000000000000000000000000000000000000000000000000000006001600160a01b031663d0e30db0346040518263ffffffff1660e01b81526004016000604051808303818588803b15801561208357600080fd5b505af1158015612097573d6000803e3d6000fd5b50505050505b82156120d8576120d86001600160a01b037f00000000000000000000000000000000000000000000000000000000000000001633308661356b565b611aa085856120e78634614831565b85613592565b6033546001600160a01b0316331461211857604051639f216c1360e01b815260040160405180910390fd5b610c2b81613123565b610f4b33613c60565b6033546001600160a01b0316331461215557604051639f216c1360e01b815260040160405180910390fd5b610c2b81613c60565b60675460ff16156121815760405162461bcd60e51b8152600401610ac0906146f4565b60cd546040516343b938c560e01b81526001600160a01b038088166004830152879216906343b938c590602401602060405180830381865afa1580156121cb573d6000803e3d6000fd5b505050506040513d601f19601f820116820180604052508101906121ef919061471e565b61220b57604051625bbd3f60e51b815260040160405180910390fd5b846001600160601b0316428110156122365760405163d13ab50760e01b815260040160405180910390fd5b82801580612245575061271081115b156122635760405163d317635f60e01b815260040160405180910390fd5b6002609b5414156122865760405162461bcd60e51b8152600401610ac090614740565b6002609b556118db8a8a8a8a8a8a8a6138f3565b6002609b5414156122bd5760405162461bcd60e51b8152600401610ac090614740565b6002609b556033546001600160a01b031633146122ed57604051639f216c1360e01b815260040160405180910390fd5b6001600160a01b03808316600090815260d26020908152604080832085845282529182902082516101208101845281548086168083526001600160601b03600160a01b92839004811695840195909552600184015496871695830195909552909404909116606084015260028101546080840152600381015460a0840152600481015460c0840152600581015460e0840152600601546101008301528391906123a957604051636cf011bd60e11b815260040160405180910390fd5b6001600160a01b03808316600090815260d26020908152604080832087845290915280822082815560018101839055600281018390556003810183905560048082018490556005820184905560069091019290925583519051632142170760e11b8152928716926342842e0e926124269230929091899101614777565b600060405180830381600087803b15801561244057600080fd5b505af1158015612454573d6000803e3d6000fd5b5050825160808401516040518794506001600160a01b038716935033927f2d0945d65614801fbf38298de475b2eda962f669c2e6cbbbc04a7faab17522dd92610ee2926001600160a01b03929092168252602082015260400190565b60675460ff16156124d35760405162461bcd60e51b8152600401610ac0906146f4565b6002609b5414156124f65760405162461bcd60e51b8152600401610ac090614740565b6002609b8190556001600160a01b03808416600090815260d26020908152604080832086845282529182902082516101208101845281548086168083526001600160601b03600160a01b928390048116958401959095526001840154968716958301959095529094049091166060840152928301546080830152600383015460a0830152600483015460c0830152600583015460e0830152600690920154610100820152839133146123a95760405163642a6a5360e01b815260040160405180910390fd5b60006125cf6033546001600160a01b031690565b90506125dc6099336134f1565b6125e9576125e933612a9d565b6125f46099826134f1565b156126025761260281613c60565b610c2b613cd1565b60006001600160e01b031982166316bfa14b60e11b1480610a975750610a9782613d10565b6001600160601b038516158061264d575083856001600160601b0316105b1561266b57604051634981972160e01b815260040160405180910390fd5b836126895760405163bb634ef160e01b815260040160405180910390fd5b6001600160a01b03808a16600090815260d2602090815260408083208c84529091529020548a9116156126cf5760405163eee0b01b60e01b815260040160405180910390fd5b82841115806126dc575082155b156126fa5760405163ef57fc2960e01b815260040160405180910390fd5b6000604051806101200160405280336001600160a01b03168152602001896001600160601b031681526020018a6001600160a01b03168152602001888a6127419190614849565b6001600160601b0316815260200160d16000336001600160a01b03166001600160a01b031681526020019081526020016000205481526020018681526020018581526020018781526020018481525090508060d26000846001600160a01b03166001600160a01b0316815260200190815260200160002060008c815260200190815260200160002060008201518160000160006101000a8154816001600160a01b0302191690836001600160a01b0316021790555060208201518160000160146101000a8154816001600160601b0302191690836001600160601b0316021790555060408201518160010160006101000a8154816001600160a01b0302191690836001600160a01b0316021790555060608201518160010160146101000a8154816001600160601b0302191690836001600160601b031602179055506080820151816002015560a0820151816003015560c0820151816004015560e082015181600501556101008201518160060155905050600160d16000336001600160a01b03166001600160a01b0316815260200190815260200160002060008282546128e99190614831565b9091555050604051632142170760e11b81526001600160a01b038c16906342842e0e9061291e90339030908f90600401614777565b600060405180830381600087803b15801561293857600080fd5b505af115801561294c573d6000803e3d6000fd5b5050505089826001600160a01b031682600001516001600160a01b03167f809f5467134c450196fed70af0db862a1c49d62a7cedd561d76c48a03e5ebc0a846040015185608001518660a001518760c00151886020015189606001518a60e001518b6101000151604051612a0f9897969594939291906001600160a01b039890981688526020880196909652604087019490945260608601929092526001600160601b0390811660808601521660a084015260c083015260e08201526101000190565b60405180910390a45050505050505050505050565b6001600160a01b038116612a4b57604051632bf5c20360e11b815260040160405180910390fd5b60ce80546001600160a01b038381166001600160a01b0319831681179093556040519116919082907f7d4ddfec890ae302bc76c6c540dbeea692c14045ecfebcc29a666bf9dc279c8f90600090a35050565b612aa8609982613d45565b612ad057604051630abf5ec960e41b81526001600160a01b0382166004820152602401610ac0565b6040516001600160a01b03821681527feab9d6a70f5f6ff36fb4e7d7c5fd6fd92619a212353eaab70320dffa41e5792d906020015b60405180910390a150565b6001600160a01b038116612b3757604051632bf5c20360e11b815260040160405180910390fd5b60d080546001600160a01b038381166001600160a01b0319831681179093556040519116919082907f77fe0152e8e354becca126c2d9ddc9e3372c8aa414ef8185aceb7934d6a716cc90600090a35050565b60675460ff16612bd25760405162461bcd60e51b815260206004820152601460248201527314185d5cd8589b194e881b9bdd081c185d5cd95960621b6044820152606401610ac0565b6067805460ff191690557f5db9ee0a495bf2e6ff9c91a7834c1ba4fdd244a5e8aa4e537bd38aeae4b073aa335b6040516001600160a01b03909116815260200160405180910390a1565b6000612c288383613d5a565b9392505050565b6040516001600160a01b038316602482015260448101829052612c9290849063a9059cbb60e01b906064015b60408051601f198184030181529190526020810180516001600160e01b03166001600160e01b031990931692909217909152613d84565b505050565b6001600160a01b038116612cbe57604051632bf5c20360e11b815260040160405180910390fd5b60cd80546001600160a01b038381166001600160a01b0319831681179093556040519116919082907f41e87b8a10446f910ac9ba7a85dd3c9ad02a2705e02ebee6237611a62cde306e90600090a35050565b80516001600160a01b0316612d3857604051636cf011bd60e11b815260040160405180910390fd5b80516001600160a01b0316331415612d6357604051631709f0f960e31b815260040160405180910390fd5b80602001516001600160601b0316421015612d915760405163c2244f3f60e01b815260040160405180910390fd5b826000612d9e8285611aac565b6001600160a01b03838116600090815260d2602090815260408083208984529091528082208281556001810183905560028101839055600381018390556004810183905560058101839055600601919091558501519192507f0000000000000000000000000000000000000000000000000000000000000000811691161415612f695734811115612e6a57612e6a3330612e3834856147b1565b6001600160a01b037f00000000000000000000000000000000000000000000000000000000000000001692919061356b565b3415612ee5577f00000000000000000000000000000000000000000000000000000000000000006001600160a01b031663d0e30db0346040518263ffffffff1660e01b81526004016000604051808303818588803b158015612ecb57600080fd5b505af1158015612edf573d6000803e3d6000fd5b50505050505b34811015612f2c57612f2c33612efb83346147b1565b6001600160a01b037f0000000000000000000000000000000000000000000000000000000000000000169190612c2f565b612f6482857f000000000000000000000000000000000000000000000000000000000000000030876000015186896101000151613264565b612f85565b612f858285856040015133876000015186896101000151613264565b604051632142170760e11b81526001600160a01b038616906342842e0e90612fb590309033908990600401614777565b600060405180830381600087803b158015612fcf57600080fd5b505af1158015612fe3573d6000803e3d6000fd5b5050845160408087015160808089015183513381526001600160a01b039384166020820152938401526060830187905289955081881694509216917fcc3d803077d108e00cb796b4d6569ca5f5cb0bfc25cb5fb755efd1ffc80d9eff910160405180910390a45050505050565b600054610100900460ff166130775760405162461bcd60e51b8152600401610ac090614874565b61307f613e56565b613087613e8d565b610f4b613ebc565b600054610100900460ff166130b65760405162461bcd60e51b8152600401610ac090614874565b610f4b613eec565b8015806130cc575061271081115b156130ea5760405163983613f960e01b815260040160405180910390fd5b60d4805490829055604051829082907fa3f285ff50dde91866d9d4e5d73ebdf424ebb3a7fcedc49b4c5fc0b66e15642c90600090a35050565b6001600160601b03811661314a57604051630b68507960e31b815260040160405180910390fd5b60d580546001600160601b038381166bffffffffffffffffffffffff19831681179093556040519116919082907fc0da53cc906ae35e2c2afe765eb38598227dda23551dfa44bf89e14592ecd95490600090a35050565b6001600160a01b0381166131c857604051632bf5c20360e11b815260040160405180910390fd5b60cf80546001600160a01b038381166001600160a01b0319831681179093556040519116919082907f3572f53d6b1fa254aff5642a655e44ac0e39825c4cedc188cacdb3330857acda90600090a35050565b603480546001600160a01b0319166001600160a01b0383169081179091556040517f68f49b346b94582a8b5f9d10e3fe3365318fe8f191ff8dce7c59c6cad06b02f590600090a250565b8160006132718983613f1a565b60d0549091506001600160a01b0316801580159061328e57508115155b156132b5576132a86001600160a01b03891688838561356b565b6132b282846147b1565b92505b505060cf54604051637a7b1afd60e11b81526001600160a01b038a81166004830152602482018a905260448201869052600092839291169063f4f635fa906064016040805180830381865afa158015613312573d6000803e3d6000fd5b505050506040513d601f19601f8201168201806040525081019061333691906148bf565b90925090506001600160a01b0382161580159061335257508015155b156133db5761336c6001600160a01b03891688848461356b565b61337681846147b1565b9250816001600160a01b0316898b6001600160a01b03167f27c4f0403323142b599832f26acd21c74a9e5b809f2215726e244a4ac588cd7d8b856040516133d29291906001600160a01b03929092168252602082015260400190565b60405180910390a45b506133e890508383614812565b6133f461271083614812565b1015613413576040516321f5097160e11b815260040160405180910390fd5b611e486001600160a01b03871686868461356b565b603380546001600160a01b038381166001600160a01b03198084168217909455603480549094169093556040519116919082907f8be0079c531659141344cd1fd0a4f28419497f9722a3daafe3b4186f6b6457e090600090a35050565b60006001600160601b038211156134ed5760405162461bcd60e51b815260206004820152602660248201527f53616665436173743a2076616c756520646f65736e27742066697420696e203960448201526536206269747360d01b6064820152608401610ac0565b5090565b6001600160a01b03811660009081526001830160205260408120541515612c28565b60675460ff16156135365760405162461bcd60e51b8152600401610ac0906146f4565b6067805460ff191660011790557f62e78cea01bee320cd4e420270b5ea74000d11b0c9f74754ebdbfc544b05a258612bff3390565b61358c846323b872dd60e01b858585604051602401612c5b93929190614777565b50505050565b80516001600160a01b03166135ba57604051636cf011bd60e11b815260040160405180910390fd5b816135d857604051638409122f60e01b815260040160405180910390fd5b80516001600160a01b031633141561360357604051636db0fafd60e11b815260040160405180910390fd5b80604001516001600160601b031642101561363157604051632a8bccbb60e21b815260040160405180910390fd5b80608001516001600160601b0316421061365e57604051637d9c9b7b60e11b815260040160405180910390fd5b60d55460808201516000916001600160601b0390811691613681914291166147b1565b116136b7575060d5546080820180516001600160601b03909216918291906136aa908390614849565b6001600160601b03169052505b60c08201516136f7578160e001518310156136e557604051638409122f60e01b815260040160405180910390fd5b33606083015260c082018390526137e7565b81606001516001600160a01b0316336001600160a01b0316141561376c5760d4548260c001516137279190614812565b61373361271085614812565b101561375257604051638409122f60e01b815260040160405180910390fd5b828260c0018181516137649190614831565b9052506137e7565b60d45461377b90612710614831565b8260c0015161378a9190614812565b61379661271085614812565b10156137b557604051638409122f60e01b815260040160405180910390fd5b60608201805160c0840180513390935285905260208401519091906137e4906001600160a01b03168383612c2f565b50505b6001600160a01b03858116600081815260d360209081526040808320898452825291829020865181546001600160a01b03191690861690811782558783015188850151908716600160a01b6001600160601b039283168102821760018601556060808c01516080808e015191909b169085169092028217600287015560a0808d01516003880181905560c08e01516004890181905560e08f015160058a01556101008f0151600690990198909855895193845297830193909352968101959095529484019290925290861694820194909452889388939290917f84ec3a468ca2097ed308ae9b8a51622f04c0f01ed00388da9167849bd918c201910160405180910390a4505050505050565b6001600160601b03831661391a57604051634981972160e01b815260040160405180910390fd5b6001600160a01b03808816600090815260d3602090815260408083208a8452909152902054889116156139605760405163eee0b01b60e01b815260040160405180910390fd5b33600081815260d160209081526040808320548151610120810183529485526001600160a01b038b16928501929092526001600160601b038916908401526060830182905291608081016139b4888a614849565b6001600160601b03168152602001838152602001600081526020018681526020018581525090508060d36000856001600160a01b03166001600160a01b0316815260200190815260200160002060008b815260200190815260200160002060008201518160000160006101000a8154816001600160a01b0302191690836001600160a01b0316021790555060208201518160010160006101000a8154816001600160a01b0302191690836001600160a01b0316021790555060408201518160010160146101000a8154816001600160601b0302191690836001600160601b0316021790555060608201518160020160006101000a8154816001600160a01b0302191690836001600160a01b0316021790555060808201518160020160146101000a8154816001600160601b0302191690836001600160601b0316021790555060a0820151816003015560c0820151816004015560e082015181600501556101008201518160060155905050816001613b2c9190614831565b33600081815260d1602052604090819020929092559051632142170760e11b81526001600160a01b038c16916342842e0e91613b6f919030908e90600401614777565b600060405180830381600087803b158015613b8957600080fd5b505af1158015613b9d573d6000803e3d6000fd5b5050505088836001600160a01b031682600001516001600160a01b03167f547a357be03f8b8c991541b3cc2d0e1647a44b7f10e8cb85c576366a00f5118184602001518560a001518660e001518d8860800151896101000151604051613c42969594939291906001600160a01b03969096168652602086019490945260408501929092526001600160601b03908116606085015216608083015260a082015260c00190565b60405180910390a450505050505050505050565b6000610a97825490565b613c6b609982613fac565b613c93576040516357b2ba3b60e01b81526001600160a01b0382166004820152602401610ac0565b604080513381526001600160a01b03831660208201527f6882c6d99f00a0bb4f85b5c1829bca3a8ef01af6a4268c223dc71626f44407799101612b05565b6034546001600160a01b031633141580613ce9575033155b15613d0757604051633982680960e11b815260040160405180910390fd5b610f4b33613428565b60006001600160e01b031982166322d7505760e11b1480610a9757506301ffc9a760e01b6001600160e01b0319831614610a97565b6000612c28836001600160a01b038416613fc1565b6000826000018281548110613d7157613d716148ed565b9060005260206000200154905092915050565b6000613dd9826040518060400160405280602081526020017f5361666545524332303a206c6f772d6c6576656c2063616c6c206661696c6564815250856001600160a01b03166140109092919063ffffffff16565b805190915015612c925780806020019051810190613df7919061471e565b612c925760405162461bcd60e51b815260206004820152602a60248201527f5361666545524332303a204552433230206f7065726174696f6e20646964206e6044820152691bdd081cdd58d8d9595960b21b6064820152608401610ac0565b600054610100900460ff16613e7d5760405162461bcd60e51b8152600401610ac090614874565b613e8561401f565b610f4b614046565b600054610100900460ff16613eb45760405162461bcd60e51b8152600401610ac090614874565b610f4b61406d565b600054610100900460ff16613ee35760405162461bcd60e51b8152600401610ac090614874565b610f4b33612a9d565b600054610100900460ff16613f135760405162461bcd60e51b8152600401610ac090614874565b6001609b55565b60ce546040516238062960e91b81526001600160a01b038481166004830152600092839291169063700c520090602401602060405180830381865afa158015613f67573d6000803e3d6000fd5b505050506040513d601f19601f82011682018060405250810190613f8b9190614903565b9050612710613f9a8483614812565b613fa491906147c8565b949350505050565b6000612c28836001600160a01b0384166140a0565b600081815260018301602052604081205461400857508154600181810184556000848152602080822090930184905584548482528286019093526040902091909155610a97565b506000610a97565b6060613fa48484600085614193565b600054610100900460ff16610f4b5760405162461bcd60e51b8152600401610ac090614874565b600054610100900460ff16613d075760405162461bcd60e51b8152600401610ac090614874565b600054610100900460ff166140945760405162461bcd60e51b8152600401610ac090614874565b6067805460ff19169055565b600081815260018301602052604081205480156141895760006140c46001836147b1565b85549091506000906140d8906001906147b1565b905081811461413d5760008660000182815481106140f8576140f86148ed565b906000526020600020015490508087600001848154811061411b5761411b6148ed565b6000918252602080832090910192909255918252600188019052604090208390555b855486908061414e5761414e61491c565b600190038181906000526020600020016000905590558560010160008681526020019081526020016000206000905560019350505050610a97565b6000915050610a97565b6060824710156141f45760405162461bcd60e51b815260206004820152602660248201527f416464726573733a20696e73756666696369656e742062616c616e636520666f6044820152651c8818d85b1b60d21b6064820152608401610ac0565b6001600160a01b0385163b61424b5760405162461bcd60e51b815260206004820152601d60248201527f416464726573733a2063616c6c20746f206e6f6e2d636f6e74726163740000006044820152606401610ac0565b600080866001600160a01b03168587604051614267919061495e565b60006040518083038185875af1925050503d80600081146142a4576040519150601f19603f3d011682016040523d82523d6000602084013e6142a9565b606091505b50915091506142b98282866142c4565b979650505050505050565b606083156142d3575081612c28565b8251156142e35782518084602001fd5b8160405162461bcd60e51b8152600401610ac0919061497a565b60006020828403121561430f57600080fd5b81356001600160e01b031981168114612c2857600080fd5b6001600160a01b0381168114610c2b57600080fd5b80356001600160601b038116811461435357600080fd5b919050565b60008060008060008060008060006101208a8c03121561437757600080fd5b893561438281614327565b985060208a0135975060408a013561439981614327565b96506143a760608b0161433c565b95506143b560808b0161433c565b989b979a50959894979660a0860135965060c08601359560e0810135955061010001359350915050565b600080604083850312156143f257600080fd5b82356143fd81614327565b946020939093013593505050565b60006020828403121561441d57600080fd5b8135612c2881614327565b60008060008060006080868803121561444057600080fd5b853561444b81614327565b9450602086013561445b81614327565b935060408601359250606086013567ffffffffffffffff8082111561447f57600080fd5b818801915088601f83011261449357600080fd5b8135818111156144a257600080fd5b8960208285010111156144b457600080fd5b9699959850939650602001949392505050565b6000602082840312156144d957600080fd5b5035919050565b60008060008060008060c087890312156144f957600080fd5b863595506145096020880161433c565b9450604087013561451981614327565b9350606087013561452981614327565b9250608087013561453981614327565b915060a087013561454981614327565b809150509295509295509295565b600080600080600080600080610100898b03121561457457600080fd5b883561457f81614327565b975060208901359650604089013561459681614327565b95506145a460608a0161433c565b979a969950949760808101359660a0820135965060c0820135955060e0909101359350915050565b6000806000606084860312156145e157600080fd5b83356145ec81614327565b95602085013595506040909401359392505050565b60008060008060008060c0878903121561461a57600080fd5b863561462581614327565b955060208701359450604087013561463c81614327565b935061464a6060880161433c565b92506080870135915060a087013590509295509295509295565b60006020828403121561467657600080fd5b612c288261433c565b600080600080600080600060e0888a03121561469a57600080fd5b87356146a581614327565b96506020880135955060408801356146bc81614327565b94506146ca6060890161433c565b93506146d86080890161433c565b925060a0880135915060c0880135905092959891949750929550565b60208082526010908201526f14185d5cd8589b194e881c185d5cd95960821b604082015260600190565b60006020828403121561473057600080fd5b81518015158114612c2857600080fd5b6020808252601f908201527f5265656e7472616e637947756172643a207265656e7472616e742063616c6c00604082015260600190565b6001600160a01b039384168152919092166020820152604081019190915260600190565b634e487b7160e01b600052601160045260246000fd5b6000828210156147c3576147c361479b565b500390565b6000826147e557634e487b7160e01b600052601260045260246000fd5b500490565b60006001600160601b038381169083168181101561480a5761480a61479b565b039392505050565b600081600019048311821515161561482c5761482c61479b565b500290565b600082198211156148445761484461479b565b500190565b60006001600160601b0380831681851680830382111561486b5761486b61479b565b01949350505050565b6020808252602b908201527f496e697469616c697a61626c653a20636f6e7472616374206973206e6f74206960408201526a6e697469616c697a696e6760a81b606082015260800190565b600080604083850312156148d257600080fd5b82516148dd81614327565b6020939093015192949293505050565b634e487b7160e01b600052603260045260246000fd5b60006020828403121561491557600080fd5b5051919050565b634e487b7160e01b600052603160045260246000fd5b60005b8381101561494d578181015183820152602001614935565b8381111561358c5750506000910152565b60008251614970818460208701614932565b9190910192915050565b6020815260008251806020840152614999816040850160208701614932565b601f01601f1916919091016040019291505056fea26469706673582212206f9ae0d3e70f4a30cd48ac3114aeefdcc4133d4f64c19544b48c46a8cb44edcf64736f6c634300080a0033",
  "devdoc": {
    "kind": "dev",
    "methods": {
      "addPauseAdmin(address)": {
        "details": "Only callable by the owner",
        "params": {
          "_newAdmin": "The address of the new admin to add"
        }
      },
      "cancelDutchAuction(address,uint256)": {
        "params": {
          "_collection": "address of ERC721 token",
          "_tokenId": "token id of ERC721 token"
        }
      },
      "cancelEnglishAuction(address,uint256)": {
        "details": "Note: - Can only be called by auction creator - Can only be cancelled if no bids have been placed",
        "params": {
          "_collection": "address of ERC721 token",
          "_tokenId": "token id of ERC721 token"
        }
      },
      "constructor": {
        "params": {
          "_wavax": "address of WAVAX"
        }
      },
      "emergencyCancelDutchAuction(address,uint256)": {
        "params": {
          "_collection": "address of ERC721 token",
          "_tokenId": "token id of ERC721 token"
        }
      },
      "emergencyCancelEnglishAuction(address,uint256)": {
        "params": {
          "_collection": "address of ERC721 token",
          "_tokenId": "token id of ERC721 token"
        }
      },
      "getDutchAuctionSalePrice(address,uint256)": {
        "params": {
          "_collection": "address of ERC721 token",
          "_tokenId": "token id of ERC721 token"
        },
        "returns": {
          "_0": "current Dutch Auction sale price for specified ERC721 token"
        }
      },
      "getNumberOfPauseAdmin()": {
        "returns": {
          "_0": "The number of pause admins"
        }
      },
      "getPauseAdminAt(uint256)": {
        "params": {
          "_index": "The index in the array"
        },
        "returns": {
          "_0": "The address of the admin at index `_index`"
        }
      },
      "initialize(uint256,uint96,address,address,address,address)": {
        "params": {
          "_currencyManager": "currency manager address",
          "_englishAuctionMinBidIncrementPct": "minimum bid increment percentage for English Auctions",
          "_englishAuctionRefreshTime": "refresh time for English auctions",
          "_protocolFeeManager": "protocol fee manager address",
          "_protocolFeeRecipient": "protocol fee recipient",
          "_royaltyFeeManager": "royalty fee manager address"
        }
      },
      "isPauseAdmin(address)": {
        "params": {
          "_user": "The address of the user"
        },
        "returns": {
          "_0": "Whether the user is an admin (true) or not (false)"
        }
      },
      "owner()": {
        "returns": {
          "_0": "The address of the current owner"
        }
      },
      "pause()": {
        "details": "Only callable by any pause admin"
      },
      "paused()": {
        "details": "Returns true if the contract is paused, and false otherwise."
      },
      "pendingOwner()": {
        "returns": {
          "_0": "The address of the current pending owner"
        }
      },
      "placeEnglishAuctionBid(address,uint256,uint256)": {
        "params": {
          "_amount": "amount of currency to bid",
          "_collection": "address of ERC721 token",
          "_tokenId": "token id of ERC721 token"
        }
      },
      "placeEnglishAuctionBidWithAVAXAndWAVAX(address,uint256,uint256)": {
        "params": {
          "_collection": "address of ERC721 token",
          "_tokenId": "token id of ERC721 token",
          "_wavaxAmount": "amount of WAVAX to bid"
        }
      },
      "removePauseAdmin(address)": {
        "details": "Only callable by the owner",
        "params": {
          "_admin": "The address of the admin to remove"
        }
      },
      "renouncePauseAdmin()": {
        "details": "Only callable by the admin himself"
      },
      "scheduleDutchAuction(address,uint256,address,uint96,uint96,uint256,uint256,uint256,uint256)": {
        "details": "Note: - Requires the auction house to hold the ERC721 token in escrow - Drops in price every `dutchAuctionDropInterval` seconds in equal   amounts",
        "params": {
          "_collection": "address of ERC721 token",
          "_currency": "address of currency to sell ERC721 token for",
          "_dropInterval": "number of seconds between each drop in price",
          "_duration": "number of seconds for Dutch Auction to run",
          "_endPrice": "ending sell price",
          "_minPercentageToAsk": "minimum percentage of the gross amount that goes to ask",
          "_startPrice": "starting sell price",
          "_startTime": "time to start the auction",
          "_tokenId": "token id of ERC721 token"
        }
      },
      "scheduleEnglishAuction(address,uint256,address,uint96,uint96,uint256,uint256)": {
        "details": "Note this requires the auction house to hold the ERC721 token in escrow",
        "params": {
          "_collection": "address of ERC721 token",
          "_currency": "address of currency to sell ERC721 token for",
          "_duration": "number of seconds for English Auction to run",
          "_minPercentageToAsk": "minimum percentage of the gross amount that goes to ask",
          "_startPrice": "minimum starting bid price",
          "_startTime": "time to start the auction",
          "_tokenId": "token id of ERC721 token"
        }
      },
      "settleDutchAuction(address,uint256)": {
        "params": {
          "_collection": "address of ERC721 token",
          "_tokenId": "token id of ERC721 token"
        }
      },
      "settleDutchAuctionWithAVAXAndWAVAX(address,uint256)": {
        "params": {
          "_collection": "address of ERC721 token",
          "_tokenId": "token id of ERC721 token"
        }
      },
      "settleEnglishAuction(address,uint256)": {
        "details": "Note: - Can be called by creator at any time (including before the auction's end time to accept the   current latest bid) - Can be called by anyone after the auction ends - Transfers funds and fees appropriately to seller, royalty receiver, and protocol fee recipient - Transfers ERC721 token to last highest bidder",
        "params": {
          "_collection": "address of ERC721 token",
          "_tokenId": "token id of ERC721 token"
        }
      },
      "startDutchAuction(address,uint256,address,uint96,uint256,uint256,uint256,uint256)": {
        "details": "Note: - Requires the auction house to hold the ERC721 token in escrow - Drops in price every `dutchAuctionDropInterval` seconds in equal   amounts",
        "params": {
          "_collection": "address of ERC721 token",
          "_currency": "address of currency to sell ERC721 token for",
          "_dropInterval": "number of seconds between each drop in price",
          "_duration": "number of seconds for Dutch Auction to run",
          "_endPrice": "ending sell price",
          "_minPercentageToAsk": "minimum percentage of the gross amount that goes to ask",
          "_startPrice": "starting sell price",
          "_tokenId": "token id of ERC721 token"
        }
      },
      "startEnglishAuction(address,uint256,address,uint96,uint256,uint256)": {
        "details": "Note this requires the auction house to hold the ERC721 token in escrow",
        "params": {
          "_collection": "address of ERC721 token",
          "_currency": "address of currency to sell ERC721 token for",
          "_duration": "number of seconds for English Auction to run",
          "_minPercentageToAsk": "minimum percentage of the gross amount that goes to ask",
          "_startPrice": "minimum starting bid price",
          "_tokenId": "token id of ERC721 token"
        }
      },
      "supportsInterface(bytes4)": {
        "details": "Returns true if this contract implements the interface defined by `interfaceId`. See the corresponding https://eips.ethereum.org/EIPS/eip-165#how-interfaces-are-identified[EIP section] to learn more about how these ids are created. This function call must use less than 30 000 gas."
      },
      "unpause()": {
        "details": "Only callable by the owner"
      },
      "updateCurrencyManager(address)": {
        "params": {
          "_currencyManager": "new currency manager address"
        }
      },
      "updateEnglishAuctionMinBidIncrementPct(uint256)": {
        "params": {
          "_englishAuctionMinBidIncrementPct": "new minimum bid increment percetange for English auctions"
        }
      },
      "updateEnglishAuctionRefreshTime(uint96)": {
        "params": {
          "_englishAuctionRefreshTime": "new refresh time for English auctions"
        }
      },
      "updateProtocolFeeManager(address)": {
        "params": {
          "_protocolFeeManager": "new protocol fee manager address"
        }
      },
      "updateProtocolFeeRecipient(address)": {
        "params": {
          "_protocolFeeRecipient": "new recipient for protocol fees"
        }
      },
      "updateRoyaltyFeeManager(address)": {
        "params": {
          "_royaltyFeeManager": "new fee manager address"
        }
      }
    },
    "stateVariables": {
      "dutchAuctions": {
        "details": "(collection address => token id => dutch auction)"
      },
      "englishAuctions": {
        "details": "(collection address => token id => english auction)"
      },
      "userLatestAuctionNonce": {
        "details": "(user address => latest nonce)"
      }
    },
    "title": "JoepegAuctionHouse",
    "version": 1
  },
  "userdoc": {
    "kind": "user",
    "methods": {
      "addPauseAdmin(address)": {
        "notice": "Function to add a pause admin"
      },
      "becomeOwner()": {
        "notice": "Transfers the ownership to the new owner (`pendingOwner`). This will also remove the previousOwner of PauseAdmin and add the new owner. Can only be called by the pending owner (checked within the `super.becomeOwner()`)"
      },
      "cancelDutchAuction(address,uint256)": {
        "notice": "Cancels a running Dutch Auction"
      },
      "cancelEnglishAuction(address,uint256)": {
        "notice": "Cancels an English Auction"
      },
      "constructor": {
        "notice": "Constructor"
      },
      "dutchAuctions(address,uint256)": {
        "notice": "Stores Dutch Auction data for NFTs"
      },
      "emergencyCancelDutchAuction(address,uint256)": {
        "notice": "Only owner function to cancel a Dutch Auction in case of emergencies"
      },
      "emergencyCancelEnglishAuction(address,uint256)": {
        "notice": "Only owner function to cancel an English Auction in case of emergencies"
      },
      "englishAuctionMinBidIncrementPct()": {
        "notice": "Required minimum percent increase from last bid in order to place a new bid on an English Auction"
      },
      "englishAuctionRefreshTime()": {
        "notice": "Represents both: - Number of seconds before an English Auction ends where any new   bid will extend the auction's end time - Number of seconds to extend an English Auction's end time by"
      },
      "englishAuctions(address,uint256)": {
        "notice": "Stores English Auction data for NFTs"
      },
      "getDutchAuctionSalePrice(address,uint256)": {
        "notice": "Calculates current Dutch Auction sale price for an ERC721 token. Returns 0 if the auction hasn't started yet."
      },
      "getNumberOfPauseAdmin()": {
        "notice": "View function to return the number of pause admins"
      },
      "getPauseAdminAt(uint256)": {
        "notice": "View function to return the pause admin at index `_index`"
      },
      "initialize(uint256,uint96,address,address,address,address)": {
        "notice": "Initializer"
      },
      "isPauseAdmin(address)": {
        "notice": "View function to check whether a user is an admin (true) or not (false)"
      },
      "onERC721Received(address,address,uint256,bytes)": {
        "notice": "Required implementation for IERC721Receiver"
      },
      "owner()": {
        "notice": "Returns the address of the current owner"
      },
      "pause()": {
        "notice": "Function to pause the contract"
      },
      "pendingOwner()": {
        "notice": "Returns the address of the current pending owner"
      },
      "placeEnglishAuctionBid(address,uint256,uint256)": {
        "notice": "Place bid on a running English Auction"
      },
      "placeEnglishAuctionBidWithAVAXAndWAVAX(address,uint256,uint256)": {
        "notice": "Place bid on a running English Auction using AVAX and/or WAVAX"
      },
      "removePauseAdmin(address)": {
        "notice": "Function to remove a pause admin"
      },
      "renounceOwnership()": {
        "notice": "Leaves the contract without owner. It will not be possible to call `onlyOwner` functions anymore. Can only be called by the current owner. NOTE: Renouncing ownership will leave the contract without an owner, thereby removing any functionality that is only available to the owner."
      },
      "renouncePauseAdmin()": {
        "notice": "Function callable by any admin to renounce their role"
      },
      "revokePendingOwner()": {
        "notice": "Revoke the pending owner address. This address will not be able to call {becomeOwner} to become the owner anymore. Can only be called by the owner"
      },
      "scheduleDutchAuction(address,uint256,address,uint96,uint96,uint256,uint256,uint256,uint256)": {
        "notice": "Schedules a Dutch Auction for an ERC721 token"
      },
      "scheduleEnglishAuction(address,uint256,address,uint96,uint96,uint256,uint256)": {
        "notice": "Schedules an English Auction for an ERC721 token"
      },
      "setPendingOwner(address)": {
        "notice": "Sets the pending owner address. This address will be able to become the owner of this contract by calling {becomeOwner}"
      },
      "settleDutchAuction(address,uint256)": {
        "notice": "Settles a Dutch Auction"
      },
      "settleDutchAuctionWithAVAXAndWAVAX(address,uint256)": {
        "notice": "Settles a Dutch Auction with AVAX and/or WAVAX"
      },
      "settleEnglishAuction(address,uint256)": {
        "notice": "Settles an English Auction"
      },
      "startDutchAuction(address,uint256,address,uint96,uint256,uint256,uint256,uint256)": {
        "notice": "Starts a Dutch Auction for an ERC721 token"
      },
      "startEnglishAuction(address,uint256,address,uint96,uint256,uint256)": {
        "notice": "Starts an English Auction for an ERC721 token"
      },
      "unpause()": {
        "notice": "Function to unpause the contract"
      },
      "updateCurrencyManager(address)": {
        "notice": "Update currency manager"
      },
      "updateEnglishAuctionMinBidIncrementPct(uint256)": {
        "notice": "Update `englishAuctionMinBidIncrementPct`"
      },
      "updateEnglishAuctionRefreshTime(uint96)": {
        "notice": "Update `englishAuctionRefreshTime`"
      },
      "updateProtocolFeeManager(address)": {
        "notice": "Update protocol fee manager"
      },
      "updateProtocolFeeRecipient(address)": {
        "notice": "Update protocol fee recipient"
      },
      "updateRoyaltyFeeManager(address)": {
        "notice": "Update royalty fee manager"
      },
      "userLatestAuctionNonce(address)": {
        "notice": "Stores latest auction nonce per user"
      }
    },
    "notice": "An auction house that supports running English and Dutch auctions on ERC721 tokens",
    "version": 1
  },
  "storageLayout": {
    "storage": [
      {
        "astId": 130,
        "contract": "contracts/JoepegAuctionHouse.sol:JoepegAuctionHouse",
        "label": "_initialized",
        "offset": 0,
        "slot": "0",
        "type": "t_bool"
      },
      {
        "astId": 133,
        "contract": "contracts/JoepegAuctionHouse.sol:JoepegAuctionHouse",
        "label": "_initializing",
        "offset": 1,
        "slot": "0",
        "type": "t_bool"
      },
      {
        "astId": 695,
        "contract": "contracts/JoepegAuctionHouse.sol:JoepegAuctionHouse",
        "label": "__gap",
        "offset": 0,
        "slot": "1",
        "type": "t_array(t_uint256)50_storage"
      },
      {
        "astId": 13107,
        "contract": "contracts/JoepegAuctionHouse.sol:JoepegAuctionHouse",
        "label": "_owner",
        "offset": 0,
        "slot": "51",
        "type": "t_address"
      },
      {
        "astId": 13109,
        "contract": "contracts/JoepegAuctionHouse.sol:JoepegAuctionHouse",
        "label": "_pendingOwner",
        "offset": 0,
        "slot": "52",
        "type": "t_address"
      },
      {
        "astId": 651,
        "contract": "contracts/JoepegAuctionHouse.sol:JoepegAuctionHouse",
        "label": "__gap",
        "offset": 0,
        "slot": "53",
        "type": "t_array(t_uint256)50_storage"
      },
      {
        "astId": 218,
        "contract": "contracts/JoepegAuctionHouse.sol:JoepegAuctionHouse",
        "label": "_paused",
        "offset": 0,
        "slot": "103",
        "type": "t_bool"
      },
      {
        "astId": 307,
        "contract": "contracts/JoepegAuctionHouse.sol:JoepegAuctionHouse",
        "label": "__gap",
        "offset": 0,
        "slot": "104",
        "type": "t_array(t_uint256)49_storage"
      },
      {
        "astId": 12598,
        "contract": "contracts/JoepegAuctionHouse.sol:JoepegAuctionHouse",
        "label": "_pauseAdmins",
        "offset": 0,
        "slot": "153",
        "type": "t_struct(AddressSet)4879_storage"
      },
      {
        "astId": 322,
        "contract": "contracts/JoepegAuctionHouse.sol:JoepegAuctionHouse",
        "label": "_status",
        "offset": 0,
        "slot": "155",
        "type": "t_uint256"
      },
      {
        "astId": 366,
        "contract": "contracts/JoepegAuctionHouse.sol:JoepegAuctionHouse",
        "label": "__gap",
        "offset": 0,
        "slot": "156",
        "type": "t_array(t_uint256)49_storage"
      },
      {
        "astId": 5719,
        "contract": "contracts/JoepegAuctionHouse.sol:JoepegAuctionHouse",
        "label": "currencyManager",
        "offset": 0,
        "slot": "205",
        "type": "t_contract(ICurrencyManager)11214"
      },
      {
        "astId": 5722,
        "contract": "contracts/JoepegAuctionHouse.sol:JoepegAuctionHouse",
        "label": "protocolFeeManager",
        "offset": 0,
        "slot": "206",
        "type": "t_contract(IProtocolFeeManager)11553"
      },
      {
        "astId": 5725,
        "contract": "contracts/JoepegAuctionHouse.sol:JoepegAuctionHouse",
        "label": "royaltyFeeManager",
        "offset": 0,
        "slot": "207",
        "type": "t_contract(IRoyaltyFeeManager)11569"
      },
      {
        "astId": 5727,
        "contract": "contracts/JoepegAuctionHouse.sol:JoepegAuctionHouse",
        "label": "protocolFeeRecipient",
        "offset": 0,
        "slot": "208",
        "type": "t_address"
      },
      {
        "astId": 5732,
        "contract": "contracts/JoepegAuctionHouse.sol:JoepegAuctionHouse",
        "label": "userLatestAuctionNonce",
        "offset": 0,
        "slot": "209",
        "type": "t_mapping(t_address,t_uint256)"
      },
      {
        "astId": 5740,
        "contract": "contracts/JoepegAuctionHouse.sol:JoepegAuctionHouse",
        "label": "dutchAuctions",
        "offset": 0,
        "slot": "210",
        "type": "t_mapping(t_address,t_mapping(t_uint256,t_struct(DutchAuction)5692_storage))"
      },
      {
        "astId": 5748,
        "contract": "contracts/JoepegAuctionHouse.sol:JoepegAuctionHouse",
        "label": "englishAuctions",
        "offset": 0,
        "slot": "211",
        "type": "t_mapping(t_address,t_mapping(t_uint256,t_struct(EnglishAuction)5711_storage))"
      },
      {
        "astId": 5751,
        "contract": "contracts/JoepegAuctionHouse.sol:JoepegAuctionHouse",
        "label": "englishAuctionMinBidIncrementPct",
        "offset": 0,
        "slot": "212",
        "type": "t_uint256"
      },
      {
        "astId": 5754,
        "contract": "contracts/JoepegAuctionHouse.sol:JoepegAuctionHouse",
        "label": "englishAuctionRefreshTime",
        "offset": 0,
        "slot": "213",
        "type": "t_uint96"
      }
    ],
    "types": {
      "t_address": {
        "encoding": "inplace",
        "label": "address",
        "numberOfBytes": "20"
      },
      "t_array(t_bytes32)dyn_storage": {
        "base": "t_bytes32",
        "encoding": "dynamic_array",
        "label": "bytes32[]",
        "numberOfBytes": "32"
      },
      "t_array(t_uint256)49_storage": {
        "base": "t_uint256",
        "encoding": "inplace",
        "label": "uint256[49]",
        "numberOfBytes": "1568"
      },
      "t_array(t_uint256)50_storage": {
        "base": "t_uint256",
        "encoding": "inplace",
        "label": "uint256[50]",
        "numberOfBytes": "1600"
      },
      "t_bool": {
        "encoding": "inplace",
        "label": "bool",
        "numberOfBytes": "1"
      },
      "t_bytes32": {
        "encoding": "inplace",
        "label": "bytes32",
        "numberOfBytes": "32"
      },
      "t_contract(ICurrencyManager)11214": {
        "encoding": "inplace",
        "label": "contract ICurrencyManager",
        "numberOfBytes": "20"
      },
      "t_contract(IProtocolFeeManager)11553": {
        "encoding": "inplace",
        "label": "contract IProtocolFeeManager",
        "numberOfBytes": "20"
      },
      "t_contract(IRoyaltyFeeManager)11569": {
        "encoding": "inplace",
        "label": "contract IRoyaltyFeeManager",
        "numberOfBytes": "20"
      },
      "t_mapping(t_address,t_mapping(t_uint256,t_struct(DutchAuction)5692_storage))": {
        "encoding": "mapping",
        "key": "t_address",
        "label": "mapping(address => mapping(uint256 => struct JoepegAuctionHouse.DutchAuction))",
        "numberOfBytes": "32",
        "value": "t_mapping(t_uint256,t_struct(DutchAuction)5692_storage)"
      },
      "t_mapping(t_address,t_mapping(t_uint256,t_struct(EnglishAuction)5711_storage))": {
        "encoding": "mapping",
        "key": "t_address",
        "label": "mapping(address => mapping(uint256 => struct JoepegAuctionHouse.EnglishAuction))",
        "numberOfBytes": "32",
        "value": "t_mapping(t_uint256,t_struct(EnglishAuction)5711_storage)"
      },
      "t_mapping(t_address,t_uint256)": {
        "encoding": "mapping",
        "key": "t_address",
        "label": "mapping(address => uint256)",
        "numberOfBytes": "32",
        "value": "t_uint256"
      },
      "t_mapping(t_bytes32,t_uint256)": {
        "encoding": "mapping",
        "key": "t_bytes32",
        "label": "mapping(bytes32 => uint256)",
        "numberOfBytes": "32",
        "value": "t_uint256"
      },
      "t_mapping(t_uint256,t_struct(DutchAuction)5692_storage)": {
        "encoding": "mapping",
        "key": "t_uint256",
        "label": "mapping(uint256 => struct JoepegAuctionHouse.DutchAuction)",
        "numberOfBytes": "32",
        "value": "t_struct(DutchAuction)5692_storage"
      },
      "t_mapping(t_uint256,t_struct(EnglishAuction)5711_storage)": {
        "encoding": "mapping",
        "key": "t_uint256",
        "label": "mapping(uint256 => struct JoepegAuctionHouse.EnglishAuction)",
        "numberOfBytes": "32",
        "value": "t_struct(EnglishAuction)5711_storage"
      },
      "t_struct(AddressSet)4879_storage": {
        "encoding": "inplace",
        "label": "struct EnumerableSet.AddressSet",
        "members": [
          {
            "astId": 4878,
            "contract": "contracts/JoepegAuctionHouse.sol:JoepegAuctionHouse",
            "label": "_inner",
            "offset": 0,
            "slot": "0",
            "type": "t_struct(Set)4578_storage"
          }
        ],
        "numberOfBytes": "64"
      },
      "t_struct(DutchAuction)5692_storage": {
        "encoding": "inplace",
        "label": "struct JoepegAuctionHouse.DutchAuction",
        "members": [
          {
            "astId": 5675,
            "contract": "contracts/JoepegAuctionHouse.sol:JoepegAuctionHouse",
            "label": "creator",
            "offset": 0,
            "slot": "0",
            "type": "t_address"
          },
          {
            "astId": 5677,
            "contract": "contracts/JoepegAuctionHouse.sol:JoepegAuctionHouse",
            "label": "startTime",
            "offset": 20,
            "slot": "0",
            "type": "t_uint96"
          },
          {
            "astId": 5679,
            "contract": "contracts/JoepegAuctionHouse.sol:JoepegAuctionHouse",
            "label": "currency",
            "offset": 0,
            "slot": "1",
            "type": "t_address"
          },
          {
            "astId": 5681,
            "contract": "contracts/JoepegAuctionHouse.sol:JoepegAuctionHouse",
            "label": "endTime",
            "offset": 20,
            "slot": "1",
            "type": "t_uint96"
          },
          {
            "astId": 5683,
            "contract": "contracts/JoepegAuctionHouse.sol:JoepegAuctionHouse",
            "label": "nonce",
            "offset": 0,
            "slot": "2",
            "type": "t_uint256"
          },
          {
            "astId": 5685,
            "contract": "contracts/JoepegAuctionHouse.sol:JoepegAuctionHouse",
            "label": "startPrice",
            "offset": 0,
            "slot": "3",
            "type": "t_uint256"
          },
          {
            "astId": 5687,
            "contract": "contracts/JoepegAuctionHouse.sol:JoepegAuctionHouse",
            "label": "endPrice",
            "offset": 0,
            "slot": "4",
            "type": "t_uint256"
          },
          {
            "astId": 5689,
            "contract": "contracts/JoepegAuctionHouse.sol:JoepegAuctionHouse",
            "label": "dropInterval",
            "offset": 0,
            "slot": "5",
            "type": "t_uint256"
          },
          {
            "astId": 5691,
            "contract": "contracts/JoepegAuctionHouse.sol:JoepegAuctionHouse",
            "label": "minPercentageToAsk",
            "offset": 0,
            "slot": "6",
            "type": "t_uint256"
          }
        ],
        "numberOfBytes": "224"
      },
      "t_struct(EnglishAuction)5711_storage": {
        "encoding": "inplace",
        "label": "struct JoepegAuctionHouse.EnglishAuction",
        "members": [
          {
            "astId": 5694,
            "contract": "contracts/JoepegAuctionHouse.sol:JoepegAuctionHouse",
            "label": "creator",
            "offset": 0,
            "slot": "0",
            "type": "t_address"
          },
          {
            "astId": 5696,
            "contract": "contracts/JoepegAuctionHouse.sol:JoepegAuctionHouse",
            "label": "currency",
            "offset": 0,
            "slot": "1",
            "type": "t_address"
          },
          {
            "astId": 5698,
            "contract": "contracts/JoepegAuctionHouse.sol:JoepegAuctionHouse",
            "label": "startTime",
            "offset": 20,
            "slot": "1",
            "type": "t_uint96"
          },
          {
            "astId": 5700,
            "contract": "contracts/JoepegAuctionHouse.sol:JoepegAuctionHouse",
            "label": "lastBidder",
            "offset": 0,
            "slot": "2",
            "type": "t_address"
          },
          {
            "astId": 5702,
            "contract": "contracts/JoepegAuctionHouse.sol:JoepegAuctionHouse",
            "label": "endTime",
            "offset": 20,
            "slot": "2",
            "type": "t_uint96"
          },
          {
            "astId": 5704,
            "contract": "contracts/JoepegAuctionHouse.sol:JoepegAuctionHouse",
            "label": "nonce",
            "offset": 0,
            "slot": "3",
            "type": "t_uint256"
          },
          {
            "astId": 5706,
            "contract": "contracts/JoepegAuctionHouse.sol:JoepegAuctionHouse",
            "label": "lastBidPrice",
            "offset": 0,
            "slot": "4",
            "type": "t_uint256"
          },
          {
            "astId": 5708,
            "contract": "contracts/JoepegAuctionHouse.sol:JoepegAuctionHouse",
            "label": "startPrice",
            "offset": 0,
            "slot": "5",
            "type": "t_uint256"
          },
          {
            "astId": 5710,
            "contract": "contracts/JoepegAuctionHouse.sol:JoepegAuctionHouse",
            "label": "minPercentageToAsk",
            "offset": 0,
            "slot": "6",
            "type": "t_uint256"
          }
        ],
        "numberOfBytes": "224"
      },
      "t_struct(Set)4578_storage": {
        "encoding": "inplace",
        "label": "struct EnumerableSet.Set",
        "members": [
          {
            "astId": 4573,
            "contract": "contracts/JoepegAuctionHouse.sol:JoepegAuctionHouse",
            "label": "_values",
            "offset": 0,
            "slot": "0",
            "type": "t_array(t_bytes32)dyn_storage"
          },
          {
            "astId": 4577,
            "contract": "contracts/JoepegAuctionHouse.sol:JoepegAuctionHouse",
            "label": "_indexes",
            "offset": 0,
            "slot": "1",
            "type": "t_mapping(t_bytes32,t_uint256)"
          }
        ],
        "numberOfBytes": "64"
      },
      "t_uint256": {
        "encoding": "inplace",
        "label": "uint256",
        "numberOfBytes": "32"
      },
      "t_uint96": {
        "encoding": "inplace",
        "label": "uint96",
        "numberOfBytes": "12"
      }
    }
  }
}