{
  "address": "0xcfD602a6d9AD3D75b00F9eE8eeEeb1E97d64B807",
  "abi": [
    {
      "anonymous": false,
      "inputs": [
        {
          "indexed": true,
          "internalType": "address",
          "name": "previousOwner",
          "type": "address"
        },
        {
          "indexed": true,
          "internalType": "address",
          "name": "newOwner",
          "type": "address"
        }
      ],
      "name": "OwnershipTransferred",
      "type": "event"
    },
    {
      "inputs": [],
      "name": "INTERFACE_ID_ERC2981",
      "outputs": [
        {
          "internalType": "bytes4",
          "name": "",
          "type": "bytes4"
        }
      ],
      "stateMutability": "view",
      "type": "function"
    },
    {
      "inputs": [
        {
          "internalType": "address",
          "name": "collection",
          "type": "address"
        },
        {
          "internalType": "uint256",
          "name": "tokenId",
          "type": "uint256"
        },
        {
          "internalType": "uint256",
          "name": "amount",
          "type": "uint256"
        }
      ],
      "name": "calculateRoyaltyFeeAndGetRecipient",
      "outputs": [
        {
          "internalType": "address",
          "name": "",
          "type": "address"
        },
        {
          "internalType": "uint256",
          "name": "",
          "type": "uint256"
        }
      ],
      "stateMutability": "view",
      "type": "function"
    },
    {
      "inputs": [
        {
          "internalType": "address",
          "name": "_royaltyFeeRegistry",
          "type": "address"
        }
      ],
      "name": "initialize",
      "outputs": [],
      "stateMutability": "nonpayable",
      "type": "function"
    },
    {
      "inputs": [],
      "name": "owner",
      "outputs": [
        {
          "internalType": "address",
          "name": "",
          "type": "address"
        }
      ],
      "stateMutability": "view",
      "type": "function"
    },
    {
      "inputs": [],
      "name": "renounceOwnership",
      "outputs": [],
      "stateMutability": "nonpayable",
      "type": "function"
    },
    {
      "inputs": [],
      "name": "royaltyFeeRegistry",
      "outputs": [
        {
          "internalType": "contract IRoyaltyFeeRegistry",
          "name": "",
          "type": "address"
        }
      ],
      "stateMutability": "view",
      "type": "function"
    },
    {
      "inputs": [
        {
          "internalType": "address",
          "name": "newOwner",
          "type": "address"
        }
      ],
      "name": "transferOwnership",
      "outputs": [],
      "stateMutability": "nonpayable",
      "type": "function"
    }
  ],
  "transactionHash": "0x721319c6db4d6b81e5cb43dd7428f5a433311a0423fa994767e5559e4748b587",
  "args": [],
  "numDeployments": 1,
  "solcInputHash": "7c2e4bade457d7736b90e02c2377cd79",
  "bytecode": "0x608060405234801561001057600080fd5b506106d4806100206000396000f3fe608060405234801561001057600080fd5b506004361061007d5760003560e01c8063c16f51561161005b578063c16f5156146100dd578063c4d66de8146100f0578063f2fde38b14610103578063f4f635fa1461011657600080fd5b8063715018a6146100825780638da5cb5b1461008c578063b060dd86146100b6575b600080fd5b61008a610148565b005b6033546001600160a01b03165b6040516001600160a01b0390911681526020015b60405180910390f35b6100c463152a902d60e11b81565b6040516001600160e01b031990911681526020016100ad565b606554610099906001600160a01b031681565b61008a6100fe3660046105aa565b6101b3565b61008a6101113660046105aa565b610290565b6101296101243660046105ce565b61035b565b604080516001600160a01b0390931683526020830191909152016100ad565b6033546001600160a01b031633146101a75760405162461bcd60e51b815260206004820181905260248201527f4f776e61626c653a2063616c6c6572206973206e6f7420746865206f776e657260448201526064015b60405180910390fd5b6101b160006104e9565b565b600054610100900460ff166101ce5760005460ff16156101d2565b303b155b6102355760405162461bcd60e51b815260206004820152602e60248201527f496e697469616c697a61626c653a20636f6e747261637420697320616c72656160448201526d191e481a5b9a5d1a585b1a5e995960921b606482015260840161019e565b600054610100900460ff16158015610257576000805461ffff19166101011790555b61025f61053b565b606580546001600160a01b0319166001600160a01b038416179055801561028c576000805461ff00191690555b5050565b6033546001600160a01b031633146102ea5760405162461bcd60e51b815260206004820181905260248201527f4f776e61626c653a2063616c6c6572206973206e6f7420746865206f776e6572604482015260640161019e565b6001600160a01b03811661034f5760405162461bcd60e51b815260206004820152602660248201527f4f776e61626c653a206e6577206f776e657220697320746865207a65726f206160448201526564647265737360d01b606482015260840161019e565b610358816104e9565b50565b606554604051632782d6c760e01b81526001600160a01b038581166004830152602482018490526000928392839283921690632782d6c7906044016040805180830381865afa1580156103b2573d6000803e3d6000fd5b505050506040513d601f19601f820116820180604052508101906103d69190610603565b90925090506001600160a01b03821615806103ef575080155b156104dd576040516301ffc9a760e01b815263152a902d60e11b60048201526001600160a01b038816906301ffc9a790602401602060405180830381865afa15801561043f573d6000803e3d6000fd5b505050506040513d601f19601f820116820180604052508101906104639190610631565b156104dd5760405163152a902d60e11b815260048101879052602481018690526001600160a01b03881690632a55205a906044016040805180830381865afa1580156104b3573d6000803e3d6000fd5b505050506040513d601f19601f820116820180604052508101906104d79190610603565b90925090505b90969095509350505050565b603380546001600160a01b038381166001600160a01b0319831681179093556040519116919082907f8be0079c531659141344cd1fd0a4f28419497f9722a3daafe3b4186f6b6457e090600090a35050565b600054610100900460ff166105625760405162461bcd60e51b815260040161019e90610653565b6101b1600054610100900460ff1661058c5760405162461bcd60e51b815260040161019e90610653565b6101b1336104e9565b6001600160a01b038116811461035857600080fd5b6000602082840312156105bc57600080fd5b81356105c781610595565b9392505050565b6000806000606084860312156105e357600080fd5b83356105ee81610595565b95602085013595506040909401359392505050565b6000806040838503121561061657600080fd5b825161062181610595565b6020939093015192949293505050565b60006020828403121561064357600080fd5b815180151581146105c757600080fd5b6020808252602b908201527f496e697469616c697a61626c653a20636f6e7472616374206973206e6f74206960408201526a6e697469616c697a696e6760a81b60608201526080019056fea264697066735822122023cb1a448025194844f30d6dda09342ba59e18c531be01ee3d94dfa4dfb6654a64736f6c634300080a0033",
  "devdoc": {
    "kind": "dev",
    "methods": {
      "calculateRoyaltyFeeAndGetRecipient(address,uint256,uint256)": {
        "params": {
          "amount": "amount to transfer",
          "collection": "address of the NFT contract",
          "tokenId": "tokenId"
        }
      },
      "initialize(address)": {
        "params": {
          "_royaltyFeeRegistry": "address of the RoyaltyFeeRegistry"
        }
      },
      "owner()": {
        "details": "Returns the address of the current owner."
      },
      "renounceOwnership()": {
        "details": "Leaves the contract without owner. It will not be possible to call `onlyOwner` functions anymore. Can only be called by the current owner. NOTE: Renouncing ownership will leave the contract without an owner, thereby removing any functionality that is only available to the owner."
      },
      "transferOwnership(address)": {
        "details": "Transfers ownership of the contract to a new account (`newOwner`). Can only be called by the current owner."
      }
    },
    "title": "RoyaltyFeeManager",
    "version": 1
  },
  "userdoc": {
    "kind": "user",
    "methods": {
      "calculateRoyaltyFeeAndGetRecipient(address,uint256,uint256)": {
        "notice": "Calculate royalty fee and get recipient"
      },
      "initialize(address)": {
        "notice": "Initializer"
      }
    },
    "notice": "Handles the logic to check and transfer royalty fees (if any).",
    "version": 1
  },
  "storageLayout": {
    "storage": [
      {
        "astId": 130,
        "contract": "contracts/RoyaltyFeeManager.sol:RoyaltyFeeManager",
        "label": "_initialized",
        "offset": 0,
        "slot": "0",
        "type": "t_bool"
      },
      {
        "astId": 133,
        "contract": "contracts/RoyaltyFeeManager.sol:RoyaltyFeeManager",
        "label": "_initializing",
        "offset": 1,
        "slot": "0",
        "type": "t_bool"
      },
      {
        "astId": 540,
        "contract": "contracts/RoyaltyFeeManager.sol:RoyaltyFeeManager",
        "label": "__gap",
        "offset": 0,
        "slot": "1",
        "type": "t_array(t_uint256)50_storage"
      },
      {
        "astId": 10,
        "contract": "contracts/RoyaltyFeeManager.sol:RoyaltyFeeManager",
        "label": "_owner",
        "offset": 0,
        "slot": "51",
        "type": "t_address"
      },
      {
        "astId": 122,
        "contract": "contracts/RoyaltyFeeManager.sol:RoyaltyFeeManager",
        "label": "__gap",
        "offset": 0,
        "slot": "52",
        "type": "t_array(t_uint256)49_storage"
      },
      {
        "astId": 5343,
        "contract": "contracts/RoyaltyFeeManager.sol:RoyaltyFeeManager",
        "label": "royaltyFeeRegistry",
        "offset": 0,
        "slot": "101",
        "type": "t_contract(IRoyaltyFeeRegistry)6939"
      }
    ],
    "types": {
      "t_address": {
        "encoding": "inplace",
        "label": "address",
        "numberOfBytes": "20"
      },
      "t_array(t_uint256)49_storage": {
        "base": "t_uint256",
        "encoding": "inplace",
        "label": "uint256[49]",
        "numberOfBytes": "1568"
      },
      "t_array(t_uint256)50_storage": {
        "base": "t_uint256",
        "encoding": "inplace",
        "label": "uint256[50]",
        "numberOfBytes": "1600"
      },
      "t_bool": {
        "encoding": "inplace",
        "label": "bool",
        "numberOfBytes": "1"
      },
      "t_contract(IRoyaltyFeeRegistry)6939": {
        "encoding": "inplace",
        "label": "contract IRoyaltyFeeRegistry",
        "numberOfBytes": "20"
      },
      "t_uint256": {
        "encoding": "inplace",
        "label": "uint256",
        "numberOfBytes": "32"
      }
    }
  }
}