{
  "address": "0x456E1ebd858171a4e8Dd5938BC404DC66b644d5d",
  "abi": [
    {
      "anonymous": false,
      "inputs": [
        {
          "indexed": true,
          "internalType": "address",
          "name": "strategy",
          "type": "address"
        }
      ],
      "name": "NewCollectionBidStrategy",
      "type": "event"
    },
    {
      "anonymous": false,
      "inputs": [
        {
          "indexed": true,
          "internalType": "address",
          "name": "previousOwner",
          "type": "address"
        },
        {
          "indexed": true,
          "internalType": "address",
          "name": "newOwner",
          "type": "address"
        }
      ],
      "name": "OwnershipTransferred",
      "type": "event"
    },
    {
      "anonymous": false,
      "inputs": [
        {
          "indexed": true,
          "internalType": "address",
          "name": "strategy",
          "type": "address"
        }
      ],
      "name": "StrategyRemoved",
      "type": "event"
    },
    {
      "anonymous": false,
      "inputs": [
        {
          "indexed": true,
          "internalType": "address",
          "name": "strategy",
          "type": "address"
        }
      ],
      "name": "StrategyWhitelisted",
      "type": "event"
    },
    {
      "inputs": [
        {
          "internalType": "address",
          "name": "strategy",
          "type": "address"
        }
      ],
      "name": "addStrategy",
      "outputs": [],
      "stateMutability": "nonpayable",
      "type": "function"
    },
    {
      "inputs": [
        {
          "internalType": "address",
          "name": "strategy",
          "type": "address"
        }
      ],
      "name": "isStrategyWhitelisted",
      "outputs": [
        {
          "internalType": "bool",
          "name": "",
          "type": "bool"
        }
      ],
      "stateMutability": "view",
      "type": "function"
    },
    {
      "inputs": [],
      "name": "owner",
      "outputs": [
        {
          "internalType": "address",
          "name": "",
          "type": "address"
        }
      ],
      "stateMutability": "view",
      "type": "function"
    },
    {
      "inputs": [
        {
          "internalType": "address",
          "name": "strategy",
          "type": "address"
        }
      ],
      "name": "removeStrategy",
      "outputs": [],
      "stateMutability": "nonpayable",
      "type": "function"
    },
    {
      "inputs": [],
      "name": "renounceOwnership",
      "outputs": [],
      "stateMutability": "nonpayable",
      "type": "function"
    },
    {
      "inputs": [
        {
          "internalType": "address",
          "name": "newOwner",
          "type": "address"
        }
      ],
      "name": "transferOwnership",
      "outputs": [],
      "stateMutability": "nonpayable",
      "type": "function"
    },
    {
      "inputs": [],
      "name": "viewCountWhitelistedStrategies",
      "outputs": [
        {
          "internalType": "uint256",
          "name": "",
          "type": "uint256"
        }
      ],
      "stateMutability": "view",
      "type": "function"
    },
    {
      "inputs": [
        {
          "internalType": "uint256",
          "name": "cursor",
          "type": "uint256"
        },
        {
          "internalType": "uint256",
          "name": "size",
          "type": "uint256"
        }
      ],
      "name": "viewWhitelistedStrategies",
      "outputs": [
        {
          "internalType": "address[]",
          "name": "",
          "type": "address[]"
        },
        {
          "internalType": "uint256",
          "name": "",
          "type": "uint256"
        }
      ],
      "stateMutability": "view",
      "type": "function"
    }
  ],
  "transactionHash": "0x3da4b8a0911266438644365d3939e30b1135c57ba288d693dbd7239ef847c047",
  "args": [],
  "numDeployments": 1,
  "solcInputHash": "2a679294a49545d297218a61526ed34a",
  "bytecode": "0x608060405234801561001057600080fd5b5061001a3361001f565b61006f565b600080546001600160a01b038381166001600160a01b0319831681178455604051919092169283917f8be0079c531659141344cd1fd0a4f28419497f9722a3daafe3b4186f6b6457e09190a35050565b6108948061007e6000396000f3fe608060405234801561001057600080fd5b50600436106100885760003560e01c80638da5cb5b1161005b5780638da5cb5b146100e7578063985e3a2f14610102578063999ba27c14610118578063f2fde38b1461013b57600080fd5b8063175188e81461008d578063223e5479146100a257806331fb5b1f146100b5578063715018a6146100df575b600080fd5b6100a061009b3660046106eb565b61014e565b005b6100a06100b03660046106eb565b61021b565b6100c86100c3366004610714565b6102e0565b6040516100d6929190610736565b60405180910390f35b6100a06103d5565b6000546040516001600160a01b0390911681526020016100d6565b61010a61040b565b6040519081526020016100d6565b61012b6101263660046106eb565b61041c565b60405190151581526020016100d6565b6100a06101493660046106eb565b61042f565b6000546001600160a01b031633146101815760405162461bcd60e51b815260040161017890610787565b60405180910390fd5b61018c6001826104ca565b6101d85760405162461bcd60e51b815260206004820152601960248201527f53747261746567793a204e6f742077686974656c6973746564000000000000006044820152606401610178565b6101e36001826104ef565b506040516001600160a01b038216907f09a1db4b80c32706328728508c941a6b954f31eb5affd32f236c1fd405f8fea490600090a250565b6000546001600160a01b031633146102455760405162461bcd60e51b815260040161017890610787565b6102506001826104ca565b1561029d5760405162461bcd60e51b815260206004820152601d60248201527f53747261746567793a20416c72656164792077686974656c69737465640000006044820152606401610178565b6102a8600182610504565b506040516001600160a01b038216907f6b583e2e3ad2e182671d77905fee57b1ffd8ce2aa5c0b652ca029317919751a490600090a250565b6060600082846102f06001610519565b6102fa91906107d4565b811115610319578461030c6001610519565b61031691906107d4565b90505b60008167ffffffffffffffff81111561033457610334610848565b60405190808252806020026020018201604052801561035d578160200160208202803683370190505b50905060005b828110156103bc5761038061037882896107bc565b600190610523565b82828151811061039257610392610832565b6001600160a01b0390921660209283029190910190910152806103b4816107eb565b915050610363565b50806103c883886107bc565b9350935050509250929050565b6000546001600160a01b031633146103ff5760405162461bcd60e51b815260040161017890610787565b610409600061052f565b565b60006104176001610519565b905090565b60006104296001836104ca565b92915050565b6000546001600160a01b031633146104595760405162461bcd60e51b815260040161017890610787565b6001600160a01b0381166104be5760405162461bcd60e51b815260206004820152602660248201527f4f776e61626c653a206e6577206f776e657220697320746865207a65726f206160448201526564647265737360d01b6064820152608401610178565b6104c78161052f565b50565b6001600160a01b038116600090815260018301602052604081205415155b9392505050565b60006104e8836001600160a01b03841661057f565b60006104e8836001600160a01b038416610672565b6000610429825490565b60006104e883836106c1565b600080546001600160a01b038381166001600160a01b0319831681178455604051919092169283917f8be0079c531659141344cd1fd0a4f28419497f9722a3daafe3b4186f6b6457e09190a35050565b600081815260018301602052604081205480156106685760006105a36001836107d4565b85549091506000906105b7906001906107d4565b905081811461061c5760008660000182815481106105d7576105d7610832565b90600052602060002001549050808760000184815481106105fa576105fa610832565b6000918252602080832090910192909255918252600188019052604090208390555b855486908061062d5761062d61081c565b600190038181906000526020600020016000905590558560010160008681526020019081526020016000206000905560019350505050610429565b6000915050610429565b60008181526001830160205260408120546106b957508154600181810184556000848152602080822090930184905584548482528286019093526040902091909155610429565b506000610429565b60008260000182815481106106d8576106d8610832565b9060005260206000200154905092915050565b6000602082840312156106fd57600080fd5b81356001600160a01b03811681146104e857600080fd5b6000806040838503121561072757600080fd5b50508035926020909101359150565b604080825283519082018190526000906020906060840190828701845b828110156107785781516001600160a01b031684529284019290840190600101610753565b50505092019290925292915050565b6020808252818101527f4f776e61626c653a2063616c6c6572206973206e6f7420746865206f776e6572604082015260600190565b600082198211156107cf576107cf610806565b500190565b6000828210156107e6576107e6610806565b500390565b60006000198214156107ff576107ff610806565b5060010190565b634e487b7160e01b600052601160045260246000fd5b634e487b7160e01b600052603160045260246000fd5b634e487b7160e01b600052603260045260246000fd5b634e487b7160e01b600052604160045260246000fdfea26469706673582212204bfcaa7dfcdd2a83179f5170c850a595c27c8f0b267e65967db12ec329020efb64736f6c63430008060033",
  "devdoc": {
    "kind": "dev",
    "methods": {
      "addStrategy(address)": {
        "params": {
          "strategy": "address of the strategy to add"
        }
      },
      "isStrategyWhitelisted(address)": {
        "params": {
          "strategy": "address of the strategy"
        }
      },
      "owner()": {
        "details": "Returns the address of the current owner."
      },
      "removeStrategy(address)": {
        "params": {
          "strategy": "address of the strategy to remove"
        }
      },
      "renounceOwnership()": {
        "details": "Leaves the contract without owner. It will not be possible to call `onlyOwner` functions anymore. Can only be called by the current owner. NOTE: Renouncing ownership will leave the contract without an owner, thereby removing any functionality that is only available to the owner."
      },
      "transferOwnership(address)": {
        "details": "Transfers ownership of the contract to a new account (`newOwner`). Can only be called by the current owner."
      },
      "viewWhitelistedStrategies(uint256,uint256)": {
        "params": {
          "cursor": "cursor (should start at 0 for first request)",
          "size": "size of the response (e.g., 50)"
        }
      }
    },
    "title": "ExecutionManager",
    "version": 1
  },
  "userdoc": {
    "kind": "user",
    "methods": {
      "addStrategy(address)": {
        "notice": "Add an execution strategy in the system"
      },
      "isStrategyWhitelisted(address)": {
        "notice": "Returns if an execution strategy is in the system"
      },
      "removeStrategy(address)": {
        "notice": "Remove an execution strategy from the system"
      },
      "viewCountWhitelistedStrategies()": {
        "notice": "View number of whitelisted strategies"
      },
      "viewWhitelistedStrategies(uint256,uint256)": {
        "notice": "See whitelisted strategies in the system"
      }
    },
    "notice": "It allows adding/removing execution strategies for trading on the Joepeg exchange.",
    "version": 1
  },
  "storageLayout": {
    "storage": [
      {
        "astId": 7,
        "contract": "contracts/ExecutionManager.sol:ExecutionManager",
        "label": "_owner",
        "offset": 0,
        "slot": "0",
        "type": "t_address"
      },
      {
        "astId": 3069,
        "contract": "contracts/ExecutionManager.sol:ExecutionManager",
        "label": "_whitelistedStrategies",
        "offset": 0,
        "slot": "1",
        "type": "t_struct(AddressSet)2573_storage"
      }
    ],
    "types": {
      "t_address": {
        "encoding": "inplace",
        "label": "address",
        "numberOfBytes": "20"
      },
      "t_array(t_bytes32)dyn_storage": {
        "base": "t_bytes32",
        "encoding": "dynamic_array",
        "label": "bytes32[]",
        "numberOfBytes": "32"
      },
      "t_bytes32": {
        "encoding": "inplace",
        "label": "bytes32",
        "numberOfBytes": "32"
      },
      "t_mapping(t_bytes32,t_uint256)": {
        "encoding": "mapping",
        "key": "t_bytes32",
        "label": "mapping(bytes32 => uint256)",
        "numberOfBytes": "32",
        "value": "t_uint256"
      },
      "t_struct(AddressSet)2573_storage": {
        "encoding": "inplace",
        "label": "struct EnumerableSet.AddressSet",
        "members": [
          {
            "astId": 2572,
            "contract": "contracts/ExecutionManager.sol:ExecutionManager",
            "label": "_inner",
            "offset": 0,
            "slot": "0",
            "type": "t_struct(Set)2272_storage"
          }
        ],
        "numberOfBytes": "64"
      },
      "t_struct(Set)2272_storage": {
        "encoding": "inplace",
        "label": "struct EnumerableSet.Set",
        "members": [
          {
            "astId": 2267,
            "contract": "contracts/ExecutionManager.sol:ExecutionManager",
            "label": "_values",
            "offset": 0,
            "slot": "0",
            "type": "t_array(t_bytes32)dyn_storage"
          },
          {
            "astId": 2271,
            "contract": "contracts/ExecutionManager.sol:ExecutionManager",
            "label": "_indexes",
            "offset": 0,
            "slot": "1",
            "type": "t_mapping(t_bytes32,t_uint256)"
          }
        ],
        "numberOfBytes": "64"
      },
      "t_uint256": {
        "encoding": "inplace",
        "label": "uint256",
        "numberOfBytes": "32"
      }
    }
  }
}