{
  "address": "0x71248d4c6D8264A57881f35374bdb78dFc347180",
  "abi": [
    {
      "inputs": [
        {
          "internalType": "address",
          "name": "_currencyManager",
          "type": "address"
        },
        {
          "internalType": "address",
          "name": "_executionManager",
          "type": "address"
        },
        {
          "internalType": "address",
          "name": "_protocolFeeManager",
          "type": "address"
        },
        {
          "internalType": "address",
          "name": "_royaltyFeeManager",
          "type": "address"
        },
        {
          "internalType": "address",
          "name": "_WAVAX",
          "type": "address"
        },
        {
          "internalType": "address",
          "name": "_protocolFeeRecipient",
          "type": "address"
        }
      ],
      "stateMutability": "nonpayable",
      "type": "constructor"
    },
    {
      "anonymous": false,
      "inputs": [
        {
          "indexed": true,
          "internalType": "address",
          "name": "user",
          "type": "address"
        },
        {
          "indexed": false,
          "internalType": "uint256",
          "name": "newMinNonce",
          "type": "uint256"
        }
      ],
      "name": "CancelAllOrders",
      "type": "event"
    },
    {
      "anonymous": false,
      "inputs": [
        {
          "indexed": true,
          "internalType": "address",
          "name": "user",
          "type": "address"
        },
        {
          "indexed": false,
          "internalType": "uint256[]",
          "name": "orderNonces",
          "type": "uint256[]"
        }
      ],
      "name": "CancelMultipleOrders",
      "type": "event"
    },
    {
      "anonymous": false,
      "inputs": [
        {
          "indexed": true,
          "internalType": "address",
          "name": "currencyManager",
          "type": "address"
        }
      ],
      "name": "NewCurrencyManager",
      "type": "event"
    },
    {
      "anonymous": false,
      "inputs": [
        {
          "indexed": true,
          "internalType": "address",
          "name": "executionManager",
          "type": "address"
        }
      ],
      "name": "NewExecutionManager",
      "type": "event"
    },
    {
      "anonymous": false,
      "inputs": [
        {
          "indexed": true,
          "internalType": "address",
          "name": "protocolFeeManager",
          "type": "address"
        }
      ],
      "name": "NewProtocolFeeManager",
      "type": "event"
    },
    {
      "anonymous": false,
      "inputs": [
        {
          "indexed": true,
          "internalType": "address",
          "name": "protocolFeeRecipient",
          "type": "address"
        }
      ],
      "name": "NewProtocolFeeRecipient",
      "type": "event"
    },
    {
      "anonymous": false,
      "inputs": [
        {
          "indexed": true,
          "internalType": "address",
          "name": "royaltyFeeManager",
          "type": "address"
        }
      ],
      "name": "NewRoyaltyFeeManager",
      "type": "event"
    },
    {
      "anonymous": false,
      "inputs": [
        {
          "indexed": true,
          "internalType": "address",
          "name": "transferSelectorNFT",
          "type": "address"
        }
      ],
      "name": "NewTransferSelectorNFT",
      "type": "event"
    },
    {
      "anonymous": false,
      "inputs": [
        {
          "indexed": true,
          "internalType": "address",
          "name": "previousOwner",
          "type": "address"
        },
        {
          "indexed": true,
          "internalType": "address",
          "name": "newOwner",
          "type": "address"
        }
      ],
      "name": "OwnershipTransferred",
      "type": "event"
    },
    {
      "anonymous": false,
      "inputs": [
        {
          "indexed": true,
          "internalType": "address",
          "name": "collection",
          "type": "address"
        },
        {
          "indexed": true,
          "internalType": "uint256",
          "name": "tokenId",
          "type": "uint256"
        },
        {
          "indexed": true,
          "internalType": "address",
          "name": "royaltyRecipient",
          "type": "address"
        },
        {
          "indexed": false,
          "internalType": "address",
          "name": "currency",
          "type": "address"
        },
        {
          "indexed": false,
          "internalType": "uint256",
          "name": "amount",
          "type": "uint256"
        }
      ],
      "name": "RoyaltyPayment",
      "type": "event"
    },
    {
      "anonymous": false,
      "inputs": [
        {
          "indexed": false,
          "internalType": "bytes32",
          "name": "orderHash",
          "type": "bytes32"
        },
        {
          "indexed": false,
          "internalType": "uint256",
          "name": "orderNonce",
          "type": "uint256"
        },
        {
          "indexed": true,
          "internalType": "address",
          "name": "taker",
          "type": "address"
        },
        {
          "indexed": true,
          "internalType": "address",
          "name": "maker",
          "type": "address"
        },
        {
          "indexed": true,
          "internalType": "address",
          "name": "strategy",
          "type": "address"
        },
        {
          "indexed": false,
          "internalType": "address",
          "name": "currency",
          "type": "address"
        },
        {
          "indexed": false,
          "internalType": "address",
          "name": "collection",
          "type": "address"
        },
        {
          "indexed": false,
          "internalType": "uint256",
          "name": "tokenId",
          "type": "uint256"
        },
        {
          "indexed": false,
          "internalType": "uint256",
          "name": "amount",
          "type": "uint256"
        },
        {
          "indexed": false,
          "internalType": "uint256",
          "name": "price",
          "type": "uint256"
        }
      ],
      "name": "TakerAsk",
      "type": "event"
    },
    {
      "anonymous": false,
      "inputs": [
        {
          "indexed": false,
          "internalType": "bytes32",
          "name": "orderHash",
          "type": "bytes32"
        },
        {
          "indexed": false,
          "internalType": "uint256",
          "name": "orderNonce",
          "type": "uint256"
        },
        {
          "indexed": true,
          "internalType": "address",
          "name": "taker",
          "type": "address"
        },
        {
          "indexed": true,
          "internalType": "address",
          "name": "maker",
          "type": "address"
        },
        {
          "indexed": true,
          "internalType": "address",
          "name": "strategy",
          "type": "address"
        },
        {
          "indexed": false,
          "internalType": "address",
          "name": "currency",
          "type": "address"
        },
        {
          "indexed": false,
          "internalType": "address",
          "name": "collection",
          "type": "address"
        },
        {
          "indexed": false,
          "internalType": "uint256",
          "name": "tokenId",
          "type": "uint256"
        },
        {
          "indexed": false,
          "internalType": "uint256",
          "name": "amount",
          "type": "uint256"
        },
        {
          "indexed": false,
          "internalType": "uint256",
          "name": "price",
          "type": "uint256"
        }
      ],
      "name": "TakerBid",
      "type": "event"
    },
    {
      "inputs": [],
      "name": "DOMAIN_SEPARATOR",
      "outputs": [
        {
          "internalType": "bytes32",
          "name": "",
          "type": "bytes32"
        }
      ],
      "stateMutability": "view",
      "type": "function"
    },
    {
      "inputs": [],
      "name": "PERCENTAGE_PRECISION",
      "outputs": [
        {
          "internalType": "uint256",
          "name": "",
          "type": "uint256"
        }
      ],
      "stateMutability": "view",
      "type": "function"
    },
    {
      "inputs": [],
      "name": "WAVAX",
      "outputs": [
        {
          "internalType": "address",
          "name": "",
          "type": "address"
        }
      ],
      "stateMutability": "view",
      "type": "function"
    },
    {
      "inputs": [
        {
          "internalType": "uint256",
          "name": "minNonce",
          "type": "uint256"
        }
      ],
      "name": "cancelAllOrdersForSender",
      "outputs": [],
      "stateMutability": "nonpayable",
      "type": "function"
    },
    {
      "inputs": [
        {
          "internalType": "uint256[]",
          "name": "orderNonces",
          "type": "uint256[]"
        }
      ],
      "name": "cancelMultipleMakerOrders",
      "outputs": [],
      "stateMutability": "nonpayable",
      "type": "function"
    },
    {
      "inputs": [],
      "name": "currencyManager",
      "outputs": [
        {
          "internalType": "contract ICurrencyManager",
          "name": "",
          "type": "address"
        }
      ],
      "stateMutability": "view",
      "type": "function"
    },
    {
      "inputs": [],
      "name": "executionManager",
      "outputs": [
        {
          "internalType": "contract IExecutionManager",
          "name": "",
          "type": "address"
        }
      ],
      "stateMutability": "view",
      "type": "function"
    },
    {
      "inputs": [
        {
          "internalType": "address",
          "name": "user",
          "type": "address"
        },
        {
          "internalType": "uint256",
          "name": "orderNonce",
          "type": "uint256"
        }
      ],
      "name": "isUserOrderNonceExecutedOrCancelled",
      "outputs": [
        {
          "internalType": "bool",
          "name": "",
          "type": "bool"
        }
      ],
      "stateMutability": "view",
      "type": "function"
    },
    {
      "inputs": [
        {
          "components": [
            {
              "internalType": "bool",
              "name": "isOrderAsk",
              "type": "bool"
            },
            {
              "internalType": "address",
              "name": "taker",
              "type": "address"
            },
            {
              "internalType": "uint256",
              "name": "price",
              "type": "uint256"
            },
            {
              "internalType": "uint256",
              "name": "tokenId",
              "type": "uint256"
            },
            {
              "internalType": "uint256",
              "name": "minPercentageToAsk",
              "type": "uint256"
            },
            {
              "internalType": "bytes",
              "name": "params",
              "type": "bytes"
            }
          ],
          "internalType": "struct OrderTypes.TakerOrder",
          "name": "takerBid",
          "type": "tuple"
        },
        {
          "components": [
            {
              "internalType": "bool",
              "name": "isOrderAsk",
              "type": "bool"
            },
            {
              "internalType": "address",
              "name": "signer",
              "type": "address"
            },
            {
              "internalType": "address",
              "name": "collection",
              "type": "address"
            },
            {
              "internalType": "uint256",
              "name": "price",
              "type": "uint256"
            },
            {
              "internalType": "uint256",
              "name": "tokenId",
              "type": "uint256"
            },
            {
              "internalType": "uint256",
              "name": "amount",
              "type": "uint256"
            },
            {
              "internalType": "address",
              "name": "strategy",
              "type": "address"
            },
            {
              "internalType": "address",
              "name": "currency",
              "type": "address"
            },
            {
              "internalType": "uint256",
              "name": "nonce",
              "type": "uint256"
            },
            {
              "internalType": "uint256",
              "name": "startTime",
              "type": "uint256"
            },
            {
              "internalType": "uint256",
              "name": "endTime",
              "type": "uint256"
            },
            {
              "internalType": "uint256",
              "name": "minPercentageToAsk",
              "type": "uint256"
            },
            {
              "internalType": "bytes",
              "name": "params",
              "type": "bytes"
            },
            {
              "internalType": "uint8",
              "name": "v",
              "type": "uint8"
            },
            {
              "internalType": "bytes32",
              "name": "r",
              "type": "bytes32"
            },
            {
              "internalType": "bytes32",
              "name": "s",
              "type": "bytes32"
            }
          ],
          "internalType": "struct OrderTypes.MakerOrder",
          "name": "makerAsk",
          "type": "tuple"
        }
      ],
      "name": "matchAskWithTakerBid",
      "outputs": [],
      "stateMutability": "nonpayable",
      "type": "function"
    },
    {
      "inputs": [
        {
          "components": [
            {
              "internalType": "bool",
              "name": "isOrderAsk",
              "type": "bool"
            },
            {
              "internalType": "address",
              "name": "taker",
              "type": "address"
            },
            {
              "internalType": "uint256",
              "name": "price",
              "type": "uint256"
            },
            {
              "internalType": "uint256",
              "name": "tokenId",
              "type": "uint256"
            },
            {
              "internalType": "uint256",
              "name": "minPercentageToAsk",
              "type": "uint256"
            },
            {
              "internalType": "bytes",
              "name": "params",
              "type": "bytes"
            }
          ],
          "internalType": "struct OrderTypes.TakerOrder",
          "name": "takerBid",
          "type": "tuple"
        },
        {
          "components": [
            {
              "internalType": "bool",
              "name": "isOrderAsk",
              "type": "bool"
            },
            {
              "internalType": "address",
              "name": "signer",
              "type": "address"
            },
            {
              "internalType": "address",
              "name": "collection",
              "type": "address"
            },
            {
              "internalType": "uint256",
              "name": "price",
              "type": "uint256"
            },
            {
              "internalType": "uint256",
              "name": "tokenId",
              "type": "uint256"
            },
            {
              "internalType": "uint256",
              "name": "amount",
              "type": "uint256"
            },
            {
              "internalType": "address",
              "name": "strategy",
              "type": "address"
            },
            {
              "internalType": "address",
              "name": "currency",
              "type": "address"
            },
            {
              "internalType": "uint256",
              "name": "nonce",
              "type": "uint256"
            },
            {
              "internalType": "uint256",
              "name": "startTime",
              "type": "uint256"
            },
            {
              "internalType": "uint256",
              "name": "endTime",
              "type": "uint256"
            },
            {
              "internalType": "uint256",
              "name": "minPercentageToAsk",
              "type": "uint256"
            },
            {
              "internalType": "bytes",
              "name": "params",
              "type": "bytes"
            },
            {
              "internalType": "uint8",
              "name": "v",
              "type": "uint8"
            },
            {
              "internalType": "bytes32",
              "name": "r",
              "type": "bytes32"
            },
            {
              "internalType": "bytes32",
              "name": "s",
              "type": "bytes32"
            }
          ],
          "internalType": "struct OrderTypes.MakerOrder",
          "name": "makerAsk",
          "type": "tuple"
        }
      ],
      "name": "matchAskWithTakerBidUsingAVAXAndWAVAX",
      "outputs": [],
      "stateMutability": "payable",
      "type": "function"
    },
    {
      "inputs": [
        {
          "components": [
            {
              "internalType": "bool",
              "name": "isOrderAsk",
              "type": "bool"
            },
            {
              "internalType": "address",
              "name": "taker",
              "type": "address"
            },
            {
              "internalType": "uint256",
              "name": "price",
              "type": "uint256"
            },
            {
              "internalType": "uint256",
              "name": "tokenId",
              "type": "uint256"
            },
            {
              "internalType": "uint256",
              "name": "minPercentageToAsk",
              "type": "uint256"
            },
            {
              "internalType": "bytes",
              "name": "params",
              "type": "bytes"
            }
          ],
          "internalType": "struct OrderTypes.TakerOrder",
          "name": "takerAsk",
          "type": "tuple"
        },
        {
          "components": [
            {
              "internalType": "bool",
              "name": "isOrderAsk",
              "type": "bool"
            },
            {
              "internalType": "address",
              "name": "signer",
              "type": "address"
            },
            {
              "internalType": "address",
              "name": "collection",
              "type": "address"
            },
            {
              "internalType": "uint256",
              "name": "price",
              "type": "uint256"
            },
            {
              "internalType": "uint256",
              "name": "tokenId",
              "type": "uint256"
            },
            {
              "internalType": "uint256",
              "name": "amount",
              "type": "uint256"
            },
            {
              "internalType": "address",
              "name": "strategy",
              "type": "address"
            },
            {
              "internalType": "address",
              "name": "currency",
              "type": "address"
            },
            {
              "internalType": "uint256",
              "name": "nonce",
              "type": "uint256"
            },
            {
              "internalType": "uint256",
              "name": "startTime",
              "type": "uint256"
            },
            {
              "internalType": "uint256",
              "name": "endTime",
              "type": "uint256"
            },
            {
              "internalType": "uint256",
              "name": "minPercentageToAsk",
              "type": "uint256"
            },
            {
              "internalType": "bytes",
              "name": "params",
              "type": "bytes"
            },
            {
              "internalType": "uint8",
              "name": "v",
              "type": "uint8"
            },
            {
              "internalType": "bytes32",
              "name": "r",
              "type": "bytes32"
            },
            {
              "internalType": "bytes32",
              "name": "s",
              "type": "bytes32"
            }
          ],
          "internalType": "struct OrderTypes.MakerOrder",
          "name": "makerBid",
          "type": "tuple"
        }
      ],
      "name": "matchBidWithTakerAsk",
      "outputs": [],
      "stateMutability": "nonpayable",
      "type": "function"
    },
    {
      "inputs": [],
      "name": "owner",
      "outputs": [
        {
          "internalType": "address",
          "name": "",
          "type": "address"
        }
      ],
      "stateMutability": "view",
      "type": "function"
    },
    {
      "inputs": [],
      "name": "protocolFeeManager",
      "outputs": [
        {
          "internalType": "contract IProtocolFeeManager",
          "name": "",
          "type": "address"
        }
      ],
      "stateMutability": "view",
      "type": "function"
    },
    {
      "inputs": [],
      "name": "protocolFeeRecipient",
      "outputs": [
        {
          "internalType": "address",
          "name": "",
          "type": "address"
        }
      ],
      "stateMutability": "view",
      "type": "function"
    },
    {
      "inputs": [],
      "name": "renounceOwnership",
      "outputs": [],
      "stateMutability": "nonpayable",
      "type": "function"
    },
    {
      "inputs": [],
      "name": "royaltyFeeManager",
      "outputs": [
        {
          "internalType": "contract IRoyaltyFeeManager",
          "name": "",
          "type": "address"
        }
      ],
      "stateMutability": "view",
      "type": "function"
    },
    {
      "inputs": [
        {
          "internalType": "address",
          "name": "newOwner",
          "type": "address"
        }
      ],
      "name": "transferOwnership",
      "outputs": [],
      "stateMutability": "nonpayable",
      "type": "function"
    },
    {
      "inputs": [],
      "name": "transferSelectorNFT",
      "outputs": [
        {
          "internalType": "contract ITransferSelectorNFT",
          "name": "",
          "type": "address"
        }
      ],
      "stateMutability": "view",
      "type": "function"
    },
    {
      "inputs": [
        {
          "internalType": "address",
          "name": "_currencyManager",
          "type": "address"
        }
      ],
      "name": "updateCurrencyManager",
      "outputs": [],
      "stateMutability": "nonpayable",
      "type": "function"
    },
    {
      "inputs": [
        {
          "internalType": "address",
          "name": "_executionManager",
          "type": "address"
        }
      ],
      "name": "updateExecutionManager",
      "outputs": [],
      "stateMutability": "nonpayable",
      "type": "function"
    },
    {
      "inputs": [
        {
          "internalType": "address",
          "name": "_protocolFeeManager",
          "type": "address"
        }
      ],
      "name": "updateProtocolFeeManager",
      "outputs": [],
      "stateMutability": "nonpayable",
      "type": "function"
    },
    {
      "inputs": [
        {
          "internalType": "address",
          "name": "_protocolFeeRecipient",
          "type": "address"
        }
      ],
      "name": "updateProtocolFeeRecipient",
      "outputs": [],
      "stateMutability": "nonpayable",
      "type": "function"
    },
    {
      "inputs": [
        {
          "internalType": "address",
          "name": "_royaltyFeeManager",
          "type": "address"
        }
      ],
      "name": "updateRoyaltyFeeManager",
      "outputs": [],
      "stateMutability": "nonpayable",
      "type": "function"
    },
    {
      "inputs": [
        {
          "internalType": "address",
          "name": "_transferSelectorNFT",
          "type": "address"
        }
      ],
      "name": "updateTransferSelectorNFT",
      "outputs": [],
      "stateMutability": "nonpayable",
      "type": "function"
    },
    {
      "inputs": [
        {
          "internalType": "address",
          "name": "",
          "type": "address"
        }
      ],
      "name": "userMinOrderNonce",
      "outputs": [
        {
          "internalType": "uint256",
          "name": "",
          "type": "uint256"
        }
      ],
      "stateMutability": "view",
      "type": "function"
    }
  ],
  "transactionHash": "0xb39b9584bf2c7a3f1d621d2fe500cc6891504034624037fd789541062cca9abc",
  "args": [
    "0xf637c3E8465F8B0BF24AB371f89E4A2b89A77fad",
    "0x3B78d43AdF96f85f525b7e6b5D5a58cA55c9d87c",
    "0x4A820A159444EcB779A8055B104d6A11c15A18F4",
    "0x7F8923bbBc0d78EBe3B6A985Ff0B3DC99983B3d0",
    "0x1D308089a2D1Ced3f1Ce36B1FcaF815b07217be3",
    "0xc2D38178069757648FEfb5440737C2aE1671f19D"
  ],
  "numDeployments": 1,
  "solcInputHash": "d1f2df6fff78a7d04e1d58a9a2e894c9",
  "bytecode": "0x60e06040526127106080523480156200001757600080fd5b5060405162003472380380620034728339810160408190526200003a91620001cf565b60016000556200004a3362000160565b604080517f8b73c3c69bb8fe3d512ecc4cf759cc79239f7b179b0ffacaa9a75d522b39400f60208201527f09c73de1316dde4c80e91bee77727ccdf2cbf7435c9e4c7db6c37af85fa4afcb918101919091527fc89efdaa54c0f20c7adf612882df0950f5a951637e0307cdcb4c672f298b8bc660608201524660808201523060a082015260c00160408051808303601f19018152919052805160209091012060c052600380546001600160a01b03199081166001600160a01b039889161790915560048054821696881696909617909555600580548616948716949094179093556006805485169286169290921790915560601b6001600160601b03191660a05260028054909216921691909117905562000250565b600180546001600160a01b038381166001600160a01b0319831681179093556040519116919082907f8be0079c531659141344cd1fd0a4f28419497f9722a3daafe3b4186f6b6457e090600090a35050565b80516001600160a01b0381168114620001ca57600080fd5b919050565b60008060008060008060c08789031215620001e957600080fd5b620001f487620001b2565b95506200020460208801620001b2565b94506200021460408801620001b2565b93506200022460608801620001b2565b92506200023460808801620001b2565b91506200024460a08801620001b2565b90509295509295509295565b60805160a05160601c60c0516131a2620002d06000396000818161025201526117b101526000818161039601528181610d6901528181610e7301528181610ef501528181611e7f01528181611f7201528181611fdd01526120ba0152600081816104bb01528181611b800152818161203a01526122bb01526131a26000f3fe6080604052600436106101665760003560e01c8063715018a6116100d1578063a70dbaeb1161008a578063d4ff41dc11610064578063d4ff41dc14610489578063e256888f146104a9578063f2fde38b146104dd578063f75ff53f146104fd57600080fd5b8063a70dbaeb14610429578063c549876914610449578063cbd2ec651461046957600080fd5b8063715018a61461036f57806373b295c21461038457806387e4401f146103b85780638da5cb5b146103d857806397800e4d146103f65780639e53a69a1461040957600080fd5b80633b6d032e116101235780633b6d032e146102a25780634266581e146102c2578063483abb9f146102ef5780635ce052d71461030f5780635e14f68e1461032f57806364df049e1461034f57600080fd5b80630f747d741461016b578063127d71f7146101a85780631df47f80146101ca57806331e27e27146101ea5780633644e5151461024057806338e2920914610282575b600080fd5b34801561017757600080fd5b5060035461018b906001600160a01b031681565b6040516001600160a01b0390911681526020015b60405180910390f35b3480156101b457600080fd5b506101c86101c33660046127cc565b61051d565b005b3480156101d657600080fd5b506101c86101e53660046127cc565b6105c0565b3480156101f657600080fd5b50610230610205366004612806565b6001600160a01b03919091166000908152600960209081526040808320938352929052205460ff1690565b604051901515815260200161019f565b34801561024c57600080fd5b506102747f000000000000000000000000000000000000000000000000000000000000000081565b60405190815260200161019f565b34801561028e57600080fd5b506101c861029d366004612970565b610634565b3480156102ae57600080fd5b506101c86102bd366004612970565b610966565b3480156102ce57600080fd5b506102746102dd3660046127cc565b60086020526000908152604090205481565b3480156102fb57600080fd5b5060045461018b906001600160a01b031681565b34801561031b57600080fd5b506101c861032a3660046127cc565b610c28565b34801561033b57600080fd5b5060075461018b906001600160a01b031681565b34801561035b57600080fd5b5060025461018b906001600160a01b031681565b34801561037b57600080fd5b506101c8610cc2565b34801561039057600080fd5b5061018b7f000000000000000000000000000000000000000000000000000000000000000081565b3480156103c457600080fd5b5060065461018b906001600160a01b031681565b3480156103e457600080fd5b506001546001600160a01b031661018b565b6101c8610404366004612970565b610cf8565b34801561041557600080fd5b506101c8610424366004612860565b6110a7565b34801561043557600080fd5b5060055461018b906001600160a01b031681565b34801561045557600080fd5b506101c86104643660046127cc565b6111f1565b34801561047557600080fd5b506101c86104843660046129e4565b61128b565b34801561049557600080fd5b506101c86104a43660046127cc565b61137d565b3480156104b557600080fd5b506102747f000000000000000000000000000000000000000000000000000000000000000081565b3480156104e957600080fd5b506101c86104f83660046127cc565b611417565b34801561050957600080fd5b506101c86105183660046127cc565b6114b2565b6001546001600160a01b031633146105505760405162461bcd60e51b815260040161054790612c00565b60405180910390fd5b6001600160a01b0381166105765760405162461bcd60e51b815260040161054790612bc9565b600580546001600160a01b0319166001600160a01b0383169081179091556040517f3f02d3784d3c8c06d26bb0ac131b3c2a0b8970b1b9707b9be5526193cf0b89f390600090a250565b6001546001600160a01b031633146105ea5760405162461bcd60e51b815260040161054790612c00565b600280546001600160a01b0319166001600160a01b0383169081179091556040517f8cffb07faa2874440346743bdc0a86b06c3335cc47dc49b327d10e77b73ceb1090600090a250565b600260005414156106575760405162461bcd60e51b815260040161054790612c6c565b600260005561066960208201826128d5565b801561067f575061067d60208301836128d5565b155b61069b5760405162461bcd60e51b815260040161054790612b9d565b6106ab60408301602084016127cc565b6001600160a01b0316336001600160a01b0316146106db5760405162461bcd60e51b815260040161054790612ca3565b60006106ee6106e983612faf565b61154c565b90506106fa82826115f3565b6000808061070e60e0860160c087016127cc565b6001600160a01b031663865781ca87876040518363ffffffff1660e01b815260040161073b929190612d20565b60606040518083038186803b15801561075357600080fd5b505afa158015610767573d6000803e3d6000fd5b505050506040513d601f19601f8201168201806040525081019061078b919061290f565b925092509250826107ae5760405162461bcd60e51b815260040161054790612c35565b6001600960006107c46040890160208a016127cc565b6001600160a01b03168152602080820192909252604090810160009081206101008a0135825290925290819020805460ff1916921515929092179091556108489061081590606088019088016127cc565b83610827610100890160e08a016127cc565b3361083860408b0160208c016127cc565b8b604001358b61016001356119e3565b61088261085b60608701604088016127cc565b61086b60408801602089016127cc565b61087b60408a0160208b016127cc565b8585611c12565b61089260e0860160c087016127cc565b6001600160a01b03166108ab60408701602088016127cc565b6001600160a01b03166108c46040890160208a016127cc565b6001600160a01b03167f95fb6205e23ff6bda16a2d1dba56b9ad7c783f67c96fa149785052f47696f2be876101008a018035906109049060e08d016127cc565b61091460608d0160408e016127cc565b6040805194855260208501939093526001600160a01b03918216848401521660608301526080820188905260a082018790528b013560c082015260e00160405180910390a45050600160005550505050565b600260005414156109895760405162461bcd60e51b815260040161054790612c6c565b600260005561099b60208201826128d5565b1580156109b057506109b060208301836128d5565b6109cc5760405162461bcd60e51b815260040161054790612b9d565b6109dc60408301602084016127cc565b6001600160a01b0316336001600160a01b031614610a0c5760405162461bcd60e51b815260040161054790612ca3565b6000610a1a6106e983612faf565b9050610a2682826115f3565b60008080610a3a60e0860160c087016127cc565b6001600160a01b031663ad2390ac87876040518363ffffffff1660e01b8152600401610a67929190612d20565b60606040518083038186803b158015610a7f57600080fd5b505afa158015610a93573d6000803e3d6000fd5b505050506040513d601f19601f82011682018060405250810190610ab7919061290f565b92509250925082610ada5760405162461bcd60e51b815260040161054790612c35565b600160096000610af06040890160208a016127cc565b6001600160a01b03168152602080820192909252604090810160009081206101008a0135825290925290819020805460ff191692151592909217909155610b5290610b4190606088019088016127cc565b3361087b6040890160208a016127cc565b610ba6610b6560608701604088016127cc565b83610b77610100890160e08a016127cc565b610b8760408a0160208b016127cc565b610b9760408c0160208d016127cc565b8b604001358c608001356119e3565b610bb660e0860160c087016127cc565b6001600160a01b0316610bcf60408701602088016127cc565b6001600160a01b0316610be86040890160208a016127cc565b6001600160a01b03167f68cd251d4d267c6e2034ff0088b990352b97b2002c0476587d0c4da889c11330876101008a018035906109049060e08d016127cc565b6001546001600160a01b03163314610c525760405162461bcd60e51b815260040161054790612c00565b6001600160a01b038116610c785760405162461bcd60e51b815260040161054790612bc9565b600380546001600160a01b0319166001600160a01b0383169081179091556040517fb4f5db40df3aced29e88a4babbc3b46e305e07d34098525d18b1497056e6383890600090a250565b6001546001600160a01b03163314610cec5760405162461bcd60e51b815260040161054790612c00565b610cf66000611d7d565b565b60026000541415610d1b5760405162461bcd60e51b815260040161054790612c6c565b6002600055610d2d60208201826128d5565b8015610d435750610d4160208301836128d5565b155b610d5f5760405162461bcd60e51b815260040161054790612b9d565b6001600160a01b037f000000000000000000000000000000000000000000000000000000000000000016610d9a610100830160e084016127cc565b6001600160a01b031614610df05760405162461bcd60e51b815260206004820152601d60248201527f4f726465723a2043757272656e6379206d7573742062652057415641580000006044820152606401610547565b610e0060408301602084016127cc565b6001600160a01b0316336001600160a01b031614610e305760405162461bcd60e51b815260040161054790612ca3565b6000610e3e6106e983612faf565b9050610e4a82826115f3565b3483604001351115610ea057610e9b3330610e69346040880135612f98565b6001600160a01b037f000000000000000000000000000000000000000000000000000000000000000016929190611dcf565b610ef3565b34836040013514610ef35760405162461bcd60e51b815260206004820152601960248201527f4f726465723a204d73672e76616c756520746f6f2068696768000000000000006044820152606401610547565b7f00000000000000000000000000000000000000000000000000000000000000006001600160a01b031663d0e30db0346040518263ffffffff1660e01b81526004016000604051808303818588803b158015610f4e57600080fd5b505af1158015610f62573d6000803e3d6000fd5b505050505060008060008460c0016020810190610f7f91906127cc565b6001600160a01b031663865781ca87876040518363ffffffff1660e01b8152600401610fac929190612d20565b60606040518083038186803b158015610fc457600080fd5b505afa158015610fd8573d6000803e3d6000fd5b505050506040513d601f19601f82011682018060405250810190610ffc919061290f565b9250925092508261101f5760405162461bcd60e51b815260040161054790612c35565b6001600960006110356040890160208a016127cc565b6001600160a01b03168152602080820192909252604090810160009081206101008a0135825290925290819020805460ff1916921515929092179091556108489061108690606088019088016127cc565b836110976040890160208a016127cc565b8960400135896101600135611e40565b806110f45760405162461bcd60e51b815260206004820152601760248201527f43616e63656c3a2043616e6e6f7420626520656d7074790000000000000000006044820152606401610547565b60005b818110156111a957336000908152600860205260409020548383838181106111215761112161311d565b9050602002013510156111465760405162461bcd60e51b815260040161054790612cda565b33600090815260096020526040812060019185858581811061116a5761116a61311d565b90506020020135815260200190815260200160002060006101000a81548160ff02191690831515021790555080806111a1906130ec565b9150506110f7565b50336001600160a01b03167ffa0ae5d80fe3763c880a3839fab0294171a6f730d1f82c4cd5392c6f67b4173283836040516111e5929190612aa2565b60405180910390a25050565b6001546001600160a01b0316331461121b5760405162461bcd60e51b815260040161054790612c00565b6001600160a01b0381166112415760405162461bcd60e51b815260040161054790612bc9565b600680546001600160a01b0319166001600160a01b0383169081179091556040517f80e3874461ebbd918ac3e81da0a92e5e51387d70f337237c9123e48d20e5a50890600090a250565b3360009081526008602052604090205481116112b95760405162461bcd60e51b815260040161054790612cda565b336000908152600860205260409020546112d6906207a120612f3f565b811061132e5760405162461bcd60e51b815260206004820152602160248201527f43616e63656c3a2043616e6e6f742063616e63656c206d6f7265206f726465726044820152607360f81b6064820152608401610547565b3360008181526008602052604090819020839055517f1e7178d84f0b0825c65795cd62e7972809ad3aac6917843aaec596161b2c0a97906113729084815260200190565b60405180910390a250565b6001546001600160a01b031633146113a75760405162461bcd60e51b815260040161054790612c00565b6001600160a01b0381166113cd5760405162461bcd60e51b815260040161054790612bc9565b600480546001600160a01b0319166001600160a01b0383169081179091556040517f36e2a376eabc3bc60cb88f29c288f53e36874a95a7f407330ab4f166b090569890600090a250565b6001546001600160a01b031633146114415760405162461bcd60e51b815260040161054790612c00565b6001600160a01b0381166114a65760405162461bcd60e51b815260206004820152602660248201527f4f776e61626c653a206e6577206f776e657220697320746865207a65726f206160448201526564647265737360d01b6064820152608401610547565b6114af81611d7d565b50565b6001546001600160a01b031633146114dc5760405162461bcd60e51b815260040161054790612c00565b6001600160a01b0381166115025760405162461bcd60e51b815260040161054790612bc9565b600780546001600160a01b0319166001600160a01b0383169081179091556040517f205d78ab41afe80bd6b6aaa5d7599d5300ff8690da3ab1302c1b552f7baf7d8c90600090a250565b80516020808301516040808501516060860151608087015160a088015160c089015160e08a01516101008b01516101208c01516101408d01516101608e01516101808f01518051908e01209a5160009e6115d69e7f40261ade532fa1d2c7293df30aaadb9b3c616fae525a0b56d3d411c841a850289e919d919c9b9a999897969594939201612ade565b604051602081830303815290604052805190602001209050919050565b6009600061160760408501602086016127cc565b6001600160a01b0316815260208082019290925260409081016000908120610100860135825290925290205460ff1615801561167c57506008600061165260408501602086016127cc565b6001600160a01b03166001600160a01b031681526020019081526020016000205482610100013510155b6116c85760405162461bcd60e51b815260206004820152601d60248201527f4f726465723a204d61746368696e67206f7264657220657870697265640000006044820152606401610547565b60006116da60408401602085016127cc565b6001600160a01b031614156117295760405162461bcd60e51b815260206004820152601560248201527427b93232b91d1024b73b30b634b21039b4b3b732b960591b6044820152606401610547565b60008260a001351161177d5760405162461bcd60e51b815260206004820152601960248201527f4f726465723a20416d6f756e742063616e6e6f742062652030000000000000006044820152606401610547565b6117d58161179160408501602086016127cc565b6117a36101c086016101a08701612a16565b856101c00135866101e001357f00000000000000000000000000000000000000000000000000000000000000006120e9565b6118165760405162461bcd60e51b815260206004820152601260248201527114da59db985d1d5c994e88125b9d985b1a5960721b6044820152606401610547565b6003546001600160a01b03166343b938c5611838610100850160e086016127cc565b6040516001600160e01b031960e084901b1681526001600160a01b03909116600482015260240160206040518083038186803b15801561187757600080fd5b505afa15801561188b573d6000803e3d6000fd5b505050506040513d601f19601f820116820180604052508101906118af91906128f2565b6118fb5760405162461bcd60e51b815260206004820152601960248201527f43757272656e63793a204e6f742077686974656c6973746564000000000000006044820152606401610547565b6004546001600160a01b031663999ba27c61191c60e0850160c086016127cc565b6040516001600160e01b031960e084901b1681526001600160a01b03909116600482015260240160206040518083038186803b15801561195b57600080fd5b505afa15801561196f573d6000803e3d6000fd5b505050506040513d601f19601f8201168201806040525081019061199391906128f2565b6119df5760405162461bcd60e51b815260206004820152601960248201527f53747261746567793a204e6f742077686974656c6973746564000000000000006044820152606401610547565b5050565b8160006119f08983612237565b6002549091506001600160a01b031615801590611a0c57508015155b15611a3a57600254611a2d906001600160a01b038981169189911684611dcf565b611a378183612f98565b91505b50600654604051637a7b1afd60e11b81526001600160a01b038a81166004830152602482018a905260448201869052600092839291169063f4f635fa90606401604080518083038186803b158015611a9157600080fd5b505afa158015611aa5573d6000803e3d6000fd5b505050506040513d601f19601f82011682018060405250810190611ac99190612832565b90925090506001600160a01b03821615801590611ae557508015155b15611b6e57611aff6001600160a01b038916888484611dcf565b611b098184612f98565b9250816001600160a01b0316898b6001600160a01b03167f27c4f0403323142b599832f26acd21c74a9e5b809f2215726e244a4ac588cd7d8b85604051611b659291906001600160a01b03929092168252602082015260400190565b60405180910390a45b50611b7b90508383612f79565b611ba57f000000000000000000000000000000000000000000000000000000000000000083612f79565b1015611bf35760405162461bcd60e51b815260206004820152601a60248201527f466565733a20486967686572207468616e2065787065637465640000000000006044820152606401610547565b611c086001600160a01b038716868684611dcf565b5050505050505050565b60075460405163cc15949360e01b81526001600160a01b038781166004830152600092169063cc1594939060240160206040518083038186803b158015611c5857600080fd5b505afa158015611c6c573d6000803e3d6000fd5b505050506040513d601f19601f82011682018060405250810190611c9091906127e9565b90506001600160a01b038116611cfc5760405162461bcd60e51b815260206004820152602b60248201527f5472616e736665723a204e6f204e4654207472616e73666572206d616e61676560448201526a7220617661696c61626c6560a81b6064820152608401610547565b6040516333f2fa9f60e01b81526001600160a01b0387811660048301528681166024830152858116604483015260648201859052608482018490528216906333f2fa9f9060a401600060405180830381600087803b158015611d5d57600080fd5b505af1158015611d71573d6000803e3d6000fd5b50505050505050505050565b600180546001600160a01b038381166001600160a01b0319831681179093556040519116919082907f8be0079c531659141344cd1fd0a4f28419497f9722a3daafe3b4186f6b6457e090600090a35050565b6040516001600160a01b0380851660248301528316604482015260648101829052611e3a9085906323b872dd60e01b906084015b60408051601f198184030181529190526020810180516001600160e01b03166001600160e01b0319909316929092179091526122f6565b50505050565b816000611e4d8783612237565b6002549091506001600160a01b031615801590611e6957508015155b15611eb557600254611ea8906001600160a01b037f000000000000000000000000000000000000000000000000000000000000000081169116836123cd565b611eb28183612f98565b91505b50600654604051637a7b1afd60e11b81526001600160a01b0388811660048301526024820188905260448201869052600092839291169063f4f635fa90606401604080518083038186803b158015611f0c57600080fd5b505afa158015611f20573d6000803e3d6000fd5b505050506040513d601f19601f82011682018060405250810190611f449190612832565b90925090506001600160a01b03821615801590611f6057508015155b1561202857611f996001600160a01b037f00000000000000000000000000000000000000000000000000000000000000001683836123cd565b611fa38184612f98565b9250816001600160a01b031687896001600160a01b03167f27c4f0403323142b599832f26acd21c74a9e5b809f2215726e244a4ac588cd7d7f00000000000000000000000000000000000000000000000000000000000000008560405161201f9291906001600160a01b03929092168252602082015260400190565b60405180910390a45b5061203590508383612f79565b61205f7f000000000000000000000000000000000000000000000000000000000000000083612f79565b10156120ad5760405162461bcd60e51b815260206004820152601a60248201527f466565733a20486967686572207468616e2065787065637465640000000000006044820152606401610547565b6120e16001600160a01b037f00000000000000000000000000000000000000000000000000000000000000001685836123cd565b505050505050565b60405161190160f01b602082015260228101829052604281018790526000908190606201604051602081830303815290604052805190602001209050612138876001600160a01b03163b151590565b1561220957604080516020810187905280820186905260f888901b6001600160f81b0319166060820152815160418183030181526061820192839052630b135d3f60e11b9092526001600160a01b03891691631626ba7e9161219e918591606501612b71565b60206040518083038186803b1580156121b657600080fd5b505afa1580156121ca573d6000803e3d6000fd5b505050506040513d601f19601f820116820180604052508101906121ee9190612946565b6001600160e01b031916631626ba7e60e01b1491505061222d565b866001600160a01b031661221f828888886123fd565b6001600160a01b0316149150505b9695505050505050565b6005546040516238062960e91b81526001600160a01b038481166004830152600092839291169063700c52009060240160206040518083038186803b15801561227f57600080fd5b505afa158015612293573d6000803e3d6000fd5b505050506040513d601f19601f820116820180604052508101906122b791906129fd565b90507f00000000000000000000000000000000000000000000000000000000000000006122e48483612f79565b6122ee9190612f57565b949350505050565b600061234b826040518060400160405280602081526020017f5361666545524332303a206c6f772d6c6576656c2063616c6c206661696c6564815250856001600160a01b03166125909092919063ffffffff16565b8051909150156123c8578080602001905181019061236991906128f2565b6123c85760405162461bcd60e51b815260206004820152602a60248201527f5361666545524332303a204552433230206f7065726174696f6e20646964206e6044820152691bdd081cdd58d8d9595960b21b6064820152608401610547565b505050565b6040516001600160a01b0383166024820152604481018290526123c890849063a9059cbb60e01b90606401611e03565b60007f7fffffffffffffffffffffffffffffff5d576e7357a4501ddfe92f46681b20a082111561246f5760405162461bcd60e51b815260206004820152601e60248201527f5369676e61747572653a20496e76616c6964207320706172616d6574657200006044820152606401610547565b8360ff16601b148061248457508360ff16601c145b6124d05760405162461bcd60e51b815260206004820152601e60248201527f5369676e61747572653a20496e76616c6964207620706172616d6574657200006044820152606401610547565b6040805160008082526020820180845288905260ff871692820192909252606081018590526080810184905260019060a0016020604051602081039080840390855afa158015612524573d6000803e3d6000fd5b5050604051601f1901519150506001600160a01b0381166125875760405162461bcd60e51b815260206004820152601960248201527f5369676e61747572653a20496e76616c6964207369676e6572000000000000006044820152606401610547565b95945050505050565b606061259f84846000856125a9565b90505b9392505050565b60608247101561260a5760405162461bcd60e51b815260206004820152602660248201527f416464726573733a20696e73756666696369656e742062616c616e636520666f6044820152651c8818d85b1b60d21b6064820152608401610547565b6001600160a01b0385163b6126615760405162461bcd60e51b815260206004820152601d60248201527f416464726573733a2063616c6c20746f206e6f6e2d636f6e74726163740000006044820152606401610547565b600080866001600160a01b0316858760405161267d9190612a86565b60006040518083038185875af1925050503d80600081146126ba576040519150601f19603f3d011682016040523d82523d6000602084013e6126bf565b606091505b50915091506126cf8282866126da565b979650505050505050565b606083156126e95750816125a2565b8251156126f95782518084602001fd5b8160405162461bcd60e51b81526004016105479190612b8a565b803561271e81613149565b919050565b803561271e8161315e565b600082601f83011261273f57600080fd5b813567ffffffffffffffff8082111561275a5761275a613133565b604051601f8301601f19908116603f0116810190828211818310171561278257612782613133565b8160405283815286602085880101111561279b57600080fd5b836020870160208301376000602085830101528094505050505092915050565b803560ff8116811461271e57600080fd5b6000602082840312156127de57600080fd5b81356125a281613149565b6000602082840312156127fb57600080fd5b81516125a281613149565b6000806040838503121561281957600080fd5b823561282481613149565b946020939093013593505050565b6000806040838503121561284557600080fd5b825161285081613149565b6020939093015192949293505050565b6000806020838503121561287357600080fd5b823567ffffffffffffffff8082111561288b57600080fd5b818501915085601f83011261289f57600080fd5b8135818111156128ae57600080fd5b8660208260051b85010111156128c357600080fd5b60209290920196919550909350505050565b6000602082840312156128e757600080fd5b81356125a28161315e565b60006020828403121561290457600080fd5b81516125a28161315e565b60008060006060848603121561292457600080fd5b835161292f8161315e565b602085015160409095015190969495509392505050565b60006020828403121561295857600080fd5b81516001600160e01b0319811681146125a257600080fd5b6000806040838503121561298357600080fd5b823567ffffffffffffffff8082111561299b57600080fd5b9084019060c082870312156129af57600080fd5b909250602084013590808211156129c557600080fd5b50830161020081860312156129d957600080fd5b809150509250929050565b6000602082840312156129f657600080fd5b5035919050565b600060208284031215612a0f57600080fd5b5051919050565b600060208284031215612a2857600080fd5b6125a2826127bb565b81835281816020850137506000828201602090810191909152601f909101601f19169091010190565b60008151808452612a728160208601602086016130c0565b601f01601f19169290920160200192915050565b60008251612a988184602087016130c0565b9190910192915050565b6020808252810182905260006001600160fb1b03831115612ac257600080fd5b8260051b80856040850137600092016040019182525092915050565b8e81528d151560208201526001600160a01b038d811660408301528c1660608201526101c081018b60808301528a60a08301528960c0830152612b2c60e083018a6001600160a01b03169052565b6001600160a01b0388166101008301526101208201969096526101408101949094526101608401929092526101808301526101a0909101529998505050505050505050565b82815260406020820152600061259f6040830184612a5a565b6020815260006125a26020830184612a5a565b6020808252601290820152714f726465723a2057726f6e6720736964657360701b604082015260600190565b6020808252601d908201527f4f776e65723a2043616e6e6f74206265206e756c6c2061646472657373000000604082015260600190565b6020808252818101527f4f776e61626c653a2063616c6c6572206973206e6f7420746865206f776e6572604082015260600190565b6020808252601b908201527f53747261746567793a20457865637574696f6e20696e76616c69640000000000604082015260600190565b6020808252601f908201527f5265656e7472616e637947756172643a207265656e7472616e742063616c6c00604082015260600190565b6020808252601f908201527f4f726465723a2054616b6572206d757374206265207468652073656e64657200604082015260600190565b60208082526026908201527f43616e63656c3a204f72646572206e6f6e6365206c6f776572207468616e20636040820152651d5c9c995b9d60d21b606082015260800190565b6040815260006101008435612d348161315e565b151560408401526020850135612d4981613149565b60018060a01b03811660608501525060408501356080840152606085013560a0840152608085013560c0840152612d8360a0860186612ef2565b60c060e0860152612d978386018284612a31565b9150508381036020850152610200612db882612db288612723565b15159052565b612dc460208701612713565b6001600160a01b03166020830152612dde60408701612713565b6001600160a01b038116604084015250606086013560608301526080860135608083015260a086013560a0830152612e1860c08701612713565b6001600160a01b031660c0830152612e3260e08701612713565b6001600160a01b031660e0830152828601359282019290925261012080860135908201526101408086013590820152610160808601359082015261018091612e7c83870187612ef2565b8285850152612e8e8385018284612a31565b94505050506101a0612ea18187016127bb565b60ff16908201526101c085810135908201526101e094850135940193909352509092915050565b604051610200810167ffffffffffffffff81118282101715612eec57612eec613133565b60405290565b6000808335601e19843603018112612f0957600080fd5b830160208101925035905067ffffffffffffffff811115612f2957600080fd5b803603831315612f3857600080fd5b9250929050565b60008219821115612f5257612f52613107565b500190565b600082612f7457634e487b7160e01b600052601260045260246000fd5b500490565b6000816000190483118215151615612f9357612f93613107565b500290565b600082821015612faa57612faa613107565b500390565b60006102008236031215612fc257600080fd5b612fca612ec8565b612fd383612723565b8152612fe160208401612713565b6020820152612ff260408401612713565b6040820152606083013560608201526080830135608082015260a083013560a082015261302160c08401612713565b60c082015261303260e08401612713565b60e082015261010083810135908201526101208084013590820152610140808401359082015261016080840135908201526101808084013567ffffffffffffffff81111561307f57600080fd5b61308b3682870161272e565b8284015250506101a061309f8185016127bb565b908201526101c083810135908201526101e092830135928101929092525090565b60005b838110156130db5781810151838201526020016130c3565b83811115611e3a5750506000910152565b600060001982141561310057613100613107565b5060010190565b634e487b7160e01b600052601160045260246000fd5b634e487b7160e01b600052603260045260246000fd5b634e487b7160e01b600052604160045260246000fd5b6001600160a01b03811681146114af57600080fd5b80151581146114af57600080fdfea2646970667358221220df875825319aa078d78980c0329d68fad86b32f67077f28a77312af399a4301d64736f6c63430008060033",
  "devdoc": {
    "kind": "dev",
    "methods": {
      "cancelAllOrdersForSender(uint256)": {
        "params": {
          "minNonce": "minimum user nonce"
        }
      },
      "cancelMultipleMakerOrders(uint256[])": {
        "params": {
          "orderNonces": "array of order nonces"
        }
      },
      "constructor": {
        "params": {
          "_WAVAX": "wrapped ether address (for other chains, use wrapped native asset)",
          "_currencyManager": "currency manager address",
          "_executionManager": "execution manager address",
          "_protocolFeeManager": "protocol fee manager address",
          "_protocolFeeRecipient": "protocol fee recipient",
          "_royaltyFeeManager": "royalty fee manager address"
        }
      },
      "isUserOrderNonceExecutedOrCancelled(address,uint256)": {
        "params": {
          "orderNonce": "nonce of the order",
          "user": "address of user"
        }
      },
      "matchAskWithTakerBid((bool,address,uint256,uint256,uint256,bytes),(bool,address,address,uint256,uint256,uint256,address,address,uint256,uint256,uint256,uint256,bytes,uint8,bytes32,bytes32))": {
        "params": {
          "makerAsk": "maker ask order",
          "takerBid": "taker bid order"
        }
      },
      "matchAskWithTakerBidUsingAVAXAndWAVAX((bool,address,uint256,uint256,uint256,bytes),(bool,address,address,uint256,uint256,uint256,address,address,uint256,uint256,uint256,uint256,bytes,uint8,bytes32,bytes32))": {
        "params": {
          "makerAsk": "maker ask order",
          "takerBid": "taker bid order"
        }
      },
      "matchBidWithTakerAsk((bool,address,uint256,uint256,uint256,bytes),(bool,address,address,uint256,uint256,uint256,address,address,uint256,uint256,uint256,uint256,bytes,uint8,bytes32,bytes32))": {
        "params": {
          "makerBid": "maker bid order",
          "takerAsk": "taker ask order"
        }
      },
      "owner()": {
        "details": "Returns the address of the current owner."
      },
      "renounceOwnership()": {
        "details": "Leaves the contract without owner. It will not be possible to call `onlyOwner` functions anymore. Can only be called by the current owner. NOTE: Renouncing ownership will leave the contract without an owner, thereby removing any functionality that is only available to the owner."
      },
      "transferOwnership(address)": {
        "details": "Transfers ownership of the contract to a new account (`newOwner`). Can only be called by the current owner."
      },
      "updateCurrencyManager(address)": {
        "params": {
          "_currencyManager": "new currency manager address"
        }
      },
      "updateExecutionManager(address)": {
        "params": {
          "_executionManager": "new execution manager address"
        }
      },
      "updateProtocolFeeManager(address)": {
        "params": {
          "_protocolFeeManager": "new protocol fee manager address"
        }
      },
      "updateProtocolFeeRecipient(address)": {
        "params": {
          "_protocolFeeRecipient": "new recipient for protocol fees"
        }
      },
      "updateRoyaltyFeeManager(address)": {
        "params": {
          "_royaltyFeeManager": "new fee manager address"
        }
      },
      "updateTransferSelectorNFT(address)": {
        "params": {
          "_transferSelectorNFT": "new transfer selector address"
        }
      }
    },
    "title": "JoepegExchange",
    "version": 1
  },
  "userdoc": {
    "kind": "user",
    "methods": {
      "cancelAllOrdersForSender(uint256)": {
        "notice": "Cancel all pending orders for a sender"
      },
      "cancelMultipleMakerOrders(uint256[])": {
        "notice": "Cancel maker orders"
      },
      "constructor": {
        "notice": "Constructor"
      },
      "isUserOrderNonceExecutedOrCancelled(address,uint256)": {
        "notice": "Check whether user order nonce is executed or cancelled"
      },
      "matchAskWithTakerBid((bool,address,uint256,uint256,uint256,bytes),(bool,address,address,uint256,uint256,uint256,address,address,uint256,uint256,uint256,uint256,bytes,uint8,bytes32,bytes32))": {
        "notice": "Match a takerBid with a matchAsk"
      },
      "matchAskWithTakerBidUsingAVAXAndWAVAX((bool,address,uint256,uint256,uint256,bytes),(bool,address,address,uint256,uint256,uint256,address,address,uint256,uint256,uint256,uint256,bytes,uint8,bytes32,bytes32))": {
        "notice": "Match ask with a taker bid order using AVAX"
      },
      "matchBidWithTakerAsk((bool,address,uint256,uint256,uint256,bytes),(bool,address,address,uint256,uint256,uint256,address,address,uint256,uint256,uint256,uint256,bytes,uint8,bytes32,bytes32))": {
        "notice": "Match a takerAsk with a makerBid"
      },
      "updateCurrencyManager(address)": {
        "notice": "Update currency manager"
      },
      "updateExecutionManager(address)": {
        "notice": "Update execution manager"
      },
      "updateProtocolFeeManager(address)": {
        "notice": "Update protocol fee manager"
      },
      "updateProtocolFeeRecipient(address)": {
        "notice": "Update protocol fee recipient"
      },
      "updateRoyaltyFeeManager(address)": {
        "notice": "Update royalty fee manager"
      },
      "updateTransferSelectorNFT(address)": {
        "notice": "Update transfer selector NFT"
      }
    },
    "notice": "Fork of the LooksRareExchange contract with some minor additions.",
    "version": 1
  },
  "storageLayout": {
    "storage": [
      {
        "astId": 151,
        "contract": "contracts/JoepegExchange.sol:JoepegExchange",
        "label": "_status",
        "offset": 0,
        "slot": "0",
        "type": "t_uint256"
      },
      {
        "astId": 7,
        "contract": "contracts/JoepegExchange.sol:JoepegExchange",
        "label": "_owner",
        "offset": 0,
        "slot": "1",
        "type": "t_address"
      },
      {
        "astId": 3301,
        "contract": "contracts/JoepegExchange.sol:JoepegExchange",
        "label": "protocolFeeRecipient",
        "offset": 0,
        "slot": "2",
        "type": "t_address"
      },
      {
        "astId": 3304,
        "contract": "contracts/JoepegExchange.sol:JoepegExchange",
        "label": "currencyManager",
        "offset": 0,
        "slot": "3",
        "type": "t_contract(ICurrencyManager)6113"
      },
      {
        "astId": 3307,
        "contract": "contracts/JoepegExchange.sol:JoepegExchange",
        "label": "executionManager",
        "offset": 0,
        "slot": "4",
        "type": "t_contract(IExecutionManager)6150"
      },
      {
        "astId": 3310,
        "contract": "contracts/JoepegExchange.sol:JoepegExchange",
        "label": "protocolFeeManager",
        "offset": 0,
        "slot": "5",
        "type": "t_contract(IProtocolFeeManager)6271"
      },
      {
        "astId": 3313,
        "contract": "contracts/JoepegExchange.sol:JoepegExchange",
        "label": "royaltyFeeManager",
        "offset": 0,
        "slot": "6",
        "type": "t_contract(IRoyaltyFeeManager)6287"
      },
      {
        "astId": 3316,
        "contract": "contracts/JoepegExchange.sol:JoepegExchange",
        "label": "transferSelectorNFT",
        "offset": 0,
        "slot": "7",
        "type": "t_contract(ITransferSelectorNFT)6354"
      },
      {
        "astId": 3320,
        "contract": "contracts/JoepegExchange.sol:JoepegExchange",
        "label": "userMinOrderNonce",
        "offset": 0,
        "slot": "8",
        "type": "t_mapping(t_address,t_uint256)"
      },
      {
        "astId": 3326,
        "contract": "contracts/JoepegExchange.sol:JoepegExchange",
        "label": "_isUserOrderNonceExecutedOrCancelled",
        "offset": 0,
        "slot": "9",
        "type": "t_mapping(t_address,t_mapping(t_uint256,t_bool))"
      }
    ],
    "types": {
      "t_address": {
        "encoding": "inplace",
        "label": "address",
        "numberOfBytes": "20"
      },
      "t_bool": {
        "encoding": "inplace",
        "label": "bool",
        "numberOfBytes": "1"
      },
      "t_contract(ICurrencyManager)6113": {
        "encoding": "inplace",
        "label": "contract ICurrencyManager",
        "numberOfBytes": "20"
      },
      "t_contract(IExecutionManager)6150": {
        "encoding": "inplace",
        "label": "contract IExecutionManager",
        "numberOfBytes": "20"
      },
      "t_contract(IProtocolFeeManager)6271": {
        "encoding": "inplace",
        "label": "contract IProtocolFeeManager",
        "numberOfBytes": "20"
      },
      "t_contract(IRoyaltyFeeManager)6287": {
        "encoding": "inplace",
        "label": "contract IRoyaltyFeeManager",
        "numberOfBytes": "20"
      },
      "t_contract(ITransferSelectorNFT)6354": {
        "encoding": "inplace",
        "label": "contract ITransferSelectorNFT",
        "numberOfBytes": "20"
      },
      "t_mapping(t_address,t_mapping(t_uint256,t_bool))": {
        "encoding": "mapping",
        "key": "t_address",
        "label": "mapping(address => mapping(uint256 => bool))",
        "numberOfBytes": "32",
        "value": "t_mapping(t_uint256,t_bool)"
      },
      "t_mapping(t_address,t_uint256)": {
        "encoding": "mapping",
        "key": "t_address",
        "label": "mapping(address => uint256)",
        "numberOfBytes": "32",
        "value": "t_uint256"
      },
      "t_mapping(t_uint256,t_bool)": {
        "encoding": "mapping",
        "key": "t_uint256",
        "label": "mapping(uint256 => bool)",
        "numberOfBytes": "32",
        "value": "t_bool"
      },
      "t_uint256": {
        "encoding": "inplace",
        "label": "uint256",
        "numberOfBytes": "32"
      }
    }
  }
}