{
  "address": "0xF4aE1689E183249ee3dbC4b4D32719993C6BC2eb",
  "abi": [
    {
      "inputs": [
        {
          "internalType": "address",
          "name": "_wavax",
          "type": "address"
        }
      ],
      "stateMutability": "nonpayable",
      "type": "constructor"
    },
    {
      "inputs": [],
      "name": "JoepegAuctionHouse__AuctionAlreadyExists",
      "type": "error"
    },
    {
      "inputs": [],
      "name": "JoepegAuctionHouse__CurrencyMismatch",
      "type": "error"
    },
    {
      "inputs": [],
      "name": "JoepegAuctionHouse__DutchAuctionCreatorCannotSettle",
      "type": "error"
    },
    {
      "inputs": [],
      "name": "JoepegAuctionHouse__DutchAuctionInvalidStartEndPrice",
      "type": "error"
    },
    {
      "inputs": [],
      "name": "JoepegAuctionHouse__EnglishAuctionCannotBidOnEndedAuction",
      "type": "error"
    },
    {
      "inputs": [],
      "name": "JoepegAuctionHouse__EnglishAuctionCannotCancelWithExistingBid",
      "type": "error"
    },
    {
      "inputs": [],
      "name": "JoepegAuctionHouse__EnglishAuctionCannotSettleWithoutBid",
      "type": "error"
    },
    {
      "inputs": [],
      "name": "JoepegAuctionHouse__EnglishAuctionCreatorCannotPlaceBid",
      "type": "error"
    },
    {
      "inputs": [],
      "name": "JoepegAuctionHouse__EnglishAuctionInsufficientBidAmount",
      "type": "error"
    },
    {
      "inputs": [],
      "name": "JoepegAuctionHouse__EnglishAuctionInvalidMinBidIncrementPct",
      "type": "error"
    },
    {
      "inputs": [],
      "name": "JoepegAuctionHouse__EnglishAuctionInvalidRefreshTime",
      "type": "error"
    },
    {
      "inputs": [],
      "name": "JoepegAuctionHouse__EnglishAuctionOnlyCreatorCanSettleBeforeEndTime",
      "type": "error"
    },
    {
      "inputs": [],
      "name": "JoepegAuctionHouse__ExpectedNonNullAddress",
      "type": "error"
    },
    {
      "inputs": [],
      "name": "JoepegAuctionHouse__FeesHigherThanExpected",
      "type": "error"
    },
    {
      "inputs": [],
      "name": "JoepegAuctionHouse__InvalidDuration",
      "type": "error"
    },
    {
      "inputs": [],
      "name": "JoepegAuctionHouse__InvalidMinPercentageToAsk",
      "type": "error"
    },
    {
      "inputs": [],
      "name": "JoepegAuctionHouse__NoAuctionExists",
      "type": "error"
    },
    {
      "inputs": [],
      "name": "JoepegAuctionHouse__OnlyAuctionCreatorCanCancel",
      "type": "error"
    },
    {
      "inputs": [],
      "name": "JoepegAuctionHouse__UnsupportedCurrency",
      "type": "error"
    },
    {
      "anonymous": false,
      "inputs": [
        {
          "indexed": true,
          "internalType": "address",
          "name": "oldCurrencyManager",
          "type": "address"
        },
        {
          "indexed": true,
          "internalType": "address",
          "name": "newCurrencyManager",
          "type": "address"
        }
      ],
      "name": "CurrencyManagerSet",
      "type": "event"
    },
    {
      "anonymous": false,
      "inputs": [
        {
          "indexed": true,
          "internalType": "address",
          "name": "creator",
          "type": "address"
        },
        {
          "indexed": true,
          "internalType": "address",
          "name": "collection",
          "type": "address"
        },
        {
          "indexed": true,
          "internalType": "uint256",
          "name": "tokenId",
          "type": "uint256"
        },
        {
          "indexed": false,
          "internalType": "uint256",
          "name": "nonce",
          "type": "uint256"
        }
      ],
      "name": "DutchAuctionCancel",
      "type": "event"
    },
    {
      "anonymous": false,
      "inputs": [
        {
          "indexed": true,
          "internalType": "address",
          "name": "creator",
          "type": "address"
        },
        {
          "indexed": false,
          "internalType": "address",
          "name": "buyer",
          "type": "address"
        },
        {
          "indexed": false,
          "internalType": "address",
          "name": "currency",
          "type": "address"
        },
        {
          "indexed": true,
          "internalType": "address",
          "name": "collection",
          "type": "address"
        },
        {
          "indexed": true,
          "internalType": "uint256",
          "name": "tokenId",
          "type": "uint256"
        },
        {
          "indexed": false,
          "internalType": "uint256",
          "name": "nonce",
          "type": "uint256"
        },
        {
          "indexed": false,
          "internalType": "uint256",
          "name": "price",
          "type": "uint256"
        }
      ],
      "name": "DutchAuctionSettle",
      "type": "event"
    },
    {
      "anonymous": false,
      "inputs": [
        {
          "indexed": true,
          "internalType": "address",
          "name": "creator",
          "type": "address"
        },
        {
          "indexed": false,
          "internalType": "address",
          "name": "currency",
          "type": "address"
        },
        {
          "indexed": true,
          "internalType": "address",
          "name": "collection",
          "type": "address"
        },
        {
          "indexed": true,
          "internalType": "uint256",
          "name": "tokenId",
          "type": "uint256"
        },
        {
          "indexed": false,
          "internalType": "uint256",
          "name": "nonce",
          "type": "uint256"
        },
        {
          "indexed": false,
          "internalType": "uint256",
          "name": "startPrice",
          "type": "uint256"
        },
        {
          "indexed": false,
          "internalType": "uint256",
          "name": "endPrice",
          "type": "uint256"
        },
        {
          "indexed": false,
          "internalType": "uint96",
          "name": "startTime",
          "type": "uint96"
        },
        {
          "indexed": false,
          "internalType": "uint96",
          "name": "endTime",
          "type": "uint96"
        },
        {
          "indexed": false,
          "internalType": "uint256",
          "name": "dropInterval",
          "type": "uint256"
        },
        {
          "indexed": false,
          "internalType": "uint256",
          "name": "minPercentageToAsk",
          "type": "uint256"
        }
      ],
      "name": "DutchAuctionStart",
      "type": "event"
    },
    {
      "anonymous": false,
      "inputs": [
        {
          "indexed": true,
          "internalType": "address",
          "name": "caller",
          "type": "address"
        },
        {
          "indexed": false,
          "internalType": "address",
          "name": "creator",
          "type": "address"
        },
        {
          "indexed": true,
          "internalType": "address",
          "name": "collection",
          "type": "address"
        },
        {
          "indexed": true,
          "internalType": "uint256",
          "name": "tokenId",
          "type": "uint256"
        },
        {
          "indexed": false,
          "internalType": "uint256",
          "name": "nonce",
          "type": "uint256"
        }
      ],
      "name": "EnglishAuctionCancel",
      "type": "event"
    },
    {
      "anonymous": false,
      "inputs": [
        {
          "indexed": true,
          "internalType": "uint256",
          "name": "oldEnglishAuctionMinBidIncrementPct",
          "type": "uint256"
        },
        {
          "indexed": true,
          "internalType": "uint256",
          "name": "newEnglishAuctionMinBidIncrementPct",
          "type": "uint256"
        }
      ],
      "name": "EnglishAuctionMinBidIncrementPctSet",
      "type": "event"
    },
    {
      "anonymous": false,
      "inputs": [
        {
          "indexed": true,
          "internalType": "address",
          "name": "creator",
          "type": "address"
        },
        {
          "indexed": false,
          "internalType": "address",
          "name": "bidder",
          "type": "address"
        },
        {
          "indexed": false,
          "internalType": "address",
          "name": "currency",
          "type": "address"
        },
        {
          "indexed": true,
          "internalType": "address",
          "name": "collection",
          "type": "address"
        },
        {
          "indexed": true,
          "internalType": "uint256",
          "name": "tokenId",
          "type": "uint256"
        },
        {
          "indexed": false,
          "internalType": "uint256",
          "name": "nonce",
          "type": "uint256"
        },
        {
          "indexed": false,
          "internalType": "uint256",
          "name": "bidAmount",
          "type": "uint256"
        },
        {
          "indexed": false,
          "internalType": "uint96",
          "name": "endTime",
          "type": "uint96"
        }
      ],
      "name": "EnglishAuctionPlaceBid",
      "type": "event"
    },
    {
      "anonymous": false,
      "inputs": [
        {
          "indexed": true,
          "internalType": "uint96",
          "name": "oldEnglishAuctionRefreshTime",
          "type": "uint96"
        },
        {
          "indexed": true,
          "internalType": "uint96",
          "name": "newEnglishAuctionRefreshTime",
          "type": "uint96"
        }
      ],
      "name": "EnglishAuctionRefreshTimeSet",
      "type": "event"
    },
    {
      "anonymous": false,
      "inputs": [
        {
          "indexed": true,
          "internalType": "address",
          "name": "creator",
          "type": "address"
        },
        {
          "indexed": false,
          "internalType": "address",
          "name": "buyer",
          "type": "address"
        },
        {
          "indexed": false,
          "internalType": "address",
          "name": "currency",
          "type": "address"
        },
        {
          "indexed": true,
          "internalType": "address",
          "name": "collection",
          "type": "address"
        },
        {
          "indexed": true,
          "internalType": "uint256",
          "name": "tokenId",
          "type": "uint256"
        },
        {
          "indexed": false,
          "internalType": "uint256",
          "name": "nonce",
          "type": "uint256"
        },
        {
          "indexed": false,
          "internalType": "uint256",
          "name": "price",
          "type": "uint256"
        }
      ],
      "name": "EnglishAuctionSettle",
      "type": "event"
    },
    {
      "anonymous": false,
      "inputs": [
        {
          "indexed": true,
          "internalType": "address",
          "name": "creator",
          "type": "address"
        },
        {
          "indexed": false,
          "internalType": "address",
          "name": "currency",
          "type": "address"
        },
        {
          "indexed": true,
          "internalType": "address",
          "name": "collection",
          "type": "address"
        },
        {
          "indexed": true,
          "internalType": "uint256",
          "name": "tokenId",
          "type": "uint256"
        },
        {
          "indexed": false,
          "internalType": "uint256",
          "name": "nonce",
          "type": "uint256"
        },
        {
          "indexed": false,
          "internalType": "uint256",
          "name": "startPrice",
          "type": "uint256"
        },
        {
          "indexed": false,
          "internalType": "uint96",
          "name": "startTime",
          "type": "uint96"
        },
        {
          "indexed": false,
          "internalType": "uint96",
          "name": "endTime",
          "type": "uint96"
        },
        {
          "indexed": false,
          "internalType": "uint256",
          "name": "minPercentageToAsk",
          "type": "uint256"
        }
      ],
      "name": "EnglishAuctionStart",
      "type": "event"
    },
    {
      "anonymous": false,
      "inputs": [
        {
          "indexed": true,
          "internalType": "address",
          "name": "previousOwner",
          "type": "address"
        },
        {
          "indexed": true,
          "internalType": "address",
          "name": "newOwner",
          "type": "address"
        }
      ],
      "name": "OwnershipTransferred",
      "type": "event"
    },
    {
      "anonymous": false,
      "inputs": [
        {
          "indexed": true,
          "internalType": "address",
          "name": "oldProtocolFeeManager",
          "type": "address"
        },
        {
          "indexed": true,
          "internalType": "address",
          "name": "newProtocolFeeManager",
          "type": "address"
        }
      ],
      "name": "ProtocolFeeManagerSet",
      "type": "event"
    },
    {
      "anonymous": false,
      "inputs": [
        {
          "indexed": true,
          "internalType": "address",
          "name": "oldProtocolFeeRecipient",
          "type": "address"
        },
        {
          "indexed": true,
          "internalType": "address",
          "name": "newProtocolFeeRecipient",
          "type": "address"
        }
      ],
      "name": "ProtocolFeeRecipientSet",
      "type": "event"
    },
    {
      "anonymous": false,
      "inputs": [
        {
          "indexed": true,
          "internalType": "address",
          "name": "oldRoyaltyFeeManager",
          "type": "address"
        },
        {
          "indexed": true,
          "internalType": "address",
          "name": "newRoyaltyFeeManager",
          "type": "address"
        }
      ],
      "name": "RoyaltyFeeManagerSet",
      "type": "event"
    },
    {
      "anonymous": false,
      "inputs": [
        {
          "indexed": true,
          "internalType": "address",
          "name": "collection",
          "type": "address"
        },
        {
          "indexed": true,
          "internalType": "uint256",
          "name": "tokenId",
          "type": "uint256"
        },
        {
          "indexed": true,
          "internalType": "address",
          "name": "royaltyRecipient",
          "type": "address"
        },
        {
          "indexed": false,
          "internalType": "address",
          "name": "currency",
          "type": "address"
        },
        {
          "indexed": false,
          "internalType": "uint256",
          "name": "amount",
          "type": "uint256"
        }
      ],
      "name": "RoyaltyPayment",
      "type": "event"
    },
    {
      "inputs": [],
      "name": "PERCENTAGE_PRECISION",
      "outputs": [
        {
          "internalType": "uint256",
          "name": "",
          "type": "uint256"
        }
      ],
      "stateMutability": "view",
      "type": "function"
    },
    {
      "inputs": [],
      "name": "WAVAX",
      "outputs": [
        {
          "internalType": "address",
          "name": "",
          "type": "address"
        }
      ],
      "stateMutability": "view",
      "type": "function"
    },
    {
      "inputs": [
        {
          "internalType": "contract IERC721",
          "name": "_collection",
          "type": "address"
        },
        {
          "internalType": "uint256",
          "name": "_tokenId",
          "type": "uint256"
        }
      ],
      "name": "cancelDutchAuction",
      "outputs": [],
      "stateMutability": "nonpayable",
      "type": "function"
    },
    {
      "inputs": [
        {
          "internalType": "contract IERC721",
          "name": "_collection",
          "type": "address"
        },
        {
          "internalType": "uint256",
          "name": "_tokenId",
          "type": "uint256"
        }
      ],
      "name": "cancelEnglishAuction",
      "outputs": [],
      "stateMutability": "nonpayable",
      "type": "function"
    },
    {
      "inputs": [],
      "name": "currencyManager",
      "outputs": [
        {
          "internalType": "contract ICurrencyManager",
          "name": "",
          "type": "address"
        }
      ],
      "stateMutability": "view",
      "type": "function"
    },
    {
      "inputs": [
        {
          "internalType": "address",
          "name": "",
          "type": "address"
        },
        {
          "internalType": "uint256",
          "name": "",
          "type": "uint256"
        }
      ],
      "name": "dutchAuctions",
      "outputs": [
        {
          "internalType": "address",
          "name": "creator",
          "type": "address"
        },
        {
          "internalType": "uint96",
          "name": "startTime",
          "type": "uint96"
        },
        {
          "internalType": "address",
          "name": "currency",
          "type": "address"
        },
        {
          "internalType": "uint96",
          "name": "endTime",
          "type": "uint96"
        },
        {
          "internalType": "uint256",
          "name": "nonce",
          "type": "uint256"
        },
        {
          "internalType": "uint256",
          "name": "startPrice",
          "type": "uint256"
        },
        {
          "internalType": "uint256",
          "name": "endPrice",
          "type": "uint256"
        },
        {
          "internalType": "uint256",
          "name": "dropInterval",
          "type": "uint256"
        },
        {
          "internalType": "uint256",
          "name": "minPercentageToAsk",
          "type": "uint256"
        }
      ],
      "stateMutability": "view",
      "type": "function"
    },
    {
      "inputs": [
        {
          "internalType": "contract IERC721",
          "name": "_collection",
          "type": "address"
        },
        {
          "internalType": "uint256",
          "name": "_tokenId",
          "type": "uint256"
        }
      ],
      "name": "emergencyCancelEnglishAuction",
      "outputs": [],
      "stateMutability": "nonpayable",
      "type": "function"
    },
    {
      "inputs": [],
      "name": "englishAuctionMinBidIncrementPct",
      "outputs": [
        {
          "internalType": "uint256",
          "name": "",
          "type": "uint256"
        }
      ],
      "stateMutability": "view",
      "type": "function"
    },
    {
      "inputs": [],
      "name": "englishAuctionRefreshTime",
      "outputs": [
        {
          "internalType": "uint96",
          "name": "",
          "type": "uint96"
        }
      ],
      "stateMutability": "view",
      "type": "function"
    },
    {
      "inputs": [
        {
          "internalType": "address",
          "name": "",
          "type": "address"
        },
        {
          "internalType": "uint256",
          "name": "",
          "type": "uint256"
        }
      ],
      "name": "englishAuctions",
      "outputs": [
        {
          "internalType": "address",
          "name": "creator",
          "type": "address"
        },
        {
          "internalType": "address",
          "name": "currency",
          "type": "address"
        },
        {
          "internalType": "address",
          "name": "lastBidder",
          "type": "address"
        },
        {
          "internalType": "uint96",
          "name": "endTime",
          "type": "uint96"
        },
        {
          "internalType": "uint256",
          "name": "nonce",
          "type": "uint256"
        },
        {
          "internalType": "uint256",
          "name": "lastBidPrice",
          "type": "uint256"
        },
        {
          "internalType": "uint256",
          "name": "startPrice",
          "type": "uint256"
        },
        {
          "internalType": "uint256",
          "name": "minPercentageToAsk",
          "type": "uint256"
        }
      ],
      "stateMutability": "view",
      "type": "function"
    },
    {
      "inputs": [
        {
          "internalType": "address",
          "name": "_collection",
          "type": "address"
        },
        {
          "internalType": "uint256",
          "name": "_tokenId",
          "type": "uint256"
        }
      ],
      "name": "getDutchAuctionSalePrice",
      "outputs": [
        {
          "internalType": "uint256",
          "name": "",
          "type": "uint256"
        }
      ],
      "stateMutability": "view",
      "type": "function"
    },
    {
      "inputs": [
        {
          "internalType": "uint256",
          "name": "_englishAuctionMinBidIncrementPct",
          "type": "uint256"
        },
        {
          "internalType": "uint96",
          "name": "_englishAuctionRefreshTime",
          "type": "uint96"
        },
        {
          "internalType": "address",
          "name": "_currencyManager",
          "type": "address"
        },
        {
          "internalType": "address",
          "name": "_protocolFeeManager",
          "type": "address"
        },
        {
          "internalType": "address",
          "name": "_royaltyFeeManager",
          "type": "address"
        },
        {
          "internalType": "address",
          "name": "_protocolFeeRecipient",
          "type": "address"
        }
      ],
      "name": "initialize",
      "outputs": [],
      "stateMutability": "nonpayable",
      "type": "function"
    },
    {
      "inputs": [
        {
          "internalType": "address",
          "name": "",
          "type": "address"
        },
        {
          "internalType": "address",
          "name": "",
          "type": "address"
        },
        {
          "internalType": "uint256",
          "name": "",
          "type": "uint256"
        },
        {
          "internalType": "bytes",
          "name": "",
          "type": "bytes"
        }
      ],
      "name": "onERC721Received",
      "outputs": [
        {
          "internalType": "bytes4",
          "name": "",
          "type": "bytes4"
        }
      ],
      "stateMutability": "pure",
      "type": "function"
    },
    {
      "inputs": [],
      "name": "owner",
      "outputs": [
        {
          "internalType": "address",
          "name": "",
          "type": "address"
        }
      ],
      "stateMutability": "view",
      "type": "function"
    },
    {
      "inputs": [
        {
          "internalType": "contract IERC721",
          "name": "_collection",
          "type": "address"
        },
        {
          "internalType": "uint256",
          "name": "_tokenId",
          "type": "uint256"
        },
        {
          "internalType": "uint256",
          "name": "_amount",
          "type": "uint256"
        }
      ],
      "name": "placeEnglishAuctionBid",
      "outputs": [],
      "stateMutability": "nonpayable",
      "type": "function"
    },
    {
      "inputs": [
        {
          "internalType": "contract IERC721",
          "name": "_collection",
          "type": "address"
        },
        {
          "internalType": "uint256",
          "name": "_tokenId",
          "type": "uint256"
        },
        {
          "internalType": "uint256",
          "name": "_wavaxAmount",
          "type": "uint256"
        }
      ],
      "name": "placeEnglishAuctionBidWithAVAXAndWAVAX",
      "outputs": [],
      "stateMutability": "payable",
      "type": "function"
    },
    {
      "inputs": [],
      "name": "protocolFeeManager",
      "outputs": [
        {
          "internalType": "contract IProtocolFeeManager",
          "name": "",
          "type": "address"
        }
      ],
      "stateMutability": "view",
      "type": "function"
    },
    {
      "inputs": [],
      "name": "protocolFeeRecipient",
      "outputs": [
        {
          "internalType": "address",
          "name": "",
          "type": "address"
        }
      ],
      "stateMutability": "view",
      "type": "function"
    },
    {
      "inputs": [],
      "name": "renounceOwnership",
      "outputs": [],
      "stateMutability": "nonpayable",
      "type": "function"
    },
    {
      "inputs": [],
      "name": "royaltyFeeManager",
      "outputs": [
        {
          "internalType": "contract IRoyaltyFeeManager",
          "name": "",
          "type": "address"
        }
      ],
      "stateMutability": "view",
      "type": "function"
    },
    {
      "inputs": [
        {
          "internalType": "contract IERC721",
          "name": "_collection",
          "type": "address"
        },
        {
          "internalType": "uint256",
          "name": "_tokenId",
          "type": "uint256"
        }
      ],
      "name": "settleDutchAuction",
      "outputs": [],
      "stateMutability": "nonpayable",
      "type": "function"
    },
    {
      "inputs": [
        {
          "internalType": "contract IERC721",
          "name": "_collection",
          "type": "address"
        },
        {
          "internalType": "uint256",
          "name": "_tokenId",
          "type": "uint256"
        }
      ],
      "name": "settleDutchAuctionWithAVAXAndWAVAX",
      "outputs": [],
      "stateMutability": "payable",
      "type": "function"
    },
    {
      "inputs": [
        {
          "internalType": "contract IERC721",
          "name": "_collection",
          "type": "address"
        },
        {
          "internalType": "uint256",
          "name": "_tokenId",
          "type": "uint256"
        }
      ],
      "name": "settleEnglishAuction",
      "outputs": [],
      "stateMutability": "nonpayable",
      "type": "function"
    },
    {
      "inputs": [
        {
          "internalType": "contract IERC721",
          "name": "_collection",
          "type": "address"
        },
        {
          "internalType": "uint256",
          "name": "_tokenId",
          "type": "uint256"
        },
        {
          "internalType": "contract IERC20",
          "name": "_currency",
          "type": "address"
        },
        {
          "internalType": "uint96",
          "name": "_duration",
          "type": "uint96"
        },
        {
          "internalType": "uint256",
          "name": "_dropInterval",
          "type": "uint256"
        },
        {
          "internalType": "uint256",
          "name": "_startPrice",
          "type": "uint256"
        },
        {
          "internalType": "uint256",
          "name": "_endPrice",
          "type": "uint256"
        },
        {
          "internalType": "uint256",
          "name": "_minPercentageToAsk",
          "type": "uint256"
        }
      ],
      "name": "startDutchAuction",
      "outputs": [],
      "stateMutability": "nonpayable",
      "type": "function"
    },
    {
      "inputs": [
        {
          "internalType": "contract IERC721",
          "name": "_collection",
          "type": "address"
        },
        {
          "internalType": "uint256",
          "name": "_tokenId",
          "type": "uint256"
        },
        {
          "internalType": "contract IERC20",
          "name": "_currency",
          "type": "address"
        },
        {
          "internalType": "uint96",
          "name": "_duration",
          "type": "uint96"
        },
        {
          "internalType": "uint256",
          "name": "_startPrice",
          "type": "uint256"
        },
        {
          "internalType": "uint256",
          "name": "_minPercentageToAsk",
          "type": "uint256"
        }
      ],
      "name": "startEnglishAuction",
      "outputs": [],
      "stateMutability": "nonpayable",
      "type": "function"
    },
    {
      "inputs": [
        {
          "internalType": "address",
          "name": "newOwner",
          "type": "address"
        }
      ],
      "name": "transferOwnership",
      "outputs": [],
      "stateMutability": "nonpayable",
      "type": "function"
    },
    {
      "inputs": [
        {
          "internalType": "address",
          "name": "_currencyManager",
          "type": "address"
        }
      ],
      "name": "updateCurrencyManager",
      "outputs": [],
      "stateMutability": "nonpayable",
      "type": "function"
    },
    {
      "inputs": [
        {
          "internalType": "uint256",
          "name": "_englishAuctionMinBidIncrementPct",
          "type": "uint256"
        }
      ],
      "name": "updateEnglishAuctionMinBidIncrementPct",
      "outputs": [],
      "stateMutability": "nonpayable",
      "type": "function"
    },
    {
      "inputs": [
        {
          "internalType": "uint96",
          "name": "_englishAuctionRefreshTime",
          "type": "uint96"
        }
      ],
      "name": "updateEnglishAuctionRefreshTime",
      "outputs": [],
      "stateMutability": "nonpayable",
      "type": "function"
    },
    {
      "inputs": [
        {
          "internalType": "address",
          "name": "_protocolFeeManager",
          "type": "address"
        }
      ],
      "name": "updateProtocolFeeManager",
      "outputs": [],
      "stateMutability": "nonpayable",
      "type": "function"
    },
    {
      "inputs": [
        {
          "internalType": "address",
          "name": "_protocolFeeRecipient",
          "type": "address"
        }
      ],
      "name": "updateProtocolFeeRecipient",
      "outputs": [],
      "stateMutability": "nonpayable",
      "type": "function"
    },
    {
      "inputs": [
        {
          "internalType": "address",
          "name": "_royaltyFeeManager",
          "type": "address"
        }
      ],
      "name": "updateRoyaltyFeeManager",
      "outputs": [],
      "stateMutability": "nonpayable",
      "type": "function"
    },
    {
      "inputs": [
        {
          "internalType": "address",
          "name": "",
          "type": "address"
        }
      ],
      "name": "userLatestAuctionNonce",
      "outputs": [
        {
          "internalType": "uint256",
          "name": "",
          "type": "uint256"
        }
      ],
      "stateMutability": "view",
      "type": "function"
    }
  ],
  "transactionHash": "0x49c2887c314507521c4d1df2f6cf2be88ac8de6ba1d7cb1e9e229368413606ee",
  "args": [
    "0xd00ae08403B9bbb9124bB305C09058E32C39A48c"
  ],
  "numDeployments": 1,
  "solcInputHash": "78831b734e4477d635010ab331672fd4",
  "bytecode": "0x60a06040523480156200001157600080fd5b506040516200392038038062003920833981016040819052620000349162000046565b6001600160a01b031660805262000078565b6000602082840312156200005957600080fd5b81516001600160a01b03811681146200007157600080fd5b9392505050565b60805161384d620000d3600039600081816105c501528181610dc501528181611f4c01528181611f930152818161201901528181612593015281816125dd0152818161260d015281816126a001526126ce015261384d6000f3fe6080604052600436106101ee5760003560e01c806373b295c21161010d578063a70dbaeb116100a0578063c70f852d1161006f578063c70f852d14610752578063d163a90614610765578063e256888f14610785578063f080e0bf1461079b578063f2fde38b146107bb57600080fd5b8063a70dbaeb146106d2578063ad354df8146106f2578063ba03850514610712578063c54987691461073257600080fd5b80638da5cb5b116100dc5780638da5cb5b1461065457806390bdc08714610672578063955b253814610692578063a1fd34e0146106b257600080fd5b806373b295c2146105b357806373c32597146105e7578063874b5d0d1461060757806387e4401f1461063457600080fd5b80635ce052d7116101855780636e41d47d116101545780636e41d47d146104735780636fc4cde114610493578063715018a6146104cb57806373918a1c146104e057600080fd5b80635ce052d7146104005780635d28be2e1461042057806364df049e1461043357806367a548891461045357600080fd5b8063150b7a02116101c1578063150b7a021461035b5780631df47f80146103a057806327370809146103c0578063516971a8146103e057600080fd5b80630f747d74146101f35780631082eea214610230578063127d71f71461031557806312e64f0314610337575b600080fd5b3480156101ff57600080fd5b50609754610213906001600160a01b031681565b6040516001600160a01b0390911681526020015b60405180910390f35b34801561023c57600080fd5b506102b761024b3660046132c3565b609c60209081526000928352604080842090915290825290208054600182015460028301546003840154600485015460058601546006909601546001600160a01b03808716976001600160601b03600160a01b9889900481169892881697929092049091169493929189565b604080516001600160a01b039a8b1681526001600160601b03998a1660208201529990971696890196909652959093166060870152608086019190915260a085015260c084015260e083019190915261010082015261012001610227565b34801561032157600080fd5b506103356103303660046132ef565b6107db565b005b34801561034357600080fd5b5061034d609e5481565b604051908152602001610227565b34801561036757600080fd5b5061038761037636600461330c565b630a85bd0160e11b95945050505050565b6040516001600160e01b03199091168152602001610227565b3480156103ac57600080fd5b506103356103bb3660046132ef565b61081a565b3480156103cc57600080fd5b506103356103db3660046132c3565b61084d565b3480156103ec57600080fd5b506103356103fb3660046132c3565b610a7e565b34801561040c57600080fd5b5061033561041b3660046132ef565b610ccc565b61033561042e3660046132c3565b610cff565b34801561043f57600080fd5b50609a54610213906001600160a01b031681565b34801561045f57600080fd5b5061033561046e3660046133c7565b610e1a565b34801561047f57600080fd5b5061033561048e3660046132c3565b610f1f565b34801561049f57600080fd5b50609f546104b3906001600160601b031681565b6040516001600160601b039091168152602001610227565b3480156104d757600080fd5b506103356111c5565b3480156104ec57600080fd5b5061055e6104fb3660046132c3565b609d60209081526000928352604080842090915290825290208054600182015460028301546003840154600485015460058601546006909601546001600160a01b039586169694861695841694600160a01b9094046001600160601b0316939088565b604080516001600160a01b03998a168152978916602089015295909716948601949094526001600160601b03929092166060850152608084015260a083015260c082015260e081019190915261010001610227565b3480156105bf57600080fd5b506102137f000000000000000000000000000000000000000000000000000000000000000081565b3480156105f357600080fd5b5061033561060236600461343e565b6111fb565b34801561061357600080fd5b5061034d6106223660046132ef565b609b6020526000908152604090205481565b34801561064057600080fd5b50609954610213906001600160a01b031681565b34801561066057600080fd5b506033546001600160a01b0316610213565b34801561067e57600080fd5b5061033561068d3660046134b3565b6116c7565b34801561069e57600080fd5b506103356106ad3660046134cc565b6116fa565b3480156106be57600080fd5b5061034d6106cd3660046132c3565b6117fb565b3480156106de57600080fd5b50609854610213906001600160a01b031681565b3480156106fe57600080fd5b5061033561070d3660046132c3565b611958565b34801561071e57600080fd5b5061033561072d366004613501565b611a30565b34801561073e57600080fd5b5061033561074d3660046132ef565b611e5e565b6103356107603660046134cc565b611e91565b34801561077157600080fd5b50610335610780366004613564565b612056565b34801561079157600080fd5b5061034d61271081565b3480156107a757600080fd5b506103356107b63660046132c3565b612089565b3480156107c757600080fd5b506103356107d63660046132ef565b61226e565b6033546001600160a01b0316331461080e5760405162461bcd60e51b81526004016108059061357f565b60405180910390fd5b61081781612306565b50565b6033546001600160a01b031633146108445760405162461bcd60e51b81526004016108059061357f565b6108178161237f565b600260655414156108705760405162461bcd60e51b8152600401610805906135b4565b600260658190556001600160a01b038381166000908152609d602090815260408083208684528252918290208251610100810184528154851680825260018301548616938201939093529481015493841692850192909252600160a01b9092046001600160601b0316606084015260038101546080840152600481015460a0840152600581015460c08401526006015460e083015283919033146109275760405163642a6a5360e01b815260040160405180910390fd5b60408101516001600160a01b0316156109535760405163088207f160e11b815260040160405180910390fd5b6001600160a01b038083166000908152609d6020908152604080832087845290915280822080546001600160a01b031990811682556001820180549091169055600281018390556003810183905560048082018490556005820184905560069091019290925583519051632142170760e11b8152928716926342842e0e926109e192309290918991016135eb565b600060405180830381600087803b1580156109fb57600080fd5b505af1158015610a0f573d6000803e3d6000fd5b5050825160808401516040518794506001600160a01b038716935033927f9b2b3a11685c55784f4d3819a5bbaa39baa4be3732cd6d9514970ea6e3ac065c92610a6b926001600160a01b03929092168252602082015260400190565b60405180910390a4505060016065555050565b60026065541415610aa15760405162461bcd60e51b8152600401610805906135b4565b60026065556033546001600160a01b03163314610ad05760405162461bcd60e51b81526004016108059061357f565b6001600160a01b038281166000908152609d60209081526040808320858452825291829020825161010081018452815485168082526001830154861693820193909352600282015494851693810193909352600160a01b9093046001600160601b0316606083015260038301546080830152600483015460a0830152600583015460c083015260069092015460e08201528391610b8057604051636cf011bd60e11b815260040160405180910390fd5b60408082015160a08301516001600160a01b038086166000908152609d6020908152858220898352905284812080546001600160a01b031990811682556001820180549091169055600281018290556003810182905560048082018390556005820183905560069091019190915585519451632142170760e11b815293949293918916926342842e0e92610c19923092918b91016135eb565b600060405180830381600087803b158015610c3357600080fd5b505af1158015610c47573d6000803e3d6000fd5b505050506000811115610c6d576020830151610c6d906001600160a01b031683836123f8565b82516080840151604080516001600160a01b0393841681526020810192909252879287169133917f9b2b3a11685c55784f4d3819a5bbaa39baa4be3732cd6d9514970ea6e3ac065c910160405180910390a45050600160655550505050565b6033546001600160a01b03163314610cf65760405162461bcd60e51b81526004016108059061357f565b61081781612460565b60026065541415610d225760405162461bcd60e51b8152600401610805906135b4565b600260658190556001600160a01b038084166000908152609c60209081526040808320868452825291829020825161012081018452815480861682526001600160601b03600160a01b918290048116948301949094526001830154808716958301869052049092166060830152938401546080820152600384015460a0820152600484015460c0820152600584015460e0820152600690930154610100840152907f0000000000000000000000000000000000000000000000000000000000000000168114610e045760405163026bd50160e51b815260040160405180910390fd5b610e0f8484846124d9565b505060016065555050565b600054610100900460ff16610e355760005460ff1615610e39565b303b155b610e9c5760405162461bcd60e51b815260206004820152602e60248201527f496e697469616c697a61626c653a20636f6e747261637420697320616c72656160448201526d191e481a5b9a5d1a585b1a5e995960921b6064820152608401610805565b600054610100900460ff16158015610ebe576000805461ffff19166101011790555b610ec66127ec565b610ece61281b565b610ed78761284a565b610ee0866128af565b610ee985612460565b610ef284612306565b610efb8361292d565b610f048261237f565b8015610f16576000805461ff00191690555b50505050505050565b60026065541415610f425760405162461bcd60e51b8152600401610805906135b4565b600260658190556001600160a01b038381166000908152609d602090815260408083208684528252918290208251610100810184528154851680825260018301548616938201939093529481015493841692850192909252600160a01b9092046001600160601b0316606084015260038101546080840152600481015460a0840152600581015460c08401526006015460e0830152839190610ff757604051636cf011bd60e11b815260040160405180910390fd5b60a081015161101957604051638041ccb360e01b815260040160405180910390fd5b80516001600160a01b0316331480159061103f575080606001516001600160601b031642105b1561105d576040516310b13ed760e11b815260040160405180910390fd5b6001600160a01b0382166000908152609d602090815260408083208684528252822080546001600160a01b0319908116825560018201805490911690556002810183905560038101839055600481018390556005810183905560060191909155810151815160a083015160e08401516110de938693889391923092906129a6565b6040808201519051632142170760e11b81526001600160a01b038616916342842e0e9161111191309188906004016135eb565b600060405180830381600087803b15801561112b57600080fd5b505af115801561113f573d6000803e3d6000fd5b5050505082826001600160a01b031682600001516001600160a01b03167f5a1800c8b3fb615959d2545c3516c92c95a323c12a305acfe2bd3e88ef8b7d1c8460400151856020015186608001518760a00151604051610a6b94939291906001600160a01b0394851681529290931660208301526040820152606081019190915260800190565b6033546001600160a01b031633146111ef5760405162461bcd60e51b81526004016108059061357f565b6111f96000612b6a565b565b6097546040516343b938c560e01b81526001600160a01b038089166004830152889216906343b938c590602401602060405180830381865afa158015611245573d6000803e3d6000fd5b505050506040513d601f19601f82011682018060405250810190611269919061360f565b61128557604051625bbd3f60e51b815260040160405180910390fd5b81801580611294575061271081115b156112b25760405163d317635f60e01b815260040160405180910390fd5b600260655414156112d55760405162461bcd60e51b8152600401610805906135b4565b60026065556001600160601b03871615806112f8575085876001600160601b0316105b1561131657604051634981972160e01b815260040160405180910390fd5b6001600160a01b03808b166000908152609c602090815260408083208d84529091529020548b91161561135c5760405163eee0b01b60e01b815260040160405180910390fd5b8486111580611369575084155b156113875760405163ef57fc2960e01b815260040160405180910390fd5b600061139242612bbc565b90506000604051806101200160405280336001600160a01b03168152602001836001600160601b031681526020018c6001600160a01b031681526020018b846113db9190613647565b6001600160601b03168152602001609b6000336001600160a01b03166001600160a01b031681526020019081526020016000205481526020018981526020018881526020018a815260200187815250905080609c6000856001600160a01b03166001600160a01b0316815260200190815260200160002060008e815260200190815260200160002060008201518160000160006101000a8154816001600160a01b0302191690836001600160a01b0316021790555060208201518160000160146101000a8154816001600160601b0302191690836001600160601b0316021790555060408201518160010160006101000a8154816001600160a01b0302191690836001600160a01b0316021790555060608201518160010160146101000a8154816001600160601b0302191690836001600160601b031602179055506080820151816002015560a0820151816003015560c0820151816004015560e0820151816005015561010082015181600601559050506001609b6000336001600160a01b03166001600160a01b0316815260200190815260200160002060008282546115839190613672565b925050819055508c6001600160a01b03166342842e0e33308f6040518463ffffffff1660e01b81526004016115ba939291906135eb565b600060405180830381600087803b1580156115d457600080fd5b505af11580156115e8573d6000803e3d6000fd5b505050508b836001600160a01b031682600001516001600160a01b03167f809f5467134c450196fed70af0db862a1c49d62a7cedd561d76c48a03e5ebc0a846040015185608001518660a001518760c00151886020015189606001518a60e001518b61010001516040516116ab9897969594939291906001600160a01b039890981688526020880196909652604087019490945260608601929092526001600160601b0390811660808601521660a084015260c083015260e08201526101000190565b60405180910390a4505060016065555050505050505050505050565b6033546001600160a01b031633146116f15760405162461bcd60e51b81526004016108059061357f565b6108178161284a565b6002606554141561171d5760405162461bcd60e51b8152600401610805906135b4565b600260658190556001600160a01b038481166000908152609d60209081526040808320878452825291829020825161010081018452815485168152600182015485169281018390529481015493841692850192909252600160a01b9092046001600160601b0316606084015260038101546080840152600481015460a0840152600581015460c08401526006015460e0830152806117ce57604051636cf011bd60e11b815260040160405180910390fd5b6117e36001600160a01b038216333086612c28565b6117ef85858585612c4f565b50506001606555505050565b6001600160a01b038083166000908152609c602090815260408083208584528252808320815161012081018352815480871682526001600160601b03600160a01b91829004811695830195909552600183015496871693820193909352919094049091166060820181905260028401546080830152600384015460a0830152600484015460c0830152600584015460e0830152600690930154610100820152909142106118ad5760c001519050611952565b600081602001516001600160601b0316426118c8919061368a565b905060008260e00151826118dc91906136a1565b905060008360e00151846020015185606001516118f991906136c3565b6001600160601b031661190c91906136a1565b905060008460c001518560a00151611924919061368a565b90508161193182856136eb565b61193b91906136a1565b8560a0015161194a919061368a565b955050505050505b92915050565b6002606554141561197b5760405162461bcd60e51b8152600401610805906135b4565b600260658190556001600160a01b038084166000908152609c60209081526040808320868452825291829020825161012081018452815480861682526001600160601b03600160a01b9182900481169483019490945260018301549586169482019490945292909304166060820152918101546080830152600381015460a0830152600481015460c0830152600581015460e083015260060154610100820152611a268383836124d9565b5050600160655550565b6097546040516343b938c560e01b81526001600160a01b038087166004830152869216906343b938c590602401602060405180830381865afa158015611a7a573d6000803e3d6000fd5b505050506040513d601f19601f82011682018060405250810190611a9e919061360f565b611aba57604051625bbd3f60e51b815260040160405180910390fd5b81801580611ac9575061271081115b15611ae75760405163d317635f60e01b815260040160405180910390fd5b60026065541415611b0a5760405162461bcd60e51b8152600401610805906135b4565b60026065556001600160601b038516611b3657604051634981972160e01b815260040160405180910390fd5b6001600160a01b038089166000908152609d602090815260408083208b845290915290205489911615611b7c5760405163eee0b01b60e01b815260040160405180910390fd5b336000908152609b602052604081205490611b9642612bbc565b60408051610100810182523381526001600160a01b038c16602082015260009181018290529192509060608101611bcd8b85613647565b6001600160601b031681526020018481526020016000815260200189815260200188815250905080609d6000866001600160a01b03166001600160a01b0316815260200190815260200160002060008d815260200190815260200160002060008201518160000160006101000a8154816001600160a01b0302191690836001600160a01b0316021790555060208201518160010160006101000a8154816001600160a01b0302191690836001600160a01b0316021790555060408201518160020160006101000a8154816001600160a01b0302191690836001600160a01b0316021790555060608201518160020160146101000a8154816001600160601b0302191690836001600160601b031602179055506080820151816003015560a0820151816004015560c0820151816005015560e08201518160060155905050826001611d179190613672565b609b6000336001600160a01b03166001600160a01b03168152602001908152602001600020819055508b6001600160a01b03166342842e0e33308e6040518463ffffffff1660e01b8152600401611d70939291906135eb565b600060405180830381600087803b158015611d8a57600080fd5b505af1158015611d9e573d6000803e3d6000fd5b505050508a846001600160a01b031682600001516001600160a01b03167f547a357be03f8b8c991541b3cc2d0e1647a44b7f10e8cb85c576366a00f51181846020015185608001518660c001518888606001518960e00151604051611e42969594939291906001600160a01b03969096168652602086019490945260408501929092526001600160601b03908116606085015216608083015260a082015260c00190565b60405180910390a45050600160655550505b5050505050505050565b6033546001600160a01b03163314611e885760405162461bcd60e51b81526004016108059061357f565b6108178161292d565b60026065541415611eb45760405162461bcd60e51b8152600401610805906135b4565b600260658190556001600160a01b038481166000908152609d60209081526040808320878452825291829020825161010081018452815485168152600182015485169281018390529481015480851693860193909352600160a01b9092046001600160601b0316606085015260038201546080850152600482015460a0850152600582015460c085015260069091015460e0840152907f0000000000000000000000000000000000000000000000000000000000000000168114611f8b5760405163026bd50160e51b815260040160405180910390fd5b3415612006577f00000000000000000000000000000000000000000000000000000000000000006001600160a01b031663d0e30db0346040518263ffffffff1660e01b81526004016000604051808303818588803b158015611fec57600080fd5b505af1158015612000573d6000803e3d6000fd5b50505050505b8215612041576120416001600160a01b037f000000000000000000000000000000000000000000000000000000000000000016333086612c28565b6117ef85856120508634613672565b85612c4f565b6033546001600160a01b031633146120805760405162461bcd60e51b81526004016108059061357f565b610817816128af565b600260655414156120ac5760405162461bcd60e51b8152600401610805906135b4565b600260658190556001600160a01b038084166000908152609c6020908152604080832086845282529182902082516101208101845281548086168083526001600160601b03600160a01b928390048116958401959095526001840154968716958301959095529094049091166060840152928301546080830152600383015460a0830152600483015460c0830152600583015460e0830152600690920154610100820152839133146121715760405163642a6a5360e01b815260040160405180910390fd5b6001600160a01b038083166000908152609c6020908152604080832087845290915280822082815560018101839055600281018390556003810183905560048082018490556005820184905560069091019290925583519051632142170760e11b8152928716926342842e0e926121ee92309290918991016135eb565b600060405180830381600087803b15801561220857600080fd5b505af115801561221c573d6000803e3d6000fd5b5050505082826001600160a01b031682600001516001600160a01b03167f5c4395a733513750e7187767f88fb6293ab2936b28f028003a0080e1f75e033d8460800151604051610a6b91815260200190565b6033546001600160a01b031633146122985760405162461bcd60e51b81526004016108059061357f565b6001600160a01b0381166122fd5760405162461bcd60e51b815260206004820152602660248201527f4f776e61626c653a206e6577206f776e657220697320746865207a65726f206160448201526564647265737360d01b6064820152608401610805565b61081781612b6a565b6001600160a01b03811661232d57604051632bf5c20360e11b815260040160405180910390fd5b609880546001600160a01b038381166001600160a01b0319831681179093556040519116919082907f7d4ddfec890ae302bc76c6c540dbeea692c14045ecfebcc29a666bf9dc279c8f90600090a35050565b6001600160a01b0381166123a657604051632bf5c20360e11b815260040160405180910390fd5b609a80546001600160a01b038381166001600160a01b0319831681179093556040519116919082907f77fe0152e8e354becca126c2d9ddc9e3372c8aa414ef8185aceb7934d6a716cc90600090a35050565b6040516001600160a01b03831660248201526044810182905261245b90849063a9059cbb60e01b906064015b60408051601f198184030181529190526020810180516001600160e01b03166001600160e01b031990931692909217909152612f69565b505050565b6001600160a01b03811661248757604051632bf5c20360e11b815260040160405180910390fd5b609780546001600160a01b038381166001600160a01b0319831681179093556040519116919082907f41e87b8a10446f910ac9ba7a85dd3c9ad02a2705e02ebee6237611a62cde306e90600090a35050565b80516001600160a01b031661250157604051636cf011bd60e11b815260040160405180910390fd5b80516001600160a01b031633141561252c57604051631709f0f960e31b815260040160405180910390fd5b82600061253982856117fb565b6001600160a01b038381166000908152609c602090815260408083208984529091528082208281556001810183905560028101839055600381018390556004810183905560058101839055600601919091558501519192507f000000000000000000000000000000000000000000000000000000000000000081169116141561270457348111156126055761260533306125d3348561368a565b6001600160a01b037f000000000000000000000000000000000000000000000000000000000000000016929190612c28565b3415612680577f00000000000000000000000000000000000000000000000000000000000000006001600160a01b031663d0e30db0346040518263ffffffff1660e01b81526004016000604051808303818588803b15801561266657600080fd5b505af115801561267a573d6000803e3d6000fd5b50505050505b348110156126c7576126c733612696833461368a565b6001600160a01b037f00000000000000000000000000000000000000000000000000000000000000001691906123f8565b6126ff82857f0000000000000000000000000000000000000000000000000000000000000000308760000151868961010001516129a6565b612720565b61272082858560400151338760000151868961010001516129a6565b604051632142170760e11b81526001600160a01b038616906342842e0e90612750903090339089906004016135eb565b600060405180830381600087803b15801561276a57600080fd5b505af115801561277e573d6000803e3d6000fd5b5050845160408087015160808089015183513381526001600160a01b039384166020820152938401526060830187905289955081881694509216917fcc3d803077d108e00cb796b4d6569ca5f5cb0bfc25cb5fb755efd1ffc80d9eff91015b60405180910390a45050505050565b600054610100900460ff166128135760405162461bcd60e51b81526004016108059061370a565b6111f961303b565b600054610100900460ff166128425760405162461bcd60e51b81526004016108059061370a565b6111f961306b565b801580612858575061271081115b156128765760405163983613f960e01b815260040160405180910390fd5b609e805490829055604051829082907fa3f285ff50dde91866d9d4e5d73ebdf424ebb3a7fcedc49b4c5fc0b66e15642c90600090a35050565b6001600160601b0381166128d657604051630b68507960e31b815260040160405180910390fd5b609f80546001600160601b038381166bffffffffffffffffffffffff19831681179093556040519116919082907fc0da53cc906ae35e2c2afe765eb38598227dda23551dfa44bf89e14592ecd95490600090a35050565b6001600160a01b03811661295457604051632bf5c20360e11b815260040160405180910390fd5b609980546001600160a01b038381166001600160a01b0319831681179093556040519116919082907f3572f53d6b1fa254aff5642a655e44ac0e39825c4cedc188cacdb3330857acda90600090a35050565b8160006129b38983613099565b609a549091506001600160a01b031680158015906129d057508115155b156129f7576129ea6001600160a01b038916888385612c28565b6129f4828461368a565b92505b5050609954604051637a7b1afd60e11b81526001600160a01b038a81166004830152602482018a905260448201869052600092839291169063f4f635fa906064016040805180830381865afa158015612a54573d6000803e3d6000fd5b505050506040513d601f19601f82011682018060405250810190612a789190613755565b90925090506001600160a01b03821615801590612a9457508015155b15612b1d57612aae6001600160a01b038916888484612c28565b612ab8818461368a565b9250816001600160a01b0316898b6001600160a01b03167f27c4f0403323142b599832f26acd21c74a9e5b809f2215726e244a4ac588cd7d8b85604051612b149291906001600160a01b03929092168252602082015260400190565b60405180910390a45b50612b2a905083836136eb565b612b36612710836136eb565b1015612b55576040516321f5097160e11b815260040160405180910390fd5b611e546001600160a01b038716868684612c28565b603380546001600160a01b038381166001600160a01b0319831681179093556040519116919082907f8be0079c531659141344cd1fd0a4f28419497f9722a3daafe3b4186f6b6457e090600090a35050565b60006001600160601b03821115612c245760405162461bcd60e51b815260206004820152602660248201527f53616665436173743a2076616c756520646f65736e27742066697420696e203960448201526536206269747360d01b6064820152608401610805565b5090565b612c49846323b872dd60e01b858585604051602401612424939291906135eb565b50505050565b80516001600160a01b0316612c7757604051636cf011bd60e11b815260040160405180910390fd5b81612c9557604051638409122f60e01b815260040160405180910390fd5b80516001600160a01b0316331415612cc057604051636db0fafd60e11b815260040160405180910390fd5b80606001516001600160601b03164210612ced57604051637d9c9b7b60e11b815260040160405180910390fd5b609f5460608201516001600160601b0391821691612d0d9142911661368a565b11612d3f57609f546060820180516001600160601b0390921691612d32908390613647565b6001600160601b03169052505b60a0810151612d7f578060c00151821015612d6d57604051638409122f60e01b815260040160405180910390fd5b33604082015260a08101829052612e6f565b80604001516001600160a01b0316336001600160a01b03161415612df457609e548160a00151612daf91906136eb565b612dbb612710846136eb565b1015612dda57604051638409122f60e01b815260040160405180910390fd5b818160a001818151612dec9190613672565b905250612e6f565b609e54612e0390612710613672565b8160a00151612e1291906136eb565b612e1e612710846136eb565b1015612e3d57604051638409122f60e01b815260040160405180910390fd5b60408101805160a083018051339093528490526020830151909190612e6c906001600160a01b031683836123f8565b50505b6001600160a01b038481166000818152609d60209081526040808320888452825291829020855181549086166001600160a01b03199182168117835587840151600184018054918916919093168117909255878501516060808a01516001600160601b0316600160a01b81029290991691821760028601556080808b01516003870181905560a0808d01516004890181905560c08e015160058a015560e08e0151600690990198909855895194855297840195909552968201939093529182019290925292830194909452879387939290917f84ec3a468ca2097ed308ae9b8a51622f04c0f01ed00388da9167849bd918c20191016127dd565b6000612fbe826040518060400160405280602081526020017f5361666545524332303a206c6f772d6c6576656c2063616c6c206661696c6564815250856001600160a01b031661312b9092919063ffffffff16565b80519091501561245b5780806020019051810190612fdc919061360f565b61245b5760405162461bcd60e51b815260206004820152602a60248201527f5361666545524332303a204552433230206f7065726174696f6e20646964206e6044820152691bdd081cdd58d8d9595960b21b6064820152608401610805565b600054610100900460ff166130625760405162461bcd60e51b81526004016108059061370a565b6111f933612b6a565b600054610100900460ff166130925760405162461bcd60e51b81526004016108059061370a565b6001606555565b6098546040516238062960e91b81526001600160a01b038481166004830152600092839291169063700c520090602401602060405180830381865afa1580156130e6573d6000803e3d6000fd5b505050506040513d601f19601f8201168201806040525081019061310a9190613783565b905061271061311984836136eb565b61312391906136a1565b949350505050565b606061313a8484600085613144565b90505b9392505050565b6060824710156131a55760405162461bcd60e51b815260206004820152602660248201527f416464726573733a20696e73756666696369656e742062616c616e636520666f6044820152651c8818d85b1b60d21b6064820152608401610805565b6001600160a01b0385163b6131fc5760405162461bcd60e51b815260206004820152601d60248201527f416464726573733a2063616c6c20746f206e6f6e2d636f6e74726163740000006044820152606401610805565b600080866001600160a01b0316858760405161321891906137c8565b60006040518083038185875af1925050503d8060008114613255576040519150601f19603f3d011682016040523d82523d6000602084013e61325a565b606091505b509150915061326a828286613275565b979650505050505050565b6060831561328457508161313d565b8251156132945782518084602001fd5b8160405162461bcd60e51b815260040161080591906137e4565b6001600160a01b038116811461081757600080fd5b600080604083850312156132d657600080fd5b82356132e1816132ae565b946020939093013593505050565b60006020828403121561330157600080fd5b813561313d816132ae565b60008060008060006080868803121561332457600080fd5b853561332f816132ae565b9450602086013561333f816132ae565b935060408601359250606086013567ffffffffffffffff8082111561336357600080fd5b818801915088601f83011261337757600080fd5b81358181111561338657600080fd5b89602082850101111561339857600080fd5b9699959850939650602001949392505050565b80356001600160601b03811681146133c257600080fd5b919050565b60008060008060008060c087890312156133e057600080fd5b863595506133f0602088016133ab565b94506040870135613400816132ae565b93506060870135613410816132ae565b92506080870135613420816132ae565b915060a0870135613430816132ae565b809150509295509295509295565b600080600080600080600080610100898b03121561345b57600080fd5b8835613466816132ae565b975060208901359650604089013561347d816132ae565b955061348b60608a016133ab565b979a969950949760808101359660a0820135965060c0820135955060e0909101359350915050565b6000602082840312156134c557600080fd5b5035919050565b6000806000606084860312156134e157600080fd5b83356134ec816132ae565b95602085013595506040909401359392505050565b60008060008060008060c0878903121561351a57600080fd5b8635613525816132ae565b955060208701359450604087013561353c816132ae565b935061354a606088016133ab565b92506080870135915060a087013590509295509295509295565b60006020828403121561357657600080fd5b61313d826133ab565b6020808252818101527f4f776e61626c653a2063616c6c6572206973206e6f7420746865206f776e6572604082015260600190565b6020808252601f908201527f5265656e7472616e637947756172643a207265656e7472616e742063616c6c00604082015260600190565b6001600160a01b039384168152919092166020820152604081019190915260600190565b60006020828403121561362157600080fd5b8151801515811461313d57600080fd5b634e487b7160e01b600052601160045260246000fd5b60006001600160601b0380831681851680830382111561366957613669613631565b01949350505050565b6000821982111561368557613685613631565b500190565b60008282101561369c5761369c613631565b500390565b6000826136be57634e487b7160e01b600052601260045260246000fd5b500490565b60006001600160601b03838116908316818110156136e3576136e3613631565b039392505050565b600081600019048311821515161561370557613705613631565b500290565b6020808252602b908201527f496e697469616c697a61626c653a20636f6e7472616374206973206e6f74206960408201526a6e697469616c697a696e6760a81b606082015260800190565b6000806040838503121561376857600080fd5b8251613773816132ae565b6020939093015192949293505050565b60006020828403121561379557600080fd5b5051919050565b60005b838110156137b757818101518382015260200161379f565b83811115612c495750506000910152565b600082516137da81846020870161379c565b9190910192915050565b602081526000825180602084015261380381604085016020870161379c565b601f01601f1916919091016040019291505056fea26469706673582212202bf45ef05588a3cc91ac7c22f8a34414d8ccda9b34f154666e1d50d6be8ce10f64736f6c634300080a0033",
  "devdoc": {
    "kind": "dev",
    "methods": {
      "cancelDutchAuction(address,uint256)": {
        "params": {
          "_collection": "address of ERC721 token",
          "_tokenId": "token id of ERC721 token"
        }
      },
      "cancelEnglishAuction(address,uint256)": {
        "details": "Note: - Can only be called by auction creator - Can only be cancelled if no bids have been placed",
        "params": {
          "_collection": "address of ERC721 token",
          "_tokenId": "token id of ERC721 token"
        }
      },
      "constructor": {
        "params": {
          "_wavax": "address of WAVAX"
        }
      },
      "emergencyCancelEnglishAuction(address,uint256)": {
        "params": {
          "_collection": "address of ERC721 token",
          "_tokenId": "token id of ERC721 token"
        }
      },
      "getDutchAuctionSalePrice(address,uint256)": {
        "params": {
          "_collection": "address of ERC721 token",
          "_tokenId": "token id of ERC721 token"
        },
        "returns": {
          "_0": "current Dutch Auction sale price for specified ERC721 token"
        }
      },
      "initialize(uint256,uint96,address,address,address,address)": {
        "params": {
          "_currencyManager": "currency manager address",
          "_englishAuctionMinBidIncrementPct": "minimum bid increment percentage for English Auctions",
          "_englishAuctionRefreshTime": "refresh time for English auctions",
          "_protocolFeeManager": "protocol fee manager address",
          "_protocolFeeRecipient": "protocol fee recipient",
          "_royaltyFeeManager": "royalty fee manager address"
        }
      },
      "owner()": {
        "details": "Returns the address of the current owner."
      },
      "placeEnglishAuctionBid(address,uint256,uint256)": {
        "params": {
          "_amount": "amount of currency to bid",
          "_collection": "address of ERC721 token",
          "_tokenId": "token id of ERC721 token"
        }
      },
      "placeEnglishAuctionBidWithAVAXAndWAVAX(address,uint256,uint256)": {
        "params": {
          "_collection": "address of ERC721 token",
          "_tokenId": "token id of ERC721 token",
          "_wavaxAmount": "amount of WAVAX to bid"
        }
      },
      "renounceOwnership()": {
        "details": "Leaves the contract without owner. It will not be possible to call `onlyOwner` functions anymore. Can only be called by the current owner. NOTE: Renouncing ownership will leave the contract without an owner, thereby removing any functionality that is only available to the owner."
      },
      "settleDutchAuction(address,uint256)": {
        "params": {
          "_collection": "address of ERC721 token",
          "_tokenId": "token id of ERC721 token"
        }
      },
      "settleDutchAuctionWithAVAXAndWAVAX(address,uint256)": {
        "params": {
          "_collection": "address of ERC721 token",
          "_tokenId": "token id of ERC721 token"
        }
      },
      "settleEnglishAuction(address,uint256)": {
        "details": "Note: - Can be called by creator at any time (including before the auction's end time to accept the   current latest bid) - Can be called by anyone after the auction ends - Transfers funds and fees appropriately to seller, royalty receiver, and protocol fee recipient - Transfers ERC721 token to last highest bidder",
        "params": {
          "_collection": "address of ERC721 token",
          "_tokenId": "token id of ERC721 token"
        }
      },
      "startDutchAuction(address,uint256,address,uint96,uint256,uint256,uint256,uint256)": {
        "details": "Note: - Requires the auction house to hold the ERC721 token in escrow - Drops in price every `dutchAuctionDropInterval` seconds in equal   amounts",
        "params": {
          "_collection": "address of ERC721 token",
          "_currency": "address of currency to sell ERC721 token for",
          "_dropInterval": "number of seconds between each drop in price",
          "_duration": "number of seconds for Dutch Auction to run",
          "_endPrice": "ending sell price",
          "_minPercentageToAsk": "minimum percentage of the gross amount that goes to ask",
          "_startPrice": "starting sell price",
          "_tokenId": "token id of ERC721 token"
        }
      },
      "startEnglishAuction(address,uint256,address,uint96,uint256,uint256)": {
        "details": "Note this requires the auction house to hold the ERC721 token in escrow",
        "params": {
          "_collection": "address of ERC721 token",
          "_currency": "address of currency to sell ERC721 token for",
          "_duration": "number of seconds for English Auction to run",
          "_minPercentageToAsk": "minimum percentage of the gross amount that goes to ask",
          "_startPrice": "minimum starting bid price",
          "_tokenId": "token id of ERC721 token"
        }
      },
      "transferOwnership(address)": {
        "details": "Transfers ownership of the contract to a new account (`newOwner`). Can only be called by the current owner."
      },
      "updateCurrencyManager(address)": {
        "params": {
          "_currencyManager": "new currency manager address"
        }
      },
      "updateEnglishAuctionMinBidIncrementPct(uint256)": {
        "params": {
          "_englishAuctionMinBidIncrementPct": "new minimum bid increment percetange for English auctions"
        }
      },
      "updateEnglishAuctionRefreshTime(uint96)": {
        "params": {
          "_englishAuctionRefreshTime": "new refresh time for English auctions"
        }
      },
      "updateProtocolFeeManager(address)": {
        "params": {
          "_protocolFeeManager": "new protocol fee manager address"
        }
      },
      "updateProtocolFeeRecipient(address)": {
        "params": {
          "_protocolFeeRecipient": "new recipient for protocol fees"
        }
      },
      "updateRoyaltyFeeManager(address)": {
        "params": {
          "_royaltyFeeManager": "new fee manager address"
        }
      }
    },
    "stateVariables": {
      "dutchAuctions": {
        "details": "(collection address => token id => dutch auction)"
      },
      "englishAuctions": {
        "details": "(collection address => token id => english auction)"
      },
      "userLatestAuctionNonce": {
        "details": "(user address => latest nonce)"
      }
    },
    "title": "JoepegAuctionHouse",
    "version": 1
  },
  "userdoc": {
    "kind": "user",
    "methods": {
      "cancelDutchAuction(address,uint256)": {
        "notice": "Cancels a running Dutch Auction"
      },
      "cancelEnglishAuction(address,uint256)": {
        "notice": "Cancels an English Auction"
      },
      "constructor": {
        "notice": "Constructor"
      },
      "dutchAuctions(address,uint256)": {
        "notice": "Stores Dutch Auction data for NFTs"
      },
      "emergencyCancelEnglishAuction(address,uint256)": {
        "notice": "Only owner function to cancel an English Auction in case of emergencies"
      },
      "englishAuctionMinBidIncrementPct()": {
        "notice": "Required minimum percent increase from last bid in order to place a new bid on an English Auction"
      },
      "englishAuctionRefreshTime()": {
        "notice": "Represents both: - Number of seconds before an English Auction ends where any new   bid will extend the auction's end time - Number of seconds to extend an English Auction's end time by"
      },
      "englishAuctions(address,uint256)": {
        "notice": "Stores English Auction data for NFTs"
      },
      "getDutchAuctionSalePrice(address,uint256)": {
        "notice": "Calculates current Dutch Auction sale price for an ERC721 token"
      },
      "initialize(uint256,uint96,address,address,address,address)": {
        "notice": "Initializer"
      },
      "onERC721Received(address,address,uint256,bytes)": {
        "notice": "Required implementation for IERC721Receiver"
      },
      "placeEnglishAuctionBid(address,uint256,uint256)": {
        "notice": "Place bid on a running English Auction"
      },
      "placeEnglishAuctionBidWithAVAXAndWAVAX(address,uint256,uint256)": {
        "notice": "Place bid on a running English Auction using AVAX and/or WAVAX"
      },
      "settleDutchAuction(address,uint256)": {
        "notice": "Settles a Dutch Auction"
      },
      "settleDutchAuctionWithAVAXAndWAVAX(address,uint256)": {
        "notice": "Settles a Dutch Auction with AVAX and/or WAVAX"
      },
      "settleEnglishAuction(address,uint256)": {
        "notice": "Settles an English Auction"
      },
      "startDutchAuction(address,uint256,address,uint96,uint256,uint256,uint256,uint256)": {
        "notice": "Starts a Dutch Auction for an ERC721 token"
      },
      "startEnglishAuction(address,uint256,address,uint96,uint256,uint256)": {
        "notice": "Starts an English Auction for an ERC721 token"
      },
      "updateCurrencyManager(address)": {
        "notice": "Update currency manager"
      },
      "updateEnglishAuctionMinBidIncrementPct(uint256)": {
        "notice": "Update `englishAuctionMinBidIncrementPct`"
      },
      "updateEnglishAuctionRefreshTime(uint96)": {
        "notice": "Update `englishAuctionRefreshTime`"
      },
      "updateProtocolFeeManager(address)": {
        "notice": "Update protocol fee manager"
      },
      "updateProtocolFeeRecipient(address)": {
        "notice": "Update protocol fee recipient"
      },
      "updateRoyaltyFeeManager(address)": {
        "notice": "Update royalty fee manager"
      },
      "userLatestAuctionNonce(address)": {
        "notice": "Stores latest auction nonce per user"
      }
    },
    "notice": "An auction house that supports running English and Dutch auctions on ERC721 tokens",
    "version": 1
  },
  "storageLayout": {
    "storage": [
      {
        "astId": 130,
        "contract": "contracts/JoepegAuctionHouse.sol:JoepegAuctionHouse",
        "label": "_initialized",
        "offset": 0,
        "slot": "0",
        "type": "t_bool"
      },
      {
        "astId": 133,
        "contract": "contracts/JoepegAuctionHouse.sol:JoepegAuctionHouse",
        "label": "_initializing",
        "offset": 1,
        "slot": "0",
        "type": "t_bool"
      },
      {
        "astId": 540,
        "contract": "contracts/JoepegAuctionHouse.sol:JoepegAuctionHouse",
        "label": "__gap",
        "offset": 0,
        "slot": "1",
        "type": "t_array(t_uint256)50_storage"
      },
      {
        "astId": 10,
        "contract": "contracts/JoepegAuctionHouse.sol:JoepegAuctionHouse",
        "label": "_owner",
        "offset": 0,
        "slot": "51",
        "type": "t_address"
      },
      {
        "astId": 122,
        "contract": "contracts/JoepegAuctionHouse.sol:JoepegAuctionHouse",
        "label": "__gap",
        "offset": 0,
        "slot": "52",
        "type": "t_array(t_uint256)49_storage"
      },
      {
        "astId": 211,
        "contract": "contracts/JoepegAuctionHouse.sol:JoepegAuctionHouse",
        "label": "_status",
        "offset": 0,
        "slot": "101",
        "type": "t_uint256"
      },
      {
        "astId": 255,
        "contract": "contracts/JoepegAuctionHouse.sol:JoepegAuctionHouse",
        "label": "__gap",
        "offset": 0,
        "slot": "102",
        "type": "t_array(t_uint256)49_storage"
      },
      {
        "astId": 5442,
        "contract": "contracts/JoepegAuctionHouse.sol:JoepegAuctionHouse",
        "label": "currencyManager",
        "offset": 0,
        "slot": "151",
        "type": "t_contract(ICurrencyManager)10580"
      },
      {
        "astId": 5445,
        "contract": "contracts/JoepegAuctionHouse.sol:JoepegAuctionHouse",
        "label": "protocolFeeManager",
        "offset": 0,
        "slot": "152",
        "type": "t_contract(IProtocolFeeManager)10755"
      },
      {
        "astId": 5448,
        "contract": "contracts/JoepegAuctionHouse.sol:JoepegAuctionHouse",
        "label": "royaltyFeeManager",
        "offset": 0,
        "slot": "153",
        "type": "t_contract(IRoyaltyFeeManager)10771"
      },
      {
        "astId": 5450,
        "contract": "contracts/JoepegAuctionHouse.sol:JoepegAuctionHouse",
        "label": "protocolFeeRecipient",
        "offset": 0,
        "slot": "154",
        "type": "t_address"
      },
      {
        "astId": 5455,
        "contract": "contracts/JoepegAuctionHouse.sol:JoepegAuctionHouse",
        "label": "userLatestAuctionNonce",
        "offset": 0,
        "slot": "155",
        "type": "t_mapping(t_address,t_uint256)"
      },
      {
        "astId": 5463,
        "contract": "contracts/JoepegAuctionHouse.sol:JoepegAuctionHouse",
        "label": "dutchAuctions",
        "offset": 0,
        "slot": "156",
        "type": "t_mapping(t_address,t_mapping(t_uint256,t_struct(DutchAuction)5417_storage))"
      },
      {
        "astId": 5471,
        "contract": "contracts/JoepegAuctionHouse.sol:JoepegAuctionHouse",
        "label": "englishAuctions",
        "offset": 0,
        "slot": "157",
        "type": "t_mapping(t_address,t_mapping(t_uint256,t_struct(EnglishAuction)5434_storage))"
      },
      {
        "astId": 5474,
        "contract": "contracts/JoepegAuctionHouse.sol:JoepegAuctionHouse",
        "label": "englishAuctionMinBidIncrementPct",
        "offset": 0,
        "slot": "158",
        "type": "t_uint256"
      },
      {
        "astId": 5477,
        "contract": "contracts/JoepegAuctionHouse.sol:JoepegAuctionHouse",
        "label": "englishAuctionRefreshTime",
        "offset": 0,
        "slot": "159",
        "type": "t_uint96"
      }
    ],
    "types": {
      "t_address": {
        "encoding": "inplace",
        "label": "address",
        "numberOfBytes": "20"
      },
      "t_array(t_uint256)49_storage": {
        "base": "t_uint256",
        "encoding": "inplace",
        "label": "uint256[49]",
        "numberOfBytes": "1568"
      },
      "t_array(t_uint256)50_storage": {
        "base": "t_uint256",
        "encoding": "inplace",
        "label": "uint256[50]",
        "numberOfBytes": "1600"
      },
      "t_bool": {
        "encoding": "inplace",
        "label": "bool",
        "numberOfBytes": "1"
      },
      "t_contract(ICurrencyManager)10580": {
        "encoding": "inplace",
        "label": "contract ICurrencyManager",
        "numberOfBytes": "20"
      },
      "t_contract(IProtocolFeeManager)10755": {
        "encoding": "inplace",
        "label": "contract IProtocolFeeManager",
        "numberOfBytes": "20"
      },
      "t_contract(IRoyaltyFeeManager)10771": {
        "encoding": "inplace",
        "label": "contract IRoyaltyFeeManager",
        "numberOfBytes": "20"
      },
      "t_mapping(t_address,t_mapping(t_uint256,t_struct(DutchAuction)5417_storage))": {
        "encoding": "mapping",
        "key": "t_address",
        "label": "mapping(address => mapping(uint256 => struct JoepegAuctionHouse.DutchAuction))",
        "numberOfBytes": "32",
        "value": "t_mapping(t_uint256,t_struct(DutchAuction)5417_storage)"
      },
      "t_mapping(t_address,t_mapping(t_uint256,t_struct(EnglishAuction)5434_storage))": {
        "encoding": "mapping",
        "key": "t_address",
        "label": "mapping(address => mapping(uint256 => struct JoepegAuctionHouse.EnglishAuction))",
        "numberOfBytes": "32",
        "value": "t_mapping(t_uint256,t_struct(EnglishAuction)5434_storage)"
      },
      "t_mapping(t_address,t_uint256)": {
        "encoding": "mapping",
        "key": "t_address",
        "label": "mapping(address => uint256)",
        "numberOfBytes": "32",
        "value": "t_uint256"
      },
      "t_mapping(t_uint256,t_struct(DutchAuction)5417_storage)": {
        "encoding": "mapping",
        "key": "t_uint256",
        "label": "mapping(uint256 => struct JoepegAuctionHouse.DutchAuction)",
        "numberOfBytes": "32",
        "value": "t_struct(DutchAuction)5417_storage"
      },
      "t_mapping(t_uint256,t_struct(EnglishAuction)5434_storage)": {
        "encoding": "mapping",
        "key": "t_uint256",
        "label": "mapping(uint256 => struct JoepegAuctionHouse.EnglishAuction)",
        "numberOfBytes": "32",
        "value": "t_struct(EnglishAuction)5434_storage"
      },
      "t_struct(DutchAuction)5417_storage": {
        "encoding": "inplace",
        "label": "struct JoepegAuctionHouse.DutchAuction",
        "members": [
          {
            "astId": 5400,
            "contract": "contracts/JoepegAuctionHouse.sol:JoepegAuctionHouse",
            "label": "creator",
            "offset": 0,
            "slot": "0",
            "type": "t_address"
          },
          {
            "astId": 5402,
            "contract": "contracts/JoepegAuctionHouse.sol:JoepegAuctionHouse",
            "label": "startTime",
            "offset": 20,
            "slot": "0",
            "type": "t_uint96"
          },
          {
            "astId": 5404,
            "contract": "contracts/JoepegAuctionHouse.sol:JoepegAuctionHouse",
            "label": "currency",
            "offset": 0,
            "slot": "1",
            "type": "t_address"
          },
          {
            "astId": 5406,
            "contract": "contracts/JoepegAuctionHouse.sol:JoepegAuctionHouse",
            "label": "endTime",
            "offset": 20,
            "slot": "1",
            "type": "t_uint96"
          },
          {
            "astId": 5408,
            "contract": "contracts/JoepegAuctionHouse.sol:JoepegAuctionHouse",
            "label": "nonce",
            "offset": 0,
            "slot": "2",
            "type": "t_uint256"
          },
          {
            "astId": 5410,
            "contract": "contracts/JoepegAuctionHouse.sol:JoepegAuctionHouse",
            "label": "startPrice",
            "offset": 0,
            "slot": "3",
            "type": "t_uint256"
          },
          {
            "astId": 5412,
            "contract": "contracts/JoepegAuctionHouse.sol:JoepegAuctionHouse",
            "label": "endPrice",
            "offset": 0,
            "slot": "4",
            "type": "t_uint256"
          },
          {
            "astId": 5414,
            "contract": "contracts/JoepegAuctionHouse.sol:JoepegAuctionHouse",
            "label": "dropInterval",
            "offset": 0,
            "slot": "5",
            "type": "t_uint256"
          },
          {
            "astId": 5416,
            "contract": "contracts/JoepegAuctionHouse.sol:JoepegAuctionHouse",
            "label": "minPercentageToAsk",
            "offset": 0,
            "slot": "6",
            "type": "t_uint256"
          }
        ],
        "numberOfBytes": "224"
      },
      "t_struct(EnglishAuction)5434_storage": {
        "encoding": "inplace",
        "label": "struct JoepegAuctionHouse.EnglishAuction",
        "members": [
          {
            "astId": 5419,
            "contract": "contracts/JoepegAuctionHouse.sol:JoepegAuctionHouse",
            "label": "creator",
            "offset": 0,
            "slot": "0",
            "type": "t_address"
          },
          {
            "astId": 5421,
            "contract": "contracts/JoepegAuctionHouse.sol:JoepegAuctionHouse",
            "label": "currency",
            "offset": 0,
            "slot": "1",
            "type": "t_address"
          },
          {
            "astId": 5423,
            "contract": "contracts/JoepegAuctionHouse.sol:JoepegAuctionHouse",
            "label": "lastBidder",
            "offset": 0,
            "slot": "2",
            "type": "t_address"
          },
          {
            "astId": 5425,
            "contract": "contracts/JoepegAuctionHouse.sol:JoepegAuctionHouse",
            "label": "endTime",
            "offset": 20,
            "slot": "2",
            "type": "t_uint96"
          },
          {
            "astId": 5427,
            "contract": "contracts/JoepegAuctionHouse.sol:JoepegAuctionHouse",
            "label": "nonce",
            "offset": 0,
            "slot": "3",
            "type": "t_uint256"
          },
          {
            "astId": 5429,
            "contract": "contracts/JoepegAuctionHouse.sol:JoepegAuctionHouse",
            "label": "lastBidPrice",
            "offset": 0,
            "slot": "4",
            "type": "t_uint256"
          },
          {
            "astId": 5431,
            "contract": "contracts/JoepegAuctionHouse.sol:JoepegAuctionHouse",
            "label": "startPrice",
            "offset": 0,
            "slot": "5",
            "type": "t_uint256"
          },
          {
            "astId": 5433,
            "contract": "contracts/JoepegAuctionHouse.sol:JoepegAuctionHouse",
            "label": "minPercentageToAsk",
            "offset": 0,
            "slot": "6",
            "type": "t_uint256"
          }
        ],
        "numberOfBytes": "224"
      },
      "t_uint256": {
        "encoding": "inplace",
        "label": "uint256",
        "numberOfBytes": "32"
      },
      "t_uint96": {
        "encoding": "inplace",
        "label": "uint96",
        "numberOfBytes": "12"
      }
    }
  }
}