{
  "address": "0xcddA3Cc48C3A597bCf27fcBa236F4aCf467E29AC",
  "abi": [
    {
      "inputs": [
        {
          "internalType": "address",
          "name": "_wavax",
          "type": "address"
        }
      ],
      "stateMutability": "nonpayable",
      "type": "constructor"
    },
    {
      "inputs": [],
      "name": "JoepegAuctionHouse__AuctionAlreadyExists",
      "type": "error"
    },
    {
      "inputs": [],
      "name": "JoepegAuctionHouse__CurrencyMismatch",
      "type": "error"
    },
    {
      "inputs": [],
      "name": "JoepegAuctionHouse__DutchAuctionCreatorCannotSettle",
      "type": "error"
    },
    {
      "inputs": [],
      "name": "JoepegAuctionHouse__DutchAuctionInvalidStartEndPrice",
      "type": "error"
    },
    {
      "inputs": [],
      "name": "JoepegAuctionHouse__EnglishAuctionCannotBidOnEndedAuction",
      "type": "error"
    },
    {
      "inputs": [],
      "name": "JoepegAuctionHouse__EnglishAuctionCannotCancelWithExistingBid",
      "type": "error"
    },
    {
      "inputs": [],
      "name": "JoepegAuctionHouse__EnglishAuctionCannotSettleWithoutBid",
      "type": "error"
    },
    {
      "inputs": [],
      "name": "JoepegAuctionHouse__EnglishAuctionCreatorCannotPlaceBid",
      "type": "error"
    },
    {
      "inputs": [],
      "name": "JoepegAuctionHouse__EnglishAuctionInsufficientBidAmount",
      "type": "error"
    },
    {
      "inputs": [],
      "name": "JoepegAuctionHouse__EnglishAuctionInvalidMinBidIncrementPct",
      "type": "error"
    },
    {
      "inputs": [],
      "name": "JoepegAuctionHouse__EnglishAuctionInvalidRefreshTime",
      "type": "error"
    },
    {
      "inputs": [],
      "name": "JoepegAuctionHouse__EnglishAuctionOnlyCreatorCanSettleBeforeEndTime",
      "type": "error"
    },
    {
      "inputs": [],
      "name": "JoepegAuctionHouse__ExpectedNonNullAddress",
      "type": "error"
    },
    {
      "inputs": [],
      "name": "JoepegAuctionHouse__FeesHigherThanExpected",
      "type": "error"
    },
    {
      "inputs": [],
      "name": "JoepegAuctionHouse__InvalidDuration",
      "type": "error"
    },
    {
      "inputs": [],
      "name": "JoepegAuctionHouse__InvalidMinPercentageToAsk",
      "type": "error"
    },
    {
      "inputs": [],
      "name": "JoepegAuctionHouse__NoAuctionExists",
      "type": "error"
    },
    {
      "inputs": [],
      "name": "JoepegAuctionHouse__OnlyAuctionCreatorCanCancel",
      "type": "error"
    },
    {
      "inputs": [],
      "name": "JoepegAuctionHouse__UnsupportedCurrency",
      "type": "error"
    },
    {
      "anonymous": false,
      "inputs": [
        {
          "indexed": true,
          "internalType": "address",
          "name": "oldCurrencyManager",
          "type": "address"
        },
        {
          "indexed": true,
          "internalType": "address",
          "name": "newCurrencyManager",
          "type": "address"
        }
      ],
      "name": "CurrencyManagerSet",
      "type": "event"
    },
    {
      "anonymous": false,
      "inputs": [
        {
          "indexed": true,
          "internalType": "address",
          "name": "caller",
          "type": "address"
        },
        {
          "indexed": false,
          "internalType": "address",
          "name": "creator",
          "type": "address"
        },
        {
          "indexed": true,
          "internalType": "address",
          "name": "collection",
          "type": "address"
        },
        {
          "indexed": true,
          "internalType": "uint256",
          "name": "tokenId",
          "type": "uint256"
        },
        {
          "indexed": false,
          "internalType": "uint256",
          "name": "nonce",
          "type": "uint256"
        }
      ],
      "name": "DutchAuctionCancel",
      "type": "event"
    },
    {
      "anonymous": false,
      "inputs": [
        {
          "indexed": true,
          "internalType": "address",
          "name": "creator",
          "type": "address"
        },
        {
          "indexed": false,
          "internalType": "address",
          "name": "buyer",
          "type": "address"
        },
        {
          "indexed": false,
          "internalType": "address",
          "name": "currency",
          "type": "address"
        },
        {
          "indexed": true,
          "internalType": "address",
          "name": "collection",
          "type": "address"
        },
        {
          "indexed": true,
          "internalType": "uint256",
          "name": "tokenId",
          "type": "uint256"
        },
        {
          "indexed": false,
          "internalType": "uint256",
          "name": "nonce",
          "type": "uint256"
        },
        {
          "indexed": false,
          "internalType": "uint256",
          "name": "price",
          "type": "uint256"
        }
      ],
      "name": "DutchAuctionSettle",
      "type": "event"
    },
    {
      "anonymous": false,
      "inputs": [
        {
          "indexed": true,
          "internalType": "address",
          "name": "creator",
          "type": "address"
        },
        {
          "indexed": false,
          "internalType": "address",
          "name": "currency",
          "type": "address"
        },
        {
          "indexed": true,
          "internalType": "address",
          "name": "collection",
          "type": "address"
        },
        {
          "indexed": true,
          "internalType": "uint256",
          "name": "tokenId",
          "type": "uint256"
        },
        {
          "indexed": false,
          "internalType": "uint256",
          "name": "nonce",
          "type": "uint256"
        },
        {
          "indexed": false,
          "internalType": "uint256",
          "name": "startPrice",
          "type": "uint256"
        },
        {
          "indexed": false,
          "internalType": "uint256",
          "name": "endPrice",
          "type": "uint256"
        },
        {
          "indexed": false,
          "internalType": "uint96",
          "name": "startTime",
          "type": "uint96"
        },
        {
          "indexed": false,
          "internalType": "uint96",
          "name": "endTime",
          "type": "uint96"
        },
        {
          "indexed": false,
          "internalType": "uint256",
          "name": "dropInterval",
          "type": "uint256"
        },
        {
          "indexed": false,
          "internalType": "uint256",
          "name": "minPercentageToAsk",
          "type": "uint256"
        }
      ],
      "name": "DutchAuctionStart",
      "type": "event"
    },
    {
      "anonymous": false,
      "inputs": [
        {
          "indexed": true,
          "internalType": "address",
          "name": "caller",
          "type": "address"
        },
        {
          "indexed": false,
          "internalType": "address",
          "name": "creator",
          "type": "address"
        },
        {
          "indexed": true,
          "internalType": "address",
          "name": "collection",
          "type": "address"
        },
        {
          "indexed": true,
          "internalType": "uint256",
          "name": "tokenId",
          "type": "uint256"
        },
        {
          "indexed": false,
          "internalType": "uint256",
          "name": "nonce",
          "type": "uint256"
        }
      ],
      "name": "EnglishAuctionCancel",
      "type": "event"
    },
    {
      "anonymous": false,
      "inputs": [
        {
          "indexed": true,
          "internalType": "uint256",
          "name": "oldEnglishAuctionMinBidIncrementPct",
          "type": "uint256"
        },
        {
          "indexed": true,
          "internalType": "uint256",
          "name": "newEnglishAuctionMinBidIncrementPct",
          "type": "uint256"
        }
      ],
      "name": "EnglishAuctionMinBidIncrementPctSet",
      "type": "event"
    },
    {
      "anonymous": false,
      "inputs": [
        {
          "indexed": true,
          "internalType": "address",
          "name": "creator",
          "type": "address"
        },
        {
          "indexed": false,
          "internalType": "address",
          "name": "bidder",
          "type": "address"
        },
        {
          "indexed": false,
          "internalType": "address",
          "name": "currency",
          "type": "address"
        },
        {
          "indexed": true,
          "internalType": "address",
          "name": "collection",
          "type": "address"
        },
        {
          "indexed": true,
          "internalType": "uint256",
          "name": "tokenId",
          "type": "uint256"
        },
        {
          "indexed": false,
          "internalType": "uint256",
          "name": "nonce",
          "type": "uint256"
        },
        {
          "indexed": false,
          "internalType": "uint256",
          "name": "bidAmount",
          "type": "uint256"
        },
        {
          "indexed": false,
          "internalType": "uint96",
          "name": "endTimeExtension",
          "type": "uint96"
        }
      ],
      "name": "EnglishAuctionPlaceBid",
      "type": "event"
    },
    {
      "anonymous": false,
      "inputs": [
        {
          "indexed": true,
          "internalType": "uint96",
          "name": "oldEnglishAuctionRefreshTime",
          "type": "uint96"
        },
        {
          "indexed": true,
          "internalType": "uint96",
          "name": "newEnglishAuctionRefreshTime",
          "type": "uint96"
        }
      ],
      "name": "EnglishAuctionRefreshTimeSet",
      "type": "event"
    },
    {
      "anonymous": false,
      "inputs": [
        {
          "indexed": true,
          "internalType": "address",
          "name": "creator",
          "type": "address"
        },
        {
          "indexed": false,
          "internalType": "address",
          "name": "buyer",
          "type": "address"
        },
        {
          "indexed": false,
          "internalType": "address",
          "name": "currency",
          "type": "address"
        },
        {
          "indexed": true,
          "internalType": "address",
          "name": "collection",
          "type": "address"
        },
        {
          "indexed": true,
          "internalType": "uint256",
          "name": "tokenId",
          "type": "uint256"
        },
        {
          "indexed": false,
          "internalType": "uint256",
          "name": "nonce",
          "type": "uint256"
        },
        {
          "indexed": false,
          "internalType": "uint256",
          "name": "price",
          "type": "uint256"
        }
      ],
      "name": "EnglishAuctionSettle",
      "type": "event"
    },
    {
      "anonymous": false,
      "inputs": [
        {
          "indexed": true,
          "internalType": "address",
          "name": "creator",
          "type": "address"
        },
        {
          "indexed": false,
          "internalType": "address",
          "name": "currency",
          "type": "address"
        },
        {
          "indexed": true,
          "internalType": "address",
          "name": "collection",
          "type": "address"
        },
        {
          "indexed": true,
          "internalType": "uint256",
          "name": "tokenId",
          "type": "uint256"
        },
        {
          "indexed": false,
          "internalType": "uint256",
          "name": "nonce",
          "type": "uint256"
        },
        {
          "indexed": false,
          "internalType": "uint256",
          "name": "startPrice",
          "type": "uint256"
        },
        {
          "indexed": false,
          "internalType": "uint96",
          "name": "startTime",
          "type": "uint96"
        },
        {
          "indexed": false,
          "internalType": "uint96",
          "name": "endTime",
          "type": "uint96"
        },
        {
          "indexed": false,
          "internalType": "uint256",
          "name": "minPercentageToAsk",
          "type": "uint256"
        }
      ],
      "name": "EnglishAuctionStart",
      "type": "event"
    },
    {
      "anonymous": false,
      "inputs": [
        {
          "indexed": true,
          "internalType": "address",
          "name": "previousOwner",
          "type": "address"
        },
        {
          "indexed": true,
          "internalType": "address",
          "name": "newOwner",
          "type": "address"
        }
      ],
      "name": "OwnershipTransferred",
      "type": "event"
    },
    {
      "anonymous": false,
      "inputs": [
        {
          "indexed": false,
          "internalType": "address",
          "name": "account",
          "type": "address"
        }
      ],
      "name": "Paused",
      "type": "event"
    },
    {
      "anonymous": false,
      "inputs": [
        {
          "indexed": true,
          "internalType": "address",
          "name": "oldProtocolFeeManager",
          "type": "address"
        },
        {
          "indexed": true,
          "internalType": "address",
          "name": "newProtocolFeeManager",
          "type": "address"
        }
      ],
      "name": "ProtocolFeeManagerSet",
      "type": "event"
    },
    {
      "anonymous": false,
      "inputs": [
        {
          "indexed": true,
          "internalType": "address",
          "name": "oldProtocolFeeRecipient",
          "type": "address"
        },
        {
          "indexed": true,
          "internalType": "address",
          "name": "newProtocolFeeRecipient",
          "type": "address"
        }
      ],
      "name": "ProtocolFeeRecipientSet",
      "type": "event"
    },
    {
      "anonymous": false,
      "inputs": [
        {
          "indexed": true,
          "internalType": "address",
          "name": "oldRoyaltyFeeManager",
          "type": "address"
        },
        {
          "indexed": true,
          "internalType": "address",
          "name": "newRoyaltyFeeManager",
          "type": "address"
        }
      ],
      "name": "RoyaltyFeeManagerSet",
      "type": "event"
    },
    {
      "anonymous": false,
      "inputs": [
        {
          "indexed": true,
          "internalType": "address",
          "name": "collection",
          "type": "address"
        },
        {
          "indexed": true,
          "internalType": "uint256",
          "name": "tokenId",
          "type": "uint256"
        },
        {
          "indexed": true,
          "internalType": "address",
          "name": "royaltyRecipient",
          "type": "address"
        },
        {
          "indexed": false,
          "internalType": "address",
          "name": "currency",
          "type": "address"
        },
        {
          "indexed": false,
          "internalType": "uint256",
          "name": "amount",
          "type": "uint256"
        }
      ],
      "name": "RoyaltyPayment",
      "type": "event"
    },
    {
      "anonymous": false,
      "inputs": [
        {
          "indexed": false,
          "internalType": "address",
          "name": "account",
          "type": "address"
        }
      ],
      "name": "Unpaused",
      "type": "event"
    },
    {
      "inputs": [],
      "name": "PERCENTAGE_PRECISION",
      "outputs": [
        {
          "internalType": "uint256",
          "name": "",
          "type": "uint256"
        }
      ],
      "stateMutability": "view",
      "type": "function"
    },
    {
      "inputs": [],
      "name": "WAVAX",
      "outputs": [
        {
          "internalType": "address",
          "name": "",
          "type": "address"
        }
      ],
      "stateMutability": "view",
      "type": "function"
    },
    {
      "inputs": [
        {
          "internalType": "contract IERC721",
          "name": "_collection",
          "type": "address"
        },
        {
          "internalType": "uint256",
          "name": "_tokenId",
          "type": "uint256"
        }
      ],
      "name": "cancelDutchAuction",
      "outputs": [],
      "stateMutability": "nonpayable",
      "type": "function"
    },
    {
      "inputs": [
        {
          "internalType": "contract IERC721",
          "name": "_collection",
          "type": "address"
        },
        {
          "internalType": "uint256",
          "name": "_tokenId",
          "type": "uint256"
        }
      ],
      "name": "cancelEnglishAuction",
      "outputs": [],
      "stateMutability": "nonpayable",
      "type": "function"
    },
    {
      "inputs": [],
      "name": "currencyManager",
      "outputs": [
        {
          "internalType": "contract ICurrencyManager",
          "name": "",
          "type": "address"
        }
      ],
      "stateMutability": "view",
      "type": "function"
    },
    {
      "inputs": [
        {
          "internalType": "address",
          "name": "",
          "type": "address"
        },
        {
          "internalType": "uint256",
          "name": "",
          "type": "uint256"
        }
      ],
      "name": "dutchAuctions",
      "outputs": [
        {
          "internalType": "address",
          "name": "creator",
          "type": "address"
        },
        {
          "internalType": "uint96",
          "name": "startTime",
          "type": "uint96"
        },
        {
          "internalType": "address",
          "name": "currency",
          "type": "address"
        },
        {
          "internalType": "uint96",
          "name": "endTime",
          "type": "uint96"
        },
        {
          "internalType": "uint256",
          "name": "nonce",
          "type": "uint256"
        },
        {
          "internalType": "uint256",
          "name": "startPrice",
          "type": "uint256"
        },
        {
          "internalType": "uint256",
          "name": "endPrice",
          "type": "uint256"
        },
        {
          "internalType": "uint256",
          "name": "dropInterval",
          "type": "uint256"
        },
        {
          "internalType": "uint256",
          "name": "minPercentageToAsk",
          "type": "uint256"
        }
      ],
      "stateMutability": "view",
      "type": "function"
    },
    {
      "inputs": [
        {
          "internalType": "contract IERC721",
          "name": "_collection",
          "type": "address"
        },
        {
          "internalType": "uint256",
          "name": "_tokenId",
          "type": "uint256"
        }
      ],
      "name": "emergencyCancelDutchAuction",
      "outputs": [],
      "stateMutability": "nonpayable",
      "type": "function"
    },
    {
      "inputs": [
        {
          "internalType": "contract IERC721",
          "name": "_collection",
          "type": "address"
        },
        {
          "internalType": "uint256",
          "name": "_tokenId",
          "type": "uint256"
        }
      ],
      "name": "emergencyCancelEnglishAuction",
      "outputs": [],
      "stateMutability": "nonpayable",
      "type": "function"
    },
    {
      "inputs": [],
      "name": "englishAuctionMinBidIncrementPct",
      "outputs": [
        {
          "internalType": "uint256",
          "name": "",
          "type": "uint256"
        }
      ],
      "stateMutability": "view",
      "type": "function"
    },
    {
      "inputs": [],
      "name": "englishAuctionRefreshTime",
      "outputs": [
        {
          "internalType": "uint96",
          "name": "",
          "type": "uint96"
        }
      ],
      "stateMutability": "view",
      "type": "function"
    },
    {
      "inputs": [
        {
          "internalType": "address",
          "name": "",
          "type": "address"
        },
        {
          "internalType": "uint256",
          "name": "",
          "type": "uint256"
        }
      ],
      "name": "englishAuctions",
      "outputs": [
        {
          "internalType": "address",
          "name": "creator",
          "type": "address"
        },
        {
          "internalType": "address",
          "name": "currency",
          "type": "address"
        },
        {
          "internalType": "address",
          "name": "lastBidder",
          "type": "address"
        },
        {
          "internalType": "uint96",
          "name": "endTime",
          "type": "uint96"
        },
        {
          "internalType": "uint256",
          "name": "nonce",
          "type": "uint256"
        },
        {
          "internalType": "uint256",
          "name": "lastBidPrice",
          "type": "uint256"
        },
        {
          "internalType": "uint256",
          "name": "startPrice",
          "type": "uint256"
        },
        {
          "internalType": "uint256",
          "name": "minPercentageToAsk",
          "type": "uint256"
        }
      ],
      "stateMutability": "view",
      "type": "function"
    },
    {
      "inputs": [
        {
          "internalType": "address",
          "name": "_collection",
          "type": "address"
        },
        {
          "internalType": "uint256",
          "name": "_tokenId",
          "type": "uint256"
        }
      ],
      "name": "getDutchAuctionSalePrice",
      "outputs": [
        {
          "internalType": "uint256",
          "name": "",
          "type": "uint256"
        }
      ],
      "stateMutability": "view",
      "type": "function"
    },
    {
      "inputs": [
        {
          "internalType": "uint256",
          "name": "_englishAuctionMinBidIncrementPct",
          "type": "uint256"
        },
        {
          "internalType": "uint96",
          "name": "_englishAuctionRefreshTime",
          "type": "uint96"
        },
        {
          "internalType": "address",
          "name": "_currencyManager",
          "type": "address"
        },
        {
          "internalType": "address",
          "name": "_protocolFeeManager",
          "type": "address"
        },
        {
          "internalType": "address",
          "name": "_royaltyFeeManager",
          "type": "address"
        },
        {
          "internalType": "address",
          "name": "_protocolFeeRecipient",
          "type": "address"
        }
      ],
      "name": "initialize",
      "outputs": [],
      "stateMutability": "nonpayable",
      "type": "function"
    },
    {
      "inputs": [
        {
          "internalType": "address",
          "name": "",
          "type": "address"
        },
        {
          "internalType": "address",
          "name": "",
          "type": "address"
        },
        {
          "internalType": "uint256",
          "name": "",
          "type": "uint256"
        },
        {
          "internalType": "bytes",
          "name": "",
          "type": "bytes"
        }
      ],
      "name": "onERC721Received",
      "outputs": [
        {
          "internalType": "bytes4",
          "name": "",
          "type": "bytes4"
        }
      ],
      "stateMutability": "pure",
      "type": "function"
    },
    {
      "inputs": [],
      "name": "owner",
      "outputs": [
        {
          "internalType": "address",
          "name": "",
          "type": "address"
        }
      ],
      "stateMutability": "view",
      "type": "function"
    },
    {
      "inputs": [],
      "name": "pause",
      "outputs": [],
      "stateMutability": "nonpayable",
      "type": "function"
    },
    {
      "inputs": [],
      "name": "paused",
      "outputs": [
        {
          "internalType": "bool",
          "name": "",
          "type": "bool"
        }
      ],
      "stateMutability": "view",
      "type": "function"
    },
    {
      "inputs": [
        {
          "internalType": "contract IERC721",
          "name": "_collection",
          "type": "address"
        },
        {
          "internalType": "uint256",
          "name": "_tokenId",
          "type": "uint256"
        },
        {
          "internalType": "uint256",
          "name": "_amount",
          "type": "uint256"
        }
      ],
      "name": "placeEnglishAuctionBid",
      "outputs": [],
      "stateMutability": "nonpayable",
      "type": "function"
    },
    {
      "inputs": [
        {
          "internalType": "contract IERC721",
          "name": "_collection",
          "type": "address"
        },
        {
          "internalType": "uint256",
          "name": "_tokenId",
          "type": "uint256"
        },
        {
          "internalType": "uint256",
          "name": "_wavaxAmount",
          "type": "uint256"
        }
      ],
      "name": "placeEnglishAuctionBidWithAVAXAndWAVAX",
      "outputs": [],
      "stateMutability": "payable",
      "type": "function"
    },
    {
      "inputs": [],
      "name": "protocolFeeManager",
      "outputs": [
        {
          "internalType": "contract IProtocolFeeManager",
          "name": "",
          "type": "address"
        }
      ],
      "stateMutability": "view",
      "type": "function"
    },
    {
      "inputs": [],
      "name": "protocolFeeRecipient",
      "outputs": [
        {
          "internalType": "address",
          "name": "",
          "type": "address"
        }
      ],
      "stateMutability": "view",
      "type": "function"
    },
    {
      "inputs": [],
      "name": "renounceOwnership",
      "outputs": [],
      "stateMutability": "nonpayable",
      "type": "function"
    },
    {
      "inputs": [],
      "name": "royaltyFeeManager",
      "outputs": [
        {
          "internalType": "contract IRoyaltyFeeManager",
          "name": "",
          "type": "address"
        }
      ],
      "stateMutability": "view",
      "type": "function"
    },
    {
      "inputs": [
        {
          "internalType": "contract IERC721",
          "name": "_collection",
          "type": "address"
        },
        {
          "internalType": "uint256",
          "name": "_tokenId",
          "type": "uint256"
        }
      ],
      "name": "settleDutchAuction",
      "outputs": [],
      "stateMutability": "nonpayable",
      "type": "function"
    },
    {
      "inputs": [
        {
          "internalType": "contract IERC721",
          "name": "_collection",
          "type": "address"
        },
        {
          "internalType": "uint256",
          "name": "_tokenId",
          "type": "uint256"
        }
      ],
      "name": "settleDutchAuctionWithAVAXAndWAVAX",
      "outputs": [],
      "stateMutability": "payable",
      "type": "function"
    },
    {
      "inputs": [
        {
          "internalType": "contract IERC721",
          "name": "_collection",
          "type": "address"
        },
        {
          "internalType": "uint256",
          "name": "_tokenId",
          "type": "uint256"
        }
      ],
      "name": "settleEnglishAuction",
      "outputs": [],
      "stateMutability": "nonpayable",
      "type": "function"
    },
    {
      "inputs": [
        {
          "internalType": "contract IERC721",
          "name": "_collection",
          "type": "address"
        },
        {
          "internalType": "uint256",
          "name": "_tokenId",
          "type": "uint256"
        },
        {
          "internalType": "contract IERC20",
          "name": "_currency",
          "type": "address"
        },
        {
          "internalType": "uint96",
          "name": "_duration",
          "type": "uint96"
        },
        {
          "internalType": "uint256",
          "name": "_dropInterval",
          "type": "uint256"
        },
        {
          "internalType": "uint256",
          "name": "_startPrice",
          "type": "uint256"
        },
        {
          "internalType": "uint256",
          "name": "_endPrice",
          "type": "uint256"
        },
        {
          "internalType": "uint256",
          "name": "_minPercentageToAsk",
          "type": "uint256"
        }
      ],
      "name": "startDutchAuction",
      "outputs": [],
      "stateMutability": "nonpayable",
      "type": "function"
    },
    {
      "inputs": [
        {
          "internalType": "contract IERC721",
          "name": "_collection",
          "type": "address"
        },
        {
          "internalType": "uint256",
          "name": "_tokenId",
          "type": "uint256"
        },
        {
          "internalType": "contract IERC20",
          "name": "_currency",
          "type": "address"
        },
        {
          "internalType": "uint96",
          "name": "_duration",
          "type": "uint96"
        },
        {
          "internalType": "uint256",
          "name": "_startPrice",
          "type": "uint256"
        },
        {
          "internalType": "uint256",
          "name": "_minPercentageToAsk",
          "type": "uint256"
        }
      ],
      "name": "startEnglishAuction",
      "outputs": [],
      "stateMutability": "nonpayable",
      "type": "function"
    },
    {
      "inputs": [
        {
          "internalType": "address",
          "name": "newOwner",
          "type": "address"
        }
      ],
      "name": "transferOwnership",
      "outputs": [],
      "stateMutability": "nonpayable",
      "type": "function"
    },
    {
      "inputs": [],
      "name": "unpause",
      "outputs": [],
      "stateMutability": "nonpayable",
      "type": "function"
    },
    {
      "inputs": [
        {
          "internalType": "address",
          "name": "_currencyManager",
          "type": "address"
        }
      ],
      "name": "updateCurrencyManager",
      "outputs": [],
      "stateMutability": "nonpayable",
      "type": "function"
    },
    {
      "inputs": [
        {
          "internalType": "uint256",
          "name": "_englishAuctionMinBidIncrementPct",
          "type": "uint256"
        }
      ],
      "name": "updateEnglishAuctionMinBidIncrementPct",
      "outputs": [],
      "stateMutability": "nonpayable",
      "type": "function"
    },
    {
      "inputs": [
        {
          "internalType": "uint96",
          "name": "_englishAuctionRefreshTime",
          "type": "uint96"
        }
      ],
      "name": "updateEnglishAuctionRefreshTime",
      "outputs": [],
      "stateMutability": "nonpayable",
      "type": "function"
    },
    {
      "inputs": [
        {
          "internalType": "address",
          "name": "_protocolFeeManager",
          "type": "address"
        }
      ],
      "name": "updateProtocolFeeManager",
      "outputs": [],
      "stateMutability": "nonpayable",
      "type": "function"
    },
    {
      "inputs": [
        {
          "internalType": "address",
          "name": "_protocolFeeRecipient",
          "type": "address"
        }
      ],
      "name": "updateProtocolFeeRecipient",
      "outputs": [],
      "stateMutability": "nonpayable",
      "type": "function"
    },
    {
      "inputs": [
        {
          "internalType": "address",
          "name": "_royaltyFeeManager",
          "type": "address"
        }
      ],
      "name": "updateRoyaltyFeeManager",
      "outputs": [],
      "stateMutability": "nonpayable",
      "type": "function"
    },
    {
      "inputs": [
        {
          "internalType": "address",
          "name": "",
          "type": "address"
        }
      ],
      "name": "userLatestAuctionNonce",
      "outputs": [
        {
          "internalType": "uint256",
          "name": "",
          "type": "uint256"
        }
      ],
      "stateMutability": "view",
      "type": "function"
    }
  ],
  "transactionHash": "0x2d42cbd50aa9f9dd92e62f30f31220ba86b06cadaaef8dc4ce681a65efb00583",
  "args": [
    "0xd00ae08403B9bbb9124bB305C09058E32C39A48c"
  ],
  "numDeployments": 2,
  "solcInputHash": "4adf66b6c363258c2fc42bbb5bbf5422",
  "bytecode": "0x60a06040523480156200001157600080fd5b5060405162003e1c38038062003e1c833981016040819052620000349162000046565b6001600160a01b031660805262000078565b6000602082840312156200005957600080fd5b81516001600160a01b03811681146200007157600080fd5b9392505050565b608051613d49620000d36000396000818161062901528181610ed801528181612169015281816121b0015281816122360152818161297e015281816129c8015281816129f801528181612a8b0152612ab90152613d496000f3fe60806040526004361061021a5760003560e01c806373b295c211610123578063a70dbaeb116100ab578063d163a9061161006f578063d163a906146107de578063e256888f146107fe578063eeb360b714610814578063f080e0bf14610834578063f2fde38b1461085457600080fd5b8063a70dbaeb1461074b578063ad354df81461076b578063ba0385051461078b578063c5498769146107ab578063c70f852d146107cb57600080fd5b806387e4401f116100f257806387e4401f146106ad5780638da5cb5b146106cd57806390bdc087146106eb578063955b25381461070b578063a1fd34e01461072b57600080fd5b806373b295c21461061757806373c325971461064b5780638456cb591461066b578063874b5d0d1461068057600080fd5b80635c975abb116101a657806367a548891161017557806367a54889146104b75780636e41d47d146104d75780636fc4cde1146104f7578063715018a61461052f57806373918a1c1461054457600080fd5b80635c975abb146104415780635ce052d7146104645780635d28be2e1461048457806364df049e1461049757600080fd5b8063150b7a02116101ed578063150b7a02146103875780631df47f80146103cc57806327370809146103ec5780633f4ba83a1461040c578063516971a81461042157600080fd5b80630f747d741461021f5780631082eea21461025c578063127d71f71461034157806312e64f0314610363575b600080fd5b34801561022b57600080fd5b5060c95461023f906001600160a01b031681565b6040516001600160a01b0390911681526020015b60405180910390f35b34801561026857600080fd5b506102e3610277366004613795565b60ce60209081526000928352604080842090915290825290208054600182015460028301546003840154600485015460058601546006909601546001600160a01b03808716976001600160601b03600160a01b9889900481169892881697929092049091169493929189565b604080516001600160a01b039a8b1681526001600160601b03998a1660208201529990971696890196909652959093166060870152608086019190915260a085015260c084015260e083019190915261010082015261012001610253565b34801561034d57600080fd5b5061036161035c3660046137c1565b610874565b005b34801561036f57600080fd5b5061037960d05481565b604051908152602001610253565b34801561039357600080fd5b506103b36103a23660046137de565b630a85bd0160e11b95945050505050565b6040516001600160e01b03199091168152602001610253565b3480156103d857600080fd5b506103616103e73660046137c1565b6108b3565b3480156103f857600080fd5b50610361610407366004613795565b6108e6565b34801561041857600080fd5b50610361610b3a565b34801561042d57600080fd5b5061036161043c366004613795565b610b6e565b34801561044d57600080fd5b5060655460ff166040519015158152602001610253565b34801561047057600080fd5b5061036161047f3660046137c1565b610dbc565b610361610492366004613795565b610def565b3480156104a357600080fd5b5060cc5461023f906001600160a01b031681565b3480156104c357600080fd5b506103616104d2366004613899565b610f2d565b3480156104e357600080fd5b506103616104f2366004613795565b61103a565b34801561050357600080fd5b5060d154610517906001600160601b031681565b6040516001600160601b039091168152602001610253565b34801561053b57600080fd5b50610361611303565b34801561055057600080fd5b506105c261055f366004613795565b60cf60209081526000928352604080842090915290825290208054600182015460028301546003840154600485015460058601546006909601546001600160a01b039586169694861695841694600160a01b9094046001600160601b0316939088565b604080516001600160a01b03998a168152978916602089015295909716948601949094526001600160601b03929092166060850152608084015260a083015260c082015260e081019190915261010001610253565b34801561062357600080fd5b5061023f7f000000000000000000000000000000000000000000000000000000000000000081565b34801561065757600080fd5b50610361610666366004613910565b611337565b34801561067757600080fd5b50610361611826565b34801561068c57600080fd5b5061037961069b3660046137c1565b60cd6020526000908152604090205481565b3480156106b957600080fd5b5060cb5461023f906001600160a01b031681565b3480156106d957600080fd5b506033546001600160a01b031661023f565b3480156106f757600080fd5b50610361610706366004613985565b611858565b34801561071757600080fd5b5061036161072636600461399e565b61188b565b34801561073757600080fd5b50610379610746366004613795565b6119af565b34801561075757600080fd5b5060ca5461023f906001600160a01b031681565b34801561077757600080fd5b50610361610786366004613795565b611b0c565b34801561079757600080fd5b506103616107a63660046139d3565b611c07565b3480156107b757600080fd5b506103616107c63660046137c1565b612058565b6103616107d936600461399e565b61208b565b3480156107ea57600080fd5b506103616107f9366004613a36565b612273565b34801561080a57600080fd5b5061037961271081565b34801561082057600080fd5b5061036161082f366004613795565b6122a6565b34801561084057600080fd5b5061036161084f366004613795565b6124bb565b34801561086057600080fd5b5061036161086f3660046137c1565b6125c6565b6033546001600160a01b031633146108a75760405162461bcd60e51b815260040161089e90613a51565b60405180910390fd5b6108b08161265e565b50565b6033546001600160a01b031633146108dd5760405162461bcd60e51b815260040161089e90613a51565b6108b0816126d7565b60655460ff16156109095760405162461bcd60e51b815260040161089e90613a86565b6002609754141561092c5760405162461bcd60e51b815260040161089e90613ab0565b600260978190556001600160a01b03838116600090815260cf602090815260408083208684528252918290208251610100810184528154851680825260018301548616938201939093529481015493841692850192909252600160a01b9092046001600160601b0316606084015260038101546080840152600481015460a0840152600581015460c08401526006015460e083015283919033146109e35760405163642a6a5360e01b815260040160405180910390fd5b60408101516001600160a01b031615610a0f5760405163088207f160e11b815260040160405180910390fd5b6001600160a01b03808316600090815260cf6020908152604080832087845290915280822080546001600160a01b031990811682556001820180549091169055600281018390556003810183905560048082018490556005820184905560069091019290925583519051632142170760e11b8152928716926342842e0e92610a9d9230929091899101613ae7565b600060405180830381600087803b158015610ab757600080fd5b505af1158015610acb573d6000803e3d6000fd5b5050825160808401516040518794506001600160a01b038716935033927f9b2b3a11685c55784f4d3819a5bbaa39baa4be3732cd6d9514970ea6e3ac065c92610b27926001600160a01b03929092168252602082015260400190565b60405180910390a4505060016097555050565b6033546001600160a01b03163314610b645760405162461bcd60e51b815260040161089e90613a51565b610b6c612750565b565b60026097541415610b915760405162461bcd60e51b815260040161089e90613ab0565b60026097556033546001600160a01b03163314610bc05760405162461bcd60e51b815260040161089e90613a51565b6001600160a01b03828116600090815260cf60209081526040808320858452825291829020825161010081018452815485168082526001830154861693820193909352600282015494851693810193909352600160a01b9093046001600160601b0316606083015260038301546080830152600483015460a0830152600583015460c083015260069092015460e08201528391610c7057604051636cf011bd60e11b815260040160405180910390fd5b60408082015160a08301516001600160a01b03808616600090815260cf6020908152858220898352905284812080546001600160a01b031990811682556001820180549091169055600281018290556003810182905560048082018390556005820183905560069091019190915585519451632142170760e11b815293949293918916926342842e0e92610d09923092918b9101613ae7565b600060405180830381600087803b158015610d2357600080fd5b505af1158015610d37573d6000803e3d6000fd5b505050506000811115610d5d576020830151610d5d906001600160a01b031683836127e3565b82516080840151604080516001600160a01b0393841681526020810192909252879287169133917f9b2b3a11685c55784f4d3819a5bbaa39baa4be3732cd6d9514970ea6e3ac065c910160405180910390a45050600160975550505050565b6033546001600160a01b03163314610de65760405162461bcd60e51b815260040161089e90613a51565b6108b08161284b565b60655460ff1615610e125760405162461bcd60e51b815260040161089e90613a86565b60026097541415610e355760405162461bcd60e51b815260040161089e90613ab0565b600260978190556001600160a01b03808416600090815260ce60209081526040808320868452825291829020825161012081018452815480861682526001600160601b03600160a01b918290048116948301949094526001830154808716958301869052049092166060830152938401546080820152600384015460a0820152600484015460c0820152600584015460e0820152600690930154610100840152907f0000000000000000000000000000000000000000000000000000000000000000168114610f175760405163026bd50160e51b815260040160405180910390fd5b610f228484846128c4565b505060016097555050565b600054610100900460ff16610f485760005460ff1615610f4c565b303b155b610faf5760405162461bcd60e51b815260206004820152602e60248201527f496e697469616c697a61626c653a20636f6e747261637420697320616c72656160448201526d191e481a5b9a5d1a585b1a5e995960921b606482015260840161089e565b600054610100900460ff16158015610fd1576000805461ffff19166101011790555b610fd9612bd6565b610fe1612c05565b610fe9612c34565b610ff287612c63565b610ffb86612cc8565b6110048561284b565b61100d8461265e565b61101683612d46565b61101f826126d7565b8015611031576000805461ff00191690555b50505050505050565b60655460ff161561105d5760405162461bcd60e51b815260040161089e90613a86565b600260975414156110805760405162461bcd60e51b815260040161089e90613ab0565b600260978190556001600160a01b03838116600090815260cf602090815260408083208684528252918290208251610100810184528154851680825260018301548616938201939093529481015493841692850192909252600160a01b9092046001600160601b0316606084015260038101546080840152600481015460a0840152600581015460c08401526006015460e083015283919061113557604051636cf011bd60e11b815260040160405180910390fd5b60a081015161115757604051638041ccb360e01b815260040160405180910390fd5b80516001600160a01b0316331480159061117d575080606001516001600160601b031642105b1561119b576040516310b13ed760e11b815260040160405180910390fd5b6001600160a01b038216600090815260cf602090815260408083208684528252822080546001600160a01b0319908116825560018201805490911690556002810183905560038101839055600481018390556005810183905560060191909155810151815160a083015160e084015161121c93869388939192309290612dbf565b6040808201519051632142170760e11b81526001600160a01b038616916342842e0e9161124f9130918890600401613ae7565b600060405180830381600087803b15801561126957600080fd5b505af115801561127d573d6000803e3d6000fd5b5050505082826001600160a01b031682600001516001600160a01b03167f5a1800c8b3fb615959d2545c3516c92c95a323c12a305acfe2bd3e88ef8b7d1c8460400151856020015186608001518760a00151604051610b2794939291906001600160a01b0394851681529290931660208301526040820152606081019190915260800190565b6033546001600160a01b0316331461132d5760405162461bcd60e51b815260040161089e90613a51565b610b6c6000612f83565b60655460ff161561135a5760405162461bcd60e51b815260040161089e90613a86565b60c9546040516343b938c560e01b81526001600160a01b038089166004830152889216906343b938c590602401602060405180830381865afa1580156113a4573d6000803e3d6000fd5b505050506040513d601f19601f820116820180604052508101906113c89190613b0b565b6113e457604051625bbd3f60e51b815260040160405180910390fd5b818015806113f3575061271081115b156114115760405163d317635f60e01b815260040160405180910390fd5b600260975414156114345760405162461bcd60e51b815260040161089e90613ab0565b60026097556001600160601b0387161580611457575085876001600160601b0316105b1561147557604051634981972160e01b815260040160405180910390fd5b6001600160a01b03808b16600090815260ce602090815260408083208d84529091529020548b9116156114bb5760405163eee0b01b60e01b815260040160405180910390fd5b84861115806114c8575084155b156114e65760405163ef57fc2960e01b815260040160405180910390fd5b60006114f142612fd5565b90506000604051806101200160405280336001600160a01b03168152602001836001600160601b031681526020018c6001600160a01b031681526020018b8461153a9190613b43565b6001600160601b0316815260200160cd6000336001600160a01b03166001600160a01b031681526020019081526020016000205481526020018981526020018881526020018a81526020018781525090508060ce6000856001600160a01b03166001600160a01b0316815260200190815260200160002060008e815260200190815260200160002060008201518160000160006101000a8154816001600160a01b0302191690836001600160a01b0316021790555060208201518160000160146101000a8154816001600160601b0302191690836001600160601b0316021790555060408201518160010160006101000a8154816001600160a01b0302191690836001600160a01b0316021790555060608201518160010160146101000a8154816001600160601b0302191690836001600160601b031602179055506080820151816002015560a0820151816003015560c0820151816004015560e082015181600501556101008201518160060155905050600160cd6000336001600160a01b03166001600160a01b0316815260200190815260200160002060008282546116e29190613b6e565b925050819055508c6001600160a01b03166342842e0e33308f6040518463ffffffff1660e01b815260040161171993929190613ae7565b600060405180830381600087803b15801561173357600080fd5b505af1158015611747573d6000803e3d6000fd5b505050508b836001600160a01b031682600001516001600160a01b03167f809f5467134c450196fed70af0db862a1c49d62a7cedd561d76c48a03e5ebc0a846040015185608001518660a001518760c00151886020015189606001518a60e001518b610100015160405161180a9897969594939291906001600160a01b039890981688526020880196909652604087019490945260608601929092526001600160601b0390811660808601521660a084015260c083015260e08201526101000190565b60405180910390a4505060016097555050505050505050505050565b6033546001600160a01b031633146118505760405162461bcd60e51b815260040161089e90613a51565b610b6c613041565b6033546001600160a01b031633146118825760405162461bcd60e51b815260040161089e90613a51565b6108b081612c63565b60655460ff16156118ae5760405162461bcd60e51b815260040161089e90613a86565b600260975414156118d15760405162461bcd60e51b815260040161089e90613ab0565b600260978190556001600160a01b03848116600090815260cf60209081526040808320878452825291829020825161010081018452815485168152600182015485169281018390529481015493841692850192909252600160a01b9092046001600160601b0316606084015260038101546080840152600481015460a0840152600581015460c08401526006015460e08301528061198257604051636cf011bd60e11b815260040160405180910390fd5b6119976001600160a01b038216333086613099565b6119a3858585856130c0565b50506001609755505050565b6001600160a01b03808316600090815260ce602090815260408083208584528252808320815161012081018352815480871682526001600160601b03600160a01b91829004811695830195909552600183015496871693820193909352919094049091166060820181905260028401546080830152600384015460a0830152600484015460c0830152600584015460e083015260069093015461010082015290914210611a615760c001519050611b06565b600081602001516001600160601b031642611a7c9190613b86565b905060008260e0015182611a909190613b9d565b905060008360e0015184602001518560600151611aad9190613bbf565b6001600160601b0316611ac09190613b9d565b905060008460c001518560a00151611ad89190613b86565b905081611ae58285613be7565b611aef9190613b9d565b8560a00151611afe9190613b86565b955050505050505b92915050565b60655460ff1615611b2f5760405162461bcd60e51b815260040161089e90613a86565b60026097541415611b525760405162461bcd60e51b815260040161089e90613ab0565b600260978190556001600160a01b03808416600090815260ce60209081526040808320868452825291829020825161012081018452815480861682526001600160601b03600160a01b9182900481169483019490945260018301549586169482019490945292909304166060820152918101546080830152600381015460a0830152600481015460c0830152600581015460e083015260060154610100820152611bfd8383836128c4565b5050600160975550565b60655460ff1615611c2a5760405162461bcd60e51b815260040161089e90613a86565b60c9546040516343b938c560e01b81526001600160a01b038087166004830152869216906343b938c590602401602060405180830381865afa158015611c74573d6000803e3d6000fd5b505050506040513d601f19601f82011682018060405250810190611c989190613b0b565b611cb457604051625bbd3f60e51b815260040160405180910390fd5b81801580611cc3575061271081115b15611ce15760405163d317635f60e01b815260040160405180910390fd5b60026097541415611d045760405162461bcd60e51b815260040161089e90613ab0565b60026097556001600160601b038516611d3057604051634981972160e01b815260040160405180910390fd5b6001600160a01b03808916600090815260cf602090815260408083208b845290915290205489911615611d765760405163eee0b01b60e01b815260040160405180910390fd5b33600090815260cd602052604081205490611d9042612fd5565b60408051610100810182523381526001600160a01b038c16602082015260009181018290529192509060608101611dc78b85613b43565b6001600160601b03168152602001848152602001600081526020018981526020018881525090508060cf6000866001600160a01b03166001600160a01b0316815260200190815260200160002060008d815260200190815260200160002060008201518160000160006101000a8154816001600160a01b0302191690836001600160a01b0316021790555060208201518160010160006101000a8154816001600160a01b0302191690836001600160a01b0316021790555060408201518160020160006101000a8154816001600160a01b0302191690836001600160a01b0316021790555060608201518160020160146101000a8154816001600160601b0302191690836001600160601b031602179055506080820151816003015560a0820151816004015560c0820151816005015560e08201518160060155905050826001611f119190613b6e565b60cd6000336001600160a01b03166001600160a01b03168152602001908152602001600020819055508b6001600160a01b03166342842e0e33308e6040518463ffffffff1660e01b8152600401611f6a93929190613ae7565b600060405180830381600087803b158015611f8457600080fd5b505af1158015611f98573d6000803e3d6000fd5b505050508a846001600160a01b031682600001516001600160a01b03167f547a357be03f8b8c991541b3cc2d0e1647a44b7f10e8cb85c576366a00f51181846020015185608001518660c001518888606001518960e0015160405161203c969594939291906001600160a01b03969096168652602086019490945260408501929092526001600160601b03908116606085015216608083015260a082015260c00190565b60405180910390a45050600160975550505b5050505050505050565b6033546001600160a01b031633146120825760405162461bcd60e51b815260040161089e90613a51565b6108b081612d46565b60655460ff16156120ae5760405162461bcd60e51b815260040161089e90613a86565b600260975414156120d15760405162461bcd60e51b815260040161089e90613ab0565b600260978190556001600160a01b03848116600090815260cf60209081526040808320878452825291829020825161010081018452815485168152600182015485169281018390529481015480851693860193909352600160a01b9092046001600160601b0316606085015260038201546080850152600482015460a0850152600582015460c085015260069091015460e0840152907f00000000000000000000000000000000000000000000000000000000000000001681146121a85760405163026bd50160e51b815260040160405180910390fd5b3415612223577f00000000000000000000000000000000000000000000000000000000000000006001600160a01b031663d0e30db0346040518263ffffffff1660e01b81526004016000604051808303818588803b15801561220957600080fd5b505af115801561221d573d6000803e3d6000fd5b50505050505b821561225e5761225e6001600160a01b037f000000000000000000000000000000000000000000000000000000000000000016333086613099565b6119a3858561226d8634613b6e565b856130c0565b6033546001600160a01b0316331461229d5760405162461bcd60e51b815260040161089e90613a51565b6108b081612cc8565b600260975414156122c95760405162461bcd60e51b815260040161089e90613ab0565b60026097556033546001600160a01b031633146122f85760405162461bcd60e51b815260040161089e90613a51565b6001600160a01b03808316600090815260ce6020908152604080832085845282529182902082516101208101845281548086168083526001600160601b03600160a01b92839004811695840195909552600184015496871695830195909552909404909116606084015260028101546080840152600381015460a0840152600481015460c0840152600581015460e0840152600601546101008301528391906123b457604051636cf011bd60e11b815260040160405180910390fd5b6001600160a01b03808316600090815260ce6020908152604080832087845290915280822082815560018101839055600281018390556003810183905560048082018490556005820184905560069091019290925583519051632142170760e11b8152928716926342842e0e926124319230929091899101613ae7565b600060405180830381600087803b15801561244b57600080fd5b505af115801561245f573d6000803e3d6000fd5b5050825160808401516040518794506001600160a01b038716935033927f2d0945d65614801fbf38298de475b2eda962f669c2e6cbbbc04a7faab17522dd92610b27926001600160a01b03929092168252602082015260400190565b60655460ff16156124de5760405162461bcd60e51b815260040161089e90613a86565b600260975414156125015760405162461bcd60e51b815260040161089e90613ab0565b600260978190556001600160a01b03808416600090815260ce6020908152604080832086845282529182902082516101208101845281548086168083526001600160601b03600160a01b928390048116958401959095526001840154968716958301959095529094049091166060840152928301546080830152600383015460a0830152600483015460c0830152600583015460e0830152600690920154610100820152839133146123b45760405163642a6a5360e01b815260040160405180910390fd5b6033546001600160a01b031633146125f05760405162461bcd60e51b815260040161089e90613a51565b6001600160a01b0381166126555760405162461bcd60e51b815260206004820152602660248201527f4f776e61626c653a206e6577206f776e657220697320746865207a65726f206160448201526564647265737360d01b606482015260840161089e565b6108b081612f83565b6001600160a01b03811661268557604051632bf5c20360e11b815260040160405180910390fd5b60ca80546001600160a01b038381166001600160a01b0319831681179093556040519116919082907f7d4ddfec890ae302bc76c6c540dbeea692c14045ecfebcc29a666bf9dc279c8f90600090a35050565b6001600160a01b0381166126fe57604051632bf5c20360e11b815260040160405180910390fd5b60cc80546001600160a01b038381166001600160a01b0319831681179093556040519116919082907f77fe0152e8e354becca126c2d9ddc9e3372c8aa414ef8185aceb7934d6a716cc90600090a35050565b60655460ff166127995760405162461bcd60e51b815260206004820152601460248201527314185d5cd8589b194e881b9bdd081c185d5cd95960621b604482015260640161089e565b6065805460ff191690557f5db9ee0a495bf2e6ff9c91a7834c1ba4fdd244a5e8aa4e537bd38aeae4b073aa335b6040516001600160a01b03909116815260200160405180910390a1565b6040516001600160a01b03831660248201526044810182905261284690849063a9059cbb60e01b906064015b60408051601f198184030181529190526020810180516001600160e01b03166001600160e01b031990931692909217909152613408565b505050565b6001600160a01b03811661287257604051632bf5c20360e11b815260040160405180910390fd5b60c980546001600160a01b038381166001600160a01b0319831681179093556040519116919082907f41e87b8a10446f910ac9ba7a85dd3c9ad02a2705e02ebee6237611a62cde306e90600090a35050565b80516001600160a01b03166128ec57604051636cf011bd60e11b815260040160405180910390fd5b80516001600160a01b031633141561291757604051631709f0f960e31b815260040160405180910390fd5b82600061292482856119af565b6001600160a01b03838116600090815260ce602090815260408083208984529091528082208281556001810183905560028101839055600381018390556004810183905560058101839055600601919091558501519192507f0000000000000000000000000000000000000000000000000000000000000000811691161415612aef57348111156129f0576129f033306129be3485613b86565b6001600160a01b037f000000000000000000000000000000000000000000000000000000000000000016929190613099565b3415612a6b577f00000000000000000000000000000000000000000000000000000000000000006001600160a01b031663d0e30db0346040518263ffffffff1660e01b81526004016000604051808303818588803b158015612a5157600080fd5b505af1158015612a65573d6000803e3d6000fd5b50505050505b34811015612ab257612ab233612a818334613b86565b6001600160a01b037f00000000000000000000000000000000000000000000000000000000000000001691906127e3565b612aea82857f000000000000000000000000000000000000000000000000000000000000000030876000015186896101000151612dbf565b612b0b565b612b0b8285856040015133876000015186896101000151612dbf565b604051632142170760e11b81526001600160a01b038616906342842e0e90612b3b90309033908990600401613ae7565b600060405180830381600087803b158015612b5557600080fd5b505af1158015612b69573d6000803e3d6000fd5b5050845160408087015160808089015183513381526001600160a01b039384166020820152938401526060830187905289955081881694509216917fcc3d803077d108e00cb796b4d6569ca5f5cb0bfc25cb5fb755efd1ffc80d9eff910160405180910390a45050505050565b600054610100900460ff16612bfd5760405162461bcd60e51b815260040161089e90613c06565b610b6c6134da565b600054610100900460ff16612c2c5760405162461bcd60e51b815260040161089e90613c06565b610b6c61350a565b600054610100900460ff16612c5b5760405162461bcd60e51b815260040161089e90613c06565b610b6c61353d565b801580612c71575061271081115b15612c8f5760405163983613f960e01b815260040160405180910390fd5b60d0805490829055604051829082907fa3f285ff50dde91866d9d4e5d73ebdf424ebb3a7fcedc49b4c5fc0b66e15642c90600090a35050565b6001600160601b038116612cef57604051630b68507960e31b815260040160405180910390fd5b60d180546001600160601b038381166bffffffffffffffffffffffff19831681179093556040519116919082907fc0da53cc906ae35e2c2afe765eb38598227dda23551dfa44bf89e14592ecd95490600090a35050565b6001600160a01b038116612d6d57604051632bf5c20360e11b815260040160405180910390fd5b60cb80546001600160a01b038381166001600160a01b0319831681179093556040519116919082907f3572f53d6b1fa254aff5642a655e44ac0e39825c4cedc188cacdb3330857acda90600090a35050565b816000612dcc898361356b565b60cc549091506001600160a01b03168015801590612de957508115155b15612e1057612e036001600160a01b038916888385613099565b612e0d8284613b86565b92505b505060cb54604051637a7b1afd60e11b81526001600160a01b038a81166004830152602482018a905260448201869052600092839291169063f4f635fa906064016040805180830381865afa158015612e6d573d6000803e3d6000fd5b505050506040513d601f19601f82011682018060405250810190612e919190613c51565b90925090506001600160a01b03821615801590612ead57508015155b15612f3657612ec76001600160a01b038916888484613099565b612ed18184613b86565b9250816001600160a01b0316898b6001600160a01b03167f27c4f0403323142b599832f26acd21c74a9e5b809f2215726e244a4ac588cd7d8b85604051612f2d9291906001600160a01b03929092168252602082015260400190565b60405180910390a45b50612f4390508383613be7565b612f4f61271083613be7565b1015612f6e576040516321f5097160e11b815260040160405180910390fd5b61204e6001600160a01b038716868684613099565b603380546001600160a01b038381166001600160a01b0319831681179093556040519116919082907f8be0079c531659141344cd1fd0a4f28419497f9722a3daafe3b4186f6b6457e090600090a35050565b60006001600160601b0382111561303d5760405162461bcd60e51b815260206004820152602660248201527f53616665436173743a2076616c756520646f65736e27742066697420696e203960448201526536206269747360d01b606482015260840161089e565b5090565b60655460ff16156130645760405162461bcd60e51b815260040161089e90613a86565b6065805460ff191660011790557f62e78cea01bee320cd4e420270b5ea74000d11b0c9f74754ebdbfc544b05a2586127c63390565b6130ba846323b872dd60e01b85858560405160240161280f93929190613ae7565b50505050565b80516001600160a01b03166130e857604051636cf011bd60e11b815260040160405180910390fd5b8161310657604051638409122f60e01b815260040160405180910390fd5b80516001600160a01b031633141561313157604051636db0fafd60e11b815260040160405180910390fd5b80606001516001600160601b0316421061315e57604051637d9c9b7b60e11b815260040160405180910390fd5b60d15460608201516000916001600160601b039081169161318191429116613b86565b116131b7575060d1546060820180516001600160601b03909216918291906131aa908390613b43565b6001600160601b03169052505b60a08201516131f7578160c001518310156131e557604051638409122f60e01b815260040160405180910390fd5b33604083015260a082018390526132e7565b81604001516001600160a01b0316336001600160a01b0316141561326c5760d0548260a001516132279190613be7565b61323361271085613be7565b101561325257604051638409122f60e01b815260040160405180910390fd5b828260a0018181516132649190613b6e565b9052506132e7565b60d05461327b90612710613b6e565b8260a0015161328a9190613be7565b61329661271085613be7565b10156132b557604051638409122f60e01b815260040160405180910390fd5b60408201805160a0840180513390935285905260208401519091906132e4906001600160a01b031683836127e3565b50505b6001600160a01b03808616600081815260cf60209081526040808320898452825291829020865181549086166001600160a01b031991821681178355928801516001830180548289169316929092179091558388015160608901516001600160601b0316600160a01b0296811696909617600283015560808801516003830181905560a08901516004840181905560c08a0151600585015560e08a015160069094019390935593518b968b96957f84ec3a468ca2097ed308ae9b8a51622f04c0f01ed00388da9167849bd918c201946133f89492938b906001600160a01b039586168152939094166020840152604083019190915260608201526001600160601b0391909116608082015260a00190565b60405180910390a4505050505050565b600061345d826040518060400160405280602081526020017f5361666545524332303a206c6f772d6c6576656c2063616c6c206661696c6564815250856001600160a01b03166135fd9092919063ffffffff16565b805190915015612846578080602001905181019061347b9190613b0b565b6128465760405162461bcd60e51b815260206004820152602a60248201527f5361666545524332303a204552433230206f7065726174696f6e20646964206e6044820152691bdd081cdd58d8d9595960b21b606482015260840161089e565b600054610100900460ff166135015760405162461bcd60e51b815260040161089e90613c06565b610b6c33612f83565b600054610100900460ff166135315760405162461bcd60e51b815260040161089e90613c06565b6065805460ff19169055565b600054610100900460ff166135645760405162461bcd60e51b815260040161089e90613c06565b6001609755565b60ca546040516238062960e91b81526001600160a01b038481166004830152600092839291169063700c520090602401602060405180830381865afa1580156135b8573d6000803e3d6000fd5b505050506040513d601f19601f820116820180604052508101906135dc9190613c7f565b90506127106135eb8483613be7565b6135f59190613b9d565b949350505050565b606061360c8484600085613616565b90505b9392505050565b6060824710156136775760405162461bcd60e51b815260206004820152602660248201527f416464726573733a20696e73756666696369656e742062616c616e636520666f6044820152651c8818d85b1b60d21b606482015260840161089e565b6001600160a01b0385163b6136ce5760405162461bcd60e51b815260206004820152601d60248201527f416464726573733a2063616c6c20746f206e6f6e2d636f6e7472616374000000604482015260640161089e565b600080866001600160a01b031685876040516136ea9190613cc4565b60006040518083038185875af1925050503d8060008114613727576040519150601f19603f3d011682016040523d82523d6000602084013e61372c565b606091505b509150915061373c828286613747565b979650505050505050565b6060831561375657508161360f565b8251156137665782518084602001fd5b8160405162461bcd60e51b815260040161089e9190613ce0565b6001600160a01b03811681146108b057600080fd5b600080604083850312156137a857600080fd5b82356137b381613780565b946020939093013593505050565b6000602082840312156137d357600080fd5b813561360f81613780565b6000806000806000608086880312156137f657600080fd5b853561380181613780565b9450602086013561381181613780565b935060408601359250606086013567ffffffffffffffff8082111561383557600080fd5b818801915088601f83011261384957600080fd5b81358181111561385857600080fd5b89602082850101111561386a57600080fd5b9699959850939650602001949392505050565b80356001600160601b038116811461389457600080fd5b919050565b60008060008060008060c087890312156138b257600080fd5b863595506138c26020880161387d565b945060408701356138d281613780565b935060608701356138e281613780565b925060808701356138f281613780565b915060a087013561390281613780565b809150509295509295509295565b600080600080600080600080610100898b03121561392d57600080fd5b883561393881613780565b975060208901359650604089013561394f81613780565b955061395d60608a0161387d565b979a969950949760808101359660a0820135965060c0820135955060e0909101359350915050565b60006020828403121561399757600080fd5b5035919050565b6000806000606084860312156139b357600080fd5b83356139be81613780565b95602085013595506040909401359392505050565b60008060008060008060c087890312156139ec57600080fd5b86356139f781613780565b9550602087013594506040870135613a0e81613780565b9350613a1c6060880161387d565b92506080870135915060a087013590509295509295509295565b600060208284031215613a4857600080fd5b61360f8261387d565b6020808252818101527f4f776e61626c653a2063616c6c6572206973206e6f7420746865206f776e6572604082015260600190565b60208082526010908201526f14185d5cd8589b194e881c185d5cd95960821b604082015260600190565b6020808252601f908201527f5265656e7472616e637947756172643a207265656e7472616e742063616c6c00604082015260600190565b6001600160a01b039384168152919092166020820152604081019190915260600190565b600060208284031215613b1d57600080fd5b8151801515811461360f57600080fd5b634e487b7160e01b600052601160045260246000fd5b60006001600160601b03808316818516808303821115613b6557613b65613b2d565b01949350505050565b60008219821115613b8157613b81613b2d565b500190565b600082821015613b9857613b98613b2d565b500390565b600082613bba57634e487b7160e01b600052601260045260246000fd5b500490565b60006001600160601b0383811690831681811015613bdf57613bdf613b2d565b039392505050565b6000816000190483118215151615613c0157613c01613b2d565b500290565b6020808252602b908201527f496e697469616c697a61626c653a20636f6e7472616374206973206e6f74206960408201526a6e697469616c697a696e6760a81b606082015260800190565b60008060408385031215613c6457600080fd5b8251613c6f81613780565b6020939093015192949293505050565b600060208284031215613c9157600080fd5b5051919050565b60005b83811015613cb3578181015183820152602001613c9b565b838111156130ba5750506000910152565b60008251613cd6818460208701613c98565b9190910192915050565b6020815260008251806020840152613cff816040850160208701613c98565b601f01601f1916919091016040019291505056fea26469706673582212208d2950948a612a6122dc084cce72eced3016bd0b3b628664f42fc72d936212d364736f6c634300080a0033",
  "devdoc": {
    "kind": "dev",
    "methods": {
      "cancelDutchAuction(address,uint256)": {
        "params": {
          "_collection": "address of ERC721 token",
          "_tokenId": "token id of ERC721 token"
        }
      },
      "cancelEnglishAuction(address,uint256)": {
        "details": "Note: - Can only be called by auction creator - Can only be cancelled if no bids have been placed",
        "params": {
          "_collection": "address of ERC721 token",
          "_tokenId": "token id of ERC721 token"
        }
      },
      "constructor": {
        "params": {
          "_wavax": "address of WAVAX"
        }
      },
      "emergencyCancelDutchAuction(address,uint256)": {
        "params": {
          "_collection": "address of ERC721 token",
          "_tokenId": "token id of ERC721 token"
        }
      },
      "emergencyCancelEnglishAuction(address,uint256)": {
        "params": {
          "_collection": "address of ERC721 token",
          "_tokenId": "token id of ERC721 token"
        }
      },
      "getDutchAuctionSalePrice(address,uint256)": {
        "params": {
          "_collection": "address of ERC721 token",
          "_tokenId": "token id of ERC721 token"
        },
        "returns": {
          "_0": "current Dutch Auction sale price for specified ERC721 token"
        }
      },
      "initialize(uint256,uint96,address,address,address,address)": {
        "params": {
          "_currencyManager": "currency manager address",
          "_englishAuctionMinBidIncrementPct": "minimum bid increment percentage for English Auctions",
          "_englishAuctionRefreshTime": "refresh time for English auctions",
          "_protocolFeeManager": "protocol fee manager address",
          "_protocolFeeRecipient": "protocol fee recipient",
          "_royaltyFeeManager": "royalty fee manager address"
        }
      },
      "owner()": {
        "details": "Returns the address of the current owner."
      },
      "pause()": {
        "details": "Only callable by owner"
      },
      "paused()": {
        "details": "Returns true if the contract is paused, and false otherwise."
      },
      "placeEnglishAuctionBid(address,uint256,uint256)": {
        "params": {
          "_amount": "amount of currency to bid",
          "_collection": "address of ERC721 token",
          "_tokenId": "token id of ERC721 token"
        }
      },
      "placeEnglishAuctionBidWithAVAXAndWAVAX(address,uint256,uint256)": {
        "params": {
          "_collection": "address of ERC721 token",
          "_tokenId": "token id of ERC721 token",
          "_wavaxAmount": "amount of WAVAX to bid"
        }
      },
      "renounceOwnership()": {
        "details": "Leaves the contract without owner. It will not be possible to call `onlyOwner` functions anymore. Can only be called by the current owner. NOTE: Renouncing ownership will leave the contract without an owner, thereby removing any functionality that is only available to the owner."
      },
      "settleDutchAuction(address,uint256)": {
        "params": {
          "_collection": "address of ERC721 token",
          "_tokenId": "token id of ERC721 token"
        }
      },
      "settleDutchAuctionWithAVAXAndWAVAX(address,uint256)": {
        "params": {
          "_collection": "address of ERC721 token",
          "_tokenId": "token id of ERC721 token"
        }
      },
      "settleEnglishAuction(address,uint256)": {
        "details": "Note: - Can be called by creator at any time (including before the auction's end time to accept the   current latest bid) - Can be called by anyone after the auction ends - Transfers funds and fees appropriately to seller, royalty receiver, and protocol fee recipient - Transfers ERC721 token to last highest bidder",
        "params": {
          "_collection": "address of ERC721 token",
          "_tokenId": "token id of ERC721 token"
        }
      },
      "startDutchAuction(address,uint256,address,uint96,uint256,uint256,uint256,uint256)": {
        "details": "Note: - Requires the auction house to hold the ERC721 token in escrow - Drops in price every `dutchAuctionDropInterval` seconds in equal   amounts",
        "params": {
          "_collection": "address of ERC721 token",
          "_currency": "address of currency to sell ERC721 token for",
          "_dropInterval": "number of seconds between each drop in price",
          "_duration": "number of seconds for Dutch Auction to run",
          "_endPrice": "ending sell price",
          "_minPercentageToAsk": "minimum percentage of the gross amount that goes to ask",
          "_startPrice": "starting sell price",
          "_tokenId": "token id of ERC721 token"
        }
      },
      "startEnglishAuction(address,uint256,address,uint96,uint256,uint256)": {
        "details": "Note this requires the auction house to hold the ERC721 token in escrow",
        "params": {
          "_collection": "address of ERC721 token",
          "_currency": "address of currency to sell ERC721 token for",
          "_duration": "number of seconds for English Auction to run",
          "_minPercentageToAsk": "minimum percentage of the gross amount that goes to ask",
          "_startPrice": "minimum starting bid price",
          "_tokenId": "token id of ERC721 token"
        }
      },
      "transferOwnership(address)": {
        "details": "Transfers ownership of the contract to a new account (`newOwner`). Can only be called by the current owner."
      },
      "unpause()": {
        "details": "Only callable by owner"
      },
      "updateCurrencyManager(address)": {
        "params": {
          "_currencyManager": "new currency manager address"
        }
      },
      "updateEnglishAuctionMinBidIncrementPct(uint256)": {
        "params": {
          "_englishAuctionMinBidIncrementPct": "new minimum bid increment percetange for English auctions"
        }
      },
      "updateEnglishAuctionRefreshTime(uint96)": {
        "params": {
          "_englishAuctionRefreshTime": "new refresh time for English auctions"
        }
      },
      "updateProtocolFeeManager(address)": {
        "params": {
          "_protocolFeeManager": "new protocol fee manager address"
        }
      },
      "updateProtocolFeeRecipient(address)": {
        "params": {
          "_protocolFeeRecipient": "new recipient for protocol fees"
        }
      },
      "updateRoyaltyFeeManager(address)": {
        "params": {
          "_royaltyFeeManager": "new fee manager address"
        }
      }
    },
    "stateVariables": {
      "dutchAuctions": {
        "details": "(collection address => token id => dutch auction)"
      },
      "englishAuctions": {
        "details": "(collection address => token id => english auction)"
      },
      "userLatestAuctionNonce": {
        "details": "(user address => latest nonce)"
      }
    },
    "title": "JoepegAuctionHouse",
    "version": 1
  },
  "userdoc": {
    "kind": "user",
    "methods": {
      "cancelDutchAuction(address,uint256)": {
        "notice": "Cancels a running Dutch Auction"
      },
      "cancelEnglishAuction(address,uint256)": {
        "notice": "Cancels an English Auction"
      },
      "constructor": {
        "notice": "Constructor"
      },
      "dutchAuctions(address,uint256)": {
        "notice": "Stores Dutch Auction data for NFTs"
      },
      "emergencyCancelDutchAuction(address,uint256)": {
        "notice": "Only owner function to cancel a Dutch Auction in case of emergencies"
      },
      "emergencyCancelEnglishAuction(address,uint256)": {
        "notice": "Only owner function to cancel an English Auction in case of emergencies"
      },
      "englishAuctionMinBidIncrementPct()": {
        "notice": "Required minimum percent increase from last bid in order to place a new bid on an English Auction"
      },
      "englishAuctionRefreshTime()": {
        "notice": "Represents both: - Number of seconds before an English Auction ends where any new   bid will extend the auction's end time - Number of seconds to extend an English Auction's end time by"
      },
      "englishAuctions(address,uint256)": {
        "notice": "Stores English Auction data for NFTs"
      },
      "getDutchAuctionSalePrice(address,uint256)": {
        "notice": "Calculates current Dutch Auction sale price for an ERC721 token"
      },
      "initialize(uint256,uint96,address,address,address,address)": {
        "notice": "Initializer"
      },
      "onERC721Received(address,address,uint256,bytes)": {
        "notice": "Required implementation for IERC721Receiver"
      },
      "pause()": {
        "notice": "Function to pause the contract"
      },
      "placeEnglishAuctionBid(address,uint256,uint256)": {
        "notice": "Place bid on a running English Auction"
      },
      "placeEnglishAuctionBidWithAVAXAndWAVAX(address,uint256,uint256)": {
        "notice": "Place bid on a running English Auction using AVAX and/or WAVAX"
      },
      "settleDutchAuction(address,uint256)": {
        "notice": "Settles a Dutch Auction"
      },
      "settleDutchAuctionWithAVAXAndWAVAX(address,uint256)": {
        "notice": "Settles a Dutch Auction with AVAX and/or WAVAX"
      },
      "settleEnglishAuction(address,uint256)": {
        "notice": "Settles an English Auction"
      },
      "startDutchAuction(address,uint256,address,uint96,uint256,uint256,uint256,uint256)": {
        "notice": "Starts a Dutch Auction for an ERC721 token"
      },
      "startEnglishAuction(address,uint256,address,uint96,uint256,uint256)": {
        "notice": "Starts an English Auction for an ERC721 token"
      },
      "unpause()": {
        "notice": "Function to unpause the contract"
      },
      "updateCurrencyManager(address)": {
        "notice": "Update currency manager"
      },
      "updateEnglishAuctionMinBidIncrementPct(uint256)": {
        "notice": "Update `englishAuctionMinBidIncrementPct`"
      },
      "updateEnglishAuctionRefreshTime(uint96)": {
        "notice": "Update `englishAuctionRefreshTime`"
      },
      "updateProtocolFeeManager(address)": {
        "notice": "Update protocol fee manager"
      },
      "updateProtocolFeeRecipient(address)": {
        "notice": "Update protocol fee recipient"
      },
      "updateRoyaltyFeeManager(address)": {
        "notice": "Update royalty fee manager"
      },
      "userLatestAuctionNonce(address)": {
        "notice": "Stores latest auction nonce per user"
      }
    },
    "notice": "An auction house that supports running English and Dutch auctions on ERC721 tokens",
    "version": 1
  },
  "storageLayout": {
    "storage": [
      {
        "astId": 130,
        "contract": "contracts/JoepegAuctionHouse.sol:JoepegAuctionHouse",
        "label": "_initialized",
        "offset": 0,
        "slot": "0",
        "type": "t_bool"
      },
      {
        "astId": 133,
        "contract": "contracts/JoepegAuctionHouse.sol:JoepegAuctionHouse",
        "label": "_initializing",
        "offset": 1,
        "slot": "0",
        "type": "t_bool"
      },
      {
        "astId": 651,
        "contract": "contracts/JoepegAuctionHouse.sol:JoepegAuctionHouse",
        "label": "__gap",
        "offset": 0,
        "slot": "1",
        "type": "t_array(t_uint256)50_storage"
      },
      {
        "astId": 10,
        "contract": "contracts/JoepegAuctionHouse.sol:JoepegAuctionHouse",
        "label": "_owner",
        "offset": 0,
        "slot": "51",
        "type": "t_address"
      },
      {
        "astId": 122,
        "contract": "contracts/JoepegAuctionHouse.sol:JoepegAuctionHouse",
        "label": "__gap",
        "offset": 0,
        "slot": "52",
        "type": "t_array(t_uint256)49_storage"
      },
      {
        "astId": 218,
        "contract": "contracts/JoepegAuctionHouse.sol:JoepegAuctionHouse",
        "label": "_paused",
        "offset": 0,
        "slot": "101",
        "type": "t_bool"
      },
      {
        "astId": 307,
        "contract": "contracts/JoepegAuctionHouse.sol:JoepegAuctionHouse",
        "label": "__gap",
        "offset": 0,
        "slot": "102",
        "type": "t_array(t_uint256)49_storage"
      },
      {
        "astId": 322,
        "contract": "contracts/JoepegAuctionHouse.sol:JoepegAuctionHouse",
        "label": "_status",
        "offset": 0,
        "slot": "151",
        "type": "t_uint256"
      },
      {
        "astId": 366,
        "contract": "contracts/JoepegAuctionHouse.sol:JoepegAuctionHouse",
        "label": "__gap",
        "offset": 0,
        "slot": "152",
        "type": "t_array(t_uint256)49_storage"
      },
      {
        "astId": 5653,
        "contract": "contracts/JoepegAuctionHouse.sol:JoepegAuctionHouse",
        "label": "currencyManager",
        "offset": 0,
        "slot": "201",
        "type": "t_contract(ICurrencyManager)10933"
      },
      {
        "astId": 5656,
        "contract": "contracts/JoepegAuctionHouse.sol:JoepegAuctionHouse",
        "label": "protocolFeeManager",
        "offset": 0,
        "slot": "202",
        "type": "t_contract(IProtocolFeeManager)11187"
      },
      {
        "astId": 5659,
        "contract": "contracts/JoepegAuctionHouse.sol:JoepegAuctionHouse",
        "label": "royaltyFeeManager",
        "offset": 0,
        "slot": "203",
        "type": "t_contract(IRoyaltyFeeManager)11203"
      },
      {
        "astId": 5661,
        "contract": "contracts/JoepegAuctionHouse.sol:JoepegAuctionHouse",
        "label": "protocolFeeRecipient",
        "offset": 0,
        "slot": "204",
        "type": "t_address"
      },
      {
        "astId": 5666,
        "contract": "contracts/JoepegAuctionHouse.sol:JoepegAuctionHouse",
        "label": "userLatestAuctionNonce",
        "offset": 0,
        "slot": "205",
        "type": "t_mapping(t_address,t_uint256)"
      },
      {
        "astId": 5674,
        "contract": "contracts/JoepegAuctionHouse.sol:JoepegAuctionHouse",
        "label": "dutchAuctions",
        "offset": 0,
        "slot": "206",
        "type": "t_mapping(t_address,t_mapping(t_uint256,t_struct(DutchAuction)5628_storage))"
      },
      {
        "astId": 5682,
        "contract": "contracts/JoepegAuctionHouse.sol:JoepegAuctionHouse",
        "label": "englishAuctions",
        "offset": 0,
        "slot": "207",
        "type": "t_mapping(t_address,t_mapping(t_uint256,t_struct(EnglishAuction)5645_storage))"
      },
      {
        "astId": 5685,
        "contract": "contracts/JoepegAuctionHouse.sol:JoepegAuctionHouse",
        "label": "englishAuctionMinBidIncrementPct",
        "offset": 0,
        "slot": "208",
        "type": "t_uint256"
      },
      {
        "astId": 5688,
        "contract": "contracts/JoepegAuctionHouse.sol:JoepegAuctionHouse",
        "label": "englishAuctionRefreshTime",
        "offset": 0,
        "slot": "209",
        "type": "t_uint96"
      }
    ],
    "types": {
      "t_address": {
        "encoding": "inplace",
        "label": "address",
        "numberOfBytes": "20"
      },
      "t_array(t_uint256)49_storage": {
        "base": "t_uint256",
        "encoding": "inplace",
        "label": "uint256[49]",
        "numberOfBytes": "1568"
      },
      "t_array(t_uint256)50_storage": {
        "base": "t_uint256",
        "encoding": "inplace",
        "label": "uint256[50]",
        "numberOfBytes": "1600"
      },
      "t_bool": {
        "encoding": "inplace",
        "label": "bool",
        "numberOfBytes": "1"
      },
      "t_contract(ICurrencyManager)10933": {
        "encoding": "inplace",
        "label": "contract ICurrencyManager",
        "numberOfBytes": "20"
      },
      "t_contract(IProtocolFeeManager)11187": {
        "encoding": "inplace",
        "label": "contract IProtocolFeeManager",
        "numberOfBytes": "20"
      },
      "t_contract(IRoyaltyFeeManager)11203": {
        "encoding": "inplace",
        "label": "contract IRoyaltyFeeManager",
        "numberOfBytes": "20"
      },
      "t_mapping(t_address,t_mapping(t_uint256,t_struct(DutchAuction)5628_storage))": {
        "encoding": "mapping",
        "key": "t_address",
        "label": "mapping(address => mapping(uint256 => struct JoepegAuctionHouse.DutchAuction))",
        "numberOfBytes": "32",
        "value": "t_mapping(t_uint256,t_struct(DutchAuction)5628_storage)"
      },
      "t_mapping(t_address,t_mapping(t_uint256,t_struct(EnglishAuction)5645_storage))": {
        "encoding": "mapping",
        "key": "t_address",
        "label": "mapping(address => mapping(uint256 => struct JoepegAuctionHouse.EnglishAuction))",
        "numberOfBytes": "32",
        "value": "t_mapping(t_uint256,t_struct(EnglishAuction)5645_storage)"
      },
      "t_mapping(t_address,t_uint256)": {
        "encoding": "mapping",
        "key": "t_address",
        "label": "mapping(address => uint256)",
        "numberOfBytes": "32",
        "value": "t_uint256"
      },
      "t_mapping(t_uint256,t_struct(DutchAuction)5628_storage)": {
        "encoding": "mapping",
        "key": "t_uint256",
        "label": "mapping(uint256 => struct JoepegAuctionHouse.DutchAuction)",
        "numberOfBytes": "32",
        "value": "t_struct(DutchAuction)5628_storage"
      },
      "t_mapping(t_uint256,t_struct(EnglishAuction)5645_storage)": {
        "encoding": "mapping",
        "key": "t_uint256",
        "label": "mapping(uint256 => struct JoepegAuctionHouse.EnglishAuction)",
        "numberOfBytes": "32",
        "value": "t_struct(EnglishAuction)5645_storage"
      },
      "t_struct(DutchAuction)5628_storage": {
        "encoding": "inplace",
        "label": "struct JoepegAuctionHouse.DutchAuction",
        "members": [
          {
            "astId": 5611,
            "contract": "contracts/JoepegAuctionHouse.sol:JoepegAuctionHouse",
            "label": "creator",
            "offset": 0,
            "slot": "0",
            "type": "t_address"
          },
          {
            "astId": 5613,
            "contract": "contracts/JoepegAuctionHouse.sol:JoepegAuctionHouse",
            "label": "startTime",
            "offset": 20,
            "slot": "0",
            "type": "t_uint96"
          },
          {
            "astId": 5615,
            "contract": "contracts/JoepegAuctionHouse.sol:JoepegAuctionHouse",
            "label": "currency",
            "offset": 0,
            "slot": "1",
            "type": "t_address"
          },
          {
            "astId": 5617,
            "contract": "contracts/JoepegAuctionHouse.sol:JoepegAuctionHouse",
            "label": "endTime",
            "offset": 20,
            "slot": "1",
            "type": "t_uint96"
          },
          {
            "astId": 5619,
            "contract": "contracts/JoepegAuctionHouse.sol:JoepegAuctionHouse",
            "label": "nonce",
            "offset": 0,
            "slot": "2",
            "type": "t_uint256"
          },
          {
            "astId": 5621,
            "contract": "contracts/JoepegAuctionHouse.sol:JoepegAuctionHouse",
            "label": "startPrice",
            "offset": 0,
            "slot": "3",
            "type": "t_uint256"
          },
          {
            "astId": 5623,
            "contract": "contracts/JoepegAuctionHouse.sol:JoepegAuctionHouse",
            "label": "endPrice",
            "offset": 0,
            "slot": "4",
            "type": "t_uint256"
          },
          {
            "astId": 5625,
            "contract": "contracts/JoepegAuctionHouse.sol:JoepegAuctionHouse",
            "label": "dropInterval",
            "offset": 0,
            "slot": "5",
            "type": "t_uint256"
          },
          {
            "astId": 5627,
            "contract": "contracts/JoepegAuctionHouse.sol:JoepegAuctionHouse",
            "label": "minPercentageToAsk",
            "offset": 0,
            "slot": "6",
            "type": "t_uint256"
          }
        ],
        "numberOfBytes": "224"
      },
      "t_struct(EnglishAuction)5645_storage": {
        "encoding": "inplace",
        "label": "struct JoepegAuctionHouse.EnglishAuction",
        "members": [
          {
            "astId": 5630,
            "contract": "contracts/JoepegAuctionHouse.sol:JoepegAuctionHouse",
            "label": "creator",
            "offset": 0,
            "slot": "0",
            "type": "t_address"
          },
          {
            "astId": 5632,
            "contract": "contracts/JoepegAuctionHouse.sol:JoepegAuctionHouse",
            "label": "currency",
            "offset": 0,
            "slot": "1",
            "type": "t_address"
          },
          {
            "astId": 5634,
            "contract": "contracts/JoepegAuctionHouse.sol:JoepegAuctionHouse",
            "label": "lastBidder",
            "offset": 0,
            "slot": "2",
            "type": "t_address"
          },
          {
            "astId": 5636,
            "contract": "contracts/JoepegAuctionHouse.sol:JoepegAuctionHouse",
            "label": "endTime",
            "offset": 20,
            "slot": "2",
            "type": "t_uint96"
          },
          {
            "astId": 5638,
            "contract": "contracts/JoepegAuctionHouse.sol:JoepegAuctionHouse",
            "label": "nonce",
            "offset": 0,
            "slot": "3",
            "type": "t_uint256"
          },
          {
            "astId": 5640,
            "contract": "contracts/JoepegAuctionHouse.sol:JoepegAuctionHouse",
            "label": "lastBidPrice",
            "offset": 0,
            "slot": "4",
            "type": "t_uint256"
          },
          {
            "astId": 5642,
            "contract": "contracts/JoepegAuctionHouse.sol:JoepegAuctionHouse",
            "label": "startPrice",
            "offset": 0,
            "slot": "5",
            "type": "t_uint256"
          },
          {
            "astId": 5644,
            "contract": "contracts/JoepegAuctionHouse.sol:JoepegAuctionHouse",
            "label": "minPercentageToAsk",
            "offset": 0,
            "slot": "6",
            "type": "t_uint256"
          }
        ],
        "numberOfBytes": "224"
      },
      "t_uint256": {
        "encoding": "inplace",
        "label": "uint256",
        "numberOfBytes": "32"
      },
      "t_uint96": {
        "encoding": "inplace",
        "label": "uint96",
        "numberOfBytes": "12"
      }
    }
  }
}