{
  "address": "0x4A820A159444EcB779A8055B104d6A11c15A18F4",
  "abi": [
    {
      "inputs": [
        {
          "internalType": "uint256",
          "name": "_defaultProtocolFee",
          "type": "uint256"
        }
      ],
      "stateMutability": "nonpayable",
      "type": "constructor"
    },
    {
      "inputs": [],
      "name": "ProtocolFeeManager__InvalidProtocolFee",
      "type": "error"
    },
    {
      "anonymous": false,
      "inputs": [
        {
          "indexed": true,
          "internalType": "address",
          "name": "previousOwner",
          "type": "address"
        },
        {
          "indexed": true,
          "internalType": "address",
          "name": "newOwner",
          "type": "address"
        }
      ],
      "name": "OwnershipTransferred",
      "type": "event"
    },
    {
      "anonymous": false,
      "inputs": [
        {
          "indexed": true,
          "internalType": "address",
          "name": "user",
          "type": "address"
        },
        {
          "indexed": true,
          "internalType": "address",
          "name": "collection",
          "type": "address"
        },
        {
          "indexed": false,
          "internalType": "uint256",
          "name": "protocolFee",
          "type": "uint256"
        }
      ],
      "name": "SetProtocolFeeForCollection",
      "type": "event"
    },
    {
      "anonymous": false,
      "inputs": [
        {
          "indexed": true,
          "internalType": "address",
          "name": "user",
          "type": "address"
        },
        {
          "indexed": true,
          "internalType": "address",
          "name": "collection",
          "type": "address"
        }
      ],
      "name": "UnsetProtocolFeeForCollection",
      "type": "event"
    },
    {
      "anonymous": false,
      "inputs": [
        {
          "indexed": true,
          "internalType": "address",
          "name": "user",
          "type": "address"
        },
        {
          "indexed": false,
          "internalType": "uint256",
          "name": "defaultProtocolFee",
          "type": "uint256"
        }
      ],
      "name": "UpdateDefaultProtocolFee",
      "type": "event"
    },
    {
      "inputs": [
        {
          "internalType": "address",
          "name": "",
          "type": "address"
        }
      ],
      "name": "collectionProtocolFeeOverrides",
      "outputs": [
        {
          "internalType": "bool",
          "name": "isOverridden",
          "type": "bool"
        },
        {
          "internalType": "uint256",
          "name": "protocolFee",
          "type": "uint256"
        }
      ],
      "stateMutability": "view",
      "type": "function"
    },
    {
      "inputs": [],
      "name": "defaultProtocolFee",
      "outputs": [
        {
          "internalType": "uint256",
          "name": "",
          "type": "uint256"
        }
      ],
      "stateMutability": "view",
      "type": "function"
    },
    {
      "inputs": [],
      "name": "owner",
      "outputs": [
        {
          "internalType": "address",
          "name": "",
          "type": "address"
        }
      ],
      "stateMutability": "view",
      "type": "function"
    },
    {
      "inputs": [
        {
          "internalType": "address",
          "name": "_collection",
          "type": "address"
        }
      ],
      "name": "protocolFeeForCollection",
      "outputs": [
        {
          "internalType": "uint256",
          "name": "",
          "type": "uint256"
        }
      ],
      "stateMutability": "view",
      "type": "function"
    },
    {
      "inputs": [],
      "name": "renounceOwnership",
      "outputs": [],
      "stateMutability": "nonpayable",
      "type": "function"
    },
    {
      "inputs": [
        {
          "internalType": "uint256",
          "name": "_defaultProtocolFee",
          "type": "uint256"
        }
      ],
      "name": "setDefaultProtocolFee",
      "outputs": [],
      "stateMutability": "nonpayable",
      "type": "function"
    },
    {
      "inputs": [
        {
          "internalType": "address",
          "name": "_collection",
          "type": "address"
        },
        {
          "internalType": "uint256",
          "name": "_protocolFee",
          "type": "uint256"
        }
      ],
      "name": "setProtocolFeeForCollection",
      "outputs": [],
      "stateMutability": "nonpayable",
      "type": "function"
    },
    {
      "inputs": [
        {
          "internalType": "address",
          "name": "newOwner",
          "type": "address"
        }
      ],
      "name": "transferOwnership",
      "outputs": [],
      "stateMutability": "nonpayable",
      "type": "function"
    },
    {
      "inputs": [
        {
          "internalType": "address",
          "name": "_collection",
          "type": "address"
        }
      ],
      "name": "unsetProtocolFeeForCollection",
      "outputs": [],
      "stateMutability": "nonpayable",
      "type": "function"
    }
  ],
  "transactionHash": "0xcee424be386bad189d35b64ce15b121dd534c47cc4f09966e8d593b1d29472a6",
  "args": [
    1000
  ],
  "numDeployments": 1,
  "solcInputHash": "d1f2df6fff78a7d04e1d58a9a2e894c9",
  "bytecode": "0x608060405234801561001057600080fd5b506040516106ab3803806106ab83398101604081905261002f916100b5565b61003833610065565b8061271081111561005c5760405163609ef09960e11b815260040160405180910390fd5b506001556100ce565b600080546001600160a01b038381166001600160a01b0319831681178455604051919092169283917f8be0079c531659141344cd1fd0a4f28419497f9722a3daafe3b4186f6b6457e09190a35050565b6000602082840312156100c757600080fd5b5051919050565b6105ce806100dd6000396000f3fe608060405234801561001057600080fd5b50600436106100935760003560e01c80636034b510116100665780636034b51014610120578063700c520014610133578063715018a6146101465780638da5cb5b1461014e578063f2fde38b1461016957600080fd5b806305e0a2f21461009857806325225ef8146100e1578063421bcbdf146100f6578063522149271461010d575b600080fd5b6100c56100a6366004610505565b6002602052600090815260409020805460019091015460ff9091169082565b6040805192151583526020830191909152015b60405180910390f35b6100f46100ef366004610505565b61017c565b005b6100ff60015481565b6040519081526020016100d8565b6100f461011b366004610520565b61021f565b6100f461012e36600461054a565b6102e8565b6100ff610141366004610505565b610374565b6100f46103c8565b6000546040516001600160a01b0390911681526020016100d8565b6100f4610177366004610505565b6103fe565b6000546001600160a01b031633146101af5760405162461bcd60e51b81526004016101a690610563565b60405180910390fd5b604080518082018252600080825260208083018281526001600160a01b03861680845260029092528483209351845460ff1916901515178455516001909301929092559151909133917f27b148c625962b0d7ecf0f1aa108a6b63e023bbdd0e3554b2cbac6278943915a9190a350565b6000546001600160a01b031633146102495760405162461bcd60e51b81526004016101a690610563565b8061271081111561026d5760405163609ef09960e11b815260040160405180910390fd5b604080518082018252600180825260208083018681526001600160a01b0388166000818152600284528690209451855460ff191690151517855590519390920192909255915184815233917f832cc6ea2b93d7a764c02dfb77f93369b48a94f8aab340fb378a6c8d59f74832910160405180910390a3505050565b6000546001600160a01b031633146103125760405162461bcd60e51b81526004016101a690610563565b806127108111156103365760405163609ef09960e11b815260040160405180910390fd5b600182905560405182815233907f1aa18d703acdc8b2dc948c207bc30c6933aeed9c6fbd96f19c5a8e07f1eeb3359060200160405180910390a25050565b6001600160a01b03811660009081526002602090815260408083208151808301909252805460ff16151580835260019091015492820192909252906103bb576001546103c1565b80602001515b9392505050565b6000546001600160a01b031633146103f25760405162461bcd60e51b81526004016101a690610563565b6103fc6000610499565b565b6000546001600160a01b031633146104285760405162461bcd60e51b81526004016101a690610563565b6001600160a01b03811661048d5760405162461bcd60e51b815260206004820152602660248201527f4f776e61626c653a206e6577206f776e657220697320746865207a65726f206160448201526564647265737360d01b60648201526084016101a6565b61049681610499565b50565b600080546001600160a01b038381166001600160a01b0319831681178455604051919092169283917f8be0079c531659141344cd1fd0a4f28419497f9722a3daafe3b4186f6b6457e09190a35050565b80356001600160a01b038116811461050057600080fd5b919050565b60006020828403121561051757600080fd5b6103c1826104e9565b6000806040838503121561053357600080fd5b61053c836104e9565b946020939093013593505050565b60006020828403121561055c57600080fd5b5035919050565b6020808252818101527f4f776e61626c653a2063616c6c6572206973206e6f7420746865206f776e657260408201526060019056fea26469706673582212202a87ca5aee4136469bb90fcaaafa45f88532bdce2908d178ff66f7d8ebdcd2a764736f6c63430008060033",
  "devdoc": {
    "kind": "dev",
    "methods": {
      "constructor": {
        "params": {
          "_defaultProtocolFee": "default protocol fee"
        }
      },
      "owner()": {
        "details": "Returns the address of the current owner."
      },
      "protocolFeeForCollection(address)": {
        "params": {
          "_collection": "address of collection to look up protocol fee for"
        },
        "returns": {
          "_0": "protocol fee for `_collection`"
        }
      },
      "renounceOwnership()": {
        "details": "Leaves the contract without owner. It will not be possible to call `onlyOwner` functions anymore. Can only be called by the current owner. NOTE: Renouncing ownership will leave the contract without an owner, thereby removing any functionality that is only available to the owner."
      },
      "setDefaultProtocolFee(uint256)": {
        "params": {
          "_defaultProtocolFee": "new default protocol fee"
        }
      },
      "setProtocolFeeForCollection(address,uint256)": {
        "params": {
          "_collection": "address of collection to set custom protocol fee for",
          "_protocolFee": "custom protocol fee"
        }
      },
      "transferOwnership(address)": {
        "details": "Transfers ownership of the contract to a new account (`newOwner`). Can only be called by the current owner."
      },
      "unsetProtocolFeeForCollection(address)": {
        "params": {
          "_collection": "address of collection to unset custom protocol fee for"
        }
      }
    },
    "title": "ProtocolFeeManager",
    "version": 1
  },
  "userdoc": {
    "kind": "user",
    "methods": {
      "collectionProtocolFeeOverrides(address)": {
        "notice": "Mapping of collections to custom protocol fee overrides"
      },
      "constructor": {
        "notice": "Constructor"
      },
      "defaultProtocolFee()": {
        "notice": "Default protocol fee, with precision 100 (e.g. 200 -> 2%)"
      },
      "protocolFeeForCollection(address)": {
        "notice": "Get protocol fee for a given `_collection`, falling back to `defaultProtocolFee` if there is no custom protocol fee set"
      },
      "setDefaultProtocolFee(uint256)": {
        "notice": "Updates `defaultProtocolFee`"
      },
      "setProtocolFeeForCollection(address,uint256)": {
        "notice": "Sets custom protocol fee for `_collection`"
      },
      "unsetProtocolFeeForCollection(address)": {
        "notice": "Unsets custom protocol fee for `_collection`"
      }
    },
    "notice": "Tracks and manages protocol fees for collections in the Joepeg Exchange",
    "version": 1
  },
  "storageLayout": {
    "storage": [
      {
        "astId": 7,
        "contract": "contracts/ProtocolFeeManager.sol:ProtocolFeeManager",
        "label": "_owner",
        "offset": 0,
        "slot": "0",
        "type": "t_address"
      },
      {
        "astId": 4610,
        "contract": "contracts/ProtocolFeeManager.sol:ProtocolFeeManager",
        "label": "defaultProtocolFee",
        "offset": 0,
        "slot": "1",
        "type": "t_uint256"
      },
      {
        "astId": 4616,
        "contract": "contracts/ProtocolFeeManager.sol:ProtocolFeeManager",
        "label": "collectionProtocolFeeOverrides",
        "offset": 0,
        "slot": "2",
        "type": "t_mapping(t_address,t_struct(ProtocolFeeOverride)4606_storage)"
      }
    ],
    "types": {
      "t_address": {
        "encoding": "inplace",
        "label": "address",
        "numberOfBytes": "20"
      },
      "t_bool": {
        "encoding": "inplace",
        "label": "bool",
        "numberOfBytes": "1"
      },
      "t_mapping(t_address,t_struct(ProtocolFeeOverride)4606_storage)": {
        "encoding": "mapping",
        "key": "t_address",
        "label": "mapping(address => struct ProtocolFeeManager.ProtocolFeeOverride)",
        "numberOfBytes": "32",
        "value": "t_struct(ProtocolFeeOverride)4606_storage"
      },
      "t_struct(ProtocolFeeOverride)4606_storage": {
        "encoding": "inplace",
        "label": "struct ProtocolFeeManager.ProtocolFeeOverride",
        "members": [
          {
            "astId": 4603,
            "contract": "contracts/ProtocolFeeManager.sol:ProtocolFeeManager",
            "label": "isOverridden",
            "offset": 0,
            "slot": "0",
            "type": "t_bool"
          },
          {
            "astId": 4605,
            "contract": "contracts/ProtocolFeeManager.sol:ProtocolFeeManager",
            "label": "protocolFee",
            "offset": 0,
            "slot": "1",
            "type": "t_uint256"
          }
        ],
        "numberOfBytes": "64"
      },
      "t_uint256": {
        "encoding": "inplace",
        "label": "uint256",
        "numberOfBytes": "32"
      }
    }
  }
}