{
  "address": "0xB0AF8533B6Ea63E0F38cc952A3C91A67D7D496F5",
  "abi": [
    {
      "inputs": [],
      "name": "ProtocolFeeManager__InvalidProtocolFee",
      "type": "error"
    },
    {
      "anonymous": false,
      "inputs": [
        {
          "indexed": true,
          "internalType": "address",
          "name": "previousOwner",
          "type": "address"
        },
        {
          "indexed": true,
          "internalType": "address",
          "name": "newOwner",
          "type": "address"
        }
      ],
      "name": "OwnershipTransferred",
      "type": "event"
    },
    {
      "anonymous": false,
      "inputs": [
        {
          "indexed": true,
          "internalType": "address",
          "name": "user",
          "type": "address"
        },
        {
          "indexed": true,
          "internalType": "address",
          "name": "collection",
          "type": "address"
        },
        {
          "indexed": false,
          "internalType": "uint256",
          "name": "protocolFee",
          "type": "uint256"
        }
      ],
      "name": "SetProtocolFeeForCollection",
      "type": "event"
    },
    {
      "anonymous": false,
      "inputs": [
        {
          "indexed": true,
          "internalType": "address",
          "name": "user",
          "type": "address"
        },
        {
          "indexed": true,
          "internalType": "address",
          "name": "collection",
          "type": "address"
        }
      ],
      "name": "UnsetProtocolFeeForCollection",
      "type": "event"
    },
    {
      "anonymous": false,
      "inputs": [
        {
          "indexed": true,
          "internalType": "address",
          "name": "user",
          "type": "address"
        },
        {
          "indexed": false,
          "internalType": "uint256",
          "name": "defaultProtocolFee",
          "type": "uint256"
        }
      ],
      "name": "UpdateDefaultProtocolFee",
      "type": "event"
    },
    {
      "inputs": [
        {
          "internalType": "address",
          "name": "",
          "type": "address"
        }
      ],
      "name": "collectionProtocolFeeOverrides",
      "outputs": [
        {
          "internalType": "bool",
          "name": "isOverridden",
          "type": "bool"
        },
        {
          "internalType": "uint256",
          "name": "protocolFee",
          "type": "uint256"
        }
      ],
      "stateMutability": "view",
      "type": "function"
    },
    {
      "inputs": [],
      "name": "defaultProtocolFee",
      "outputs": [
        {
          "internalType": "uint256",
          "name": "",
          "type": "uint256"
        }
      ],
      "stateMutability": "view",
      "type": "function"
    },
    {
      "inputs": [
        {
          "internalType": "uint256",
          "name": "_defaultProtocolFee",
          "type": "uint256"
        }
      ],
      "name": "initialize",
      "outputs": [],
      "stateMutability": "nonpayable",
      "type": "function"
    },
    {
      "inputs": [],
      "name": "owner",
      "outputs": [
        {
          "internalType": "address",
          "name": "",
          "type": "address"
        }
      ],
      "stateMutability": "view",
      "type": "function"
    },
    {
      "inputs": [
        {
          "internalType": "address",
          "name": "_collection",
          "type": "address"
        }
      ],
      "name": "protocolFeeForCollection",
      "outputs": [
        {
          "internalType": "uint256",
          "name": "",
          "type": "uint256"
        }
      ],
      "stateMutability": "view",
      "type": "function"
    },
    {
      "inputs": [],
      "name": "renounceOwnership",
      "outputs": [],
      "stateMutability": "nonpayable",
      "type": "function"
    },
    {
      "inputs": [
        {
          "internalType": "uint256",
          "name": "_defaultProtocolFee",
          "type": "uint256"
        }
      ],
      "name": "setDefaultProtocolFee",
      "outputs": [],
      "stateMutability": "nonpayable",
      "type": "function"
    },
    {
      "inputs": [
        {
          "internalType": "address",
          "name": "_collection",
          "type": "address"
        },
        {
          "internalType": "uint256",
          "name": "_protocolFee",
          "type": "uint256"
        }
      ],
      "name": "setProtocolFeeForCollection",
      "outputs": [],
      "stateMutability": "nonpayable",
      "type": "function"
    },
    {
      "inputs": [
        {
          "internalType": "address",
          "name": "newOwner",
          "type": "address"
        }
      ],
      "name": "transferOwnership",
      "outputs": [],
      "stateMutability": "nonpayable",
      "type": "function"
    },
    {
      "inputs": [
        {
          "internalType": "address",
          "name": "_collection",
          "type": "address"
        }
      ],
      "name": "unsetProtocolFeeForCollection",
      "outputs": [],
      "stateMutability": "nonpayable",
      "type": "function"
    }
  ],
  "transactionHash": "0xbd4f9cc56d9f528d7f84664e564c4af6b9cffa5d986e6cb3b03e3f8bd1e01704",
  "args": [],
  "numDeployments": 1,
  "solcInputHash": "74ac0471e0eeac02914c4a972d6a0330",
  "bytecode": "0x608060405234801561001057600080fd5b5061077f806100206000396000f3fe608060405234801561001057600080fd5b506004361061009e5760003560e01c8063700c520011610066578063700c52001461013e578063715018a6146101515780638da5cb5b14610159578063f2fde38b14610174578063fe4b84df1461018757600080fd5b806305e0a2f2146100a357806325225ef8146100ec578063421bcbdf1461010157806352214927146101185780636034b5101461012b575b600080fd5b6100d06100b136600461066b565b6066602052600090815260409020805460019091015460ff9091169082565b6040805192151583526020830191909152015b60405180910390f35b6100ff6100fa36600461066b565b61019a565b005b61010a60655481565b6040519081526020016100e3565b6100ff610126366004610686565b61023d565b6100ff6101393660046106b0565b610306565b61010a61014c36600461066b565b610392565b6100ff6103e6565b6033546040516001600160a01b0390911681526020016100e3565b6100ff61018236600461066b565b61041c565b6100ff6101953660046106b0565b6104b7565b6033546001600160a01b031633146101cd5760405162461bcd60e51b81526004016101c4906106c9565b60405180910390fd5b604080518082018252600080825260208083018281526001600160a01b03861680845260669092528483209351845460ff1916901515178455516001909301929092559151909133917f27b148c625962b0d7ecf0f1aa108a6b63e023bbdd0e3554b2cbac6278943915a9190a350565b6033546001600160a01b031633146102675760405162461bcd60e51b81526004016101c4906106c9565b8061271081111561028b5760405163609ef09960e11b815260040160405180910390fd5b604080518082018252600180825260208083018681526001600160a01b0388166000818152606684528690209451855460ff191690151517855590519390920192909255915184815233917f832cc6ea2b93d7a764c02dfb77f93369b48a94f8aab340fb378a6c8d59f74832910160405180910390a3505050565b6033546001600160a01b031633146103305760405162461bcd60e51b81526004016101c4906106c9565b806127108111156103545760405163609ef09960e11b815260040160405180910390fd5b606582905560405182815233907f1aa18d703acdc8b2dc948c207bc30c6933aeed9c6fbd96f19c5a8e07f1eeb3359060200160405180910390a25050565b6001600160a01b03811660009081526066602090815260408083208151808301909252805460ff16151580835260019091015492820192909252906103d9576065546103df565b80602001515b9392505050565b6033546001600160a01b031633146104105760405162461bcd60e51b81526004016101c4906106c9565b61041a60006105a3565b565b6033546001600160a01b031633146104465760405162461bcd60e51b81526004016101c4906106c9565b6001600160a01b0381166104ab5760405162461bcd60e51b815260206004820152602660248201527f4f776e61626c653a206e6577206f776e657220697320746865207a65726f206160448201526564647265737360d01b60648201526084016101c4565b6104b4816105a3565b50565b600054610100900460ff166104d25760005460ff16156104d6565b303b155b6105395760405162461bcd60e51b815260206004820152602e60248201527f496e697469616c697a61626c653a20636f6e747261637420697320616c72656160448201526d191e481a5b9a5d1a585b1a5e995960921b60648201526084016101c4565b600054610100900460ff1615801561055b576000805461ffff19166101011790555b8161271081111561057f5760405163609ef09960e11b815260040160405180910390fd5b6105876105f5565b506065829055801561059f576000805461ff00191690555b5050565b603380546001600160a01b038381166001600160a01b0319831681179093556040519116919082907f8be0079c531659141344cd1fd0a4f28419497f9722a3daafe3b4186f6b6457e090600090a35050565b600054610100900460ff1661061c5760405162461bcd60e51b81526004016101c4906106fe565b61041a600054610100900460ff166106465760405162461bcd60e51b81526004016101c4906106fe565b61041a336105a3565b80356001600160a01b038116811461066657600080fd5b919050565b60006020828403121561067d57600080fd5b6103df8261064f565b6000806040838503121561069957600080fd5b6106a28361064f565b946020939093013593505050565b6000602082840312156106c257600080fd5b5035919050565b6020808252818101527f4f776e61626c653a2063616c6c6572206973206e6f7420746865206f776e6572604082015260600190565b6020808252602b908201527f496e697469616c697a61626c653a20636f6e7472616374206973206e6f74206960408201526a6e697469616c697a696e6760a81b60608201526080019056fea2646970667358221220140fbcff5f1daf41f1a4e59d464b6f9cbdc662a33f4a62db84b4940884b92ffe64736f6c63430008060033",
  "devdoc": {
    "kind": "dev",
    "methods": {
      "initialize(uint256)": {
        "params": {
          "_defaultProtocolFee": "default protocol fee"
        }
      },
      "owner()": {
        "details": "Returns the address of the current owner."
      },
      "protocolFeeForCollection(address)": {
        "params": {
          "_collection": "address of collection to look up protocol fee for"
        },
        "returns": {
          "_0": "protocol fee for `_collection`"
        }
      },
      "renounceOwnership()": {
        "details": "Leaves the contract without owner. It will not be possible to call `onlyOwner` functions anymore. Can only be called by the current owner. NOTE: Renouncing ownership will leave the contract without an owner, thereby removing any functionality that is only available to the owner."
      },
      "setDefaultProtocolFee(uint256)": {
        "params": {
          "_defaultProtocolFee": "new default protocol fee"
        }
      },
      "setProtocolFeeForCollection(address,uint256)": {
        "params": {
          "_collection": "address of collection to set custom protocol fee for",
          "_protocolFee": "custom protocol fee"
        }
      },
      "transferOwnership(address)": {
        "details": "Transfers ownership of the contract to a new account (`newOwner`). Can only be called by the current owner."
      },
      "unsetProtocolFeeForCollection(address)": {
        "params": {
          "_collection": "address of collection to unset custom protocol fee for"
        }
      }
    },
    "title": "ProtocolFeeManager",
    "version": 1
  },
  "userdoc": {
    "kind": "user",
    "methods": {
      "collectionProtocolFeeOverrides(address)": {
        "notice": "Mapping of collections to custom protocol fee overrides"
      },
      "defaultProtocolFee()": {
        "notice": "Default protocol fee, with precision 100 (e.g. 200 -> 2%)"
      },
      "initialize(uint256)": {
        "notice": "Initializer"
      },
      "protocolFeeForCollection(address)": {
        "notice": "Get protocol fee for a given `_collection`, falling back to `defaultProtocolFee` if there is no custom protocol fee set"
      },
      "setDefaultProtocolFee(uint256)": {
        "notice": "Updates `defaultProtocolFee`"
      },
      "setProtocolFeeForCollection(address,uint256)": {
        "notice": "Sets custom protocol fee for `_collection`"
      },
      "unsetProtocolFeeForCollection(address)": {
        "notice": "Unsets custom protocol fee for `_collection`"
      }
    },
    "notice": "Tracks and manages protocol fees for collections in the Joepeg Exchange",
    "version": 1
  },
  "storageLayout": {
    "storage": [
      {
        "astId": 130,
        "contract": "contracts/ProtocolFeeManager.sol:ProtocolFeeManager",
        "label": "_initialized",
        "offset": 0,
        "slot": "0",
        "type": "t_bool"
      },
      {
        "astId": 133,
        "contract": "contracts/ProtocolFeeManager.sol:ProtocolFeeManager",
        "label": "_initializing",
        "offset": 1,
        "slot": "0",
        "type": "t_bool"
      },
      {
        "astId": 540,
        "contract": "contracts/ProtocolFeeManager.sol:ProtocolFeeManager",
        "label": "__gap",
        "offset": 0,
        "slot": "1",
        "type": "t_array(t_uint256)50_storage"
      },
      {
        "astId": 10,
        "contract": "contracts/ProtocolFeeManager.sol:ProtocolFeeManager",
        "label": "_owner",
        "offset": 0,
        "slot": "51",
        "type": "t_address"
      },
      {
        "astId": 122,
        "contract": "contracts/ProtocolFeeManager.sol:ProtocolFeeManager",
        "label": "__gap",
        "offset": 0,
        "slot": "52",
        "type": "t_array(t_uint256)49_storage"
      },
      {
        "astId": 5154,
        "contract": "contracts/ProtocolFeeManager.sol:ProtocolFeeManager",
        "label": "defaultProtocolFee",
        "offset": 0,
        "slot": "101",
        "type": "t_uint256"
      },
      {
        "astId": 5160,
        "contract": "contracts/ProtocolFeeManager.sol:ProtocolFeeManager",
        "label": "collectionProtocolFeeOverrides",
        "offset": 0,
        "slot": "102",
        "type": "t_mapping(t_address,t_struct(ProtocolFeeOverride)5150_storage)"
      }
    ],
    "types": {
      "t_address": {
        "encoding": "inplace",
        "label": "address",
        "numberOfBytes": "20"
      },
      "t_array(t_uint256)49_storage": {
        "base": "t_uint256",
        "encoding": "inplace",
        "label": "uint256[49]",
        "numberOfBytes": "1568"
      },
      "t_array(t_uint256)50_storage": {
        "base": "t_uint256",
        "encoding": "inplace",
        "label": "uint256[50]",
        "numberOfBytes": "1600"
      },
      "t_bool": {
        "encoding": "inplace",
        "label": "bool",
        "numberOfBytes": "1"
      },
      "t_mapping(t_address,t_struct(ProtocolFeeOverride)5150_storage)": {
        "encoding": "mapping",
        "key": "t_address",
        "label": "mapping(address => struct ProtocolFeeManager.ProtocolFeeOverride)",
        "numberOfBytes": "32",
        "value": "t_struct(ProtocolFeeOverride)5150_storage"
      },
      "t_struct(ProtocolFeeOverride)5150_storage": {
        "encoding": "inplace",
        "label": "struct ProtocolFeeManager.ProtocolFeeOverride",
        "members": [
          {
            "astId": 5147,
            "contract": "contracts/ProtocolFeeManager.sol:ProtocolFeeManager",
            "label": "isOverridden",
            "offset": 0,
            "slot": "0",
            "type": "t_bool"
          },
          {
            "astId": 5149,
            "contract": "contracts/ProtocolFeeManager.sol:ProtocolFeeManager",
            "label": "protocolFee",
            "offset": 0,
            "slot": "1",
            "type": "t_uint256"
          }
        ],
        "numberOfBytes": "64"
      },
      "t_uint256": {
        "encoding": "inplace",
        "label": "uint256",
        "numberOfBytes": "32"
      }
    }
  }
}