{
  "address": "0x063c8b1C24F8fE577b2c91B87C62F846eBc5863d",
  "abi": [
    {
      "inputs": [],
      "name": "RoyaltyFeeRegistryV2__InvalidMaxNumRecipients",
      "type": "error"
    },
    {
      "inputs": [],
      "name": "RoyaltyFeeRegistryV2__RoyaltyFeeCannotBeZero",
      "type": "error"
    },
    {
      "inputs": [],
      "name": "RoyaltyFeeRegistryV2__RoyaltyFeeLimitTooHigh",
      "type": "error"
    },
    {
      "inputs": [],
      "name": "RoyaltyFeeRegistryV2__RoyaltyFeeRecipientCannotBeNullAddr",
      "type": "error"
    },
    {
      "inputs": [],
      "name": "RoyaltyFeeRegistryV2__RoyaltyFeeSetterCannotBeNullAddr",
      "type": "error"
    },
    {
      "inputs": [],
      "name": "RoyaltyFeeRegistryV2__RoyaltyFeeTooHigh",
      "type": "error"
    },
    {
      "inputs": [],
      "name": "RoyaltyFeeRegistryV2__TooManyFeeRecipients",
      "type": "error"
    },
    {
      "anonymous": false,
      "inputs": [
        {
          "indexed": false,
          "internalType": "uint256",
          "name": "oldMaxNumRecipients",
          "type": "uint256"
        },
        {
          "indexed": false,
          "internalType": "uint256",
          "name": "newMaxNumRecipients",
          "type": "uint256"
        }
      ],
      "name": "MaxNumRecipientsSet",
      "type": "event"
    },
    {
      "anonymous": false,
      "inputs": [
        {
          "indexed": true,
          "internalType": "address",
          "name": "previousOwner",
          "type": "address"
        },
        {
          "indexed": true,
          "internalType": "address",
          "name": "newOwner",
          "type": "address"
        }
      ],
      "name": "OwnershipTransferred",
      "type": "event"
    },
    {
      "anonymous": false,
      "inputs": [
        {
          "indexed": true,
          "internalType": "address",
          "name": "collection",
          "type": "address"
        },
        {
          "indexed": true,
          "internalType": "address",
          "name": "setter",
          "type": "address"
        },
        {
          "components": [
            {
              "internalType": "address",
              "name": "receiver",
              "type": "address"
            },
            {
              "internalType": "uint256",
              "name": "fee",
              "type": "uint256"
            }
          ],
          "indexed": false,
          "internalType": "struct RoyaltyFeeTypes.FeeInfoPart[]",
          "name": "feeInfoParts",
          "type": "tuple[]"
        }
      ],
      "name": "RoyaltyFeeInfoSet",
      "type": "event"
    },
    {
      "anonymous": false,
      "inputs": [
        {
          "indexed": false,
          "internalType": "uint256",
          "name": "oldRoyaltyFeeLimit",
          "type": "uint256"
        },
        {
          "indexed": false,
          "internalType": "uint256",
          "name": "newRoyaltyFeeLimit",
          "type": "uint256"
        }
      ],
      "name": "RoyaltyFeeLimitSet",
      "type": "event"
    },
    {
      "inputs": [
        {
          "internalType": "uint256",
          "name": "_royaltyFeeLimit",
          "type": "uint256"
        },
        {
          "internalType": "uint8",
          "name": "_maxNumRecipients",
          "type": "uint8"
        }
      ],
      "name": "initialize",
      "outputs": [],
      "stateMutability": "nonpayable",
      "type": "function"
    },
    {
      "inputs": [],
      "name": "maxNumRecipients",
      "outputs": [
        {
          "internalType": "uint8",
          "name": "",
          "type": "uint8"
        }
      ],
      "stateMutability": "view",
      "type": "function"
    },
    {
      "inputs": [],
      "name": "owner",
      "outputs": [
        {
          "internalType": "address",
          "name": "",
          "type": "address"
        }
      ],
      "stateMutability": "view",
      "type": "function"
    },
    {
      "inputs": [],
      "name": "renounceOwnership",
      "outputs": [],
      "stateMutability": "nonpayable",
      "type": "function"
    },
    {
      "inputs": [
        {
          "internalType": "address",
          "name": "_collection",
          "type": "address"
        },
        {
          "internalType": "uint256",
          "name": "_amount",
          "type": "uint256"
        }
      ],
      "name": "royaltyAmountParts",
      "outputs": [
        {
          "components": [
            {
              "internalType": "address",
              "name": "receiver",
              "type": "address"
            },
            {
              "internalType": "uint256",
              "name": "amount",
              "type": "uint256"
            }
          ],
          "internalType": "struct RoyaltyFeeTypes.FeeAmountPart[]",
          "name": "",
          "type": "tuple[]"
        }
      ],
      "stateMutability": "view",
      "type": "function"
    },
    {
      "inputs": [
        {
          "internalType": "address",
          "name": "",
          "type": "address"
        },
        {
          "internalType": "uint256",
          "name": "",
          "type": "uint256"
        }
      ],
      "name": "royaltyFeeInfoPartsCollection",
      "outputs": [
        {
          "internalType": "address",
          "name": "receiver",
          "type": "address"
        },
        {
          "internalType": "uint256",
          "name": "fee",
          "type": "uint256"
        }
      ],
      "stateMutability": "view",
      "type": "function"
    },
    {
      "inputs": [
        {
          "internalType": "address",
          "name": "",
          "type": "address"
        }
      ],
      "name": "royaltyFeeInfoPartsCollectionSetter",
      "outputs": [
        {
          "internalType": "address",
          "name": "",
          "type": "address"
        }
      ],
      "stateMutability": "view",
      "type": "function"
    },
    {
      "inputs": [],
      "name": "royaltyFeeLimit",
      "outputs": [
        {
          "internalType": "uint256",
          "name": "",
          "type": "uint256"
        }
      ],
      "stateMutability": "view",
      "type": "function"
    },
    {
      "inputs": [
        {
          "internalType": "address",
          "name": "newOwner",
          "type": "address"
        }
      ],
      "name": "transferOwnership",
      "outputs": [],
      "stateMutability": "nonpayable",
      "type": "function"
    },
    {
      "inputs": [
        {
          "internalType": "uint8",
          "name": "_maxNumRecipients",
          "type": "uint8"
        }
      ],
      "name": "updateMaxNumRecipients",
      "outputs": [],
      "stateMutability": "nonpayable",
      "type": "function"
    },
    {
      "inputs": [
        {
          "internalType": "uint256",
          "name": "_royaltyFeeLimit",
          "type": "uint256"
        }
      ],
      "name": "updateRoyaltyFeeLimit",
      "outputs": [],
      "stateMutability": "nonpayable",
      "type": "function"
    },
    {
      "inputs": [
        {
          "internalType": "address",
          "name": "_collection",
          "type": "address"
        },
        {
          "internalType": "address",
          "name": "_setter",
          "type": "address"
        },
        {
          "components": [
            {
              "internalType": "address",
              "name": "receiver",
              "type": "address"
            },
            {
              "internalType": "uint256",
              "name": "fee",
              "type": "uint256"
            }
          ],
          "internalType": "struct RoyaltyFeeTypes.FeeInfoPart[]",
          "name": "_feeInfoParts",
          "type": "tuple[]"
        }
      ],
      "name": "updateRoyaltyInfoPartsForCollection",
      "outputs": [],
      "stateMutability": "nonpayable",
      "type": "function"
    }
  ],
  "transactionHash": "0xec234de18a0b2c18fb811b27f13e1f7313fe05db6eb7b24cb432ddba5bba2d12",
  "args": [],
  "numDeployments": 1,
  "solcInputHash": "b66ebae1842d3df35bca7053de0fa675",
  "bytecode": "0x608060405234801561001057600080fd5b50610e5a806100206000396000f3fe608060405234801561001057600080fd5b50600436106100b45760003560e01c80638da5cb5b116100715780638da5cb5b14610159578063b9223c9d1461016a578063d0aeb6941461017d578063dd6d3e08146101af578063f2fde38b146101ce578063fbf5e866146101e157600080fd5b80632a943b78146100b95780633c621db0146100ce5780633d11d095146101145780634782604c146101275780634fb7d3f91461013a578063715018a614610151575b600080fd5b6100cc6100c7366004610a9e565b610201565b005b6100f76100dc366004610b94565b6068602052600090815260409020546001600160a01b031681565b6040516001600160a01b0390911681526020015b60405180910390f35b6100cc610122366004610bc7565b610436565b6100cc610135366004610bf3565b61050b565b61014360655481565b60405190815260200161010b565b6100cc610541565b6033546001600160a01b03166100f7565b6100cc610178366004610c0e565b610577565b61019061018b366004610c27565b6105aa565b604080516001600160a01b03909316835260208301919091520161010b565b6066546101bc9060ff1681565b60405160ff909116815260200161010b565b6100cc6101dc366004610b94565b6105f0565b6101f46101ef366004610c27565b610688565b60405161010b9190610c51565b6033546001600160a01b031633146102345760405162461bcd60e51b815260040161022b90610cb1565b60405180910390fd5b805160665460ff1681111561025b5760405162f1a97f60e11b815260040160405180910390fd5b6001600160a01b0383166102825760405163f9afc7a360e01b815260040160405180910390fd5b6001600160a01b03841660009081526067602052604081206102a3916109cc565b6001600160a01b038416600090815260676020526040812090805b838110156103a55760008582815181106102da576102da610ce6565b6020026020010151905060006001600160a01b031681600001516001600160a01b0316141561031c576040516326790dbd60e01b815260040160405180910390fd5b602081015161033e57604051633364c36360e01b815260040160405180910390fd5b602081015161034d9084610d12565b8454600180820187556000878152602090819020855160029094020180546001600160a01b0319166001600160a01b03909416939093178355939093015192019190915591508061039d81610d2a565b9150506102be565b506065548111156103c95760405163511e8d7d60e01b815260040160405180910390fd5b6001600160a01b038681166000818152606860205260409081902080546001600160a01b0319169389169384179055517f2d1cbbe4385e2fcabbfc2d9cce0e95cc5435a5cad090861684ef9cdd2b36decc90610426908890610d45565b60405180910390a3505050505050565b600054610100900460ff166104515760005460ff1615610455565b303b155b6104b85760405162461bcd60e51b815260206004820152602e60248201527f496e697469616c697a61626c653a20636f6e747261637420697320616c72656160448201526d191e481a5b9a5d1a585b1a5e995960921b606482015260840161022b565b600054610100900460ff161580156104da576000805461ffff19166101011790555b6104e2610816565b6104eb83610845565b6104f4826108b0565b8015610506576000805461ff00191690555b505050565b6033546001600160a01b031633146105355760405162461bcd60e51b815260040161022b90610cb1565b61053e816108b0565b50565b6033546001600160a01b0316331461056b5760405162461bcd60e51b815260040161022b90610cb1565b610575600061094a565b565b6033546001600160a01b031633146105a15760405162461bcd60e51b815260040161022b90610cb1565b61053e81610845565b606760205281600052604060002081815481106105c657600080fd5b6000918252602090912060029091020180546001909101546001600160a01b039091169250905082565b6033546001600160a01b0316331461061a5760405162461bcd60e51b815260040161022b90610cb1565b6001600160a01b03811661067f5760405162461bcd60e51b815260206004820152602660248201527f4f776e61626c653a206e6577206f776e657220697320746865207a65726f206160448201526564647265737360d01b606482015260840161022b565b61053e8161094a565b6001600160a01b0382166000908152606760209081526040808320805482518185028101850190935280835260609493849084015b82821015610705576000848152602090819020604080518082019091526002850290910180546001600160a01b031682526001908101548284015290835290920191016106bd565b50505050905060008151905060008167ffffffffffffffff81111561072c5761072c610a2e565b60405190808252806020026020018201604052801561077157816020015b604080518082019091526000808252602082015281526020019060019003908161074a5790505b50905060005b8281101561080c57600084828151811061079357610793610ce6565b60200260200101519050604051806040016040528082600001516001600160a01b0316815260200161271083602001518a6107ce9190610d98565b6107d89190610db7565b8152508383815181106107ed576107ed610ce6565b602002602001018190525050808061080490610d2a565b915050610777565b5095945050505050565b600054610100900460ff1661083d5760405162461bcd60e51b815260040161022b90610dd9565b61057561099c565b8061251c81111561086957604051631402383b60e21b815260040160405180910390fd5b606580549083905560408051828152602081018590527f27bd9083102b6ab2bda029f107eca1bec551287e7c79cc789ce99380f3bdd57891015b60405180910390a1505050565b60ff8116806108d257604051631246de1560e01b815260040160405180910390fd5b6033546001600160a01b031633146108fc5760405162461bcd60e51b815260040161022b90610cb1565b6066805460ff84811660ff1983168117909355604080519190921680825260208201939093527f398f772e88899131718c56efba53d685c784f35fb053da7dfbea747f1924759b91016108a3565b603380546001600160a01b038381166001600160a01b0319831681179093556040519116919082907f8be0079c531659141344cd1fd0a4f28419497f9722a3daafe3b4186f6b6457e090600090a35050565b600054610100900460ff166109c35760405162461bcd60e51b815260040161022b90610dd9565b6105753361094a565b508054600082556002029060005260206000209081019061053e91905b80821115610a0e5780546001600160a01b0319168155600060018201556002016109e9565b5090565b80356001600160a01b0381168114610a2957600080fd5b919050565b634e487b7160e01b600052604160045260246000fd5b6040805190810167ffffffffffffffff81118282101715610a6757610a67610a2e565b60405290565b604051601f8201601f1916810167ffffffffffffffff81118282101715610a9657610a96610a2e565b604052919050565b600080600060608486031215610ab357600080fd5b610abc84610a12565b92506020610acb818601610a12565b925060408086013567ffffffffffffffff80821115610ae957600080fd5b818801915088601f830112610afd57600080fd5b813581811115610b0f57610b0f610a2e565b610b1d858260051b01610a6d565b818152858101925060069190911b83018501908a821115610b3d57600080fd5b928501925b81841015610b845784848c031215610b5a5760008081fd5b610b62610a44565b610b6b85610a12565b8152848701358782015283529284019291850191610b42565b8096505050505050509250925092565b600060208284031215610ba657600080fd5b610baf82610a12565b9392505050565b803560ff81168114610a2957600080fd5b60008060408385031215610bda57600080fd5b82359150610bea60208401610bb6565b90509250929050565b600060208284031215610c0557600080fd5b610baf82610bb6565b600060208284031215610c2057600080fd5b5035919050565b60008060408385031215610c3a57600080fd5b610c4383610a12565b946020939093013593505050565b602080825282518282018190526000919060409081850190868401855b82811015610ca457610c9484835180516001600160a01b03168252602090810151910152565b9284019290850190600101610c6e565b5091979650505050505050565b6020808252818101527f4f776e61626c653a2063616c6c6572206973206e6f7420746865206f776e6572604082015260600190565b634e487b7160e01b600052603260045260246000fd5b634e487b7160e01b600052601160045260246000fd5b60008219821115610d2557610d25610cfc565b500190565b6000600019821415610d3e57610d3e610cfc565b5060010190565b602080825282518282018190526000919060409081850190868401855b82811015610ca457610d8884835180516001600160a01b03168252602090810151910152565b9284019290850190600101610d62565b6000816000190483118215151615610db257610db2610cfc565b500290565b600082610dd457634e487b7160e01b600052601260045260246000fd5b500490565b6020808252602b908201527f496e697469616c697a61626c653a20636f6e7472616374206973206e6f74206960408201526a6e697469616c697a696e6760a81b60608201526080019056fea2646970667358221220f63decec3024be28f135d754bfd37ce193af9ef79eee355d8d94aabefb0602ac64736f6c634300080a0033",
  "devdoc": {
    "kind": "dev",
    "methods": {
      "initialize(uint256,uint8)": {
        "params": {
          "_maxNumRecipients": "new maximum number of royalty fee recipients allowed",
          "_royaltyFeeLimit": "new royalty fee limit (500 = 5%, 1,000 = 10%)"
        }
      },
      "owner()": {
        "details": "Returns the address of the current owner."
      },
      "renounceOwnership()": {
        "details": "Leaves the contract without owner. It will not be possible to call `onlyOwner` functions anymore. Can only be called by the current owner. NOTE: Renouncing ownership will leave the contract without an owner, thereby removing any functionality that is only available to the owner."
      },
      "royaltyAmountParts(address,uint256)": {
        "params": {
          "_amount": "contains receiver and fee information",
          "_collection": "address of the NFT contract"
        }
      },
      "transferOwnership(address)": {
        "details": "Transfers ownership of the contract to a new account (`newOwner`). Can only be called by the current owner."
      },
      "updateMaxNumRecipients(uint8)": {
        "params": {
          "_maxNumRecipients": "new max number of recipients allowed"
        }
      },
      "updateRoyaltyFeeLimit(uint256)": {
        "params": {
          "_royaltyFeeLimit": "new royalty fee limit (500 = 5%, 1,000 = 10%)"
        }
      },
      "updateRoyaltyInfoPartsForCollection(address,address,(address,uint256)[])": {
        "params": {
          "_collection": "address of the NFT contract",
          "_feeInfoParts": "contains receiver and fee information",
          "_setter": "address that sets the receivers"
        }
      }
    },
    "title": "RoyaltyFeeRegistryV2",
    "version": 1
  },
  "userdoc": {
    "kind": "user",
    "methods": {
      "initialize(uint256,uint8)": {
        "notice": "Initializer"
      },
      "maxNumRecipients()": {
        "notice": "Max number of royalty fee recipients allowed"
      },
      "royaltyAmountParts(address,uint256)": {
        "notice": "Get royalty info for collection"
      },
      "royaltyFeeInfoPartsCollection(address,uint256)": {
        "notice": "Stores royalty fee information for collections"
      },
      "royaltyFeeInfoPartsCollectionSetter(address)": {
        "notice": "Stores setter address for collections whose royalty fee information are overridden"
      },
      "royaltyFeeLimit()": {
        "notice": "Max royalty fee bp allowed (10,000 = 100%)"
      },
      "updateMaxNumRecipients(uint8)": {
        "notice": "Update `maxNumRecipients`"
      },
      "updateRoyaltyFeeLimit(uint256)": {
        "notice": "Update royalty fee limit"
      },
      "updateRoyaltyInfoPartsForCollection(address,address,(address,uint256)[])": {
        "notice": "Update royalty info for collection"
      }
    },
    "notice": "It is a royalty fee registry for the Joepeg exchange and auction house.",
    "version": 1
  },
  "storageLayout": {
    "storage": [
      {
        "astId": 702,
        "contract": "contracts/RoyaltyFeeRegistryV2.sol:RoyaltyFeeRegistryV2",
        "label": "_initialized",
        "offset": 0,
        "slot": "0",
        "type": "t_bool"
      },
      {
        "astId": 705,
        "contract": "contracts/RoyaltyFeeRegistryV2.sol:RoyaltyFeeRegistryV2",
        "label": "_initializing",
        "offset": 1,
        "slot": "0",
        "type": "t_bool"
      },
      {
        "astId": 1223,
        "contract": "contracts/RoyaltyFeeRegistryV2.sol:RoyaltyFeeRegistryV2",
        "label": "__gap",
        "offset": 0,
        "slot": "1",
        "type": "t_array(t_uint256)50_storage"
      },
      {
        "astId": 582,
        "contract": "contracts/RoyaltyFeeRegistryV2.sol:RoyaltyFeeRegistryV2",
        "label": "_owner",
        "offset": 0,
        "slot": "51",
        "type": "t_address"
      },
      {
        "astId": 694,
        "contract": "contracts/RoyaltyFeeRegistryV2.sol:RoyaltyFeeRegistryV2",
        "label": "__gap",
        "offset": 0,
        "slot": "52",
        "type": "t_array(t_uint256)49_storage"
      },
      {
        "astId": 12348,
        "contract": "contracts/RoyaltyFeeRegistryV2.sol:RoyaltyFeeRegistryV2",
        "label": "royaltyFeeLimit",
        "offset": 0,
        "slot": "101",
        "type": "t_uint256"
      },
      {
        "astId": 12351,
        "contract": "contracts/RoyaltyFeeRegistryV2.sol:RoyaltyFeeRegistryV2",
        "label": "maxNumRecipients",
        "offset": 0,
        "slot": "102",
        "type": "t_uint8"
      },
      {
        "astId": 12358,
        "contract": "contracts/RoyaltyFeeRegistryV2.sol:RoyaltyFeeRegistryV2",
        "label": "royaltyFeeInfoPartsCollection",
        "offset": 0,
        "slot": "103",
        "type": "t_mapping(t_address,t_array(t_struct(FeeInfoPart)14739_storage)dyn_storage)"
      },
      {
        "astId": 12363,
        "contract": "contracts/RoyaltyFeeRegistryV2.sol:RoyaltyFeeRegistryV2",
        "label": "royaltyFeeInfoPartsCollectionSetter",
        "offset": 0,
        "slot": "104",
        "type": "t_mapping(t_address,t_address)"
      }
    ],
    "types": {
      "t_address": {
        "encoding": "inplace",
        "label": "address",
        "numberOfBytes": "20"
      },
      "t_array(t_struct(FeeInfoPart)14739_storage)dyn_storage": {
        "base": "t_struct(FeeInfoPart)14739_storage",
        "encoding": "dynamic_array",
        "label": "struct RoyaltyFeeTypes.FeeInfoPart[]",
        "numberOfBytes": "32"
      },
      "t_array(t_uint256)49_storage": {
        "base": "t_uint256",
        "encoding": "inplace",
        "label": "uint256[49]",
        "numberOfBytes": "1568"
      },
      "t_array(t_uint256)50_storage": {
        "base": "t_uint256",
        "encoding": "inplace",
        "label": "uint256[50]",
        "numberOfBytes": "1600"
      },
      "t_bool": {
        "encoding": "inplace",
        "label": "bool",
        "numberOfBytes": "1"
      },
      "t_mapping(t_address,t_address)": {
        "encoding": "mapping",
        "key": "t_address",
        "label": "mapping(address => address)",
        "numberOfBytes": "32",
        "value": "t_address"
      },
      "t_mapping(t_address,t_array(t_struct(FeeInfoPart)14739_storage)dyn_storage)": {
        "encoding": "mapping",
        "key": "t_address",
        "label": "mapping(address => struct RoyaltyFeeTypes.FeeInfoPart[])",
        "numberOfBytes": "32",
        "value": "t_array(t_struct(FeeInfoPart)14739_storage)dyn_storage"
      },
      "t_struct(FeeInfoPart)14739_storage": {
        "encoding": "inplace",
        "label": "struct RoyaltyFeeTypes.FeeInfoPart",
        "members": [
          {
            "astId": 14736,
            "contract": "contracts/RoyaltyFeeRegistryV2.sol:RoyaltyFeeRegistryV2",
            "label": "receiver",
            "offset": 0,
            "slot": "0",
            "type": "t_address"
          },
          {
            "astId": 14738,
            "contract": "contracts/RoyaltyFeeRegistryV2.sol:RoyaltyFeeRegistryV2",
            "label": "fee",
            "offset": 0,
            "slot": "1",
            "type": "t_uint256"
          }
        ],
        "numberOfBytes": "64"
      },
      "t_uint256": {
        "encoding": "inplace",
        "label": "uint256",
        "numberOfBytes": "32"
      },
      "t_uint8": {
        "encoding": "inplace",
        "label": "uint8",
        "numberOfBytes": "1"
      }
    }
  }
}