{
  "address": "0xc99b4E3599203e526d2eBd8CD64500adefb941dC",
  "abi": [
    {
      "inputs": [],
      "name": "RoyaltyFeeRegistry__RoyaltyFeeLimitTooHigh",
      "type": "error"
    },
    {
      "anonymous": false,
      "inputs": [
        {
          "indexed": false,
          "internalType": "uint256",
          "name": "royaltyFeeLimit",
          "type": "uint256"
        }
      ],
      "name": "NewRoyaltyFeeLimit",
      "type": "event"
    },
    {
      "anonymous": false,
      "inputs": [
        {
          "indexed": true,
          "internalType": "address",
          "name": "previousOwner",
          "type": "address"
        },
        {
          "indexed": true,
          "internalType": "address",
          "name": "newOwner",
          "type": "address"
        }
      ],
      "name": "OwnershipTransferred",
      "type": "event"
    },
    {
      "anonymous": false,
      "inputs": [
        {
          "indexed": true,
          "internalType": "address",
          "name": "collection",
          "type": "address"
        },
        {
          "indexed": true,
          "internalType": "address",
          "name": "setter",
          "type": "address"
        },
        {
          "indexed": true,
          "internalType": "address",
          "name": "receiver",
          "type": "address"
        },
        {
          "indexed": false,
          "internalType": "uint256",
          "name": "fee",
          "type": "uint256"
        }
      ],
      "name": "RoyaltyFeeUpdate",
      "type": "event"
    },
    {
      "inputs": [
        {
          "internalType": "uint256",
          "name": "_royaltyFeeLimit",
          "type": "uint256"
        }
      ],
      "name": "initialize",
      "outputs": [],
      "stateMutability": "nonpayable",
      "type": "function"
    },
    {
      "inputs": [],
      "name": "owner",
      "outputs": [
        {
          "internalType": "address",
          "name": "",
          "type": "address"
        }
      ],
      "stateMutability": "view",
      "type": "function"
    },
    {
      "inputs": [],
      "name": "renounceOwnership",
      "outputs": [],
      "stateMutability": "nonpayable",
      "type": "function"
    },
    {
      "inputs": [
        {
          "internalType": "address",
          "name": "collection",
          "type": "address"
        }
      ],
      "name": "royaltyFeeInfoCollection",
      "outputs": [
        {
          "internalType": "address",
          "name": "",
          "type": "address"
        },
        {
          "internalType": "address",
          "name": "",
          "type": "address"
        },
        {
          "internalType": "uint256",
          "name": "",
          "type": "uint256"
        }
      ],
      "stateMutability": "view",
      "type": "function"
    },
    {
      "inputs": [],
      "name": "royaltyFeeLimit",
      "outputs": [
        {
          "internalType": "uint256",
          "name": "",
          "type": "uint256"
        }
      ],
      "stateMutability": "view",
      "type": "function"
    },
    {
      "inputs": [
        {
          "internalType": "address",
          "name": "collection",
          "type": "address"
        },
        {
          "internalType": "uint256",
          "name": "amount",
          "type": "uint256"
        }
      ],
      "name": "royaltyInfo",
      "outputs": [
        {
          "internalType": "address",
          "name": "",
          "type": "address"
        },
        {
          "internalType": "uint256",
          "name": "",
          "type": "uint256"
        }
      ],
      "stateMutability": "view",
      "type": "function"
    },
    {
      "inputs": [
        {
          "internalType": "address",
          "name": "newOwner",
          "type": "address"
        }
      ],
      "name": "transferOwnership",
      "outputs": [],
      "stateMutability": "nonpayable",
      "type": "function"
    },
    {
      "inputs": [
        {
          "internalType": "uint256",
          "name": "_royaltyFeeLimit",
          "type": "uint256"
        }
      ],
      "name": "updateRoyaltyFeeLimit",
      "outputs": [],
      "stateMutability": "nonpayable",
      "type": "function"
    },
    {
      "inputs": [
        {
          "internalType": "address",
          "name": "collection",
          "type": "address"
        },
        {
          "internalType": "address",
          "name": "setter",
          "type": "address"
        },
        {
          "internalType": "address",
          "name": "receiver",
          "type": "address"
        },
        {
          "internalType": "uint256",
          "name": "fee",
          "type": "uint256"
        }
      ],
      "name": "updateRoyaltyInfoForCollection",
      "outputs": [],
      "stateMutability": "nonpayable",
      "type": "function"
    }
  ],
  "transactionHash": "0x17bcd40e432d852dbad452a394eee101fb8c92ead204eb7100a0a68f504046c0",
  "args": [],
  "numDeployments": 1,
  "solcInputHash": "74ac0471e0eeac02914c4a972d6a0330",
  "bytecode": "0x608060405234801561001057600080fd5b506107fa806100206000396000f3fe608060405234801561001057600080fd5b50600436106100935760003560e01c8063b9223c9d11610066578063b9223c9d1461010b578063bbdf9b681461011e578063e31ef91c14610131578063f2fde38b14610197578063fe4b84df146101aa57600080fd5b80632782d6c7146100985780634fb7d3f9146100cf578063715018a6146100e65780638da5cb5b146100f0575b600080fd5b6100ab6100a63660046106b2565b6101bd565b604080516001600160a01b0390931683526020830191909152015b60405180910390f35b6100d860655481565b6040519081526020016100c6565b6100ee61020b565b005b6033546040516001600160a01b0390911681526020016100c6565b6100ee6101193660046106dc565b61024a565b6100ee61012c366004610667565b6102d4565b61017161013f366004610645565b6001600160a01b0390811660009081526066602052604090208054600182015460029092015490831693919092169190565b604080516001600160a01b039485168152939092166020840152908201526060016100c6565b6100ee6101a5366004610645565b6103f6565b6100ee6101b83660046106dc565b610491565b6001600160a01b038083166000908152606660205260408120600181015460029091015491928392911690612710906101f69086610797565b6102009190610775565b915091509250929050565b6033546001600160a01b0316331461023e5760405162461bcd60e51b8152600401610235906106f5565b60405180910390fd5b610248600061057d565b565b8061251c81111561026e57604051636e0d9f6360e11b815260040160405180910390fd5b6033546001600160a01b031633146102985760405162461bcd60e51b8152600401610235906106f5565b60658290556040518281527f2da7166c72ef3860ef4fb2571105533c40615269a6dbc38ce0b264910df1c2569060200160405180910390a15050565b6033546001600160a01b031633146102fe5760405162461bcd60e51b8152600401610235906106f5565b6065548111156103505760405162461bcd60e51b815260206004820152601e60248201527f52656769737472793a20526f79616c74792066656520746f6f206869676800006044820152606401610235565b604080516060810182526001600160a01b0385811680835285821660208085018281528587018881528b8616600081815260668552899020975188549088166001600160a01b03199182161789559251600189018054919098169316929092179095559351600290950194909455935185815290927fd01984afa6e37420452e575e7d99dd7e632b3ec8ea2adec998475b76ca494d64910160405180910390a450505050565b6033546001600160a01b031633146104205760405162461bcd60e51b8152600401610235906106f5565b6001600160a01b0381166104855760405162461bcd60e51b815260206004820152602660248201527f4f776e61626c653a206e6577206f776e657220697320746865207a65726f206160448201526564647265737360d01b6064820152608401610235565b61048e8161057d565b50565b600054610100900460ff166104ac5760005460ff16156104b0565b303b155b6105135760405162461bcd60e51b815260206004820152602e60248201527f496e697469616c697a61626c653a20636f6e747261637420697320616c72656160448201526d191e481a5b9a5d1a585b1a5e995960921b6064820152608401610235565b600054610100900460ff16158015610535576000805461ffff19166101011790555b8161251c81111561055957604051636e0d9f6360e11b815260040160405180910390fd5b6105616105cf565b5060658290558015610579576000805461ff00191690555b5050565b603380546001600160a01b038381166001600160a01b0319831681179093556040519116919082907f8be0079c531659141344cd1fd0a4f28419497f9722a3daafe3b4186f6b6457e090600090a35050565b600054610100900460ff166105f65760405162461bcd60e51b81526004016102359061072a565b610248600054610100900460ff166106205760405162461bcd60e51b81526004016102359061072a565b6102483361057d565b80356001600160a01b038116811461064057600080fd5b919050565b60006020828403121561065757600080fd5b61066082610629565b9392505050565b6000806000806080858703121561067d57600080fd5b61068685610629565b935061069460208601610629565b92506106a260408601610629565b9396929550929360600135925050565b600080604083850312156106c557600080fd5b6106ce83610629565b946020939093013593505050565b6000602082840312156106ee57600080fd5b5035919050565b6020808252818101527f4f776e61626c653a2063616c6c6572206973206e6f7420746865206f776e6572604082015260600190565b6020808252602b908201527f496e697469616c697a61626c653a20636f6e7472616374206973206e6f74206960408201526a6e697469616c697a696e6760a81b606082015260800190565b60008261079257634e487b7160e01b600052601260045260246000fd5b500490565b60008160001904831182151516156107bf57634e487b7160e01b600052601160045260246000fd5b50029056fea2646970667358221220424ca8366d68a3bdcb6417c07094a3f814a487b09832d7be342b00ab5a6f837164736f6c63430008060033",
  "devdoc": {
    "kind": "dev",
    "methods": {
      "initialize(uint256)": {
        "params": {
          "_royaltyFeeLimit": "new royalty fee limit (500 = 5%, 1,000 = 10%)"
        }
      },
      "owner()": {
        "details": "Returns the address of the current owner."
      },
      "renounceOwnership()": {
        "details": "Leaves the contract without owner. It will not be possible to call `onlyOwner` functions anymore. Can only be called by the current owner. NOTE: Renouncing ownership will leave the contract without an owner, thereby removing any functionality that is only available to the owner."
      },
      "royaltyFeeInfoCollection(address)": {
        "params": {
          "collection": "collection address"
        }
      },
      "royaltyInfo(address,uint256)": {
        "params": {
          "amount": "amount",
          "collection": "collection address"
        },
        "returns": {
          "_0": "receiver address and amount received by royalty recipient"
        }
      },
      "transferOwnership(address)": {
        "details": "Transfers ownership of the contract to a new account (`newOwner`). Can only be called by the current owner."
      },
      "updateRoyaltyFeeLimit(uint256)": {
        "params": {
          "_royaltyFeeLimit": "new royalty fee limit (500 = 5%, 1,000 = 10%)"
        }
      },
      "updateRoyaltyInfoForCollection(address,address,address,uint256)": {
        "params": {
          "collection": "address of the NFT contract",
          "fee": "fee (500 = 5%, 1,000 = 10%)",
          "receiver": "receiver for the royalty fee",
          "setter": "address that sets the receiver"
        }
      }
    },
    "title": "RoyaltyFeeRegistry",
    "version": 1
  },
  "userdoc": {
    "kind": "user",
    "methods": {
      "initialize(uint256)": {
        "notice": "Initializer"
      },
      "royaltyFeeInfoCollection(address)": {
        "notice": "View royalty info for a collection address"
      },
      "royaltyInfo(address,uint256)": {
        "notice": "Calculate royalty info for a collection address and a sale gross amount"
      },
      "updateRoyaltyFeeLimit(uint256)": {
        "notice": "Update royalty info for collection"
      },
      "updateRoyaltyInfoForCollection(address,address,address,uint256)": {
        "notice": "Update royalty info for collection"
      }
    },
    "notice": "It is a royalty fee registry for the Joepeg exchange.",
    "version": 1
  },
  "storageLayout": {
    "storage": [
      {
        "astId": 130,
        "contract": "contracts/RoyaltyFeeRegistry.sol:RoyaltyFeeRegistry",
        "label": "_initialized",
        "offset": 0,
        "slot": "0",
        "type": "t_bool"
      },
      {
        "astId": 133,
        "contract": "contracts/RoyaltyFeeRegistry.sol:RoyaltyFeeRegistry",
        "label": "_initializing",
        "offset": 1,
        "slot": "0",
        "type": "t_bool"
      },
      {
        "astId": 540,
        "contract": "contracts/RoyaltyFeeRegistry.sol:RoyaltyFeeRegistry",
        "label": "__gap",
        "offset": 0,
        "slot": "1",
        "type": "t_array(t_uint256)50_storage"
      },
      {
        "astId": 10,
        "contract": "contracts/RoyaltyFeeRegistry.sol:RoyaltyFeeRegistry",
        "label": "_owner",
        "offset": 0,
        "slot": "51",
        "type": "t_address"
      },
      {
        "astId": 122,
        "contract": "contracts/RoyaltyFeeRegistry.sol:RoyaltyFeeRegistry",
        "label": "__gap",
        "offset": 0,
        "slot": "52",
        "type": "t_array(t_uint256)49_storage"
      },
      {
        "astId": 5452,
        "contract": "contracts/RoyaltyFeeRegistry.sol:RoyaltyFeeRegistry",
        "label": "royaltyFeeLimit",
        "offset": 0,
        "slot": "101",
        "type": "t_uint256"
      },
      {
        "astId": 5457,
        "contract": "contracts/RoyaltyFeeRegistry.sol:RoyaltyFeeRegistry",
        "label": "_royaltyFeeInfoCollection",
        "offset": 0,
        "slot": "102",
        "type": "t_mapping(t_address,t_struct(FeeInfo)5450_storage)"
      }
    ],
    "types": {
      "t_address": {
        "encoding": "inplace",
        "label": "address",
        "numberOfBytes": "20"
      },
      "t_array(t_uint256)49_storage": {
        "base": "t_uint256",
        "encoding": "inplace",
        "label": "uint256[49]",
        "numberOfBytes": "1568"
      },
      "t_array(t_uint256)50_storage": {
        "base": "t_uint256",
        "encoding": "inplace",
        "label": "uint256[50]",
        "numberOfBytes": "1600"
      },
      "t_bool": {
        "encoding": "inplace",
        "label": "bool",
        "numberOfBytes": "1"
      },
      "t_mapping(t_address,t_struct(FeeInfo)5450_storage)": {
        "encoding": "mapping",
        "key": "t_address",
        "label": "mapping(address => struct RoyaltyFeeRegistry.FeeInfo)",
        "numberOfBytes": "32",
        "value": "t_struct(FeeInfo)5450_storage"
      },
      "t_struct(FeeInfo)5450_storage": {
        "encoding": "inplace",
        "label": "struct RoyaltyFeeRegistry.FeeInfo",
        "members": [
          {
            "astId": 5445,
            "contract": "contracts/RoyaltyFeeRegistry.sol:RoyaltyFeeRegistry",
            "label": "setter",
            "offset": 0,
            "slot": "0",
            "type": "t_address"
          },
          {
            "astId": 5447,
            "contract": "contracts/RoyaltyFeeRegistry.sol:RoyaltyFeeRegistry",
            "label": "receiver",
            "offset": 0,
            "slot": "1",
            "type": "t_address"
          },
          {
            "astId": 5449,
            "contract": "contracts/RoyaltyFeeRegistry.sol:RoyaltyFeeRegistry",
            "label": "fee",
            "offset": 0,
            "slot": "2",
            "type": "t_uint256"
          }
        ],
        "numberOfBytes": "96"
      },
      "t_uint256": {
        "encoding": "inplace",
        "label": "uint256",
        "numberOfBytes": "32"
      }
    }
  }
}