{
  "address": "0xf5564E5e8Ee7d6Ef03d700362B7F30b6E9e357A3",
  "abi": [
    {
      "inputs": [
        {
          "internalType": "uint256",
          "name": "_royaltyFeeLimit",
          "type": "uint256"
        }
      ],
      "stateMutability": "nonpayable",
      "type": "constructor"
    },
    {
      "anonymous": false,
      "inputs": [
        {
          "indexed": false,
          "internalType": "uint256",
          "name": "royaltyFeeLimit",
          "type": "uint256"
        }
      ],
      "name": "NewRoyaltyFeeLimit",
      "type": "event"
    },
    {
      "anonymous": false,
      "inputs": [
        {
          "indexed": true,
          "internalType": "address",
          "name": "previousOwner",
          "type": "address"
        },
        {
          "indexed": true,
          "internalType": "address",
          "name": "newOwner",
          "type": "address"
        }
      ],
      "name": "OwnershipTransferred",
      "type": "event"
    },
    {
      "anonymous": false,
      "inputs": [
        {
          "indexed": true,
          "internalType": "address",
          "name": "collection",
          "type": "address"
        },
        {
          "indexed": true,
          "internalType": "address",
          "name": "setter",
          "type": "address"
        },
        {
          "indexed": true,
          "internalType": "address",
          "name": "receiver",
          "type": "address"
        },
        {
          "indexed": false,
          "internalType": "uint256",
          "name": "fee",
          "type": "uint256"
        }
      ],
      "name": "RoyaltyFeeUpdate",
      "type": "event"
    },
    {
      "inputs": [],
      "name": "owner",
      "outputs": [
        {
          "internalType": "address",
          "name": "",
          "type": "address"
        }
      ],
      "stateMutability": "view",
      "type": "function"
    },
    {
      "inputs": [],
      "name": "renounceOwnership",
      "outputs": [],
      "stateMutability": "nonpayable",
      "type": "function"
    },
    {
      "inputs": [
        {
          "internalType": "address",
          "name": "collection",
          "type": "address"
        }
      ],
      "name": "royaltyFeeInfoCollection",
      "outputs": [
        {
          "internalType": "address",
          "name": "",
          "type": "address"
        },
        {
          "internalType": "address",
          "name": "",
          "type": "address"
        },
        {
          "internalType": "uint256",
          "name": "",
          "type": "uint256"
        }
      ],
      "stateMutability": "view",
      "type": "function"
    },
    {
      "inputs": [],
      "name": "royaltyFeeLimit",
      "outputs": [
        {
          "internalType": "uint256",
          "name": "",
          "type": "uint256"
        }
      ],
      "stateMutability": "view",
      "type": "function"
    },
    {
      "inputs": [
        {
          "internalType": "address",
          "name": "collection",
          "type": "address"
        },
        {
          "internalType": "uint256",
          "name": "amount",
          "type": "uint256"
        }
      ],
      "name": "royaltyInfo",
      "outputs": [
        {
          "internalType": "address",
          "name": "",
          "type": "address"
        },
        {
          "internalType": "uint256",
          "name": "",
          "type": "uint256"
        }
      ],
      "stateMutability": "view",
      "type": "function"
    },
    {
      "inputs": [
        {
          "internalType": "address",
          "name": "newOwner",
          "type": "address"
        }
      ],
      "name": "transferOwnership",
      "outputs": [],
      "stateMutability": "nonpayable",
      "type": "function"
    },
    {
      "inputs": [
        {
          "internalType": "uint256",
          "name": "_royaltyFeeLimit",
          "type": "uint256"
        }
      ],
      "name": "updateRoyaltyFeeLimit",
      "outputs": [],
      "stateMutability": "nonpayable",
      "type": "function"
    },
    {
      "inputs": [
        {
          "internalType": "address",
          "name": "collection",
          "type": "address"
        },
        {
          "internalType": "address",
          "name": "setter",
          "type": "address"
        },
        {
          "internalType": "address",
          "name": "receiver",
          "type": "address"
        },
        {
          "internalType": "uint256",
          "name": "fee",
          "type": "uint256"
        }
      ],
      "name": "updateRoyaltyInfoForCollection",
      "outputs": [],
      "stateMutability": "nonpayable",
      "type": "function"
    }
  ],
  "transactionHash": "0x52139aa6f9e6e59c84085ac70fea7f49b70142522fedd6450ddb07229e85a237",
  "args": [
    1000
  ],
  "numDeployments": 1,
  "solcInputHash": "2a679294a49545d297218a61526ed34a",
  "bytecode": "0x608060405234801561001057600080fd5b5060405161079438038061079483398101604081905261002f916100f0565b610038336100a0565b61251c8111156100985760405162461bcd60e51b815260206004820152602160248201527f4f776e65723a20526f79616c747920666565206c696d697420746f6f206869676044820152600d60fb1b606482015260840160405180910390fd5b600155610109565b600080546001600160a01b038381166001600160a01b0319831681178455604051919092169283917f8be0079c531659141344cd1fd0a4f28419497f9722a3daafe3b4186f6b6457e09190a35050565b60006020828403121561010257600080fd5b5051919050565b61067c806101186000396000f3fe608060405234801561001057600080fd5b50600436106100885760003560e01c8063b9223c9d1161005b578063b9223c9d14610100578063bbdf9b6814610113578063e31ef91c14610126578063f2fde38b1461018b57600080fd5b80632782d6c71461008d5780634fb7d3f9146100c4578063715018a6146100db5780638da5cb5b146100e5575b600080fd5b6100a061009b36600461057f565b61019e565b604080516001600160a01b0390931683526020830191909152015b60405180910390f35b6100cd60015481565b6040519081526020016100bb565b6100e36101eb565b005b6000546040516001600160a01b0390911681526020016100bb565b6100e361010e3660046105a9565b61022a565b6100e3610121366004610534565b6102eb565b610165610134366004610512565b6001600160a01b03908116600090815260026020819052604090912080546001820154919092015491831693921691565b604080516001600160a01b039485168152939092166020840152908201526060016100bb565b6100e3610199366004610512565b61040b565b6001600160a01b0380831660009081526002602081905260408220600181015491015491928392911690612710906101d69086610619565b6101e091906105f7565b915091509250929050565b6000546001600160a01b0316331461021e5760405162461bcd60e51b8152600401610215906105c2565b60405180910390fd5b61022860006104a6565b565b6000546001600160a01b031633146102545760405162461bcd60e51b8152600401610215906105c2565b61251c8111156102b05760405162461bcd60e51b815260206004820152602160248201527f4f776e65723a20526f79616c747920666565206c696d697420746f6f206869676044820152600d60fb1b6064820152608401610215565b60018190556040518181527f2da7166c72ef3860ef4fb2571105533c40615269a6dbc38ce0b264910df1c2569060200160405180910390a150565b6000546001600160a01b031633146103155760405162461bcd60e51b8152600401610215906105c2565b6001548111156103675760405162461bcd60e51b815260206004820152601e60248201527f52656769737472793a20526f79616c74792066656520746f6f206869676800006044820152606401610215565b604080516060810182526001600160a01b0385811680835285821660208085018281528587018881528b861660008181526002808652908a9020985189549089166001600160a01b0319918216178a55935160018a0180549190991694169390931790965551950194909455935185815290927fd01984afa6e37420452e575e7d99dd7e632b3ec8ea2adec998475b76ca494d64910160405180910390a450505050565b6000546001600160a01b031633146104355760405162461bcd60e51b8152600401610215906105c2565b6001600160a01b03811661049a5760405162461bcd60e51b815260206004820152602660248201527f4f776e61626c653a206e6577206f776e657220697320746865207a65726f206160448201526564647265737360d01b6064820152608401610215565b6104a3816104a6565b50565b600080546001600160a01b038381166001600160a01b0319831681178455604051919092169283917f8be0079c531659141344cd1fd0a4f28419497f9722a3daafe3b4186f6b6457e09190a35050565b80356001600160a01b038116811461050d57600080fd5b919050565b60006020828403121561052457600080fd5b61052d826104f6565b9392505050565b6000806000806080858703121561054a57600080fd5b610553856104f6565b9350610561602086016104f6565b925061056f604086016104f6565b9396929550929360600135925050565b6000806040838503121561059257600080fd5b61059b836104f6565b946020939093013593505050565b6000602082840312156105bb57600080fd5b5035919050565b6020808252818101527f4f776e61626c653a2063616c6c6572206973206e6f7420746865206f776e6572604082015260600190565b60008261061457634e487b7160e01b600052601260045260246000fd5b500490565b600081600019048311821515161561064157634e487b7160e01b600052601160045260246000fd5b50029056fea26469706673582212208ea9a12d812876d9de0fcafef25bfb1bd09b540f3bb15e462b680d40d22aea5864736f6c63430008060033",
  "devdoc": {
    "kind": "dev",
    "methods": {
      "constructor": {
        "params": {
          "_royaltyFeeLimit": "new royalty fee limit (500 = 5%, 1,000 = 10%)"
        }
      },
      "owner()": {
        "details": "Returns the address of the current owner."
      },
      "renounceOwnership()": {
        "details": "Leaves the contract without owner. It will not be possible to call `onlyOwner` functions anymore. Can only be called by the current owner. NOTE: Renouncing ownership will leave the contract without an owner, thereby removing any functionality that is only available to the owner."
      },
      "royaltyFeeInfoCollection(address)": {
        "params": {
          "collection": "collection address"
        }
      },
      "royaltyInfo(address,uint256)": {
        "params": {
          "amount": "amount",
          "collection": "collection address"
        },
        "returns": {
          "_0": "receiver address and amount received by royalty recipient"
        }
      },
      "transferOwnership(address)": {
        "details": "Transfers ownership of the contract to a new account (`newOwner`). Can only be called by the current owner."
      },
      "updateRoyaltyFeeLimit(uint256)": {
        "params": {
          "_royaltyFeeLimit": "new royalty fee limit (500 = 5%, 1,000 = 10%)"
        }
      },
      "updateRoyaltyInfoForCollection(address,address,address,uint256)": {
        "params": {
          "collection": "address of the NFT contract",
          "fee": "fee (500 = 5%, 1,000 = 10%)",
          "receiver": "receiver for the royalty fee",
          "setter": "address that sets the receiver"
        }
      }
    },
    "title": "RoyaltyFeeRegistry",
    "version": 1
  },
  "userdoc": {
    "kind": "user",
    "methods": {
      "constructor": {
        "notice": "Constructor"
      },
      "royaltyFeeInfoCollection(address)": {
        "notice": "View royalty info for a collection address"
      },
      "royaltyInfo(address,uint256)": {
        "notice": "Calculate royalty info for a collection address and a sale gross amount"
      },
      "updateRoyaltyFeeLimit(uint256)": {
        "notice": "Update royalty info for collection"
      },
      "updateRoyaltyInfoForCollection(address,address,address,uint256)": {
        "notice": "Update royalty info for collection"
      }
    },
    "notice": "It is a royalty fee registry for the Joepeg exchange.",
    "version": 1
  },
  "storageLayout": {
    "storage": [
      {
        "astId": 7,
        "contract": "contracts/RoyaltyFeeRegistry.sol:RoyaltyFeeRegistry",
        "label": "_owner",
        "offset": 0,
        "slot": "0",
        "type": "t_address"
      },
      {
        "astId": 4673,
        "contract": "contracts/RoyaltyFeeRegistry.sol:RoyaltyFeeRegistry",
        "label": "royaltyFeeLimit",
        "offset": 0,
        "slot": "1",
        "type": "t_uint256"
      },
      {
        "astId": 4678,
        "contract": "contracts/RoyaltyFeeRegistry.sol:RoyaltyFeeRegistry",
        "label": "_royaltyFeeInfoCollection",
        "offset": 0,
        "slot": "2",
        "type": "t_mapping(t_address,t_struct(FeeInfo)4671_storage)"
      }
    ],
    "types": {
      "t_address": {
        "encoding": "inplace",
        "label": "address",
        "numberOfBytes": "20"
      },
      "t_mapping(t_address,t_struct(FeeInfo)4671_storage)": {
        "encoding": "mapping",
        "key": "t_address",
        "label": "mapping(address => struct RoyaltyFeeRegistry.FeeInfo)",
        "numberOfBytes": "32",
        "value": "t_struct(FeeInfo)4671_storage"
      },
      "t_struct(FeeInfo)4671_storage": {
        "encoding": "inplace",
        "label": "struct RoyaltyFeeRegistry.FeeInfo",
        "members": [
          {
            "astId": 4666,
            "contract": "contracts/RoyaltyFeeRegistry.sol:RoyaltyFeeRegistry",
            "label": "setter",
            "offset": 0,
            "slot": "0",
            "type": "t_address"
          },
          {
            "astId": 4668,
            "contract": "contracts/RoyaltyFeeRegistry.sol:RoyaltyFeeRegistry",
            "label": "receiver",
            "offset": 0,
            "slot": "1",
            "type": "t_address"
          },
          {
            "astId": 4670,
            "contract": "contracts/RoyaltyFeeRegistry.sol:RoyaltyFeeRegistry",
            "label": "fee",
            "offset": 0,
            "slot": "2",
            "type": "t_uint256"
          }
        ],
        "numberOfBytes": "96"
      },
      "t_uint256": {
        "encoding": "inplace",
        "label": "uint256",
        "numberOfBytes": "32"
      }
    }
  }
}