{
  "address": "0x7F8923bbBc0d78EBe3B6A985Ff0B3DC99983B3d0",
  "abi": [
    {
      "inputs": [
        {
          "internalType": "address",
          "name": "_royaltyFeeRegistry",
          "type": "address"
        }
      ],
      "stateMutability": "nonpayable",
      "type": "constructor"
    },
    {
      "anonymous": false,
      "inputs": [
        {
          "indexed": true,
          "internalType": "address",
          "name": "previousOwner",
          "type": "address"
        },
        {
          "indexed": true,
          "internalType": "address",
          "name": "newOwner",
          "type": "address"
        }
      ],
      "name": "OwnershipTransferred",
      "type": "event"
    },
    {
      "inputs": [],
      "name": "INTERFACE_ID_ERC2981",
      "outputs": [
        {
          "internalType": "bytes4",
          "name": "",
          "type": "bytes4"
        }
      ],
      "stateMutability": "view",
      "type": "function"
    },
    {
      "inputs": [
        {
          "internalType": "address",
          "name": "collection",
          "type": "address"
        },
        {
          "internalType": "uint256",
          "name": "tokenId",
          "type": "uint256"
        },
        {
          "internalType": "uint256",
          "name": "amount",
          "type": "uint256"
        }
      ],
      "name": "calculateRoyaltyFeeAndGetRecipient",
      "outputs": [
        {
          "internalType": "address",
          "name": "",
          "type": "address"
        },
        {
          "internalType": "uint256",
          "name": "",
          "type": "uint256"
        }
      ],
      "stateMutability": "view",
      "type": "function"
    },
    {
      "inputs": [],
      "name": "owner",
      "outputs": [
        {
          "internalType": "address",
          "name": "",
          "type": "address"
        }
      ],
      "stateMutability": "view",
      "type": "function"
    },
    {
      "inputs": [],
      "name": "renounceOwnership",
      "outputs": [],
      "stateMutability": "nonpayable",
      "type": "function"
    },
    {
      "inputs": [],
      "name": "royaltyFeeRegistry",
      "outputs": [
        {
          "internalType": "contract IRoyaltyFeeRegistry",
          "name": "",
          "type": "address"
        }
      ],
      "stateMutability": "view",
      "type": "function"
    },
    {
      "inputs": [
        {
          "internalType": "address",
          "name": "newOwner",
          "type": "address"
        }
      ],
      "name": "transferOwnership",
      "outputs": [],
      "stateMutability": "nonpayable",
      "type": "function"
    }
  ],
  "transactionHash": "0xff9ed68293d36d38704000540b0cdeacf16f67ab7dc3e48aa2c34aa76cdb4b5c",
  "args": [
    "0xd5888605FFab7A0f522f1A6Cd57FC35F5d5a7F00"
  ],
  "numDeployments": 1,
  "solcInputHash": "d1f2df6fff78a7d04e1d58a9a2e894c9",
  "bytecode": "0x60a060405234801561001057600080fd5b5060405161067238038061067283398101604081905261002f9161009d565b6100383361004d565b60601b6001600160601b0319166080526100cd565b600080546001600160a01b038381166001600160a01b0319831681178455604051919092169283917f8be0079c531659141344cd1fd0a4f28419497f9722a3daafe3b4186f6b6457e09190a35050565b6000602082840312156100af57600080fd5b81516001600160a01b03811681146100c657600080fd5b9392505050565b60805160601c6105816100f16000396000818160c7015261029301526105816000f3fe608060405234801561001057600080fd5b50600436106100625760003560e01c8063715018a6146100675780638da5cb5b14610071578063b060dd861461009b578063c16f5156146100c2578063f2fde38b146100e9578063f4f635fa146100fc575b600080fd5b61006f61012e565b005b6000546001600160a01b03165b6040516001600160a01b0390911681526020015b60405180910390f35b6100a963152a902d60e11b81565b6040516001600160e01b03199091168152602001610092565b61007e7f000000000000000000000000000000000000000000000000000000000000000081565b61006f6100f736600461048d565b610199565b61010f61010a3660046104df565b610264565b604080516001600160a01b039093168352602083019190915201610092565b6000546001600160a01b0316331461018d5760405162461bcd60e51b815260206004820181905260248201527f4f776e61626c653a2063616c6c6572206973206e6f7420746865206f776e657260448201526064015b60405180910390fd5b610197600061043d565b565b6000546001600160a01b031633146101f35760405162461bcd60e51b815260206004820181905260248201527f4f776e61626c653a2063616c6c6572206973206e6f7420746865206f776e65726044820152606401610184565b6001600160a01b0381166102585760405162461bcd60e51b815260206004820152602660248201527f4f776e61626c653a206e6577206f776e657220697320746865207a65726f206160448201526564647265737360d01b6064820152608401610184565b6102618161043d565b50565b604051632782d6c760e01b81526001600160a01b038481166004830152602482018390526000918291829182917f00000000000000000000000000000000000000000000000000000000000000001690632782d6c790604401604080518083038186803b1580156102d457600080fd5b505afa1580156102e8573d6000803e3d6000fd5b505050506040513d601f19601f8201168201806040525081019061030c91906104b1565b90925090506001600160a01b0382161580610325575080155b15610431576040516301ffc9a760e01b815263152a902d60e11b60048201526001600160a01b038816906301ffc9a79060240160206040518083038186803b15801561037057600080fd5b505afa158015610384573d6000803e3d6000fd5b505050506040513d601f19601f820116820180604052508101906103a89190610514565b156104315760405163152a902d60e11b815260048101879052602481018690526001600160a01b03881690632a55205a90604401604080518083038186803b1580156103f357600080fd5b505afa158015610407573d6000803e3d6000fd5b505050506040513d601f19601f8201168201806040525081019061042b91906104b1565b90925090505b90969095509350505050565b600080546001600160a01b038381166001600160a01b0319831681178455604051919092169283917f8be0079c531659141344cd1fd0a4f28419497f9722a3daafe3b4186f6b6457e09190a35050565b60006020828403121561049f57600080fd5b81356104aa81610536565b9392505050565b600080604083850312156104c457600080fd5b82516104cf81610536565b6020939093015192949293505050565b6000806000606084860312156104f457600080fd5b83356104ff81610536565b95602085013595506040909401359392505050565b60006020828403121561052657600080fd5b815180151581146104aa57600080fd5b6001600160a01b038116811461026157600080fdfea2646970667358221220cebab44ae981386c06afd4039e73341d47b1f9c82b1e0feebf83967d876b81df64736f6c63430008060033",
  "devdoc": {
    "kind": "dev",
    "methods": {
      "calculateRoyaltyFeeAndGetRecipient(address,uint256,uint256)": {
        "params": {
          "amount": "amount to transfer",
          "collection": "address of the NFT contract",
          "tokenId": "tokenId"
        }
      },
      "constructor": {
        "params": {
          "_royaltyFeeRegistry": "address of the RoyaltyFeeRegistry"
        }
      },
      "owner()": {
        "details": "Returns the address of the current owner."
      },
      "renounceOwnership()": {
        "details": "Leaves the contract without owner. It will not be possible to call `onlyOwner` functions anymore. Can only be called by the current owner. NOTE: Renouncing ownership will leave the contract without an owner, thereby removing any functionality that is only available to the owner."
      },
      "transferOwnership(address)": {
        "details": "Transfers ownership of the contract to a new account (`newOwner`). Can only be called by the current owner."
      }
    },
    "title": "RoyaltyFeeManager",
    "version": 1
  },
  "userdoc": {
    "kind": "user",
    "methods": {
      "calculateRoyaltyFeeAndGetRecipient(address,uint256,uint256)": {
        "notice": "Calculate royalty fee and get recipient"
      },
      "constructor": {
        "notice": "Constructor"
      }
    },
    "notice": "Handles the logic to check and transfer royalty fees (if any).",
    "version": 1
  },
  "storageLayout": {
    "storage": [
      {
        "astId": 7,
        "contract": "contracts/RoyaltyFeeManager.sol:RoyaltyFeeManager",
        "label": "_owner",
        "offset": 0,
        "slot": "0",
        "type": "t_address"
      }
    ],
    "types": {
      "t_address": {
        "encoding": "inplace",
        "label": "address",
        "numberOfBytes": "20"
      }
    }
  }
}