{
  "address": "0xDc6cC7a4413367Dd28f1DbC77E4F531a593844A9",
  "abi": [
    {
      "anonymous": false,
      "inputs": [
        {
          "indexed": true,
          "internalType": "address",
          "name": "previousOwner",
          "type": "address"
        },
        {
          "indexed": true,
          "internalType": "address",
          "name": "newOwner",
          "type": "address"
        }
      ],
      "name": "OwnershipTransferred",
      "type": "event"
    },
    {
      "inputs": [],
      "name": "INTERFACE_ID_ERC1155",
      "outputs": [
        {
          "internalType": "bytes4",
          "name": "",
          "type": "bytes4"
        }
      ],
      "stateMutability": "view",
      "type": "function"
    },
    {
      "inputs": [],
      "name": "INTERFACE_ID_ERC2981",
      "outputs": [
        {
          "internalType": "bytes4",
          "name": "",
          "type": "bytes4"
        }
      ],
      "stateMutability": "view",
      "type": "function"
    },
    {
      "inputs": [],
      "name": "INTERFACE_ID_ERC721",
      "outputs": [
        {
          "internalType": "bytes4",
          "name": "",
          "type": "bytes4"
        }
      ],
      "stateMutability": "view",
      "type": "function"
    },
    {
      "inputs": [
        {
          "internalType": "address",
          "name": "collection",
          "type": "address"
        }
      ],
      "name": "checkForCollectionSetter",
      "outputs": [
        {
          "internalType": "address",
          "name": "",
          "type": "address"
        },
        {
          "internalType": "uint8",
          "name": "",
          "type": "uint8"
        }
      ],
      "stateMutability": "view",
      "type": "function"
    },
    {
      "inputs": [
        {
          "internalType": "address",
          "name": "_royaltyFeeRegistry",
          "type": "address"
        }
      ],
      "name": "initialize",
      "outputs": [],
      "stateMutability": "nonpayable",
      "type": "function"
    },
    {
      "inputs": [],
      "name": "owner",
      "outputs": [
        {
          "internalType": "address",
          "name": "",
          "type": "address"
        }
      ],
      "stateMutability": "view",
      "type": "function"
    },
    {
      "inputs": [],
      "name": "renounceOwnership",
      "outputs": [],
      "stateMutability": "nonpayable",
      "type": "function"
    },
    {
      "inputs": [],
      "name": "royaltyFeeRegistry",
      "outputs": [
        {
          "internalType": "address",
          "name": "",
          "type": "address"
        }
      ],
      "stateMutability": "view",
      "type": "function"
    },
    {
      "inputs": [
        {
          "internalType": "address",
          "name": "newOwner",
          "type": "address"
        }
      ],
      "name": "transferOwnership",
      "outputs": [],
      "stateMutability": "nonpayable",
      "type": "function"
    },
    {
      "inputs": [
        {
          "internalType": "address",
          "name": "_owner",
          "type": "address"
        }
      ],
      "name": "updateOwnerOfRoyaltyFeeRegistry",
      "outputs": [],
      "stateMutability": "nonpayable",
      "type": "function"
    },
    {
      "inputs": [
        {
          "internalType": "uint256",
          "name": "_royaltyFeeLimit",
          "type": "uint256"
        }
      ],
      "name": "updateRoyaltyFeeLimit",
      "outputs": [],
      "stateMutability": "nonpayable",
      "type": "function"
    },
    {
      "inputs": [
        {
          "internalType": "address",
          "name": "collection",
          "type": "address"
        },
        {
          "internalType": "address",
          "name": "setter",
          "type": "address"
        },
        {
          "internalType": "address",
          "name": "receiver",
          "type": "address"
        },
        {
          "internalType": "uint256",
          "name": "fee",
          "type": "uint256"
        }
      ],
      "name": "updateRoyaltyInfoForCollection",
      "outputs": [],
      "stateMutability": "nonpayable",
      "type": "function"
    },
    {
      "inputs": [
        {
          "internalType": "address",
          "name": "collection",
          "type": "address"
        },
        {
          "internalType": "address",
          "name": "setter",
          "type": "address"
        },
        {
          "internalType": "address",
          "name": "receiver",
          "type": "address"
        },
        {
          "internalType": "uint256",
          "name": "fee",
          "type": "uint256"
        }
      ],
      "name": "updateRoyaltyInfoForCollectionIfAdmin",
      "outputs": [],
      "stateMutability": "nonpayable",
      "type": "function"
    },
    {
      "inputs": [
        {
          "internalType": "address",
          "name": "collection",
          "type": "address"
        },
        {
          "internalType": "address",
          "name": "setter",
          "type": "address"
        },
        {
          "internalType": "address",
          "name": "receiver",
          "type": "address"
        },
        {
          "internalType": "uint256",
          "name": "fee",
          "type": "uint256"
        }
      ],
      "name": "updateRoyaltyInfoForCollectionIfOwner",
      "outputs": [],
      "stateMutability": "nonpayable",
      "type": "function"
    },
    {
      "inputs": [
        {
          "internalType": "address",
          "name": "collection",
          "type": "address"
        },
        {
          "internalType": "address",
          "name": "setter",
          "type": "address"
        },
        {
          "internalType": "address",
          "name": "receiver",
          "type": "address"
        },
        {
          "internalType": "uint256",
          "name": "fee",
          "type": "uint256"
        }
      ],
      "name": "updateRoyaltyInfoForCollectionIfSetter",
      "outputs": [],
      "stateMutability": "nonpayable",
      "type": "function"
    }
  ],
  "transactionHash": "0xabef555bcd6cb02c32a33691326eca9dd41c6512f6baad1743da4286ec1b9652",
  "args": [],
  "numDeployments": 1,
  "solcInputHash": "74ac0471e0eeac02914c4a972d6a0330",
  "bytecode": "0x608060405234801561001057600080fd5b50611119806100206000396000f3fe608060405234801561001057600080fd5b50600436106100f55760003560e01c8063b9223c9d11610097578063c4d66de811610066578063c4d66de8146101db578063c54e5497146101ee578063e72ba45614610222578063f2fde38b1461023557600080fd5b8063b9223c9d14610194578063bbdf9b68146101a7578063bc6bc0cd146101ba578063c16f5156146101c857600080fd5b8063715018a6116100d3578063715018a6146101465780638da5cb5b1461014e578063ab01667014610173578063b060dd861461018657600080fd5b8063275da5ef146100fa57806333bf61561461010f5780633755fa8014610133575b600080fd5b61010d610108366004610f6a565b610248565b005b61011d636cdb3d1360e11b81565b60405161012a9190611039565b60405180910390f35b61010d610141366004610f6a565b61039e565b61010d610548565b6033546001600160a01b03165b6040516001600160a01b03909116815260200161012a565b61010d610181366004610f6a565b61057e565b61011d63152a902d60e11b81565b61010d6101a2366004611020565b610716565b61010d6101b5366004610f6a565b6107a2565b61011d6380ac58cd60e01b81565b60655461015b906001600160a01b031681565b61010d6101e9366004610f29565b610848565b6102016101fc366004610f29565b610925565b604080516001600160a01b03909316835260ff90911660208301520161012a565b61010d610230366004610f29565b610b5e565b61010d610243366004610f29565b610bba565b6065546040516338c7be4760e21b81526001600160a01b038681166004830152600092169063e31ef91c9060240160606040518083038186803b15801561028e57600080fd5b505afa1580156102a2573d6000803e3d6000fd5b505050506040513d601f19601f820116820180604052508101906102c69190610fbb565b5090915050336001600160a01b038216146103215760405162461bcd60e51b815260206004820152601660248201527529b2ba3a32b91d102737ba103a34329039b2ba3a32b960511b60448201526064015b60405180910390fd5b60655460405163177bf36d60e31b81526001600160a01b03878116600483015286811660248301528581166044830152606482018590529091169063bbdf9b6890608401600060405180830381600087803b15801561037f57600080fd5b505af1158015610393573d6000803e3d6000fd5b505050505050505050565b6040516301ffc9a760e01b81526001600160a01b038516906301ffc9a7906103d19063152a902d60e11b90600401611039565b60206040518083038186803b1580156103e957600080fd5b505afa1580156103fd573d6000803e3d6000fd5b505050506040513d601f19601f820116820180604052508101906104219190610ffe565b1561046e5760405162461bcd60e51b815260206004820152601a60248201527f4f776e65723a204d757374206e6f7420626520455243323938310000000000006044820152606401610318565b836001600160a01b0316638da5cb5b6040518163ffffffff1660e01b815260040160206040518083038186803b1580156104a757600080fd5b505afa1580156104bb573d6000803e3d6000fd5b505050506040513d601f19601f820116820180604052508101906104df9190610f4d565b6001600160a01b0316336001600160a01b0316146105365760405162461bcd60e51b815260206004820152601460248201527327bbb732b91d102737ba103a34329037bbb732b960611b6044820152606401610318565b61054284848484610c55565b50505050565b6033546001600160a01b031633146105725760405162461bcd60e51b81526004016103189061104e565b61057c6000610e7d565b565b6040516301ffc9a760e01b81526001600160a01b038516906301ffc9a7906105b19063152a902d60e11b90600401611039565b60206040518083038186803b1580156105c957600080fd5b505afa1580156105dd573d6000803e3d6000fd5b505050506040513d601f19601f820116820180604052508101906106019190610ffe565b1561064e5760405162461bcd60e51b815260206004820152601a60248201527f41646d696e3a204d757374206e6f7420626520455243323938310000000000006044820152606401610318565b836001600160a01b031663f851a4406040518163ffffffff1660e01b815260040160206040518083038186803b15801561068757600080fd5b505afa15801561069b573d6000803e3d6000fd5b505050506040513d601f19601f820116820180604052508101906106bf9190610f4d565b6001600160a01b0316336001600160a01b0316146105365760405162461bcd60e51b815260206004820152601460248201527320b236b4b71d102737ba103a34329030b236b4b760611b6044820152606401610318565b6033546001600160a01b031633146107405760405162461bcd60e51b81526004016103189061104e565b60655460405163b9223c9d60e01b8152600481018390526001600160a01b039091169063b9223c9d906024015b600060405180830381600087803b15801561078757600080fd5b505af115801561079b573d6000803e3d6000fd5b5050505050565b6033546001600160a01b031633146107cc5760405162461bcd60e51b81526004016103189061104e565b60655460405163177bf36d60e31b81526001600160a01b03868116600483015285811660248301528481166044830152606482018490529091169063bbdf9b6890608401600060405180830381600087803b15801561082a57600080fd5b505af115801561083e573d6000803e3d6000fd5b5050505050505050565b600054610100900460ff166108635760005460ff1615610867565b303b155b6108ca5760405162461bcd60e51b815260206004820152602e60248201527f496e697469616c697a61626c653a20636f6e747261637420697320616c72656160448201526d191e481a5b9a5d1a585b1a5e995960921b6064820152608401610318565b600054610100900460ff161580156108ec576000805461ffff19166101011790555b6108f4610ecf565b606580546001600160a01b0319166001600160a01b0384161790558015610921576000805461ff00191690555b5050565b6065546040516338c7be4760e21b81526001600160a01b038381166004830152600092839283929091169063e31ef91c9060240160606040518083038186803b15801561097157600080fd5b505afa158015610985573d6000803e3d6000fd5b505050506040513d601f19601f820116820180604052508101906109a99190610fbb565b50909150506001600160a01b038116156109c7579360009350915050565b6040516301ffc9a760e01b81526001600160a01b038516906301ffc9a7906109fa9063152a902d60e11b90600401611039565b60206040518083038186803b158015610a1257600080fd5b505afa925050508015610a42575060408051601f3d908101601f19168201909252610a3f91810190610ffe565b60015b610a4b57610a61565b8015610a5f57506000946001945092505050565b505b836001600160a01b0316638da5cb5b6040518163ffffffff1660e01b815260040160206040518083038186803b158015610a9a57600080fd5b505afa925050508015610aca575060408051601f3d908101601f19168201909252610ac791810190610f4d565b60015b610b5357836001600160a01b031663f851a4406040518163ffffffff1660e01b815260040160206040518083038186803b158015610b0757600080fd5b505afa925050508015610b37575060408051601f3d908101601f19168201909252610b3491810190610f4d565b60015b610b48575060009360049350915050565b946003945092505050565b946002945092505050565b6033546001600160a01b03163314610b885760405162461bcd60e51b81526004016103189061104e565b60655460405163f2fde38b60e01b81526001600160a01b0383811660048301529091169063f2fde38b9060240161076d565b6033546001600160a01b03163314610be45760405162461bcd60e51b81526004016103189061104e565b6001600160a01b038116610c495760405162461bcd60e51b815260206004820152602660248201527f4f776e61626c653a206e6577206f776e657220697320746865207a65726f206160448201526564647265737360d01b6064820152608401610318565b610c5281610e7d565b50565b6065546040516338c7be4760e21b81526001600160a01b038681166004830152600092169063e31ef91c9060240160606040518083038186803b158015610c9b57600080fd5b505afa158015610caf573d6000803e3d6000fd5b505050506040513d601f19601f82011682018060405250810190610cd39190610fbb565b50909150506001600160a01b03811615610d255760405162461bcd60e51b815260206004820152601360248201527214d95d1d195c8e88105b1c9958591e481cd95d606a1b6044820152606401610318565b6040516301ffc9a760e01b81526001600160a01b038616906301ffc9a790610d58906380ac58cd60e01b90600401611039565b60206040518083038186803b158015610d7057600080fd5b505afa158015610d84573d6000803e3d6000fd5b505050506040513d601f19601f82011682018060405250810190610da89190610ffe565b80610e3157506040516301ffc9a760e01b81526001600160a01b038616906301ffc9a790610de190636cdb3d1360e11b90600401611039565b60206040518083038186803b158015610df957600080fd5b505afa158015610e0d573d6000803e3d6000fd5b505050506040513d601f19601f82011682018060405250810190610e319190610ffe565b6103215760405162461bcd60e51b815260206004820152601a60248201527f5365747465723a204e6f74204552433732312f455243313135350000000000006044820152606401610318565b603380546001600160a01b038381166001600160a01b0319831681179093556040519116919082907f8be0079c531659141344cd1fd0a4f28419497f9722a3daafe3b4186f6b6457e090600090a35050565b600054610100900460ff16610ef65760405162461bcd60e51b815260040161031890611083565b61057c600054610100900460ff16610f205760405162461bcd60e51b815260040161031890611083565b61057c33610e7d565b600060208284031215610f3b57600080fd5b8135610f46816110ce565b9392505050565b600060208284031215610f5f57600080fd5b8151610f46816110ce565b60008060008060808587031215610f8057600080fd5b8435610f8b816110ce565b93506020850135610f9b816110ce565b92506040850135610fab816110ce565b9396929550929360600135925050565b600080600060608486031215610fd057600080fd5b8351610fdb816110ce565b6020850151909350610fec816110ce565b80925050604084015190509250925092565b60006020828403121561101057600080fd5b81518015158114610f4657600080fd5b60006020828403121561103257600080fd5b5035919050565b6001600160e01b031991909116815260200190565b6020808252818101527f4f776e61626c653a2063616c6c6572206973206e6f7420746865206f776e6572604082015260600190565b6020808252602b908201527f496e697469616c697a61626c653a20636f6e7472616374206973206e6f74206960408201526a6e697469616c697a696e6760a81b606082015260800190565b6001600160a01b0381168114610c5257600080fdfea26469706673582212200872a3c494e1e275c89019076e7c26eddcf30ba3246f67ee33a38f04fce1c90c64736f6c63430008060033",
  "devdoc": {
    "kind": "dev",
    "methods": {
      "checkForCollectionSetter(address)": {
        "params": {
          "collection": "collection address"
        },
        "returns": {
          "_0": "(whether there is a setter (address(0 if not)), Position 0: Royalty setter is set in the registry 1: ERC2981 and no setter 2: setter can be set using owner() 3: setter can be set using admin() 4: setter cannot be set, nor support for ERC2981"
        }
      },
      "initialize(address)": {
        "params": {
          "_royaltyFeeRegistry": "address of the royalty fee registry"
        }
      },
      "owner()": {
        "details": "Returns the address of the current owner."
      },
      "renounceOwnership()": {
        "details": "Leaves the contract without owner. It will not be possible to call `onlyOwner` functions anymore. Can only be called by the current owner. NOTE: Renouncing ownership will leave the contract without an owner, thereby removing any functionality that is only available to the owner."
      },
      "transferOwnership(address)": {
        "details": "Transfers ownership of the contract to a new account (`newOwner`). Can only be called by the current owner."
      },
      "updateOwnerOfRoyaltyFeeRegistry(address)": {
        "details": "Can be used for migration of this royalty fee setter contract",
        "params": {
          "_owner": "new owner address"
        }
      },
      "updateRoyaltyFeeLimit(uint256)": {
        "params": {
          "_royaltyFeeLimit": "new royalty fee limit (500 = 5%, 1,000 = 10%)"
        }
      },
      "updateRoyaltyInfoForCollection(address,address,address,uint256)": {
        "details": "Can only be called by contract owner (of this)",
        "params": {
          "collection": "address of the NFT contract",
          "fee": "fee (500 = 5%, 1,000 = 10%)",
          "receiver": "receiver for the royalty fee",
          "setter": "address that sets the receiver"
        }
      },
      "updateRoyaltyInfoForCollectionIfAdmin(address,address,address,uint256)": {
        "details": "Only to be called if there is no setter address",
        "params": {
          "collection": "address of the NFT contract",
          "fee": "fee (500 = 5%, 1,000 = 10%)",
          "receiver": "receiver for the royalty fee",
          "setter": "address that sets the receiver"
        }
      },
      "updateRoyaltyInfoForCollectionIfOwner(address,address,address,uint256)": {
        "details": "Only to be called if there is no setter address",
        "params": {
          "collection": "address of the NFT contract",
          "fee": "fee (500 = 5%, 1,000 = 10%)",
          "receiver": "receiver for the royalty fee",
          "setter": "address that sets the receiver"
        }
      },
      "updateRoyaltyInfoForCollectionIfSetter(address,address,address,uint256)": {
        "details": "Only to be called if there msg.sender is the setter",
        "params": {
          "collection": "address of the NFT contract",
          "fee": "fee (500 = 5%, 1,000 = 10%)",
          "receiver": "receiver for the royalty fee",
          "setter": "address that sets the receiver"
        }
      }
    },
    "title": "RoyaltyFeeSetter",
    "version": 1
  },
  "userdoc": {
    "kind": "user",
    "methods": {
      "checkForCollectionSetter(address)": {
        "notice": "Check royalty info for collection"
      },
      "initialize(address)": {
        "notice": "Initializer"
      },
      "updateOwnerOfRoyaltyFeeRegistry(address)": {
        "notice": "Update owner of royalty fee registry"
      },
      "updateRoyaltyFeeLimit(uint256)": {
        "notice": "Update royalty info for collection"
      },
      "updateRoyaltyInfoForCollection(address,address,address,uint256)": {
        "notice": "Update royalty info for collection"
      },
      "updateRoyaltyInfoForCollectionIfAdmin(address,address,address,uint256)": {
        "notice": "Update royalty info for collection if admin"
      },
      "updateRoyaltyInfoForCollectionIfOwner(address,address,address,uint256)": {
        "notice": "Update royalty info for collection if owner"
      },
      "updateRoyaltyInfoForCollectionIfSetter(address,address,address,uint256)": {
        "notice": "Update royalty info for collection"
      }
    },
    "notice": "Used to allow creators to set royalty parameters in the RoyaltyFeeRegistry.",
    "version": 1
  },
  "storageLayout": {
    "storage": [
      {
        "astId": 130,
        "contract": "contracts/RoyaltyFeeSetter.sol:RoyaltyFeeSetter",
        "label": "_initialized",
        "offset": 0,
        "slot": "0",
        "type": "t_bool"
      },
      {
        "astId": 133,
        "contract": "contracts/RoyaltyFeeSetter.sol:RoyaltyFeeSetter",
        "label": "_initializing",
        "offset": 1,
        "slot": "0",
        "type": "t_bool"
      },
      {
        "astId": 540,
        "contract": "contracts/RoyaltyFeeSetter.sol:RoyaltyFeeSetter",
        "label": "__gap",
        "offset": 0,
        "slot": "1",
        "type": "t_array(t_uint256)50_storage"
      },
      {
        "astId": 10,
        "contract": "contracts/RoyaltyFeeSetter.sol:RoyaltyFeeSetter",
        "label": "_owner",
        "offset": 0,
        "slot": "51",
        "type": "t_address"
      },
      {
        "astId": 122,
        "contract": "contracts/RoyaltyFeeSetter.sol:RoyaltyFeeSetter",
        "label": "__gap",
        "offset": 0,
        "slot": "52",
        "type": "t_array(t_uint256)49_storage"
      },
      {
        "astId": 5651,
        "contract": "contracts/RoyaltyFeeSetter.sol:RoyaltyFeeSetter",
        "label": "royaltyFeeRegistry",
        "offset": 0,
        "slot": "101",
        "type": "t_address"
      }
    ],
    "types": {
      "t_address": {
        "encoding": "inplace",
        "label": "address",
        "numberOfBytes": "20"
      },
      "t_array(t_uint256)49_storage": {
        "base": "t_uint256",
        "encoding": "inplace",
        "label": "uint256[49]",
        "numberOfBytes": "1568"
      },
      "t_array(t_uint256)50_storage": {
        "base": "t_uint256",
        "encoding": "inplace",
        "label": "uint256[50]",
        "numberOfBytes": "1600"
      },
      "t_bool": {
        "encoding": "inplace",
        "label": "bool",
        "numberOfBytes": "1"
      },
      "t_uint256": {
        "encoding": "inplace",
        "label": "uint256",
        "numberOfBytes": "32"
      }
    }
  }
}