{
  "address": "0x6f1a816BeBB925a880474Da09DD3d2F239955ABA",
  "abi": [
    {
      "inputs": [
        {
          "internalType": "uint256",
          "name": "_protocolFee",
          "type": "uint256"
        }
      ],
      "stateMutability": "nonpayable",
      "type": "constructor"
    },
    {
      "inputs": [],
      "name": "PROTOCOL_FEE",
      "outputs": [
        {
          "internalType": "uint256",
          "name": "",
          "type": "uint256"
        }
      ],
      "stateMutability": "view",
      "type": "function"
    },
    {
      "inputs": [
        {
          "components": [
            {
              "internalType": "bool",
              "name": "isOrderAsk",
              "type": "bool"
            },
            {
              "internalType": "address",
              "name": "taker",
              "type": "address"
            },
            {
              "internalType": "uint256",
              "name": "price",
              "type": "uint256"
            },
            {
              "internalType": "uint256",
              "name": "tokenId",
              "type": "uint256"
            },
            {
              "internalType": "uint256",
              "name": "minPercentageToAsk",
              "type": "uint256"
            },
            {
              "internalType": "bytes",
              "name": "params",
              "type": "bytes"
            }
          ],
          "internalType": "struct OrderTypes.TakerOrder",
          "name": "takerAsk",
          "type": "tuple"
        },
        {
          "components": [
            {
              "internalType": "bool",
              "name": "isOrderAsk",
              "type": "bool"
            },
            {
              "internalType": "address",
              "name": "signer",
              "type": "address"
            },
            {
              "internalType": "address",
              "name": "collection",
              "type": "address"
            },
            {
              "internalType": "uint256",
              "name": "price",
              "type": "uint256"
            },
            {
              "internalType": "uint256",
              "name": "tokenId",
              "type": "uint256"
            },
            {
              "internalType": "uint256",
              "name": "amount",
              "type": "uint256"
            },
            {
              "internalType": "address",
              "name": "strategy",
              "type": "address"
            },
            {
              "internalType": "address",
              "name": "currency",
              "type": "address"
            },
            {
              "internalType": "uint256",
              "name": "nonce",
              "type": "uint256"
            },
            {
              "internalType": "uint256",
              "name": "startTime",
              "type": "uint256"
            },
            {
              "internalType": "uint256",
              "name": "endTime",
              "type": "uint256"
            },
            {
              "internalType": "uint256",
              "name": "minPercentageToAsk",
              "type": "uint256"
            },
            {
              "internalType": "bytes",
              "name": "params",
              "type": "bytes"
            },
            {
              "internalType": "uint8",
              "name": "v",
              "type": "uint8"
            },
            {
              "internalType": "bytes32",
              "name": "r",
              "type": "bytes32"
            },
            {
              "internalType": "bytes32",
              "name": "s",
              "type": "bytes32"
            }
          ],
          "internalType": "struct OrderTypes.MakerOrder",
          "name": "makerBid",
          "type": "tuple"
        }
      ],
      "name": "canExecuteTakerAsk",
      "outputs": [
        {
          "internalType": "bool",
          "name": "",
          "type": "bool"
        },
        {
          "internalType": "uint256",
          "name": "",
          "type": "uint256"
        },
        {
          "internalType": "uint256",
          "name": "",
          "type": "uint256"
        }
      ],
      "stateMutability": "view",
      "type": "function"
    },
    {
      "inputs": [
        {
          "components": [
            {
              "internalType": "bool",
              "name": "isOrderAsk",
              "type": "bool"
            },
            {
              "internalType": "address",
              "name": "taker",
              "type": "address"
            },
            {
              "internalType": "uint256",
              "name": "price",
              "type": "uint256"
            },
            {
              "internalType": "uint256",
              "name": "tokenId",
              "type": "uint256"
            },
            {
              "internalType": "uint256",
              "name": "minPercentageToAsk",
              "type": "uint256"
            },
            {
              "internalType": "bytes",
              "name": "params",
              "type": "bytes"
            }
          ],
          "internalType": "struct OrderTypes.TakerOrder",
          "name": "takerBid",
          "type": "tuple"
        },
        {
          "components": [
            {
              "internalType": "bool",
              "name": "isOrderAsk",
              "type": "bool"
            },
            {
              "internalType": "address",
              "name": "signer",
              "type": "address"
            },
            {
              "internalType": "address",
              "name": "collection",
              "type": "address"
            },
            {
              "internalType": "uint256",
              "name": "price",
              "type": "uint256"
            },
            {
              "internalType": "uint256",
              "name": "tokenId",
              "type": "uint256"
            },
            {
              "internalType": "uint256",
              "name": "amount",
              "type": "uint256"
            },
            {
              "internalType": "address",
              "name": "strategy",
              "type": "address"
            },
            {
              "internalType": "address",
              "name": "currency",
              "type": "address"
            },
            {
              "internalType": "uint256",
              "name": "nonce",
              "type": "uint256"
            },
            {
              "internalType": "uint256",
              "name": "startTime",
              "type": "uint256"
            },
            {
              "internalType": "uint256",
              "name": "endTime",
              "type": "uint256"
            },
            {
              "internalType": "uint256",
              "name": "minPercentageToAsk",
              "type": "uint256"
            },
            {
              "internalType": "bytes",
              "name": "params",
              "type": "bytes"
            },
            {
              "internalType": "uint8",
              "name": "v",
              "type": "uint8"
            },
            {
              "internalType": "bytes32",
              "name": "r",
              "type": "bytes32"
            },
            {
              "internalType": "bytes32",
              "name": "s",
              "type": "bytes32"
            }
          ],
          "internalType": "struct OrderTypes.MakerOrder",
          "name": "makerAsk",
          "type": "tuple"
        }
      ],
      "name": "canExecuteTakerBid",
      "outputs": [
        {
          "internalType": "bool",
          "name": "",
          "type": "bool"
        },
        {
          "internalType": "uint256",
          "name": "",
          "type": "uint256"
        },
        {
          "internalType": "uint256",
          "name": "",
          "type": "uint256"
        }
      ],
      "stateMutability": "view",
      "type": "function"
    },
    {
      "inputs": [],
      "name": "viewProtocolFee",
      "outputs": [
        {
          "internalType": "uint256",
          "name": "",
          "type": "uint256"
        }
      ],
      "stateMutability": "view",
      "type": "function"
    }
  ],
  "transactionHash": "0x19f1f12cf82f87f9107b8e51c560a6fb16a0279192e226a60c7b99bdb6fa6b91",
  "args": [
    100
  ],
  "numDeployments": 1,
  "solcInputHash": "8286831cf0a50cabdfb612d0db325654",
  "bytecode": "0x60a060405234801561001057600080fd5b5060405161025538038061025583398101604081905261002f91610037565b608052610050565b60006020828403121561004957600080fd5b5051919050565b6080516101e5610070600039600081816056015260bd01526101e56000f3fe608060405234801561001057600080fd5b506004361061004c5760003560e01c80630b4501fd14610051578063865781ca1461008b5780639dd1cda6146100bb578063ad2390ac1461008b575b600080fd5b6100787f000000000000000000000000000000000000000000000000000000000000000081565b6040519081526020015b60405180910390f35b61009e61009936600461013b565b6100e1565b604080519315158452602084019290925290820152606001610082565b7f0000000000000000000000000000000000000000000000000000000000000000610078565b600080600084604001358460600135148015610104575084606001358460800135145b801561011557504284610120013511155b801561012657504284610140013510155b92505050608082013560a08301359250925092565b6000806040838503121561014e57600080fd5b823567ffffffffffffffff8082111561016657600080fd5b9084019060c0828703121561017a57600080fd5b9092506020840135908082111561019057600080fd5b50830161020081860312156101a457600080fd5b80915050925092905056fea26469706673582212207fff74c1ddf05413839218572ceb5d3cabeadc7e7b619a894ddce05daa61e8d764736f6c63430008060033",
  "devdoc": {
    "kind": "dev",
    "methods": {
      "canExecuteTakerAsk((bool,address,uint256,uint256,uint256,bytes),(bool,address,address,uint256,uint256,uint256,address,address,uint256,uint256,uint256,uint256,bytes,uint8,bytes32,bytes32))": {
        "params": {
          "makerBid": "maker bid order",
          "takerAsk": "taker ask order"
        },
        "returns": {
          "_0": "(whether strategy can be executed, tokenId to execute, amount of tokens to execute)"
        }
      },
      "canExecuteTakerBid((bool,address,uint256,uint256,uint256,bytes),(bool,address,address,uint256,uint256,uint256,address,address,uint256,uint256,uint256,uint256,bytes,uint8,bytes32,bytes32))": {
        "params": {
          "makerAsk": "maker ask order",
          "takerBid": "taker bid order"
        },
        "returns": {
          "_0": "(whether strategy can be executed, tokenId to execute, amount of tokens to execute)"
        }
      },
      "constructor": {
        "params": {
          "_protocolFee": "protocol fee (200 --> 2%, 400 --> 4%)"
        }
      },
      "viewProtocolFee()": {
        "returns": {
          "_0": "protocol fee"
        }
      }
    },
    "title": "StrategyStandardSaleForFixedPrice",
    "version": 1
  },
  "userdoc": {
    "kind": "user",
    "methods": {
      "canExecuteTakerAsk((bool,address,uint256,uint256,uint256,bytes),(bool,address,address,uint256,uint256,uint256,address,address,uint256,uint256,uint256,uint256,bytes,uint8,bytes32,bytes32))": {
        "notice": "Check whether a taker ask order can be executed against a maker bid"
      },
      "canExecuteTakerBid((bool,address,uint256,uint256,uint256,bytes),(bool,address,address,uint256,uint256,uint256,address,address,uint256,uint256,uint256,uint256,bytes,uint8,bytes32,bytes32))": {
        "notice": "Check whether a taker bid order can be executed against a maker ask"
      },
      "constructor": {
        "notice": "Constructor"
      },
      "viewProtocolFee()": {
        "notice": "Return protocol fee for this strategy"
      }
    },
    "notice": "Strategy that executes an order at a fixed price that can be taken either by a bid or an ask.",
    "version": 1
  },
  "storageLayout": {
    "storage": [],
    "types": null
  }
}