{
  "address": "0x76C9Fe8049366AA9960AbC90Ee1b2F7b136277E5",
  "abi": [
    {
      "inputs": [
        {
          "internalType": "address",
          "name": "_transferManagerERC721",
          "type": "address"
        },
        {
          "internalType": "address",
          "name": "_transferManagerERC1155",
          "type": "address"
        }
      ],
      "stateMutability": "nonpayable",
      "type": "constructor"
    },
    {
      "anonymous": false,
      "inputs": [
        {
          "indexed": true,
          "internalType": "address",
          "name": "collection",
          "type": "address"
        },
        {
          "indexed": true,
          "internalType": "address",
          "name": "transferManager",
          "type": "address"
        }
      ],
      "name": "CollectionTransferManagerAdded",
      "type": "event"
    },
    {
      "anonymous": false,
      "inputs": [
        {
          "indexed": true,
          "internalType": "address",
          "name": "collection",
          "type": "address"
        }
      ],
      "name": "CollectionTransferManagerRemoved",
      "type": "event"
    },
    {
      "anonymous": false,
      "inputs": [
        {
          "indexed": true,
          "internalType": "address",
          "name": "previousOwner",
          "type": "address"
        },
        {
          "indexed": true,
          "internalType": "address",
          "name": "newOwner",
          "type": "address"
        }
      ],
      "name": "OwnershipTransferred",
      "type": "event"
    },
    {
      "inputs": [],
      "name": "INTERFACE_ID_ERC1155",
      "outputs": [
        {
          "internalType": "bytes4",
          "name": "",
          "type": "bytes4"
        }
      ],
      "stateMutability": "view",
      "type": "function"
    },
    {
      "inputs": [],
      "name": "INTERFACE_ID_ERC721",
      "outputs": [
        {
          "internalType": "bytes4",
          "name": "",
          "type": "bytes4"
        }
      ],
      "stateMutability": "view",
      "type": "function"
    },
    {
      "inputs": [],
      "name": "TRANSFER_MANAGER_ERC1155",
      "outputs": [
        {
          "internalType": "address",
          "name": "",
          "type": "address"
        }
      ],
      "stateMutability": "view",
      "type": "function"
    },
    {
      "inputs": [],
      "name": "TRANSFER_MANAGER_ERC721",
      "outputs": [
        {
          "internalType": "address",
          "name": "",
          "type": "address"
        }
      ],
      "stateMutability": "view",
      "type": "function"
    },
    {
      "inputs": [
        {
          "internalType": "address",
          "name": "collection",
          "type": "address"
        },
        {
          "internalType": "address",
          "name": "transferManager",
          "type": "address"
        }
      ],
      "name": "addCollectionTransferManager",
      "outputs": [],
      "stateMutability": "nonpayable",
      "type": "function"
    },
    {
      "inputs": [
        {
          "internalType": "address",
          "name": "collection",
          "type": "address"
        }
      ],
      "name": "checkTransferManagerForToken",
      "outputs": [
        {
          "internalType": "address",
          "name": "transferManager",
          "type": "address"
        }
      ],
      "stateMutability": "view",
      "type": "function"
    },
    {
      "inputs": [],
      "name": "owner",
      "outputs": [
        {
          "internalType": "address",
          "name": "",
          "type": "address"
        }
      ],
      "stateMutability": "view",
      "type": "function"
    },
    {
      "inputs": [
        {
          "internalType": "address",
          "name": "collection",
          "type": "address"
        }
      ],
      "name": "removeCollectionTransferManager",
      "outputs": [],
      "stateMutability": "nonpayable",
      "type": "function"
    },
    {
      "inputs": [],
      "name": "renounceOwnership",
      "outputs": [],
      "stateMutability": "nonpayable",
      "type": "function"
    },
    {
      "inputs": [
        {
          "internalType": "address",
          "name": "",
          "type": "address"
        }
      ],
      "name": "transferManagerSelectorForCollection",
      "outputs": [
        {
          "internalType": "address",
          "name": "",
          "type": "address"
        }
      ],
      "stateMutability": "view",
      "type": "function"
    },
    {
      "inputs": [
        {
          "internalType": "address",
          "name": "newOwner",
          "type": "address"
        }
      ],
      "name": "transferOwnership",
      "outputs": [],
      "stateMutability": "nonpayable",
      "type": "function"
    }
  ],
  "transactionHash": "0x063ac61c3441b52f1b24ae92f7702b410cd32c2ebdc3ea23efe3ed41fcd6b98b",
  "args": [
    "0x73b9a3Cc48790fBca17242Ec9335a684C5FC21e9",
    "0x9C3D932a0B34dA3E702f392cD253ac1B9897AA85"
  ],
  "numDeployments": 1,
  "solcInputHash": "2a679294a49545d297218a61526ed34a",
  "bytecode": "0x60c060405234801561001057600080fd5b5060405161098638038061098683398101604081905261002f916100c2565b61003833610056565b6001600160601b0319606092831b8116608052911b1660a0526100f5565b600080546001600160a01b038381166001600160a01b0319831681178455604051919092169283917f8be0079c531659141344cd1fd0a4f28419497f9722a3daafe3b4186f6b6457e09190a35050565b80516001600160a01b03811681146100bd57600080fd5b919050565b600080604083850312156100d557600080fd5b6100de836100a6565b91506100ec602084016100a6565b90509250929050565b60805160601c60a05160601c61085961012d6000396000818160f401526105e5015260008181610188015261053b01526108596000f3fe608060405234801561001057600080fd5b50600436106100a95760003560e01c8063715018a611610071578063715018a61461016a5780638da5cb5b14610172578063b1357ddd14610183578063bc6bc0cd146101aa578063cc159493146101b8578063f2fde38b146101cb57600080fd5b806325c6a895146100ae57806333bf6156146100c357806338928956146100ef5780634216a7531461012e5780637053fb7914610157575b600080fd5b6100c16100bc366004610799565b6101de565b005b6100d1636cdb3d1360e11b81565b6040516001600160e01b031990911681526020015b60405180910390f35b6101167f000000000000000000000000000000000000000000000000000000000000000081565b6040516001600160a01b0390911681526020016100e6565b61011661013c366004610777565b6001602052600090815260409020546001600160a01b031681565b6100c1610165366004610777565b610359565b6100c161045f565b6000546001600160a01b0316610116565b6101167f000000000000000000000000000000000000000000000000000000000000000081565b6100d16380ac58cd60e01b81565b6101166101c6366004610777565b610495565b6100c16101d9366004610777565b610675565b6000546001600160a01b031633146102115760405162461bcd60e51b8152600401610208906107ee565b60405180910390fd5b6001600160a01b0382166102865760405162461bcd60e51b815260206004820152603660248201527f5472616e7366657253656c6563746f724e46543a20436f6c6c656374696f6e2060448201527563616e6e6f74206265206e756c6c206164647265737360501b6064820152608401610208565b6001600160a01b0381166103025760405162461bcd60e51b815260206004820152603b60248201527f5472616e7366657253656c6563746f724e46543a205472616e736665724d616e60448201527f616765722063616e6e6f74206265206e756c6c206164647265737300000000006064820152608401610208565b6001600160a01b0382811660008181526001602052604080822080546001600160a01b0319169486169485179055517fda166be6ba0ebb71be3f83e7d669765de552ea08978bfe3e3e42d54174111b629190a35050565b6000546001600160a01b031633146103835760405162461bcd60e51b8152600401610208906107ee565b6001600160a01b03818116600090815260016020526040902054166104105760405162461bcd60e51b815260206004820152603760248201527f5472616e7366657253656c6563746f724e46543a20436f6c6c656374696f6e2060448201527f686173206e6f207472616e73666572206d616e616765720000000000000000006064820152608401610208565b6001600160a01b03811660008181526001602052604080822080546001600160a01b0319169055517f8c3bf4babc197f3db0e7ec65aaf23fc0efb0e689436aeea8514c3f01fd97841f9190a250565b6000546001600160a01b031633146104895760405162461bcd60e51b8152600401610208906107ee565b6104936000610710565b565b6001600160a01b038082166000908152600160205260409020541680610670576040516301ffc9a760e01b81526380ac58cd60e01b60048201526001600160a01b038316906301ffc9a79060240160206040518083038186803b1580156104fb57600080fd5b505afa15801561050f573d6000803e3d6000fd5b505050506040513d601f19601f8201168201806040525081019061053391906107cc565b1561055f57507f0000000000000000000000000000000000000000000000000000000000000000919050565b6040516301ffc9a760e01b8152636cdb3d1360e11b60048201526001600160a01b038316906301ffc9a79060240160206040518083038186803b1580156105a557600080fd5b505afa1580156105b9573d6000803e3d6000fd5b505050506040513d601f19601f820116820180604052508101906105dd91906107cc565b1561060957507f0000000000000000000000000000000000000000000000000000000000000000919050565b60405162461bcd60e51b815260206004820152603660248201527f5472616e7366657253656c6563746f724e46543a204e6f204e4654207472616e60448201527573666572206d616e6167657220617661696c61626c6560501b6064820152608401610208565b919050565b6000546001600160a01b0316331461069f5760405162461bcd60e51b8152600401610208906107ee565b6001600160a01b0381166107045760405162461bcd60e51b815260206004820152602660248201527f4f776e61626c653a206e6577206f776e657220697320746865207a65726f206160448201526564647265737360d01b6064820152608401610208565b61070d81610710565b50565b600080546001600160a01b038381166001600160a01b0319831681178455604051919092169283917f8be0079c531659141344cd1fd0a4f28419497f9722a3daafe3b4186f6b6457e09190a35050565b80356001600160a01b038116811461067057600080fd5b60006020828403121561078957600080fd5b61079282610760565b9392505050565b600080604083850312156107ac57600080fd5b6107b583610760565b91506107c360208401610760565b90509250929050565b6000602082840312156107de57600080fd5b8151801515811461079257600080fd5b6020808252818101527f4f776e61626c653a2063616c6c6572206973206e6f7420746865206f776e657260408201526060019056fea2646970667358221220bba402dc1194445d33134fee8373e662bf41af7292083b5d839e8bcec14f68a964736f6c63430008060033",
  "devdoc": {
    "kind": "dev",
    "methods": {
      "addCollectionTransferManager(address,address)": {
        "details": "It is meant to be used for exceptions only (e.g., CryptoKitties)",
        "params": {
          "collection": "collection address to add specific transfer rule"
        }
      },
      "checkTransferManagerForToken(address)": {
        "details": "Support for ERC165 interface is checked AFTER custom implementation",
        "params": {
          "collection": "collection address"
        },
        "returns": {
          "transferManager": "address of transfer manager to use"
        }
      },
      "constructor": {
        "params": {
          "_transferManagerERC1155": "address of the ERC1155 transfer manager",
          "_transferManagerERC721": "address of the ERC721 transfer manager"
        }
      },
      "owner()": {
        "details": "Returns the address of the current owner."
      },
      "removeCollectionTransferManager(address)": {
        "params": {
          "collection": "collection address to remove exception"
        }
      },
      "renounceOwnership()": {
        "details": "Leaves the contract without owner. It will not be possible to call `onlyOwner` functions anymore. Can only be called by the current owner. NOTE: Renouncing ownership will leave the contract without an owner, thereby removing any functionality that is only available to the owner."
      },
      "transferOwnership(address)": {
        "details": "Transfers ownership of the contract to a new account (`newOwner`). Can only be called by the current owner."
      }
    },
    "title": "TransferSelectorNFT",
    "version": 1
  },
  "userdoc": {
    "kind": "user",
    "methods": {
      "addCollectionTransferManager(address,address)": {
        "notice": "Add a transfer manager for a collection"
      },
      "checkTransferManagerForToken(address)": {
        "notice": "Check the transfer manager for a token"
      },
      "constructor": {
        "notice": "Constructor"
      },
      "removeCollectionTransferManager(address)": {
        "notice": "Remove a transfer manager for a collection"
      }
    },
    "notice": "It selects the NFT transfer manager based on a collection address.",
    "version": 1
  },
  "storageLayout": {
    "storage": [
      {
        "astId": 7,
        "contract": "contracts/TransferSelectorNFT.sol:TransferSelectorNFT",
        "label": "_owner",
        "offset": 0,
        "slot": "0",
        "type": "t_address"
      },
      {
        "astId": 5769,
        "contract": "contracts/TransferSelectorNFT.sol:TransferSelectorNFT",
        "label": "transferManagerSelectorForCollection",
        "offset": 0,
        "slot": "1",
        "type": "t_mapping(t_address,t_address)"
      }
    ],
    "types": {
      "t_address": {
        "encoding": "inplace",
        "label": "address",
        "numberOfBytes": "20"
      },
      "t_mapping(t_address,t_address)": {
        "encoding": "mapping",
        "key": "t_address",
        "label": "mapping(address => address)",
        "numberOfBytes": "32",
        "value": "t_address"
      }
    }
  }
}