{
  "address": "0x859A0B8ff8E076Dd69cD152b95914FF446ec159b",
  "abi": [
    {
      "inputs": [
        {
          "internalType": "address",
          "name": "_joepegExchange",
          "type": "address"
        }
      ],
      "stateMutability": "nonpayable",
      "type": "constructor"
    },
    {
      "inputs": [],
      "name": "JOEPEG_EXCHANGE",
      "outputs": [
        {
          "internalType": "address",
          "name": "",
          "type": "address"
        }
      ],
      "stateMutability": "view",
      "type": "function"
    },
    {
      "inputs": [
        {
          "internalType": "address",
          "name": "collection",
          "type": "address"
        },
        {
          "internalType": "address",
          "name": "from",
          "type": "address"
        },
        {
          "internalType": "address",
          "name": "to",
          "type": "address"
        },
        {
          "internalType": "uint256",
          "name": "tokenId",
          "type": "uint256"
        },
        {
          "internalType": "uint256",
          "name": "amount",
          "type": "uint256"
        }
      ],
      "name": "transferNonFungibleToken",
      "outputs": [],
      "stateMutability": "nonpayable",
      "type": "function"
    }
  ],
  "transactionHash": "0xcdd6d5c014bdd143eb36e401a312051fcc6c0cc305793eacbb65922e3f14de99",
  "args": [
    "0x71248d4c6D8264A57881f35374bdb78dFc347180"
  ],
  "numDeployments": 1,
  "solcInputHash": "d1f2df6fff78a7d04e1d58a9a2e894c9",
  "bytecode": "0x60a060405234801561001057600080fd5b506040516102be3803806102be83398101604081905261002f91610044565b60601b6001600160601b031916608052610074565b60006020828403121561005657600080fd5b81516001600160a01b038116811461006d57600080fd5b9392505050565b60805160601c6102276100976000396000818160550152609e01526102276000f3fe608060405234801561001057600080fd5b50600436106100365760003560e01c806333f2fa9f1461003b578063c3090bad14610050575b600080fd5b61004e61004936600461019c565b610093565b005b6100777f000000000000000000000000000000000000000000000000000000000000000081565b6040516001600160a01b03909116815260200160405180910390f35b336001600160a01b037f0000000000000000000000000000000000000000000000000000000000000000161461010f5760405162461bcd60e51b815260206004820152601d60248201527f5472616e736665723a204f6e6c79204a6f6570656745786368616e6765000000604482015260640160405180910390fd5b604051632142170760e11b81526001600160a01b0385811660048301528481166024830152604482018490528616906342842e0e90606401600060405180830381600087803b15801561016157600080fd5b505af1158015610175573d6000803e3d6000fd5b505050505050505050565b80356001600160a01b038116811461019757600080fd5b919050565b600080600080600060a086880312156101b457600080fd5b6101bd86610180565b94506101cb60208701610180565b93506101d960408701610180565b9497939650939460608101359450608001359291505056fea26469706673582212201e4e5cc673bf6fc28cb2cb317503e0b1f4babc94c86976cb7b18f268e45f028a64736f6c63430008060033",
  "devdoc": {
    "kind": "dev",
    "methods": {
      "constructor": {
        "params": {
          "_joepegExchange": "address of the Joepeg exchange"
        }
      },
      "transferNonFungibleToken(address,address,address,uint256,uint256)": {
        "details": "For ERC721, amount is not used",
        "params": {
          "collection": "address of the collection",
          "from": "address of the sender",
          "to": "address of the recipient",
          "tokenId": "tokenId"
        }
      }
    },
    "title": "TransferManagerERC721",
    "version": 1
  },
  "userdoc": {
    "kind": "user",
    "methods": {
      "constructor": {
        "notice": "Constructor"
      },
      "transferNonFungibleToken(address,address,address,uint256,uint256)": {
        "notice": "Transfer ERC721 token"
      }
    },
    "notice": "It allows the transfer of ERC721 tokens.",
    "version": 1
  },
  "storageLayout": {
    "storage": [],
    "types": null
  }
}