{
  "address": "0x8d8bf34799E2Cde0e6b1bD5F6A24b76f85ab4394",
  "abi": [
    {
      "inputs": [
        {
          "internalType": "address",
          "name": "_joepegExchange",
          "type": "address"
        }
      ],
      "stateMutability": "nonpayable",
      "type": "constructor"
    },
    {
      "inputs": [],
      "name": "JOEPEG_EXCHANGE",
      "outputs": [
        {
          "internalType": "address",
          "name": "",
          "type": "address"
        }
      ],
      "stateMutability": "view",
      "type": "function"
    },
    {
      "inputs": [
        {
          "internalType": "address",
          "name": "collection",
          "type": "address"
        },
        {
          "internalType": "address",
          "name": "from",
          "type": "address"
        },
        {
          "internalType": "address",
          "name": "to",
          "type": "address"
        },
        {
          "internalType": "uint256",
          "name": "tokenId",
          "type": "uint256"
        },
        {
          "internalType": "uint256",
          "name": "amount",
          "type": "uint256"
        }
      ],
      "name": "transferNonFungibleToken",
      "outputs": [],
      "stateMutability": "nonpayable",
      "type": "function"
    }
  ],
  "transactionHash": "0xaa2780d9af26307a67354b8c9f869630604cb4bcc14a8a0c1a46f43939c5f023",
  "args": [
    "0x71248d4c6D8264A57881f35374bdb78dFc347180"
  ],
  "numDeployments": 1,
  "solcInputHash": "d1f2df6fff78a7d04e1d58a9a2e894c9",
  "bytecode": "0x60a060405234801561001057600080fd5b506040516102d33803806102d383398101604081905261002f91610044565b60601b6001600160601b031916608052610074565b60006020828403121561005657600080fd5b81516001600160a01b038116811461006d57600080fd5b9392505050565b60805160601c61023c6100976000396000818160550152609e015261023c6000f3fe608060405234801561001057600080fd5b50600436106100365760003560e01c806333f2fa9f1461003b578063c3090bad14610050575b600080fd5b61004e6100493660046101b1565b610093565b005b6100777f000000000000000000000000000000000000000000000000000000000000000081565b6040516001600160a01b03909116815260200160405180910390f35b336001600160a01b037f0000000000000000000000000000000000000000000000000000000000000000161461010f5760405162461bcd60e51b815260206004820152601d60248201527f5472616e736665723a204f6e6c79204a6f6570656745786368616e6765000000604482015260640160405180910390fd5b604051637921219560e11b81526001600160a01b0385811660048301528481166024830152604482018490526064820183905260a06084830152600060a483015286169063f242432a9060c401600060405180830381600087803b15801561017657600080fd5b505af115801561018a573d6000803e3d6000fd5b505050505050505050565b80356001600160a01b03811681146101ac57600080fd5b919050565b600080600080600060a086880312156101c957600080fd5b6101d286610195565b94506101e060208701610195565b93506101ee60408701610195565b9497939650939460608101359450608001359291505056fea26469706673582212208c74e0101dd4273ae519b34c5ea3832d543cacd120ca8b2b677f27860e639caf64736f6c63430008060033",
  "devdoc": {
    "kind": "dev",
    "methods": {
      "constructor": {
        "params": {
          "_joepegExchange": "address of the Joepeg exchange"
        }
      },
      "transferNonFungibleToken(address,address,address,uint256,uint256)": {
        "params": {
          "amount": "amount of tokens (1 and more for ERC1155)",
          "collection": "address of the collection",
          "from": "address of the sender",
          "to": "address of the recipient",
          "tokenId": "tokenId"
        }
      }
    },
    "title": "TransferManagerERC1155",
    "version": 1
  },
  "userdoc": {
    "kind": "user",
    "methods": {
      "constructor": {
        "notice": "Constructor"
      },
      "transferNonFungibleToken(address,address,address,uint256,uint256)": {
        "notice": "Transfer ERC1155 token(s)"
      }
    },
    "notice": "It allows the transfer of ERC1155 tokens.",
    "version": 1
  },
  "storageLayout": {
    "storage": [],
    "types": null
  }
}